{
  "contractName": "Storage",
  "abi": [
    {
      "inputs": [
        {
          "internalType": "string",
          "name": "",
          "type": "string"
        },
        {
          "internalType": "uint256",
          "name": "",
          "type": "uint256"
        }
      ],
      "name": "Contributors",
      "outputs": [
        {
          "internalType": "uint256",
          "name": "amountDonated",
          "type": "uint256"
        },
        {
          "internalType": "string",
          "name": "name",
          "type": "string"
        },
        {
          "internalType": "string",
          "name": "contributorAddress",
          "type": "string"
        }
      ],
      "stateMutability": "view",
      "type": "function"
    },
    {
      "inputs": [
        {
          "internalType": "string",
          "name": "",
          "type": "string"
        },
        {
          "internalType": "uint256",
          "name": "",
          "type": "uint256"
        },
        {
          "internalType": "uint256",
          "name": "",
          "type": "uint256"
        }
      ],
      "name": "Organizers",
      "outputs": [
        {
          "internalType": "string",
          "name": "name",
          "type": "string"
        },
        {
          "internalType": "string",
          "name": "role",
          "type": "string"
        },
        {
          "internalType": "uint256",
          "name": "id",
          "type": "uint256"
        }
      ],
      "stateMutability": "view",
      "type": "function"
    },
    {
      "inputs": [
        {
          "internalType": "string",
          "name": "",
          "type": "string"
        },
        {
          "internalType": "uint256",
          "name": "",
          "type": "uint256"
        }
      ],
      "name": "Requests",
      "outputs": [
        {
          "internalType": "string",
          "name": "title",
          "type": "string"
        },
        {
          "internalType": "string",
          "name": "description",
          "type": "string"
        },
        {
          "internalType": "uint256",
          "name": "id",
          "type": "uint256"
        },
        {
          "internalType": "uint256",
          "name": "amount",
          "type": "uint256"
        },
        {
          "internalType": "uint256",
          "name": "totalOrganizers",
          "type": "uint256"
        },
        {
          "internalType": "uint256",
          "name": "totalContributors",
          "type": "uint256"
        },
        {
          "internalType": "uint256",
          "name": "score",
          "type": "uint256"
        },
        {
          "internalType": "address",
          "name": "creator",
          "type": "address"
        }
      ],
      "stateMutability": "view",
      "type": "function"
    },
    {
      "inputs": [
        {
          "internalType": "string",
          "name": "",
          "type": "string"
        },
        {
          "internalType": "uint256",
          "name": "",
          "type": "uint256"
        },
        {
          "internalType": "address",
          "name": "",
          "type": "address"
        }
      ],
      "name": "isVoted",
      "outputs": [
        {
          "internalType": "bool",
          "name": "",
          "type": "bool"
        }
      ],
      "stateMutability": "view",
      "type": "function"
    },
    {
      "inputs": [
        {
          "internalType": "string",
          "name": "_title",
          "type": "string"
        },
        {
          "internalType": "string",
          "name": "_description",
          "type": "string"
        },
        {
          "internalType": "string",
          "name": "_category",
          "type": "string"
        },
        {
          "internalType": "uint256",
          "name": "_amount",
          "type": "uint256"
        }
      ],
      "name": "createRequest",
      "outputs": [],
      "stateMutability": "nonpayable",
      "type": "function"
    },
    {
      "inputs": [
        {
          "internalType": "string",
          "name": "_name",
          "type": "string"
        },
        {
          "internalType": "string",
          "name": "_role",
          "type": "string"
        },
        {
          "internalType": "string",
          "name": "_category",
          "type": "string"
        },
        {
          "internalType": "uint256",
          "name": "_requestId",
          "type": "uint256"
        },
        {
          "internalType": "uint256",
          "name": "_totalOrganizers",
          "type": "uint256"
        },
        {
          "internalType": "string[23]",
          "name": "_addresses",
          "type": "string[23]"
        }
      ],
      "name": "addOrganzier",
      "outputs": [],
      "stateMutability": "nonpayable",
      "type": "function"
    },
    {
      "inputs": [
        {
          "internalType": "string",
          "name": "_role",
          "type": "string"
        },
        {
          "internalType": "string",
          "name": "_category",
          "type": "string"
        },
        {
          "internalType": "uint256",
          "name": "_requestId",
          "type": "uint256"
        },
        {
          "internalType": "uint256",
          "name": "_organizerId",
          "type": "uint256"
        },
        {
          "internalType": "string[23]",
          "name": "_addresses",
          "type": "string[23]"
        }
      ],
      "name": "editOrganzier",
      "outputs": [],
      "stateMutability": "nonpayable",
      "type": "function"
    },
    {
      "inputs": [
        {
          "internalType": "string",
          "name": "_description",
          "type": "string"
        },
        {
          "internalType": "string",
          "name": "_category",
          "type": "string"
        },
        {
          "internalType": "uint256",
          "name": "_id",
          "type": "uint256"
        },
        {
          "internalType": "uint256",
          "name": "_amount",
          "type": "uint256"
        }
      ],
      "name": "editRequest",
      "outputs": [],
      "stateMutability": "nonpayable",
      "type": "function"
    },
    {
      "inputs": [
        {
          "internalType": "string",
          "name": "_category",
          "type": "string"
        },
        {
          "internalType": "uint256",
          "name": "_requestId",
          "type": "uint256"
        },
        {
          "internalType": "uint256",
          "name": "_score",
          "type": "uint256"
        },
        {
          "internalType": "bool",
          "name": "vote",
          "type": "bool"
        }
      ],
      "name": "voteRequest",
      "outputs": [],
      "stateMutability": "nonpayable",
      "type": "function"
    }
  ],
  "bytecode": "0x608060405234801561001057600080fd5b506143dd806100206000396000f3fe608060405234801561001057600080fd5b50600436106100935760003560e01c8063c5dbf1fe11610066578063c5dbf1fe14610139578063c6ac9f5d1461016b578063cfc1fd6d1461019b578063dd8c58fe146101b7578063f82f7bdd146101d357610093565b806313bd4a941461009857806319c25905146100b45780635c983bee146100d05780639251c1c414610107575b600080fd5b6100b260048036038101906100ad9190613ac3565b6101ef565b005b6100ce60048036038101906100c99190613bc0565b610644565b005b6100ea60048036038101906100e59190613c5f565b6109c9565b6040516100fe989796959493929190613d93565b60405180910390f35b610121600480360381019061011c9190613c5f565b610b64565b60405161013093929190613e1f565b60405180910390f35b610153600480360381019061014e9190613e64565b610cc1565b60405161016293929190613ed3565b60405180910390f35b61018560048036038101906101809190613f44565b610e2b565b6040516101929190613fce565b60405180910390f35b6101b560048036038101906101b09190614015565b610e7d565b005b6101d160048036038101906101cc9190614098565b6112ea565b005b6101ed60048036038101906101e89190614167565b6117c7565b005b6013846040516101ff919061425e565b9081526020016040518091039020600084815260200190815260200160002060070160009054906101000a900473ffffffffffffffffffffffffffffffffffffffff1673ffffffffffffffffffffffffffffffffffffffff163373ffffffffffffffffffffffffffffffffffffffff161461027957600080fd5b6040518060800160405280878152602001868152602001838152602001604051806102e00160405280846000601781106102b6576102b5614275565b5b60200201518152602001846001601781106102d4576102d3614275565b5b60200201518152602001846002601781106102f2576102f1614275565b5b60200201518152602001846003601781106103105761030f614275565b5b602002015181526020018460046017811061032e5761032d614275565b5b602002015181526020018460056017811061034c5761034b614275565b5b602002015181526020018460066017811061036a57610369614275565b5b602002015181526020018460076017811061038857610387614275565b5b60200201518152602001846008601781106103a6576103a5614275565b5b60200201518152602001846009601781106103c4576103c3614275565b5b6020020151815260200184600a601781106103e2576103e1614275565b5b6020020151815260200184600b60178110610400576103ff614275565b5b6020020151815260200184600c6017811061041e5761041d614275565b5b6020020151815260200184600d6017811061043c5761043b614275565b5b6020020151815260200184600e6017811061045a57610459614275565b5b6020020151815260200184600f6017811061047857610477614275565b5b602002015181526020018460106017811061049657610495614275565b5b60200201518152602001846011601781106104b4576104b3614275565b5b60200201518152602001846012601781106104d2576104d1614275565b5b60200201518152602001846013601781106104f0576104ef614275565b5b602002015181526020018460146017811061050e5761050d614275565b5b602002015181526020018460156017811061052c5761052b614275565b5b602002015181526020018460166017811061054a57610549614275565b5b6020020151815250815250601585604051610565919061425e565b90815260200160405180910390206000858152602001908152602001600020600084815260200190815260200160002060008201518160000190805190602001906105b1929190613705565b5060208201518160010190805190602001906105ce929190613705565b50604082015181600201556060820151816003019060176105f092919061378b565b50905050601384604051610604919061425e565b908152602001604051809103902060008481526020019081526020016000206004016000815480929190610637906142d3565b9190505550505050505050565b601383604051610654919061425e565b9081526020016040518091039020600083815260200190815260200160002060070160009054906101000a900473ffffffffffffffffffffffffffffffffffffffff1673ffffffffffffffffffffffffffffffffffffffff163373ffffffffffffffffffffffffffffffffffffffff16146106ce57600080fd5b60006013846040516106e0919061425e565b90815260200160405180910390206000848152602001908152602001600020600001805461070d9061434b565b80601f01602080910402602001604051908101604052809291908181526020018280546107399061434b565b80156107865780601f1061075b57610100808354040283529160200191610786565b820191906000526020600020905b81548152906001019060200180831161076957829003601f168201915b50505050509050600060138560405161079f919061425e565b9081526020016040518091039020600085815260200190815260200160002060040154905060006013866040516107d6919061425e565b90815260200160405180910390206000868152602001908152602001600020600501549050600060138760405161080d919061425e565b908152602001604051809103902060008781526020019081526020016000206006015490506000601388604051610844919061425e565b9081526020016040518091039020600088815260200190815260200160002060070160009054906101000a900473ffffffffffffffffffffffffffffffffffffffff1690506040518061010001604052808681526020018a81526020018881526020018781526020018581526020018481526020018381526020018273ffffffffffffffffffffffffffffffffffffffff168152506013896040516108e9919061425e565b908152602001604051809103902060008981526020019081526020016000206000820151816000019080519060200190610924929190613705565b506020820151816001019080519060200190610941929190613705565b5060408201518160020155606082015181600301556080820151816004015560a0820151816005015560c0820151816006015560e08201518160070160006101000a81548173ffffffffffffffffffffffffffffffffffffffff021916908373ffffffffffffffffffffffffffffffffffffffff160217905550905050505050505050505050565b60138280516020810182018051848252602083016020850120818352809550505050505060205280600052604060002060009150915050806000018054610a0f9061434b565b80601f0160208091040260200160405190810160405280929190818152602001828054610a3b9061434b565b8015610a885780601f10610a5d57610100808354040283529160200191610a88565b820191906000526020600020905b815481529060010190602001808311610a6b57829003601f168201915b505050505090806001018054610a9d9061434b565b80601f0160208091040260200160405190810160405280929190818152602001828054610ac99061434b565b8015610b165780601f10610aeb57610100808354040283529160200191610b16565b820191906000526020600020905b815481529060010190602001808311610af957829003601f168201915b5050505050908060020154908060030154908060040154908060050154908060060154908060070160009054906101000a900473ffffffffffffffffffffffffffffffffffffffff16905088565b60148280516020810182018051848252602083016020850120818352809550505050505060205280600052604060002060009150915050806000015490806001018054610bb09061434b565b80601f0160208091040260200160405190810160405280929190818152602001828054610bdc9061434b565b8015610c295780601f10610bfe57610100808354040283529160200191610c29565b820191906000526020600020905b815481529060010190602001808311610c0c57829003601f168201915b505050505090806002018054610c3e9061434b565b80601f0160208091040260200160405190810160405280929190818152602001828054610c6a9061434b565b8015610cb75780601f10610c8c57610100808354040283529160200191610cb7565b820191906000526020600020905b815481529060010190602001808311610c9a57829003601f168201915b5050505050905083565b6015838051602081018201805184825260208301602085012081835280955050505050506020528160005260406000206020528060005260406000206000925092505050806000018054610d149061434b565b80601f0160208091040260200160405190810160405280929190818152602001828054610d409061434b565b8015610d8d5780601f10610d6257610100808354040283529160200191610d8d565b820191906000526020600020905b815481529060010190602001808311610d7057829003601f168201915b505050505090806001018054610da29061434b565b80601f0160208091040260200160405190810160405280929190818152602001828054610dce9061434b565b8015610e1b5780601f10610df057610100808354040283529160200191610e1b565b820191906000526020600020905b815481529060010190602001808311610dfe57829003601f168201915b5050505050908060020154905083565b601683805160208101820180518482526020830160208501208183528095505050505050602052816000526040600020602052806000526040600020600092509250509054906101000a900460ff1681565b60001515601685604051610e91919061425e565b9081526020016040518091039020600085815260200190815260200160002060003373ffffffffffffffffffffffffffffffffffffffff1673ffffffffffffffffffffffffffffffffffffffff16815260200190815260200160002060009054906101000a900460ff16151514610f0757600080fd5b6000601385604051610f19919061425e565b908152602001604051809103902060008581526020019081526020016000206000018054610f469061434b565b80601f0160208091040260200160405190810160405280929190818152602001828054610f729061434b565b8015610fbf5780601f10610f9457610100808354040283529160200191610fbf565b820191906000526020600020905b815481529060010190602001808311610fa257829003601f168201915b505050505090506000601386604051610fd8919061425e565b9081526020016040518091039020600086815260200190815260200160002060010180546110059061434b565b80601f01602080910402602001604051908101604052809291908181526020018280546110319061434b565b801561107e5780601f106110535761010080835404028352916020019161107e565b820191906000526020600020905b81548152906001019060200180831161106157829003601f168201915b505050505090506000601387604051611097919061425e565b9081526020016040518091039020600087815260200190815260200160002060030154905060006013886040516110ce919061425e565b908152602001604051809103902060008881526020019081526020016000206004015490506000601389604051611105919061425e565b90815260200160405180910390206000898152602001908152602001600020600501549050600060138a60405161113c919061425e565b908152602001604051809103902060008a815260200190815260200160002060070160009054906101000a900473ffffffffffffffffffffffffffffffffffffffff169050861561119a578780611192906142d3565b9850506111a9565b87806111a59061437d565b9850505b6040518061010001604052808781526020018681526020018a81526020018581526020018481526020018381526020018981526020018273ffffffffffffffffffffffffffffffffffffffff1681525060138b604051611209919061425e565b908152602001604051809103902060008b81526020019081526020016000206000820151816000019080519060200190611244929190613705565b506020820151816001019080519060200190611261929190613705565b5060408201518160020155606082015181600301556080820151816004015560a0820151816005015560c0820151816006015560e08201518160070160006101000a81548173ffffffffffffffffffffffffffffffffffffffff021916908373ffffffffffffffffffffffffffffffffffffffff16021790555090505050505050505050505050565b6013846040516112fa919061425e565b9081526020016040518091039020600084815260200190815260200160002060070160009054906101000a900473ffffffffffffffffffffffffffffffffffffffff1673ffffffffffffffffffffffffffffffffffffffff163373ffffffffffffffffffffffffffffffffffffffff161461137457600080fd5b6000601585604051611386919061425e565b90815260200160405180910390206000858152602001908152602001600020600084815260200190815260200160002060000180546113c49061434b565b80601f01602080910402602001604051908101604052809291908181526020018280546113f09061434b565b801561143d5780601f106114125761010080835404028352916020019161143d565b820191906000526020600020905b81548152906001019060200180831161142057829003601f168201915b505050505090506040518060800160405280828152602001878152602001848152602001604051806102e001604052808560006017811061148157611480614275565b5b602002015181526020018560016017811061149f5761149e614275565b5b60200201518152602001856002601781106114bd576114bc614275565b5b60200201518152602001856003601781106114db576114da614275565b5b60200201518152602001856004601781106114f9576114f8614275565b5b602002015181526020018560056017811061151757611516614275565b5b602002015181526020018560066017811061153557611534614275565b5b602002015181526020018560076017811061155357611552614275565b5b602002015181526020018560086017811061157157611570614275565b5b602002015181526020018560096017811061158f5761158e614275565b5b6020020151815260200185600a601781106115ad576115ac614275565b5b6020020151815260200185600b601781106115cb576115ca614275565b5b6020020151815260200185600c601781106115e9576115e8614275565b5b6020020151815260200185600d6017811061160757611606614275565b5b6020020151815260200185600e6017811061162557611624614275565b5b6020020151815260200185600f6017811061164357611642614275565b5b602002015181526020018560106017811061166157611660614275565b5b602002015181526020018560116017811061167f5761167e614275565b5b602002015181526020018560126017811061169d5761169c614275565b5b60200201518152602001856013601781106116bb576116ba614275565b5b60200201518152602001856014601781106116d9576116d8614275565b5b60200201518152602001856015601781106116f7576116f6614275565b5b602002015181526020018560166017811061171557611714614275565b5b6020020151815250815250601586604051611730919061425e565b908152602001604051809103902060008681526020019081526020016000206000858152602001908152602001600020600082015181600001908051906020019061177c929190613705565b506020820151816001019080519060200190611799929190613705565b50604082015181600201556060820151816003019060176117bb92919061378b565b50905050505050505050565b6040518060400160405280600781526020017f6d65646963616c0000000000000000000000000000000000000000000000000081525080519060200120828051906020012014156119695760405180610100016040528085815260200184815260200160005481526020018281526020016000815260200160008152602001600081526020013373ffffffffffffffffffffffffffffffffffffffff16815250601383604051611877919061425e565b908152602001604051809103902060008054815260200190815260200160002060008201518160000190805190602001906118b3929190613705565b5060208201518160010190805190602001906118d0929190613705565b5060408201518160020155606082015181600301556080820151816004015560a0820151816005015560c0820151816006015560e08201518160070160006101000a81548173ffffffffffffffffffffffffffffffffffffffff021916908373ffffffffffffffffffffffffffffffffffffffff16021790555090505060008081548092919061195f906142d3565b91905055506136ff565b6040518060400160405280600881526020017f6d656d6f7269616c0000000000000000000000000000000000000000000000008152508051906020012082805190602001201415611b0d5760405180610100016040528085815260200184815260200160015481526020018281526020016000815260200160008152602001600081526020013373ffffffffffffffffffffffffffffffffffffffff16815250601383604051611a19919061425e565b9081526020016040518091039020600060015481526020019081526020016000206000820151816000019080519060200190611a56929190613705565b506020820151816001019080519060200190611a73929190613705565b5060408201518160020155606082015181600301556080820151816004015560a0820151816005015560c0820151816006015560e08201518160070160006101000a81548173ffffffffffffffffffffffffffffffffffffffff021916908373ffffffffffffffffffffffffffffffffffffffff16021790555090505060016000815480929190611b03906142d3565b91905055506136fe565b6040518060400160405280600981526020017f656d657267656e637900000000000000000000000000000000000000000000008152508051906020012082805190602001201415611cb15760405180610100016040528085815260200184815260200160025481526020018281526020016000815260200160008152602001600081526020013373ffffffffffffffffffffffffffffffffffffffff16815250601383604051611bbd919061425e565b9081526020016040518091039020600060025481526020019081526020016000206000820151816000019080519060200190611bfa929190613705565b506020820151816001019080519060200190611c17929190613705565b5060408201518160020155606082015181600301556080820151816004015560a0820151816005015560c0820151816006015560e08201518160070160006101000a81548173ffffffffffffffffffffffffffffffffffffffff021916908373ffffffffffffffffffffffffffffffffffffffff16021790555090505060026000815480929190611ca7906142d3565b91905055506136fd565b6040518060400160405280600981526020017f6e6f6e70726f66697400000000000000000000000000000000000000000000008152508051906020012082805190602001201415611e555760405180610100016040528085815260200184815260200160035481526020018281526020016000815260200160008152602001600081526020013373ffffffffffffffffffffffffffffffffffffffff16815250601383604051611d61919061425e565b9081526020016040518091039020600060035481526020019081526020016000206000820151816000019080519060200190611d9e929190613705565b506020820151816001019080519060200190611dbb929190613705565b5060408201518160020155606082015181600301556080820151816004015560a0820151816005015560c0820151816006015560e08201518160070160006101000a81548173ffffffffffffffffffffffffffffffffffffffff021916908373ffffffffffffffffffffffffffffffffffffffff16021790555090505060036000815480929190611e4b906142d3565b91905055506136fc565b6040518060400160405280600981526020017f656475636174696f6e00000000000000000000000000000000000000000000008152508051906020012082805190602001201415611ff95760405180610100016040528085815260200184815260200160045481526020018281526020016000815260200160008152602001600081526020013373ffffffffffffffffffffffffffffffffffffffff16815250601383604051611f05919061425e565b9081526020016040518091039020600060045481526020019081526020016000206000820151816000019080519060200190611f42929190613705565b506020820151816001019080519060200190611f5f929190613705565b5060408201518160020155606082015181600301556080820151816004015560a0820151816005015560c0820151816006015560e08201518160070160006101000a81548173ffffffffffffffffffffffffffffffffffffffff021916908373ffffffffffffffffffffffffffffffffffffffff16021790555090505060046000815480929190611fef906142d3565b91905055506136fb565b6040518060400160405280600681526020017f616e696d616c0000000000000000000000000000000000000000000000000000815250805190602001208280519060200120141561219d5760405180610100016040528085815260200184815260200160055481526020018281526020016000815260200160008152602001600081526020013373ffffffffffffffffffffffffffffffffffffffff168152506013836040516120a9919061425e565b90815260200160405180910390206000600554815260200190815260200160002060008201518160000190805190602001906120e6929190613705565b506020820151816001019080519060200190612103929190613705565b5060408201518160020155606082015181600301556080820151816004015560a0820151816005015560c0820151816006015560e08201518160070160006101000a81548173ffffffffffffffffffffffffffffffffffffffff021916908373ffffffffffffffffffffffffffffffffffffffff16021790555090505060056000815480929190612193906142d3565b91905055506136fa565b6040518060400160405280600b81526020017f656e7669726f6e6d656e7400000000000000000000000000000000000000000081525080519060200120828051906020012014156123415760405180610100016040528085815260200184815260200160065481526020018281526020016000815260200160008152602001600081526020013373ffffffffffffffffffffffffffffffffffffffff1681525060138360405161224d919061425e565b908152602001604051809103902060006006548152602001908152602001600020600082015181600001908051906020019061228a929190613705565b5060208201518160010190805190602001906122a7929190613705565b5060408201518160020155606082015181600301556080820151816004015560a0820151816005015560c0820151816006015560e08201518160070160006101000a81548173ffffffffffffffffffffffffffffffffffffffff021916908373ffffffffffffffffffffffffffffffffffffffff16021790555090505060066000815480929190612337906142d3565b91905055506136f9565b6040518060400160405280600881526020017f627573696e65737300000000000000000000000000000000000000000000000081525080519060200120828051906020012014156124e55760405180610100016040528085815260200184815260200160075481526020018281526020016000815260200160008152602001600081526020013373ffffffffffffffffffffffffffffffffffffffff168152506013836040516123f1919061425e565b908152602001604051809103902060006007548152602001908152602001600020600082015181600001908051906020019061242e929190613705565b50602082015181600101908051906020019061244b929190613705565b5060408201518160020155606082015181600301556080820151816004015560a0820151816005015560c0820151816006015560e08201518160070160006101000a81548173ffffffffffffffffffffffffffffffffffffffff021916908373ffffffffffffffffffffffffffffffffffffffff160217905550905050600760008154809291906124db906142d3565b91905055506136f8565b6040518060400160405280600981526020017f636f6d6d756e697479000000000000000000000000000000000000000000000081525080519060200120828051906020012014156126895760405180610100016040528085815260200184815260200160085481526020018281526020016000815260200160008152602001600081526020013373ffffffffffffffffffffffffffffffffffffffff16815250601383604051612595919061425e565b90815260200160405180910390206000600854815260200190815260200160002060008201518160000190805190602001906125d2929190613705565b5060208201518160010190805190602001906125ef929190613705565b5060408201518160020155606082015181600301556080820151816004015560a0820151816005015560c0820151816006015560e08201518160070160006101000a81548173ffffffffffffffffffffffffffffffffffffffff021916908373ffffffffffffffffffffffffffffffffffffffff1602179055509050506008600081548092919061267f906142d3565b91905055506136f7565b6040518060400160405280600b81526020017f636f6d7065746974696f6e000000000000000000000000000000000000000000815250805190602001208280519060200120141561282d5760405180610100016040528085815260200184815260200160095481526020018281526020016000815260200160008152602001600081526020013373ffffffffffffffffffffffffffffffffffffffff16815250601383604051612739919061425e565b9081526020016040518091039020600060095481526020019081526020016000206000820151816000019080519060200190612776929190613705565b506020820151816001019080519060200190612793929190613705565b5060408201518160020155606082015181600301556080820151816004015560a0820151816005015560c0820151816006015560e08201518160070160006101000a81548173ffffffffffffffffffffffffffffffffffffffff021916908373ffffffffffffffffffffffffffffffffffffffff16021790555090505060096000815480929190612823906142d3565b91905055506136f6565b6040518060400160405280600881526020017f637265617469766500000000000000000000000000000000000000000000000081525080519060200120828051906020012014156129d157604051806101000160405280858152602001848152602001600a5481526020018281526020016000815260200160008152602001600081526020013373ffffffffffffffffffffffffffffffffffffffff168152506013836040516128dd919061425e565b90815260200160405180910390206000600a548152602001908152602001600020600082015181600001908051906020019061291a929190613705565b506020820151816001019080519060200190612937929190613705565b5060408201518160020155606082015181600301556080820151816004015560a0820151816005015560c0820151816006015560e08201518160070160006101000a81548173ffffffffffffffffffffffffffffffffffffffff021916908373ffffffffffffffffffffffffffffffffffffffff160217905550905050600a60008154809291906129c7906142d3565b91905055506136f5565b6040518060400160405280600581526020017f6576656e740000000000000000000000000000000000000000000000000000008152508051906020012082805190602001201415612b7557604051806101000160405280858152602001848152602001600b5481526020018281526020016000815260200160008152602001600081526020013373ffffffffffffffffffffffffffffffffffffffff16815250601383604051612a81919061425e565b90815260200160405180910390206000600b5481526020019081526020016000206000820151816000019080519060200190612abe929190613705565b506020820151816001019080519060200190612adb929190613705565b5060408201518160020155606082015181600301556080820151816004015560a0820151816005015560c0820151816006015560e08201518160070160006101000a81548173ffffffffffffffffffffffffffffffffffffffff021916908373ffffffffffffffffffffffffffffffffffffffff160217905550905050600b6000815480929190612b6b906142d3565b91905055506136f4565b6040518060400160405280600981526020017f72656c6967696f757300000000000000000000000000000000000000000000008152508051906020012082805190602001201415612d1957604051806101000160405280858152602001848152602001600c5481526020018281526020016000815260200160008152602001600081526020013373ffffffffffffffffffffffffffffffffffffffff16815250601383604051612c25919061425e565b90815260200160405180910390206000600c5481526020019081526020016000206000820151816000019080519060200190612c62929190613705565b506020820151816001019080519060200190612c7f929190613705565b5060408201518160020155606082015181600301556080820151816004015560a0820151816005015560c0820151816006015560e08201518160070160006101000a81548173ffffffffffffffffffffffffffffffffffffffff021916908373ffffffffffffffffffffffffffffffffffffffff160217905550905050600c6000815480929190612d0f906142d3565b91905055506136f3565b6040518060400160405280600681526020017f66616d696c7900000000000000000000000000000000000000000000000000008152508051906020012082805190602001201415612ebd57604051806101000160405280858152602001848152602001600d5481526020018281526020016000815260200160008152602001600081526020013373ffffffffffffffffffffffffffffffffffffffff16815250601383604051612dc9919061425e565b90815260200160405180910390206000600d5481526020019081526020016000206000820151816000019080519060200190612e06929190613705565b506020820151816001019080519060200190612e23929190613705565b5060408201518160020155606082015181600301556080820151816004015560a0820151816005015560c0820151816006015560e08201518160070160006101000a81548173ffffffffffffffffffffffffffffffffffffffff021916908373ffffffffffffffffffffffffffffffffffffffff160217905550905050600d6000815480929190612eb3906142d3565b91905055506136f2565b6040518060400160405280600581526020017f73706f7274000000000000000000000000000000000000000000000000000000815250805190602001208280519060200120141561306157604051806101000160405280858152602001848152602001600e5481526020018281526020016000815260200160008152602001600081526020013373ffffffffffffffffffffffffffffffffffffffff16815250601383604051612f6d919061425e565b90815260200160405180910390206000600e5481526020019081526020016000206000820151816000019080519060200190612faa929190613705565b506020820151816001019080519060200190612fc7929190613705565b5060408201518160020155606082015181600301556080820151816004015560a0820151816005015560c0820151816006015560e08201518160070160006101000a81548173ffffffffffffffffffffffffffffffffffffffff021916908373ffffffffffffffffffffffffffffffffffffffff160217905550905050600e6000815480929190613057906142d3565b91905055506136f1565b6040518060400160405280600681526020017f74726176656c0000000000000000000000000000000000000000000000000000815250805190602001208280519060200120141561320557604051806101000160405280858152602001848152602001600f5481526020018281526020016000815260200160008152602001600081526020013373ffffffffffffffffffffffffffffffffffffffff16815250601383604051613111919061425e565b90815260200160405180910390206000600f548152602001908152602001600020600082015181600001908051906020019061314e929190613705565b50602082015181600101908051906020019061316b929190613705565b5060408201518160020155606082015181600301556080820151816004015560a0820151816005015560c0820151816006015560e08201518160070160006101000a81548173ffffffffffffffffffffffffffffffffffffffff021916908373ffffffffffffffffffffffffffffffffffffffff160217905550905050600f60008154809291906131fb906142d3565b91905055506136f0565b6040518060400160405280600981526020017f766f6c756e74656572000000000000000000000000000000000000000000000081525080519060200120828051906020012014156133a95760405180610100016040528085815260200184815260200160105481526020018281526020016000815260200160008152602001600081526020013373ffffffffffffffffffffffffffffffffffffffff168152506013836040516132b5919061425e565b90815260200160405180910390206000601054815260200190815260200160002060008201518160000190805190602001906132f2929190613705565b50602082015181600101908051906020019061330f929190613705565b5060408201518160020155606082015181600301556080820151816004015560a0820151816005015560c0820151816006015560e08201518160070160006101000a81548173ffffffffffffffffffffffffffffffffffffffff021916908373ffffffffffffffffffffffffffffffffffffffff1602179055509050506010600081548092919061339f906142d3565b91905055506136ef565b6040518060400160405280600481526020017f7769736800000000000000000000000000000000000000000000000000000000815250805190602001208280519060200120141561354d5760405180610100016040528085815260200184815260200160115481526020018281526020016000815260200160008152602001600081526020013373ffffffffffffffffffffffffffffffffffffffff16815250601383604051613459919061425e565b9081526020016040518091039020600060115481526020019081526020016000206000820151816000019080519060200190613496929190613705565b5060208201518160010190805190602001906134b3929190613705565b5060408201518160020155606082015181600301556080820151816004015560a0820151816005015560c0820151816006015560e08201518160070160006101000a81548173ffffffffffffffffffffffffffffffffffffffff021916908373ffffffffffffffffffffffffffffffffffffffff16021790555090505060116000815480929190613543906142d3565b91905055506136ee565b6040518060400160405280600a81526020017f696e646976696475616c0000000000000000000000000000000000000000000081525080519060200120828051906020012014156136ed5760405180610100016040528085815260200184815260200160125481526020018281526020016000815260200160008152602001600081526020013373ffffffffffffffffffffffffffffffffffffffff168152506013836040516135fd919061425e565b908152602001604051809103902060006012548152602001908152602001600020600082015181600001908051906020019061363a929190613705565b506020820151816001019080519060200190613657929190613705565b5060408201518160020155606082015181600301556080820151816004015560a0820151816005015560c0820151816006015560e08201518160070160006101000a81548173ffffffffffffffffffffffffffffffffffffffff021916908373ffffffffffffffffffffffffffffffffffffffff160217905550905050601260008154809291906136e7906142d3565b91905055505b5b5b5b5b5b5b5b5b5b5b5b5b5b5b5b5b5b5b50505050565b8280546137119061434b565b90600052602060002090601f016020900481019282613733576000855561377a565b82601f1061374c57805160ff191683800117855561377a565b8280016001018555821561377a579182015b8281111561377957825182559160200191906001019061375e565b5b50905061378791906137de565b5090565b82601781019282156137cd579160200282015b828111156137cc5782518290805190602001906137bc929190613705565b509160200191906001019061379e565b5b5090506137da91906137fb565b5090565b5b808211156137f75760008160009055506001016137df565b5090565b5b8082111561381b5760008181613812919061381f565b506001016137fc565b5090565b50805461382b9061434b565b6000825580601f1061383d575061385c565b601f01602090049060005260206000209081019061385b91906137de565b5b50565b6000604051905090565b600080fd5b600080fd5b600080fd5b600080fd5b6000601f19601f8301169050919050565b7f4e487b7100000000000000000000000000000000000000000000000000000000600052604160045260246000fd5b6138c68261387d565b810181811067ffffffffffffffff821117156138e5576138e461388e565b5b80604052505050565b60006138f861385f565b905061390482826138bd565b919050565b600067ffffffffffffffff8211156139245761392361388e565b5b61392d8261387d565b9050602081019050919050565b82818337600083830152505050565b600061395c61395784613909565b6138ee565b90508281526020810184848401111561397857613977613878565b5b61398384828561393a565b509392505050565b600082601f8301126139a05761399f613873565b5b81356139b0848260208601613949565b91505092915050565b6000819050919050565b6139cc816139b9565b81146139d757600080fd5b50565b6000813590506139e9816139c3565b92915050565b600067ffffffffffffffff821115613a0a57613a0961388e565b5b602082029050919050565b600080fd5b6000613a2d613a28846139ef565b6138ee565b90508060208402830185811115613a4757613a46613a15565b5b835b81811015613a8e57803567ffffffffffffffff811115613a6c57613a6b613873565b5b808601613a79898261398b565b85526020850194505050602081019050613a49565b5050509392505050565b600082601f830112613aad57613aac613873565b5b6017613aba848285613a1a565b91505092915050565b60008060008060008060c08789031215613ae057613adf613869565b5b600087013567ffffffffffffffff811115613afe57613afd61386e565b5b613b0a89828a0161398b565b965050602087013567ffffffffffffffff811115613b2b57613b2a61386e565b5b613b3789828a0161398b565b955050604087013567ffffffffffffffff811115613b5857613b5761386e565b5b613b6489828a0161398b565b9450506060613b7589828a016139da565b9350506080613b8689828a016139da565b92505060a087013567ffffffffffffffff811115613ba757613ba661386e565b5b613bb389828a01613a98565b9150509295509295509295565b60008060008060808587031215613bda57613bd9613869565b5b600085013567ffffffffffffffff811115613bf857613bf761386e565b5b613c048782880161398b565b945050602085013567ffffffffffffffff811115613c2557613c2461386e565b5b613c318782880161398b565b9350506040613c42878288016139da565b9250506060613c53878288016139da565b91505092959194509250565b60008060408385031215613c7657613c75613869565b5b600083013567ffffffffffffffff811115613c9457613c9361386e565b5b613ca08582860161398b565b9250506020613cb1858286016139da565b9150509250929050565b600081519050919050565b600082825260208201905092915050565b60005b83811015613cf5578082015181840152602081019050613cda565b83811115613d04576000848401525b50505050565b6000613d1582613cbb565b613d1f8185613cc6565b9350613d2f818560208601613cd7565b613d388161387d565b840191505092915050565b613d4c816139b9565b82525050565b600073ffffffffffffffffffffffffffffffffffffffff82169050919050565b6000613d7d82613d52565b9050919050565b613d8d81613d72565b82525050565b6000610100820190508181036000830152613dae818b613d0a565b90508181036020830152613dc2818a613d0a565b9050613dd16040830189613d43565b613dde6060830188613d43565b613deb6080830187613d43565b613df860a0830186613d43565b613e0560c0830185613d43565b613e1260e0830184613d84565b9998505050505050505050565b6000606082019050613e346000830186613d43565b8181036020830152613e468185613d0a565b90508181036040830152613e5a8184613d0a565b9050949350505050565b600080600060608486031215613e7d57613e7c613869565b5b600084013567ffffffffffffffff811115613e9b57613e9a61386e565b5b613ea78682870161398b565b9350506020613eb8868287016139da565b9250506040613ec9868287016139da565b9150509250925092565b60006060820190508181036000830152613eed8186613d0a565b90508181036020830152613f018185613d0a565b9050613f106040830184613d43565b949350505050565b613f2181613d72565b8114613f2c57600080fd5b50565b600081359050613f3e81613f18565b92915050565b600080600060608486031215613f5d57613f5c613869565b5b600084013567ffffffffffffffff811115613f7b57613f7a61386e565b5b613f878682870161398b565b9350506020613f98868287016139da565b9250506040613fa986828701613f2f565b9150509250925092565b60008115159050919050565b613fc881613fb3565b82525050565b6000602082019050613fe36000830184613fbf565b92915050565b613ff281613fb3565b8114613ffd57600080fd5b50565b60008135905061400f81613fe9565b92915050565b6000806000806080858703121561402f5761402e613869565b5b600085013567ffffffffffffffff81111561404d5761404c61386e565b5b6140598782880161398b565b945050602061406a878288016139da565b935050604061407b878288016139da565b925050606061408c87828801614000565b91505092959194509250565b600080600080600060a086880312156140b4576140b3613869565b5b600086013567ffffffffffffffff8111156140d2576140d161386e565b5b6140de8882890161398b565b955050602086013567ffffffffffffffff8111156140ff576140fe61386e565b5b61410b8882890161398b565b945050604061411c888289016139da565b935050606061412d888289016139da565b925050608086013567ffffffffffffffff81111561414e5761414d61386e565b5b61415a88828901613a98565b9150509295509295909350565b6000806000806080858703121561418157614180613869565b5b600085013567ffffffffffffffff81111561419f5761419e61386e565b5b6141ab8782880161398b565b945050602085013567ffffffffffffffff8111156141cc576141cb61386e565b5b6141d88782880161398b565b935050604085013567ffffffffffffffff8111156141f9576141f861386e565b5b6142058782880161398b565b9250506060614216878288016139da565b91505092959194509250565b600081905092915050565b600061423882613cbb565b6142428185614222565b9350614252818560208601613cd7565b80840191505092915050565b600061426a828461422d565b915081905092915050565b7f4e487b7100000000000000000000000000000000000000000000000000000000600052603260045260246000fd5b7f4e487b7100000000000000000000000000000000000000000000000000000000600052601160045260246000fd5b60006142de826139b9565b91507fffffffffffffffffffffffffffffffffffffffffffffffffffffffffffffffff821415614311576143106142a4565b5b600182019050919050565b7f4e487b7100000000000000000000000000000000000000000000000000000000600052602260045260246000fd5b6000600282049050600182168061436357607f821691505b602082108114156143775761437661431c565b5b50919050565b6000614388826139b9565b9150600082141561439c5761439b6142a4565b5b60018203905091905056fea2646970667358221220050fdcc8c8f636b32d07ac7919c2fe51a85cd6dd783b97d9646abd88cade16e364736f6c634300080c0033",
  "immutableReferences": {},
  "source": "// SPDX-License-Identifier: LGPL-3.0-only\npragma solidity ^0.8.12;\n\ncontract Storage {\n  /* Create variables for total number of requests in each category strings for\n  each will be defined in the UI. */\n  // Check gas cost of individual variables vs array. Maybe cheaper but probably not\n  uint256 medicalRequests;\n  uint256 memorialRequests;\n  uint256 emergencyRequests;\n  uint256 nonprofitRequests;\n  uint256 educationRequests;\n  uint256 animalRequests;\n  uint256 environmentRequests;\n  uint256 businessRequests;\n  uint256 communityRequests;\n  uint256 competitionRequests;\n  uint256 creativeRequests;\n  uint256 eventRequests;\n  uint256 religiousRequests;\n  uint256 familyRequests;\n  uint256 sportRequests;\n  uint256 travelRequests;\n  uint256 volunteerRequests;\n  uint256 wishRequests;\n  uint256 individualRequests;\n\n  struct Request {\n      string title;\n      string description;\n      uint256 id;\n      // Amount Requested\n      uint256 amount;\n      uint256 totalOrganizers;\n      uint256 totalContributors;\n      uint256 score;\n      address creator;\n  }\n\n  struct Contributor {\n    uint256 amountDonated;\n    string name;\n    string contributorAddress;\n  }\n\n  struct Organizer {\n    string name;\n    string role;\n    uint256 id;\n    /* Coins are chosen based on being meant for medium of exchange with high\n    transaction volume at the time. ADA and ETH are there aswell for smart\n    contract support if people are interested in using that. */\n    string[23] addresses;\n    /* index 0 = btcAddress;\n    index 1 = bchAddress;\n    index 2 = adaAddress;\n    index 3 = dashAddress;\n    index 4 = dogeAddress;\n    index 5 = ethAddress;\n    index 6 = ltcAddress;\n    index 7 = xmrAddress;\n    index 8 = zecAddress;\n\n    Extras just for support for other chains people may want to use if volume\n    drops off in the future maybe re-evaluate showing these in UI to keep things\n    more compact/clean.\n\n    index 9 = algoAddress;\n    index 10 = avaxAddress;\n    index 11 = bscAddress;\n    index 12 = atomAddress;\n    index 13 = egldAddress;\n    index 14 = etcAddress;\n    index 15 = ftmAddress;\n    index 16 = oneAddress;\n    index 17 = lunaAddress;\n    index 18 = dotAddress;\n    index 19 = maticAddress;\n    index 20 = solAddress;\n    index 21 = xlmAddress;\n    index 22 = xrpAddress; */\n  }\n\n  // category => id of request\n  mapping(string => mapping (uint256 => Request)) public Requests;\n\n  // category => Request ID\n  mapping(string => mapping(uint256 => Contributor)) public Contributors;\n  // category => id of request => id of organizer\n  mapping(string => mapping(uint256 => mapping(uint256 => Organizer))) public Organizers;\n  // category => id of request => Polygon address of user\n  mapping(string => mapping(uint256 => mapping(address => bool))) public isVoted;\n\n\n  function createRequest (\n    string memory _title,\n    string memory _description,\n    string memory _category,\n    uint256 _amount\n  ) public {\n    /* Sorting into category variables makes the code more complex with large if\n    else statements however may be useful in the case of the frontend being\n    shutdown and needing to be redeployed with all the data in the proper location */\n    if (keccak256(bytes(_category)) == keccak256(bytes(\"medical\"))) {\n        Requests[_category][medicalRequests] = Request(_title, _description, medicalRequests, _amount, 0, 0, 0, msg.sender);\n        medicalRequests++;\n    } else if (keccak256(bytes(_category)) == keccak256(bytes(\"memorial\"))) {\n        Requests[_category][memorialRequests] = Request(_title, _description, memorialRequests, _amount, 0, 0, 0, msg.sender);\n        memorialRequests++;\n    } else if (keccak256(bytes(_category)) == keccak256(bytes(\"emergency\"))) {\n        Requests[_category][emergencyRequests] = Request(_title, _description, emergencyRequests, _amount, 0, 0, 0, msg.sender);\n        emergencyRequests++;\n    } else if (keccak256(bytes(_category)) == keccak256(bytes(\"nonprofit\"))) {\n        Requests[_category][nonprofitRequests] = Request(_title, _description, nonprofitRequests, _amount, 0, 0, 0, msg.sender);\n        nonprofitRequests++;\n    } else if (keccak256(bytes(_category)) == keccak256(bytes(\"education\"))) {\n        Requests[_category][educationRequests] = Request(_title, _description, educationRequests, _amount, 0, 0, 0, msg.sender);\n        educationRequests++;\n    } else if (keccak256(bytes(_category)) == keccak256(bytes(\"animal\"))) {\n        Requests[_category][animalRequests] = Request(_title, _description, animalRequests, _amount, 0, 0, 0, msg.sender);\n        animalRequests++;\n    } else if (keccak256(bytes(_category)) == keccak256(bytes(\"environment\"))) {\n        Requests[_category][environmentRequests] = Request(_title, _description, environmentRequests, _amount, 0, 0, 0, msg.sender);\n        environmentRequests++;\n    } else if (keccak256(bytes(_category)) == keccak256(bytes(\"business\"))) {\n        Requests[_category][businessRequests] = Request(_title, _description, businessRequests, _amount, 0, 0, 0, msg.sender);\n        businessRequests++;\n    } else if (keccak256(bytes(_category)) == keccak256(bytes(\"community\"))) {\n        Requests[_category][communityRequests] = Request(_title, _description, communityRequests, _amount, 0, 0, 0, msg.sender);\n        communityRequests++;\n    } else if (keccak256(bytes(_category)) == keccak256(bytes(\"competition\"))) {\n        Requests[_category][competitionRequests] = Request(_title, _description, competitionRequests, _amount, 0, 0, 0, msg.sender);\n        competitionRequests++;\n    } else if (keccak256(bytes(_category)) == keccak256(bytes(\"creative\"))) {\n        Requests[_category][creativeRequests] = Request(_title, _description, creativeRequests, _amount, 0, 0, 0, msg.sender);\n        creativeRequests++;\n    } else if (keccak256(bytes(_category)) == keccak256(bytes(\"event\"))) {\n        Requests[_category][eventRequests] = Request(_title, _description, eventRequests, _amount, 0, 0, 0, msg.sender);\n        eventRequests++;\n    } else if (keccak256(bytes(_category)) == keccak256(bytes(\"religious\"))) {\n        Requests[_category][religiousRequests] = Request(_title, _description, religiousRequests, _amount, 0, 0, 0, msg.sender);\n        religiousRequests++;\n    } else if (keccak256(bytes(_category)) == keccak256(bytes(\"family\"))) {\n        Requests[_category][familyRequests] = Request(_title, _description, familyRequests, _amount, 0, 0, 0, msg.sender);\n        familyRequests++;\n    } else if (keccak256(bytes(_category)) == keccak256(bytes(\"sport\"))) {\n        Requests[_category][sportRequests] = Request(_title, _description, sportRequests, _amount, 0, 0, 0, msg.sender);\n        sportRequests++;\n    } else if (keccak256(bytes(_category)) == keccak256(bytes(\"travel\"))) {\n        Requests[_category][travelRequests] = Request(_title, _description, travelRequests, _amount, 0, 0, 0, msg.sender);\n        travelRequests++;\n    } else if (keccak256(bytes(_category)) == keccak256(bytes(\"volunteer\"))) {\n        Requests[_category][volunteerRequests] = Request(_title, _description, volunteerRequests, _amount, 0, 0, 0, msg.sender);\n        volunteerRequests++;\n    } else if (keccak256(bytes(_category)) == keccak256(bytes(\"wish\"))) {\n        Requests[_category][wishRequests] = Request(_title, _description, wishRequests, _amount, 0, 0, 0, msg.sender);\n        wishRequests++;\n    } else if (keccak256(bytes(_category)) == keccak256(bytes(\"individual\"))) {\n        Requests[_category][individualRequests] = Request(_title, _description, individualRequests, _amount, 0, 0, 0, msg.sender);\n        individualRequests++;\n    }\n  }\n\n  /* Name should also have a default value of Anonymous in the UI for those who\n    don't feel safe connecting names to addresses.\n  */\n  function addOrganzier (\n    string memory _name,\n    string memory _role,\n    string memory _category,\n    uint256 _requestId,\n    uint256 _totalOrganizers,\n    string[23] memory _addresses\n  ) public {\n    require(msg.sender == Requests[_category][_requestId].creator);\n    /* Not all addresses need to be assigned a value. In the UI any addresses not\n    assigned by default should be set to \"\" which would mean an empty string.\n    That will cause setting the mapping data to not fail. Role will also be set\n    through the UI  */\n    Organizers[_category][_requestId][_totalOrganizers] = Organizer(\n      _name, _role, _totalOrganizers, [_addresses[0], _addresses[1], _addresses[2],\n      _addresses[3], _addresses[4], _addresses[5], _addresses[6], _addresses[7],\n      _addresses[8], _addresses[9], _addresses[10], _addresses[11], _addresses[12],\n      _addresses[13], _addresses[14], _addresses[15], _addresses[16], _addresses[17],\n      _addresses[18], _addresses[19], _addresses[20], _addresses[21], _addresses[22]      ]\n    );\n    Requests[_category][_requestId].totalOrganizers++;\n  }\n\n  function editOrganzier (\n    string memory _role,\n    string memory _category,\n    uint256 _requestId,\n    uint256 _organizerId,\n    string[23] memory _addresses\n  ) public {\n    require(msg.sender == Requests[_category][_requestId].creator);\n    string memory _name = Organizers[_category][_requestId][_organizerId].name;\n    /* This method will cost extra gas and can be improved upon. This can be\n    solved by either taking in less addresses or another way. In it's current\n    form it will call the current data from the blockchain and input it into the\n    UI and once resubmitted you will paying that extra gas to rewrite the same\n    address again for those unchanged. The goal would be to save that extra gas\n    cost so only the address added/changed is what's sent back. */\n    Organizers[_category][_requestId][_organizerId] = Organizer(\n      _name, _role, _organizerId, [_addresses[0], _addresses[1], _addresses[2],\n      _addresses[3], _addresses[4], _addresses[5], _addresses[6], _addresses[7],\n      _addresses[8], _addresses[9], _addresses[10], _addresses[11], _addresses[12],\n      _addresses[13], _addresses[14], _addresses[15], _addresses[16], _addresses[17],\n      _addresses[18], _addresses[19], _addresses[20], _addresses[21], _addresses[22]\n      ]\n    );\n  }\n\n  /* Values come from blockchain calls. Title should also be immutable in case of\n  an account getting hacked or a scammer changing the name and description of a\n  request. Another alternative is to allow this to be changed but have the entire\n  list of Contributors wiped. */\n  function editRequest (\n    string memory _description,\n    string memory _category,\n    uint256 _id,\n    uint256 _amount\n  ) public {\n    require(msg.sender == Requests[_category][_id].creator);\n    string memory _title = Requests[_category][_id].title;\n    uint256 _totalOrganizers = Requests[_category][_id].totalOrganizers;\n    uint256 _totalContributors = Requests[_category][_id].totalContributors;\n    uint256 _score = Requests[_category][_id].score;\n    address _creator = Requests[_category][_id].creator;\n    /* Category doesn't need the string checked like createRequest because that\n    was just to */\n    Requests[_category][_id] = Request(_title, _description, _id, _amount, _totalOrganizers, _totalContributors, _score, _creator);\n  }\n\n  /* This feature may need to be disabled in UI in the future if it is used harmfully.\n  This feature can easily be exploited through multiple self made accounts or even\n  bot made to upvote scam requests to encourage people to donate to that request over\n  a potentially real one. Therefore this should not be used as a feature to sort\n  through requests and determine which is best to display first. */\n  function voteRequest (\n    string memory _category,\n    uint256 _requestId,\n    uint256 _score,\n    bool vote\n  ) public {\n    require(isVoted[_category][_requestId][msg.sender] == false);\n    string memory _title = Requests[_category][_requestId].title;\n    string memory _description = Requests[_category][_requestId].description;\n    uint256 _amount = Requests[_category][_requestId].amount;\n    uint256 _totalOrganizers = Requests[_category][_requestId].totalOrganizers;\n    uint256 _totalContributors = Requests[_category][_requestId].totalContributors;\n    address _creator = Requests[_category][_requestId].creator;\n    /* Downvoting can cause a large majority of people to downvote a real donation\n    request just bekcause it offends them or doesn't align with their views. This\n    should not be solely used as a way to sort requests in the UI for this reason,\n    hoever it should be kept in the system to alert people of something that may be\n    a faker request or a scammer. The other flaw with this system is that with the\n    low gas fees of hosting on a layer 2 protocol people can make many accounts and\n    send small balances to boost the upvotes on their request even if it is a scam.\n    Therefore this system may need to be disabled in the UI in the future if that is\n    the case. */\n\n    // bool = true then upvote else downvote\n    if (vote) {\n      _score++;\n    } else {\n      _score--;\n    }\n\n    Requests[_category][_requestId] = Request(_title, _description, _requestId, _amount, _totalOrganizers, _totalContributors, _score, _creator);\n  }\n}\n",
  "sourcePath": "/home/user/Documents/donation/src/contracts/Storage.sol",
  "compiler": {
    "name": "solc",
    "version": "0.8.12+commit.f00d7308.Emscripten.clang"
  },
  "schemaVersion": "3.4.1",
  "updatedAt": "2022-03-15T18:22:51.704Z",
  "devdoc": {
    "kind": "dev",
    "methods": {},
    "version": 1
  },
  "userdoc": {
    "kind": "user",
    "methods": {},
    "version": 1
  }
}