{
  "contractName": "Storage",
  "abi": [
    {
      "inputs": [
        {
          "internalType": "string",
          "name": "",
          "type": "string"
        },
        {
          "internalType": "uint256",
          "name": "",
          "type": "uint256"
        },
        {
          "internalType": "uint256",
          "name": "",
          "type": "uint256"
        }
      ],
      "name": "Contributors",
      "outputs": [
        {
          "internalType": "uint256",
          "name": "amountDonated",
          "type": "uint256"
        },
        {
          "internalType": "string",
          "name": "name",
          "type": "string"
        },
        {
          "internalType": "string",
          "name": "contributorAddress",
          "type": "string"
        },
        {
          "internalType": "uint256",
          "name": "id",
          "type": "uint256"
        }
      ],
      "stateMutability": "view",
      "type": "function"
    },
    {
      "inputs": [
        {
          "internalType": "string",
          "name": "",
          "type": "string"
        },
        {
          "internalType": "uint256",
          "name": "",
          "type": "uint256"
        },
        {
          "internalType": "uint256",
          "name": "",
          "type": "uint256"
        }
      ],
      "name": "Organizers",
      "outputs": [
        {
          "internalType": "string",
          "name": "name",
          "type": "string"
        },
        {
          "internalType": "string",
          "name": "role",
          "type": "string"
        },
        {
          "internalType": "uint256",
          "name": "id",
          "type": "uint256"
        }
      ],
      "stateMutability": "view",
      "type": "function"
    },
    {
      "inputs": [
        {
          "internalType": "string",
          "name": "",
          "type": "string"
        },
        {
          "internalType": "uint256",
          "name": "",
          "type": "uint256"
        },
        {
          "internalType": "uint256",
          "name": "",
          "type": "uint256"
        }
      ],
      "name": "Posts",
      "outputs": [
        {
          "internalType": "string",
          "name": "title",
          "type": "string"
        },
        {
          "internalType": "string",
          "name": "description",
          "type": "string"
        },
        {
          "internalType": "string",
          "name": "date",
          "type": "string"
        }
      ],
      "stateMutability": "view",
      "type": "function"
    },
    {
      "inputs": [
        {
          "internalType": "string",
          "name": "",
          "type": "string"
        },
        {
          "internalType": "uint256",
          "name": "",
          "type": "uint256"
        }
      ],
      "name": "Requests",
      "outputs": [
        {
          "internalType": "string",
          "name": "title",
          "type": "string"
        },
        {
          "internalType": "string",
          "name": "description",
          "type": "string"
        },
        {
          "internalType": "uint256",
          "name": "id",
          "type": "uint256"
        },
        {
          "internalType": "uint256",
          "name": "amount",
          "type": "uint256"
        },
        {
          "internalType": "uint256",
          "name": "totalOrganizers",
          "type": "uint256"
        },
        {
          "internalType": "uint256",
          "name": "totalContributors",
          "type": "uint256"
        },
        {
          "internalType": "uint256",
          "name": "score",
          "type": "uint256"
        },
        {
          "internalType": "address",
          "name": "creator",
          "type": "address"
        },
        {
          "internalType": "uint256",
          "name": "totalPosts",
          "type": "uint256"
        }
      ],
      "stateMutability": "view",
      "type": "function"
    },
    {
      "inputs": [],
      "name": "animalRequests",
      "outputs": [
        {
          "internalType": "uint256",
          "name": "",
          "type": "uint256"
        }
      ],
      "stateMutability": "view",
      "type": "function"
    },
    {
      "inputs": [],
      "name": "businessRequests",
      "outputs": [
        {
          "internalType": "uint256",
          "name": "",
          "type": "uint256"
        }
      ],
      "stateMutability": "view",
      "type": "function"
    },
    {
      "inputs": [],
      "name": "communityRequests",
      "outputs": [
        {
          "internalType": "uint256",
          "name": "",
          "type": "uint256"
        }
      ],
      "stateMutability": "view",
      "type": "function"
    },
    {
      "inputs": [],
      "name": "competitionRequests",
      "outputs": [
        {
          "internalType": "uint256",
          "name": "",
          "type": "uint256"
        }
      ],
      "stateMutability": "view",
      "type": "function"
    },
    {
      "inputs": [],
      "name": "creativeRequests",
      "outputs": [
        {
          "internalType": "uint256",
          "name": "",
          "type": "uint256"
        }
      ],
      "stateMutability": "view",
      "type": "function"
    },
    {
      "inputs": [],
      "name": "educationRequests",
      "outputs": [
        {
          "internalType": "uint256",
          "name": "",
          "type": "uint256"
        }
      ],
      "stateMutability": "view",
      "type": "function"
    },
    {
      "inputs": [],
      "name": "emergencyRequests",
      "outputs": [
        {
          "internalType": "uint256",
          "name": "",
          "type": "uint256"
        }
      ],
      "stateMutability": "view",
      "type": "function"
    },
    {
      "inputs": [],
      "name": "environmentRequests",
      "outputs": [
        {
          "internalType": "uint256",
          "name": "",
          "type": "uint256"
        }
      ],
      "stateMutability": "view",
      "type": "function"
    },
    {
      "inputs": [],
      "name": "eventRequests",
      "outputs": [
        {
          "internalType": "uint256",
          "name": "",
          "type": "uint256"
        }
      ],
      "stateMutability": "view",
      "type": "function"
    },
    {
      "inputs": [],
      "name": "familyRequests",
      "outputs": [
        {
          "internalType": "uint256",
          "name": "",
          "type": "uint256"
        }
      ],
      "stateMutability": "view",
      "type": "function"
    },
    {
      "inputs": [],
      "name": "individualRequests",
      "outputs": [
        {
          "internalType": "uint256",
          "name": "",
          "type": "uint256"
        }
      ],
      "stateMutability": "view",
      "type": "function"
    },
    {
      "inputs": [
        {
          "internalType": "string",
          "name": "",
          "type": "string"
        },
        {
          "internalType": "uint256",
          "name": "",
          "type": "uint256"
        },
        {
          "internalType": "address",
          "name": "",
          "type": "address"
        }
      ],
      "name": "isVoted",
      "outputs": [
        {
          "internalType": "bool",
          "name": "",
          "type": "bool"
        }
      ],
      "stateMutability": "view",
      "type": "function"
    },
    {
      "inputs": [],
      "name": "medicalRequests",
      "outputs": [
        {
          "internalType": "uint256",
          "name": "",
          "type": "uint256"
        }
      ],
      "stateMutability": "view",
      "type": "function"
    },
    {
      "inputs": [],
      "name": "memorialRequests",
      "outputs": [
        {
          "internalType": "uint256",
          "name": "",
          "type": "uint256"
        }
      ],
      "stateMutability": "view",
      "type": "function"
    },
    {
      "inputs": [],
      "name": "nonprofitRequests",
      "outputs": [
        {
          "internalType": "uint256",
          "name": "",
          "type": "uint256"
        }
      ],
      "stateMutability": "view",
      "type": "function"
    },
    {
      "inputs": [],
      "name": "religiousRequests",
      "outputs": [
        {
          "internalType": "uint256",
          "name": "",
          "type": "uint256"
        }
      ],
      "stateMutability": "view",
      "type": "function"
    },
    {
      "inputs": [],
      "name": "sportRequests",
      "outputs": [
        {
          "internalType": "uint256",
          "name": "",
          "type": "uint256"
        }
      ],
      "stateMutability": "view",
      "type": "function"
    },
    {
      "inputs": [],
      "name": "travelRequests",
      "outputs": [
        {
          "internalType": "uint256",
          "name": "",
          "type": "uint256"
        }
      ],
      "stateMutability": "view",
      "type": "function"
    },
    {
      "inputs": [],
      "name": "volunteerRequests",
      "outputs": [
        {
          "internalType": "uint256",
          "name": "",
          "type": "uint256"
        }
      ],
      "stateMutability": "view",
      "type": "function"
    },
    {
      "inputs": [],
      "name": "wishRequests",
      "outputs": [
        {
          "internalType": "uint256",
          "name": "",
          "type": "uint256"
        }
      ],
      "stateMutability": "view",
      "type": "function"
    },
    {
      "inputs": [
        {
          "internalType": "string",
          "name": "_category",
          "type": "string"
        },
        {
          "internalType": "uint256",
          "name": "_requestId",
          "type": "uint256"
        },
        {
          "internalType": "uint256",
          "name": "_organizerId",
          "type": "uint256"
        }
      ],
      "name": "getOrganizer",
      "outputs": [
        {
          "components": [
            {
              "internalType": "string",
              "name": "name",
              "type": "string"
            },
            {
              "internalType": "string",
              "name": "role",
              "type": "string"
            },
            {
              "internalType": "uint256",
              "name": "id",
              "type": "uint256"
            },
            {
              "internalType": "string[23]",
              "name": "addresses",
              "type": "string[23]"
            }
          ],
          "internalType": "struct Storage.Organizer",
          "name": "",
          "type": "tuple"
        }
      ],
      "stateMutability": "view",
      "type": "function"
    },
    {
      "inputs": [
        {
          "internalType": "string",
          "name": "_title",
          "type": "string"
        },
        {
          "internalType": "string",
          "name": "_description",
          "type": "string"
        },
        {
          "internalType": "string",
          "name": "_category",
          "type": "string"
        },
        {
          "internalType": "uint256",
          "name": "_amount",
          "type": "uint256"
        }
      ],
      "name": "createRequest",
      "outputs": [],
      "stateMutability": "nonpayable",
      "type": "function"
    },
    {
      "inputs": [
        {
          "internalType": "string",
          "name": "_name",
          "type": "string"
        },
        {
          "internalType": "string",
          "name": "_role",
          "type": "string"
        },
        {
          "internalType": "string",
          "name": "_category",
          "type": "string"
        },
        {
          "internalType": "uint256",
          "name": "_requestId",
          "type": "uint256"
        },
        {
          "internalType": "uint256",
          "name": "_totalOrganizers",
          "type": "uint256"
        },
        {
          "internalType": "string[23]",
          "name": "_addresses",
          "type": "string[23]"
        }
      ],
      "name": "addOrganzier",
      "outputs": [],
      "stateMutability": "nonpayable",
      "type": "function"
    },
    {
      "inputs": [
        {
          "internalType": "string",
          "name": "_role",
          "type": "string"
        },
        {
          "internalType": "string",
          "name": "_category",
          "type": "string"
        },
        {
          "internalType": "uint256",
          "name": "_requestId",
          "type": "uint256"
        },
        {
          "internalType": "uint256",
          "name": "_organizerId",
          "type": "uint256"
        },
        {
          "internalType": "string[23]",
          "name": "_addresses",
          "type": "string[23]"
        }
      ],
      "name": "editOrganizer",
      "outputs": [],
      "stateMutability": "nonpayable",
      "type": "function"
    },
    {
      "inputs": [
        {
          "internalType": "string",
          "name": "_description",
          "type": "string"
        },
        {
          "internalType": "string",
          "name": "_category",
          "type": "string"
        },
        {
          "internalType": "uint256",
          "name": "_requestId",
          "type": "uint256"
        },
        {
          "internalType": "uint256",
          "name": "_amount",
          "type": "uint256"
        }
      ],
      "name": "editRequest",
      "outputs": [],
      "stateMutability": "nonpayable",
      "type": "function"
    },
    {
      "inputs": [
        {
          "internalType": "string",
          "name": "_category",
          "type": "string"
        },
        {
          "internalType": "uint256",
          "name": "_requestId",
          "type": "uint256"
        },
        {
          "internalType": "uint256",
          "name": "_score",
          "type": "uint256"
        },
        {
          "internalType": "bool",
          "name": "vote",
          "type": "bool"
        }
      ],
      "name": "voteRequest",
      "outputs": [],
      "stateMutability": "nonpayable",
      "type": "function"
    },
    {
      "inputs": [
        {
          "internalType": "string",
          "name": "_category",
          "type": "string"
        },
        {
          "internalType": "uint256",
          "name": "_requestId",
          "type": "uint256"
        },
        {
          "internalType": "uint256",
          "name": "_totalContributors",
          "type": "uint256"
        },
        {
          "internalType": "string",
          "name": "_name",
          "type": "string"
        },
        {
          "internalType": "uint256",
          "name": "_amountDonated",
          "type": "uint256"
        },
        {
          "internalType": "string",
          "name": "_contributorAddress",
          "type": "string"
        }
      ],
      "name": "addContributor",
      "outputs": [],
      "stateMutability": "nonpayable",
      "type": "function"
    },
    {
      "inputs": [
        {
          "internalType": "string",
          "name": "_category",
          "type": "string"
        },
        {
          "internalType": "uint256",
          "name": "_requestId",
          "type": "uint256"
        },
        {
          "internalType": "uint256",
          "name": "_totalPosts",
          "type": "uint256"
        },
        {
          "internalType": "string",
          "name": "_title",
          "type": "string"
        },
        {
          "internalType": "string",
          "name": "_description",
          "type": "string"
        },
        {
          "internalType": "string",
          "name": "_date",
          "type": "string"
        }
      ],
      "name": "addPost",
      "outputs": [],
      "stateMutability": "nonpayable",
      "type": "function"
    }
  ],
  "bytecode": "0x608060405234801561001057600080fd5b5061559b80620000216000396000f3fe608060405234801561001057600080fd5b50600436106101f05760003560e01c80636edc8e4d1161010f578063c5dbf1fe116100a2578063d1b9103711610071578063d1b91037146105ae578063e9e61c5d146105ca578063f82f7bdd146105e8578063fddbe15614610604576101f0565b8063c5dbf1fe14610514578063c6ac9f5d14610546578063cfc1fd6d14610576578063d01c680f14610592576101f0565b80638fb0bd91116100de5780638fb0bd911461049c5780639420d6a1146104ba5780639ef2179c146104d8578063b0366f3f146104f6576101f0565b80636edc8e4d146104125780638a9d8d25146104305780638efad2e11461044e5780638f2f3f6714610480576101f0565b80632c89f36111610187578063421cca9511610156578063421cca951461038057806343e5bbdf1461039e5780635c983bee146103bc57806368d2ff74146103f4576101f0565b80632c89f361146102f65780632d7e140f14610314578063316d524a146103325780633456601f14610362576101f0565b806319c25905116101c357806319c259051461026b578063215adc511461028757806327f62583146102a55780632b9f3f04146102c3576101f0565b806301b57d95146101f55780630a9de09c1461021357806313907f8c1461023157806313bd4a941461024f575b600080fd5b6101fd610622565b60405161020a9190614635565b60405180910390f35b61021b610628565b6040516102289190614635565b60405180910390f35b61023961062e565b6040516102469190614635565b60405180910390f35b610269600480360381019061026491906148aa565b610634565b005b610285600480360381019061028091906149a7565b610a89565b005b61028f610e57565b60405161029c9190614635565b60405180910390f35b6102ad610e5d565b6040516102ba9190614635565b60405180910390f35b6102dd60048036038101906102d89190614a46565b610e63565b6040516102ed9493929190614b3d565b60405180910390f35b6102fe610fd3565b60405161030b9190614635565b60405180910390f35b61031c610fd9565b6040516103299190614635565b60405180910390f35b61034c60048036038101906103479190614a46565b610fdf565b6040516103599190614d10565b60405180910390f35b61036a611230565b6040516103779190614635565b60405180910390f35b610388611236565b6040516103959190614635565b60405180910390f35b6103a661123c565b6040516103b39190614635565b60405180910390f35b6103d660048036038101906103d19190614d32565b611242565b6040516103eb99989796959493929190614dcf565b60405180910390f35b6103fc6113e3565b6040516104099190614635565b60405180910390f35b61041a6113e9565b6040516104279190614635565b60405180910390f35b6104386113ef565b6040516104459190614635565b60405180910390f35b61046860048036038101906104639190614a46565b6113f5565b60405161047793929190614e6a565b60405180910390f35b61049a60048036038101906104959190614eb6565b6115e7565b005b6104a4611ac4565b6040516104b19190614635565b60405180910390f35b6104c2611aca565b6040516104cf9190614635565b60405180910390f35b6104e0611ad0565b6040516104ed9190614635565b60405180910390f35b6104fe611ad6565b60405161050b9190614635565b60405180910390f35b61052e60048036038101906105299190614a46565b611adc565b60405161053d93929190614f85565b60405180910390f35b610560600480360381019061055b9190614ff6565b611c46565b60405161056d9190615080565b60405180910390f35b610590600480360381019061058b91906150c7565b611c98565b005b6105ac60048036038101906105a7919061514a565b61214e565b005b6105c860048036038101906105c39190615247565b6122dd565b005b6105d26123df565b6040516105df9190614635565b60405180910390f35b61060260048036038101906105fd9190615328565b6123e5565b005b61060c614466565b6040516106199190614635565b60405180910390f35b60105481565b60035481565b60055481565b601384604051610644919061541f565b9081526020016040518091039020600084815260200190815260200160002060070160009054906101000a900473ffffffffffffffffffffffffffffffffffffffff1673ffffffffffffffffffffffffffffffffffffffff163373ffffffffffffffffffffffffffffffffffffffff16146106be57600080fd5b6040518060800160405280878152602001868152602001838152602001604051806102e00160405280846000601781106106fb576106fa615436565b5b602002015181526020018460016017811061071957610718615436565b5b602002015181526020018460026017811061073757610736615436565b5b602002015181526020018460036017811061075557610754615436565b5b602002015181526020018460046017811061077357610772615436565b5b602002015181526020018460056017811061079157610790615436565b5b60200201518152602001846006601781106107af576107ae615436565b5b60200201518152602001846007601781106107cd576107cc615436565b5b60200201518152602001846008601781106107eb576107ea615436565b5b602002015181526020018460096017811061080957610808615436565b5b6020020151815260200184600a6017811061082757610826615436565b5b6020020151815260200184600b6017811061084557610844615436565b5b6020020151815260200184600c6017811061086357610862615436565b5b6020020151815260200184600d6017811061088157610880615436565b5b6020020151815260200184600e6017811061089f5761089e615436565b5b6020020151815260200184600f601781106108bd576108bc615436565b5b60200201518152602001846010601781106108db576108da615436565b5b60200201518152602001846011601781106108f9576108f8615436565b5b602002015181526020018460126017811061091757610916615436565b5b602002015181526020018460136017811061093557610934615436565b5b602002015181526020018460146017811061095357610952615436565b5b602002015181526020018460156017811061097157610970615436565b5b602002015181526020018460166017811061098f5761098e615436565b5b60200201518152508152506015856040516109aa919061541f565b90815260200160405180910390206000858152602001908152602001600020600084815260200190815260200160002060008201518160000190805190602001906109f692919061446c565b506020820151816001019080519060200190610a1392919061446c565b5060408201518160020155606082015181600301906017610a359291906144f2565b50905050601384604051610a49919061541f565b908152602001604051809103902060008481526020019081526020016000206004016000815480929190610a7c90615494565b9190505550505050505050565b601383604051610a99919061541f565b9081526020016040518091039020600083815260200190815260200160002060070160009054906101000a900473ffffffffffffffffffffffffffffffffffffffff1673ffffffffffffffffffffffffffffffffffffffff163373ffffffffffffffffffffffffffffffffffffffff1614610b1357600080fd5b6000601384604051610b25919061541f565b908152602001604051809103902060008481526020019081526020016000206000018054610b529061550b565b80601f0160208091040260200160405190810160405280929190818152602001828054610b7e9061550b565b8015610bcb5780601f10610ba057610100808354040283529160200191610bcb565b820191906000526020600020905b815481529060010190602001808311610bae57829003601f168201915b505050505090506000601385604051610be4919061541f565b908152602001604051809103902060008581526020019081526020016000206004015490506000601386604051610c1b919061541f565b908152602001604051809103902060008681526020019081526020016000206005015490506000601387604051610c52919061541f565b908152602001604051809103902060008781526020019081526020016000206006015490506000601388604051610c89919061541f565b9081526020016040518091039020600088815260200190815260200160002060070160009054906101000a900473ffffffffffffffffffffffffffffffffffffffff1690506000601389604051610ce0919061541f565b908152602001604051809103902060008981526020019081526020016000206008015490506040518061012001604052808781526020018b81526020018981526020018881526020018681526020018581526020018481526020018373ffffffffffffffffffffffffffffffffffffffff1681526020018281525060138a604051610d6b919061541f565b908152602001604051809103902060008a81526020019081526020016000206000820151816000019080519060200190610da692919061446c565b506020820151816001019080519060200190610dc392919061446c565b5060408201518160020155606082015181600301556080820151816004015560a0820151816005015560c0820151816006015560e08201518160070160006101000a81548173ffffffffffffffffffffffffffffffffffffffff021916908373ffffffffffffffffffffffffffffffffffffffff160217905550610100820151816008015590505050505050505050505050565b60005481565b600f5481565b6014838051602081018201805184825260208301602085012081835280955050505050506020528160005260406000206020528060005260406000206000925092505050806000015490806001018054610ebc9061550b565b80601f0160208091040260200160405190810160405280929190818152602001828054610ee89061550b565b8015610f355780601f10610f0a57610100808354040283529160200191610f35565b820191906000526020600020905b815481529060010190602001808311610f1857829003601f168201915b505050505090806002018054610f4a9061550b565b80601f0160208091040260200160405190810160405280929190818152602001828054610f769061550b565b8015610fc35780601f10610f9857610100808354040283529160200191610fc3565b820191906000526020600020905b815481529060010190602001808311610fa657829003601f168201915b5050505050908060030154905084565b600a5481565b600c5481565b610fe7614545565b601584604051610ff7919061541f565b9081526020016040518091039020600084815260200190815260200160002060008381526020019081526020016000206040518060800160405290816000820180546110429061550b565b80601f016020809104026020016040519081016040528092919081815260200182805461106e9061550b565b80156110bb5780601f10611090576101008083540402835291602001916110bb565b820191906000526020600020905b81548152906001019060200180831161109e57829003601f168201915b505050505081526020016001820180546110d49061550b565b80601f01602080910402602001604051908101604052809291908181526020018280546111009061550b565b801561114d5780601f106111225761010080835404028352916020019161114d565b820191906000526020600020905b81548152906001019060200180831161113057829003601f168201915b505050505081526020016002820154815260200160038201601780602002604051908101604052809291906000905b8282101561121f5783820180546111929061550b565b80601f01602080910402602001604051908101604052809291908181526020018280546111be9061550b565b801561120b5780601f106111e05761010080835404028352916020019161120b565b820191906000526020600020905b8154815290600101906020018083116111ee57829003601f168201915b50505050508152602001906001019061117c565b505050508152505090509392505050565b600d5481565b60045481565b60085481565b601382805160208101820180518482526020830160208501208183528095505050505050602052806000526040600020600091509150508060000180546112889061550b565b80601f01602080910402602001604051908101604052809291908181526020018280546112b49061550b565b80156113015780601f106112d657610100808354040283529160200191611301565b820191906000526020600020905b8154815290600101906020018083116112e457829003601f168201915b5050505050908060010180546113169061550b565b80601f01602080910402602001604051908101604052809291908181526020018280546113429061550b565b801561138f5780601f106113645761010080835404028352916020019161138f565b820191906000526020600020905b81548152906001019060200180831161137257829003601f168201915b5050505050908060020154908060030154908060040154908060050154908060060154908060070160009054906101000a900473ffffffffffffffffffffffffffffffffffffffff16908060080154905089565b600e5481565b60115481565b60015481565b60178380516020810182018051848252602083016020850120818352809550505050505060205281600052604060002060205280600052604060002060009250925050508060000180546114489061550b565b80601f01602080910402602001604051908101604052809291908181526020018280546114749061550b565b80156114c15780601f10611496576101008083540402835291602001916114c1565b820191906000526020600020905b8154815290600101906020018083116114a457829003601f168201915b5050505050908060010180546114d69061550b565b80601f01602080910402602001604051908101604052809291908181526020018280546115029061550b565b801561154f5780601f106115245761010080835404028352916020019161154f565b820191906000526020600020905b81548152906001019060200180831161153257829003601f168201915b5050505050908060020180546115649061550b565b80601f01602080910402602001604051908101604052809291908181526020018280546115909061550b565b80156115dd5780601f106115b2576101008083540402835291602001916115dd565b820191906000526020600020905b8154815290600101906020018083116115c057829003601f168201915b5050505050905083565b6013846040516115f7919061541f565b9081526020016040518091039020600084815260200190815260200160002060070160009054906101000a900473ffffffffffffffffffffffffffffffffffffffff1673ffffffffffffffffffffffffffffffffffffffff163373ffffffffffffffffffffffffffffffffffffffff161461167157600080fd5b6000601585604051611683919061541f565b90815260200160405180910390206000858152602001908152602001600020600084815260200190815260200160002060000180546116c19061550b565b80601f01602080910402602001604051908101604052809291908181526020018280546116ed9061550b565b801561173a5780601f1061170f5761010080835404028352916020019161173a565b820191906000526020600020905b81548152906001019060200180831161171d57829003601f168201915b505050505090506040518060800160405280828152602001878152602001848152602001604051806102e001604052808560006017811061177e5761177d615436565b5b602002015181526020018560016017811061179c5761179b615436565b5b60200201518152602001856002601781106117ba576117b9615436565b5b60200201518152602001856003601781106117d8576117d7615436565b5b60200201518152602001856004601781106117f6576117f5615436565b5b602002015181526020018560056017811061181457611813615436565b5b602002015181526020018560066017811061183257611831615436565b5b60200201518152602001856007601781106118505761184f615436565b5b602002015181526020018560086017811061186e5761186d615436565b5b602002015181526020018560096017811061188c5761188b615436565b5b6020020151815260200185600a601781106118aa576118a9615436565b5b6020020151815260200185600b601781106118c8576118c7615436565b5b6020020151815260200185600c601781106118e6576118e5615436565b5b6020020151815260200185600d6017811061190457611903615436565b5b6020020151815260200185600e6017811061192257611921615436565b5b6020020151815260200185600f601781106119405761193f615436565b5b602002015181526020018560106017811061195e5761195d615436565b5b602002015181526020018560116017811061197c5761197b615436565b5b602002015181526020018560126017811061199a57611999615436565b5b60200201518152602001856013601781106119b8576119b7615436565b5b60200201518152602001856014601781106119d6576119d5615436565b5b60200201518152602001856015601781106119f4576119f3615436565b5b6020020151815260200185601660178110611a1257611a11615436565b5b6020020151815250815250601586604051611a2d919061541f565b9081526020016040518091039020600086815260200190815260200160002060008581526020019081526020016000206000820151816000019080519060200190611a7992919061446c565b506020820151816001019080519060200190611a9692919061446c565b5060408201518160020155606082015181600301906017611ab89291906144f2565b50905050505050505050565b60065481565b60075481565b600b5481565b60025481565b6015838051602081018201805184825260208301602085012081835280955050505050506020528160005260406000206020528060005260406000206000925092505050806000018054611b2f9061550b565b80601f0160208091040260200160405190810160405280929190818152602001828054611b5b9061550b565b8015611ba85780601f10611b7d57610100808354040283529160200191611ba8565b820191906000526020600020905b815481529060010190602001808311611b8b57829003601f168201915b505050505090806001018054611bbd9061550b565b80601f0160208091040260200160405190810160405280929190818152602001828054611be99061550b565b8015611c365780601f10611c0b57610100808354040283529160200191611c36565b820191906000526020600020905b815481529060010190602001808311611c1957829003601f168201915b5050505050908060020154905083565b601683805160208101820180518482526020830160208501208183528095505050505050602052816000526040600020602052806000526040600020600092509250509054906101000a900460ff1681565b60001515601685604051611cac919061541f565b9081526020016040518091039020600085815260200190815260200160002060003373ffffffffffffffffffffffffffffffffffffffff1673ffffffffffffffffffffffffffffffffffffffff16815260200190815260200160002060009054906101000a900460ff16151514611d2257600080fd5b6000601385604051611d34919061541f565b908152602001604051809103902060008581526020019081526020016000206000018054611d619061550b565b80601f0160208091040260200160405190810160405280929190818152602001828054611d8d9061550b565b8015611dda5780601f10611daf57610100808354040283529160200191611dda565b820191906000526020600020905b815481529060010190602001808311611dbd57829003601f168201915b505050505090506000601386604051611df3919061541f565b908152602001604051809103902060008681526020019081526020016000206001018054611e209061550b565b80601f0160208091040260200160405190810160405280929190818152602001828054611e4c9061550b565b8015611e995780601f10611e6e57610100808354040283529160200191611e99565b820191906000526020600020905b815481529060010190602001808311611e7c57829003601f168201915b505050505090506000601387604051611eb2919061541f565b908152602001604051809103902060008781526020019081526020016000206003015490506000601388604051611ee9919061541f565b908152602001604051809103902060008881526020019081526020016000206004015490506000601389604051611f20919061541f565b90815260200160405180910390206000898152602001908152602001600020600501549050600060138a604051611f57919061541f565b908152602001604051809103902060008a815260200190815260200160002060070160009054906101000a900473ffffffffffffffffffffffffffffffffffffffff169050600060138b604051611fae919061541f565b908152602001604051809103902060008b81526020019081526020016000206008015490508715611fec578880611fe490615494565b995050611ffb565b8880611ff79061553c565b9950505b6040518061012001604052808881526020018781526020018b81526020018681526020018581526020018481526020018a81526020018373ffffffffffffffffffffffffffffffffffffffff1681526020018281525060138c604051612061919061541f565b908152602001604051809103902060008c8152602001908152602001600020600082015181600001908051906020019061209c92919061446c565b5060208201518160010190805190602001906120b992919061446c565b5060408201518160020155606082015181600301556080820151816004015560a0820151816005015560c0820151816006015560e08201518160070160006101000a81548173ffffffffffffffffffffffffffffffffffffffff021916908373ffffffffffffffffffffffffffffffffffffffff16021790555061010082015181600801559050505050505050505050505050565b60138660405161215e919061541f565b9081526020016040518091039020600086815260200190815260200160002060070160009054906101000a900473ffffffffffffffffffffffffffffffffffffffff1673ffffffffffffffffffffffffffffffffffffffff163373ffffffffffffffffffffffffffffffffffffffff16146121d857600080fd5b604051806060016040528084815260200183815260200182815250601787604051612203919061541f565b908152602001604051809103902060008781526020019081526020016000206000868152602001908152602001600020600082015181600001908051906020019061224f92919061446c565b50602082015181600101908051906020019061226c92919061446c565b50604082015181600201908051906020019061228992919061446c565b5090505060138660405161229d919061541f565b9081526020016040518091039020600086815260200190815260200160002060080160008154809291906122d090615494565b9190505550505050505050565b60405180608001604052808381526020018481526020018281526020018581525060148760405161230e919061541f565b90815260200160405180910390206000878152602001908152602001600020600086815260200190815260200160002060008201518160000155602082015181600101908051906020019061236492919061446c565b50604082015181600201908051906020019061238192919061446c565b506060820151816003015590505060138660405161239f919061541f565b9081526020016040518091039020600086815260200190815260200160002060050160008154809291906123d290615494565b9190505550505050505050565b60125481565b6040518060400160405280600781526020017f6d65646963616c00000000000000000000000000000000000000000000000000815250805190602001208280519060200120036125985760405180610120016040528085815260200184815260200160005481526020018281526020016000815260200160008152602001600081526020013373ffffffffffffffffffffffffffffffffffffffff168152602001600081525060138360405161249b919061541f565b908152602001604051809103902060008054815260200190815260200160002060008201518160000190805190602001906124d792919061446c565b5060208201518160010190805190602001906124f492919061446c565b5060408201518160020155606082015181600301556080820151816004015560a0820151816005015560c0820151816006015560e08201518160070160006101000a81548173ffffffffffffffffffffffffffffffffffffffff021916908373ffffffffffffffffffffffffffffffffffffffff160217905550610100820151816008015590505060008081548092919061258e90615494565b9190505550614460565b6040518060400160405280600881526020017f6d656d6f7269616c0000000000000000000000000000000000000000000000008152508051906020012082805190602001200361274d5760405180610120016040528085815260200184815260200160015481526020018281526020016000815260200160008152602001600081526020013373ffffffffffffffffffffffffffffffffffffffff168152602001600081525060138360405161264e919061541f565b908152602001604051809103902060006001548152602001908152602001600020600082015181600001908051906020019061268b92919061446c565b5060208201518160010190805190602001906126a892919061446c565b5060408201518160020155606082015181600301556080820151816004015560a0820151816005015560c0820151816006015560e08201518160070160006101000a81548173ffffffffffffffffffffffffffffffffffffffff021916908373ffffffffffffffffffffffffffffffffffffffff16021790555061010082015181600801559050506001600081548092919061274390615494565b919050555061445f565b6040518060400160405280600981526020017f656d657267656e63790000000000000000000000000000000000000000000000815250805190602001208280519060200120036129025760405180610120016040528085815260200184815260200160025481526020018281526020016000815260200160008152602001600081526020013373ffffffffffffffffffffffffffffffffffffffff1681526020016000815250601383604051612803919061541f565b908152602001604051809103902060006002548152602001908152602001600020600082015181600001908051906020019061284092919061446c565b50602082015181600101908051906020019061285d92919061446c565b5060408201518160020155606082015181600301556080820151816004015560a0820151816005015560c0820151816006015560e08201518160070160006101000a81548173ffffffffffffffffffffffffffffffffffffffff021916908373ffffffffffffffffffffffffffffffffffffffff1602179055506101008201518160080155905050600260008154809291906128f890615494565b919050555061445e565b6040518060400160405280600981526020017f6e6f6e70726f666974000000000000000000000000000000000000000000000081525080519060200120828051906020012003612ab75760405180610120016040528085815260200184815260200160035481526020018281526020016000815260200160008152602001600081526020013373ffffffffffffffffffffffffffffffffffffffff16815260200160008152506013836040516129b8919061541f565b90815260200160405180910390206000600354815260200190815260200160002060008201518160000190805190602001906129f592919061446c565b506020820151816001019080519060200190612a1292919061446c565b5060408201518160020155606082015181600301556080820151816004015560a0820151816005015560c0820151816006015560e08201518160070160006101000a81548173ffffffffffffffffffffffffffffffffffffffff021916908373ffffffffffffffffffffffffffffffffffffffff160217905550610100820151816008015590505060036000815480929190612aad90615494565b919050555061445d565b6040518060400160405280600981526020017f656475636174696f6e000000000000000000000000000000000000000000000081525080519060200120828051906020012003612c6c5760405180610120016040528085815260200184815260200160045481526020018281526020016000815260200160008152602001600081526020013373ffffffffffffffffffffffffffffffffffffffff1681526020016000815250601383604051612b6d919061541f565b9081526020016040518091039020600060045481526020019081526020016000206000820151816000019080519060200190612baa92919061446c565b506020820151816001019080519060200190612bc792919061446c565b5060408201518160020155606082015181600301556080820151816004015560a0820151816005015560c0820151816006015560e08201518160070160006101000a81548173ffffffffffffffffffffffffffffffffffffffff021916908373ffffffffffffffffffffffffffffffffffffffff160217905550610100820151816008015590505060046000815480929190612c6290615494565b919050555061445c565b6040518060400160405280600681526020017f616e696d616c000000000000000000000000000000000000000000000000000081525080519060200120828051906020012003612e215760405180610120016040528085815260200184815260200160055481526020018281526020016000815260200160008152602001600081526020013373ffffffffffffffffffffffffffffffffffffffff1681526020016000815250601383604051612d22919061541f565b9081526020016040518091039020600060055481526020019081526020016000206000820151816000019080519060200190612d5f92919061446c565b506020820151816001019080519060200190612d7c92919061446c565b5060408201518160020155606082015181600301556080820151816004015560a0820151816005015560c0820151816006015560e08201518160070160006101000a81548173ffffffffffffffffffffffffffffffffffffffff021916908373ffffffffffffffffffffffffffffffffffffffff160217905550610100820151816008015590505060056000815480929190612e1790615494565b919050555061445b565b6040518060400160405280600b81526020017f656e7669726f6e6d656e7400000000000000000000000000000000000000000081525080519060200120828051906020012003612fd65760405180610120016040528085815260200184815260200160065481526020018281526020016000815260200160008152602001600081526020013373ffffffffffffffffffffffffffffffffffffffff1681526020016000815250601383604051612ed7919061541f565b9081526020016040518091039020600060065481526020019081526020016000206000820151816000019080519060200190612f1492919061446c565b506020820151816001019080519060200190612f3192919061446c565b5060408201518160020155606082015181600301556080820151816004015560a0820151816005015560c0820151816006015560e08201518160070160006101000a81548173ffffffffffffffffffffffffffffffffffffffff021916908373ffffffffffffffffffffffffffffffffffffffff160217905550610100820151816008015590505060066000815480929190612fcc90615494565b919050555061445a565b6040518060400160405280600881526020017f627573696e6573730000000000000000000000000000000000000000000000008152508051906020012082805190602001200361318b5760405180610120016040528085815260200184815260200160075481526020018281526020016000815260200160008152602001600081526020013373ffffffffffffffffffffffffffffffffffffffff168152602001600081525060138360405161308c919061541f565b90815260200160405180910390206000600754815260200190815260200160002060008201518160000190805190602001906130c992919061446c565b5060208201518160010190805190602001906130e692919061446c565b5060408201518160020155606082015181600301556080820151816004015560a0820151816005015560c0820151816006015560e08201518160070160006101000a81548173ffffffffffffffffffffffffffffffffffffffff021916908373ffffffffffffffffffffffffffffffffffffffff16021790555061010082015181600801559050506007600081548092919061318190615494565b9190505550614459565b6040518060400160405280600981526020017f636f6d6d756e6974790000000000000000000000000000000000000000000000815250805190602001208280519060200120036133405760405180610120016040528085815260200184815260200160085481526020018281526020016000815260200160008152602001600081526020013373ffffffffffffffffffffffffffffffffffffffff1681526020016000815250601383604051613241919061541f565b908152602001604051809103902060006008548152602001908152602001600020600082015181600001908051906020019061327e92919061446c565b50602082015181600101908051906020019061329b92919061446c565b5060408201518160020155606082015181600301556080820151816004015560a0820151816005015560c0820151816006015560e08201518160070160006101000a81548173ffffffffffffffffffffffffffffffffffffffff021916908373ffffffffffffffffffffffffffffffffffffffff16021790555061010082015181600801559050506008600081548092919061333690615494565b9190505550614458565b6040518060400160405280600b81526020017f636f6d7065746974696f6e000000000000000000000000000000000000000000815250805190602001208280519060200120036134f55760405180610120016040528085815260200184815260200160095481526020018281526020016000815260200160008152602001600081526020013373ffffffffffffffffffffffffffffffffffffffff16815260200160008152506013836040516133f6919061541f565b908152602001604051809103902060006009548152602001908152602001600020600082015181600001908051906020019061343392919061446c565b50602082015181600101908051906020019061345092919061446c565b5060408201518160020155606082015181600301556080820151816004015560a0820151816005015560c0820151816006015560e08201518160070160006101000a81548173ffffffffffffffffffffffffffffffffffffffff021916908373ffffffffffffffffffffffffffffffffffffffff1602179055506101008201518160080155905050600960008154809291906134eb90615494565b9190505550614457565b6040518060400160405280600881526020017f6372656174697665000000000000000000000000000000000000000000000000815250805190602001208280519060200120036136aa57604051806101200160405280858152602001848152602001600a5481526020018281526020016000815260200160008152602001600081526020013373ffffffffffffffffffffffffffffffffffffffff16815260200160008152506013836040516135ab919061541f565b90815260200160405180910390206000600a54815260200190815260200160002060008201518160000190805190602001906135e892919061446c565b50602082015181600101908051906020019061360592919061446c565b5060408201518160020155606082015181600301556080820151816004015560a0820151816005015560c0820151816006015560e08201518160070160006101000a81548173ffffffffffffffffffffffffffffffffffffffff021916908373ffffffffffffffffffffffffffffffffffffffff1602179055506101008201518160080155905050600a60008154809291906136a090615494565b9190505550614456565b6040518060400160405280600581526020017f6576656e740000000000000000000000000000000000000000000000000000008152508051906020012082805190602001200361385f57604051806101200160405280858152602001848152602001600b5481526020018281526020016000815260200160008152602001600081526020013373ffffffffffffffffffffffffffffffffffffffff1681526020016000815250601383604051613760919061541f565b90815260200160405180910390206000600b548152602001908152602001600020600082015181600001908051906020019061379d92919061446c565b5060208201518160010190805190602001906137ba92919061446c565b5060408201518160020155606082015181600301556080820151816004015560a0820151816005015560c0820151816006015560e08201518160070160006101000a81548173ffffffffffffffffffffffffffffffffffffffff021916908373ffffffffffffffffffffffffffffffffffffffff1602179055506101008201518160080155905050600b600081548092919061385590615494565b9190505550614455565b6040518060400160405280600981526020017f72656c6967696f7573000000000000000000000000000000000000000000000081525080519060200120828051906020012003613a1457604051806101200160405280858152602001848152602001600c5481526020018281526020016000815260200160008152602001600081526020013373ffffffffffffffffffffffffffffffffffffffff1681526020016000815250601383604051613915919061541f565b90815260200160405180910390206000600c548152602001908152602001600020600082015181600001908051906020019061395292919061446c565b50602082015181600101908051906020019061396f92919061446c565b5060408201518160020155606082015181600301556080820151816004015560a0820151816005015560c0820151816006015560e08201518160070160006101000a81548173ffffffffffffffffffffffffffffffffffffffff021916908373ffffffffffffffffffffffffffffffffffffffff1602179055506101008201518160080155905050600c6000815480929190613a0a90615494565b9190505550614454565b6040518060400160405280600681526020017f66616d696c79000000000000000000000000000000000000000000000000000081525080519060200120828051906020012003613bc957604051806101200160405280858152602001848152602001600d5481526020018281526020016000815260200160008152602001600081526020013373ffffffffffffffffffffffffffffffffffffffff1681526020016000815250601383604051613aca919061541f565b90815260200160405180910390206000600d5481526020019081526020016000206000820151816000019080519060200190613b0792919061446c565b506020820151816001019080519060200190613b2492919061446c565b5060408201518160020155606082015181600301556080820151816004015560a0820151816005015560c0820151816006015560e08201518160070160006101000a81548173ffffffffffffffffffffffffffffffffffffffff021916908373ffffffffffffffffffffffffffffffffffffffff1602179055506101008201518160080155905050600d6000815480929190613bbf90615494565b9190505550614453565b6040518060400160405280600581526020017f73706f727400000000000000000000000000000000000000000000000000000081525080519060200120828051906020012003613d7e57604051806101200160405280858152602001848152602001600e5481526020018281526020016000815260200160008152602001600081526020013373ffffffffffffffffffffffffffffffffffffffff1681526020016000815250601383604051613c7f919061541f565b90815260200160405180910390206000600e5481526020019081526020016000206000820151816000019080519060200190613cbc92919061446c565b506020820151816001019080519060200190613cd992919061446c565b5060408201518160020155606082015181600301556080820151816004015560a0820151816005015560c0820151816006015560e08201518160070160006101000a81548173ffffffffffffffffffffffffffffffffffffffff021916908373ffffffffffffffffffffffffffffffffffffffff1602179055506101008201518160080155905050600e6000815480929190613d7490615494565b9190505550614452565b6040518060400160405280600681526020017f74726176656c000000000000000000000000000000000000000000000000000081525080519060200120828051906020012003613f3357604051806101200160405280858152602001848152602001600f5481526020018281526020016000815260200160008152602001600081526020013373ffffffffffffffffffffffffffffffffffffffff1681526020016000815250601383604051613e34919061541f565b90815260200160405180910390206000600f5481526020019081526020016000206000820151816000019080519060200190613e7192919061446c565b506020820151816001019080519060200190613e8e92919061446c565b5060408201518160020155606082015181600301556080820151816004015560a0820151816005015560c0820151816006015560e08201518160070160006101000a81548173ffffffffffffffffffffffffffffffffffffffff021916908373ffffffffffffffffffffffffffffffffffffffff1602179055506101008201518160080155905050600f6000815480929190613f2990615494565b9190505550614451565b6040518060400160405280600981526020017f766f6c756e746565720000000000000000000000000000000000000000000000815250805190602001208280519060200120036140e85760405180610120016040528085815260200184815260200160105481526020018281526020016000815260200160008152602001600081526020013373ffffffffffffffffffffffffffffffffffffffff1681526020016000815250601383604051613fe9919061541f565b908152602001604051809103902060006010548152602001908152602001600020600082015181600001908051906020019061402692919061446c565b50602082015181600101908051906020019061404392919061446c565b5060408201518160020155606082015181600301556080820151816004015560a0820151816005015560c0820151816006015560e08201518160070160006101000a81548173ffffffffffffffffffffffffffffffffffffffff021916908373ffffffffffffffffffffffffffffffffffffffff1602179055506101008201518160080155905050601060008154809291906140de90615494565b9190505550614450565b6040518060400160405280600481526020017f77697368000000000000000000000000000000000000000000000000000000008152508051906020012082805190602001200361429d5760405180610120016040528085815260200184815260200160115481526020018281526020016000815260200160008152602001600081526020013373ffffffffffffffffffffffffffffffffffffffff168152602001600081525060138360405161419e919061541f565b90815260200160405180910390206000601154815260200190815260200160002060008201518160000190805190602001906141db92919061446c565b5060208201518160010190805190602001906141f892919061446c565b5060408201518160020155606082015181600301556080820151816004015560a0820151816005015560c0820151816006015560e08201518160070160006101000a81548173ffffffffffffffffffffffffffffffffffffffff021916908373ffffffffffffffffffffffffffffffffffffffff16021790555061010082015181600801559050506011600081548092919061429390615494565b919050555061444f565b6040518060400160405280600a81526020017f696e646976696475616c000000000000000000000000000000000000000000008152508051906020012082805190602001200361444e5760405180610120016040528085815260200184815260200160125481526020018281526020016000815260200160008152602001600081526020013373ffffffffffffffffffffffffffffffffffffffff1681526020016000815250601383604051614353919061541f565b908152602001604051809103902060006012548152602001908152602001600020600082015181600001908051906020019061439092919061446c565b5060208201518160010190805190602001906143ad92919061446c565b5060408201518160020155606082015181600301556080820151816004015560a0820151816005015560c0820151816006015560e08201518160070160006101000a81548173ffffffffffffffffffffffffffffffffffffffff021916908373ffffffffffffffffffffffffffffffffffffffff16021790555061010082015181600801559050506012600081548092919061444890615494565b91905055505b5b5b5b5b5b5b5b5b5b5b5b5b5b5b5b5b5b5b50505050565b60095481565b8280546144789061550b565b90600052602060002090601f01602090048101928261449a57600085556144e1565b82601f106144b357805160ff19168380011785556144e1565b828001600101855582156144e1579182015b828111156144e05782518255916020019190600101906144c5565b5b5090506144ee9190614573565b5090565b8260178101928215614534579160200282015b8281111561453357825182908051906020019061452392919061446c565b5091602001919060010190614505565b5b5090506145419190614590565b5090565b604051806080016040528060608152602001606081526020016000815260200161456d6145b4565b81525090565b5b8082111561458c576000816000905550600101614574565b5090565b5b808211156145b057600081816145a791906145dc565b50600101614591565b5090565b604051806102e001604052806017905b60608152602001906001900390816145c45790505090565b5080546145e89061550b565b6000825580601f106145fa5750614619565b601f0160209004906000526020600020908101906146189190614573565b5b50565b6000819050919050565b61462f8161461c565b82525050565b600060208201905061464a6000830184614626565b92915050565b6000604051905090565b600080fd5b600080fd5b600080fd5b600080fd5b6000601f19601f8301169050919050565b7f4e487b7100000000000000000000000000000000000000000000000000000000600052604160045260246000fd5b6146b78261466e565b810181811067ffffffffffffffff821117156146d6576146d561467f565b5b80604052505050565b60006146e9614650565b90506146f582826146ae565b919050565b600067ffffffffffffffff8211156147155761471461467f565b5b61471e8261466e565b9050602081019050919050565b82818337600083830152505050565b600061474d614748846146fa565b6146df565b90508281526020810184848401111561476957614768614669565b5b61477484828561472b565b509392505050565b600082601f83011261479157614790614664565b5b81356147a184826020860161473a565b91505092915050565b6147b38161461c565b81146147be57600080fd5b50565b6000813590506147d0816147aa565b92915050565b600067ffffffffffffffff8211156147f1576147f061467f565b5b602082029050919050565b600080fd5b600061481461480f846147d6565b6146df565b9050806020840283018581111561482e5761482d6147fc565b5b835b8181101561487557803567ffffffffffffffff81111561485357614852614664565b5b808601614860898261477c565b85526020850194505050602081019050614830565b5050509392505050565b600082601f83011261489457614893614664565b5b60176148a1848285614801565b91505092915050565b60008060008060008060c087890312156148c7576148c661465a565b5b600087013567ffffffffffffffff8111156148e5576148e461465f565b5b6148f189828a0161477c565b965050602087013567ffffffffffffffff8111156149125761491161465f565b5b61491e89828a0161477c565b955050604087013567ffffffffffffffff81111561493f5761493e61465f565b5b61494b89828a0161477c565b945050606061495c89828a016147c1565b935050608061496d89828a016147c1565b92505060a087013567ffffffffffffffff81111561498e5761498d61465f565b5b61499a89828a0161487f565b9150509295509295509295565b600080600080608085870312156149c1576149c061465a565b5b600085013567ffffffffffffffff8111156149df576149de61465f565b5b6149eb8782880161477c565b945050602085013567ffffffffffffffff811115614a0c57614a0b61465f565b5b614a188782880161477c565b9350506040614a29878288016147c1565b9250506060614a3a878288016147c1565b91505092959194509250565b600080600060608486031215614a5f57614a5e61465a565b5b600084013567ffffffffffffffff811115614a7d57614a7c61465f565b5b614a898682870161477c565b9350506020614a9a868287016147c1565b9250506040614aab868287016147c1565b9150509250925092565b600081519050919050565b600082825260208201905092915050565b60005b83811015614aef578082015181840152602081019050614ad4565b83811115614afe576000848401525b50505050565b6000614b0f82614ab5565b614b198185614ac0565b9350614b29818560208601614ad1565b614b328161466e565b840191505092915050565b6000608082019050614b526000830187614626565b8181036020830152614b648186614b04565b90508181036040830152614b788185614b04565b9050614b876060830184614626565b95945050505050565b600082825260208201905092915050565b6000614bac82614ab5565b614bb68185614b90565b9350614bc6818560208601614ad1565b614bcf8161466e565b840191505092915050565b614be38161461c565b82525050565b600060179050919050565b600081905092915050565b6000819050919050565b6000614c158383614ba1565b905092915050565b6000602082019050919050565b6000614c3582614be9565b614c3f8185614bf4565b935083602082028501614c5185614bff565b8060005b85811015614c8d5784840389528151614c6e8582614c09565b9450614c7983614c1d565b925060208a01995050600181019050614c55565b50829750879550505050505092915050565b60006080830160008301518482036000860152614cbc8282614ba1565b91505060208301518482036020860152614cd68282614ba1565b9150506040830151614ceb6040860182614bda565b5060608301518482036060860152614d038282614c2a565b9150508091505092915050565b60006020820190508181036000830152614d2a8184614c9f565b905092915050565b60008060408385031215614d4957614d4861465a565b5b600083013567ffffffffffffffff811115614d6757614d6661465f565b5b614d738582860161477c565b9250506020614d84858286016147c1565b9150509250929050565b600073ffffffffffffffffffffffffffffffffffffffff82169050919050565b6000614db982614d8e565b9050919050565b614dc981614dae565b82525050565b6000610120820190508181036000830152614dea818c614b04565b90508181036020830152614dfe818b614b04565b9050614e0d604083018a614626565b614e1a6060830189614626565b614e276080830188614626565b614e3460a0830187614626565b614e4160c0830186614626565b614e4e60e0830185614dc0565b614e5c610100830184614626565b9a9950505050505050505050565b60006060820190508181036000830152614e848186614b04565b90508181036020830152614e988185614b04565b90508181036040830152614eac8184614b04565b9050949350505050565b600080600080600060a08688031215614ed257614ed161465a565b5b600086013567ffffffffffffffff811115614ef057614eef61465f565b5b614efc8882890161477c565b955050602086013567ffffffffffffffff811115614f1d57614f1c61465f565b5b614f298882890161477c565b9450506040614f3a888289016147c1565b9350506060614f4b888289016147c1565b925050608086013567ffffffffffffffff811115614f6c57614f6b61465f565b5b614f788882890161487f565b9150509295509295909350565b60006060820190508181036000830152614f9f8186614b04565b90508181036020830152614fb38185614b04565b9050614fc26040830184614626565b949350505050565b614fd381614dae565b8114614fde57600080fd5b50565b600081359050614ff081614fca565b92915050565b60008060006060848603121561500f5761500e61465a565b5b600084013567ffffffffffffffff81111561502d5761502c61465f565b5b6150398682870161477c565b935050602061504a868287016147c1565b925050604061505b86828701614fe1565b9150509250925092565b60008115159050919050565b61507a81615065565b82525050565b60006020820190506150956000830184615071565b92915050565b6150a481615065565b81146150af57600080fd5b50565b6000813590506150c18161509b565b92915050565b600080600080608085870312156150e1576150e061465a565b5b600085013567ffffffffffffffff8111156150ff576150fe61465f565b5b61510b8782880161477c565b945050602061511c878288016147c1565b935050604061512d878288016147c1565b925050606061513e878288016150b2565b91505092959194509250565b60008060008060008060c087890312156151675761516661465a565b5b600087013567ffffffffffffffff8111156151855761518461465f565b5b61519189828a0161477c565b96505060206151a289828a016147c1565b95505060406151b389828a016147c1565b945050606087013567ffffffffffffffff8111156151d4576151d361465f565b5b6151e089828a0161477c565b935050608087013567ffffffffffffffff8111156152015761520061465f565b5b61520d89828a0161477c565b92505060a087013567ffffffffffffffff81111561522e5761522d61465f565b5b61523a89828a0161477c565b9150509295509295509295565b60008060008060008060c087890312156152645761526361465a565b5b600087013567ffffffffffffffff8111156152825761528161465f565b5b61528e89828a0161477c565b965050602061529f89828a016147c1565b95505060406152b089828a016147c1565b945050606087013567ffffffffffffffff8111156152d1576152d061465f565b5b6152dd89828a0161477c565b93505060806152ee89828a016147c1565b92505060a087013567ffffffffffffffff81111561530f5761530e61465f565b5b61531b89828a0161477c565b9150509295509295509295565b600080600080608085870312156153425761534161465a565b5b600085013567ffffffffffffffff8111156153605761535f61465f565b5b61536c8782880161477c565b945050602085013567ffffffffffffffff81111561538d5761538c61465f565b5b6153998782880161477c565b935050604085013567ffffffffffffffff8111156153ba576153b961465f565b5b6153c68782880161477c565b92505060606153d7878288016147c1565b91505092959194509250565b600081905092915050565b60006153f982614ab5565b61540381856153e3565b9350615413818560208601614ad1565b80840191505092915050565b600061542b82846153ee565b915081905092915050565b7f4e487b7100000000000000000000000000000000000000000000000000000000600052603260045260246000fd5b7f4e487b7100000000000000000000000000000000000000000000000000000000600052601160045260246000fd5b600061549f8261461c565b91507fffffffffffffffffffffffffffffffffffffffffffffffffffffffffffffffff82036154d1576154d0615465565b5b600182019050919050565b7f4e487b7100000000000000000000000000000000000000000000000000000000600052602260045260246000fd5b6000600282049050600182168061552357607f821691505b602082108103615536576155356154dc565b5b50919050565b60006155478261461c565b91506000820361555a57615559615465565b5b60018203905091905056fea264697066735822122064ac5575733b582dfdc99746b27a615c8dbe58b8b4a2859be91d33340cb7b06e64736f6c634300080d0033",
  "immutableReferences": {},
  "source": "// SPDX-License-Identifier: LGPL-3.0-only\npragma solidity ^0.8.12;\npragma abicoder v2;\n\ncontract Storage {\n  /* Create variables for total number of requests in each category strings for\n  each will be defined in the UI. */\n  uint256 public medicalRequests;\n  uint256 public memorialRequests;\n  uint256 public emergencyRequests;\n  uint256 public nonprofitRequests;\n  uint256 public educationRequests;\n  uint256 public animalRequests;\n  uint256 public environmentRequests;\n  uint256 public businessRequests;\n  uint256 public communityRequests;\n  uint256 public competitionRequests;\n  uint256 public creativeRequests;\n  uint256 public eventRequests;\n  uint256 public religiousRequests;\n  uint256 public familyRequests;\n  uint256 public sportRequests;\n  uint256 public travelRequests;\n  uint256 public volunteerRequests;\n  uint256 public wishRequests;\n  uint256 public individualRequests;\n\n  struct Request {\n      string title;\n      string description;\n      uint256 id;\n      // Amount Requested\n      uint256 amount;\n      uint256 totalOrganizers;\n      uint256 totalContributors;\n      uint256 score;\n      address creator;\n      uint256 totalPosts;\n  }\n\n  struct Contributor {\n    uint256 amountDonated;\n    string name;\n    string contributorAddress;\n    uint256 id;\n  }\n\n  struct Organizer {\n    string name;\n    string role;\n    uint256 id;\n    /* Coins are chosen based on being meant for medium of exchange with high\n    transaction volume at the time. ADA and ETH are there aswell for smart\n    contract support if people are interested in using that. */\n    string[23] addresses;\n    /* index 0 = btcAddress;\n    index 1 = bchAddress;\n    index 2 = adaAddress;\n    index 3 = dashAddress;\n    index 4 = dogeAddress;\n    index 5 = ethAddress;\n    index 6 = ltcAddress;\n    index 7 = xmrAddress;\n    index 8 = zecAddress;\n\n    Extras just for support for other chains people may want to use if volume\n    drops off in the future maybe re-evaluate showing these in UI to keep things\n    more compact/clean.\n\n    index 9 = algoAddress;\n    index 10 = avaxAddress;\n    index 11 = bscAddress;\n    index 12 = atomAddress;\n    index 13 = egldAddress;\n    index 14 = etcAddress;\n    index 15 = ftmAddress;\n    index 16 = oneAddress;\n    index 17 = lunaAddress;\n    index 18 = dotAddress;\n    index 19 = maticAddress;\n    index 20 = solAddress;\n    index 21 = xlmAddress;\n    index 22 = xrpAddress; */\n  }\n\n  // Just to return Organizer addresses array in UI/tests\n  function getOrganizer (string memory _category, uint _requestId, uint _organizerId) public view returns (Organizer memory) {\n    return Organizers[_category][_requestId][_organizerId];\n  }\n\n  // Date can be passed in from UI as UTC Time\n  struct Post {\n    string title;\n    string description;\n    string date;\n  }\n\n  // category => id of request\n  mapping(string => mapping(uint256 => Request)) public Requests;\n  // category => id of request => id of contributor\n  mapping(string => mapping(uint256 => mapping(uint256 => Contributor))) public Contributors;\n  // category => id of request => id of organizer\n  mapping(string => mapping(uint256 => mapping(uint256 => Organizer))) public Organizers;\n  // category => id of request => Polygon address of user\n  mapping(string => mapping(uint256 => mapping(address => bool))) public isVoted;\n  // category => id of request => id of post\n  mapping(string => mapping(uint256 => mapping(uint256 => Post))) public Posts;\n\n  function createRequest (\n    string memory _title,\n    string memory _description,\n    string memory _category,\n    uint256 _amount\n  ) public {\n    /* Sorting into category variables makes the code more complex with large if\n    else statements however may be useful in the case of the frontend being\n    shutdown and needing to be redeployed with all the data in the proper location */\n    if (keccak256(bytes(_category)) == keccak256(bytes(\"medical\"))) {\n        Requests[_category][medicalRequests] = Request(_title, _description, medicalRequests, _amount, 0, 0, 0, msg.sender, 0);\n        medicalRequests++;\n    } else if (keccak256(bytes(_category)) == keccak256(bytes(\"memorial\"))) {\n        Requests[_category][memorialRequests] = Request(_title, _description, memorialRequests, _amount, 0, 0, 0, msg.sender, 0);\n        memorialRequests++;\n    } else if (keccak256(bytes(_category)) == keccak256(bytes(\"emergency\"))) {\n        Requests[_category][emergencyRequests] = Request(_title, _description, emergencyRequests, _amount, 0, 0, 0, msg.sender, 0);\n        emergencyRequests++;\n    } else if (keccak256(bytes(_category)) == keccak256(bytes(\"nonprofit\"))) {\n        Requests[_category][nonprofitRequests] = Request(_title, _description, nonprofitRequests, _amount, 0, 0, 0, msg.sender, 0);\n        nonprofitRequests++;\n    } else if (keccak256(bytes(_category)) == keccak256(bytes(\"education\"))) {\n        Requests[_category][educationRequests] = Request(_title, _description, educationRequests, _amount, 0, 0, 0, msg.sender, 0);\n        educationRequests++;\n    } else if (keccak256(bytes(_category)) == keccak256(bytes(\"animal\"))) {\n        Requests[_category][animalRequests] = Request(_title, _description, animalRequests, _amount, 0, 0, 0, msg.sender, 0);\n        animalRequests++;\n    } else if (keccak256(bytes(_category)) == keccak256(bytes(\"environment\"))) {\n        Requests[_category][environmentRequests] = Request(_title, _description, environmentRequests, _amount, 0, 0, 0, msg.sender, 0);\n        environmentRequests++;\n    } else if (keccak256(bytes(_category)) == keccak256(bytes(\"business\"))) {\n        Requests[_category][businessRequests] = Request(_title, _description, businessRequests, _amount, 0, 0, 0, msg.sender, 0);\n        businessRequests++;\n    } else if (keccak256(bytes(_category)) == keccak256(bytes(\"community\"))) {\n        Requests[_category][communityRequests] = Request(_title, _description, communityRequests, _amount, 0, 0, 0, msg.sender, 0);\n        communityRequests++;\n    } else if (keccak256(bytes(_category)) == keccak256(bytes(\"competition\"))) {\n        Requests[_category][competitionRequests] = Request(_title, _description, competitionRequests, _amount, 0, 0, 0, msg.sender, 0);\n        competitionRequests++;\n    } else if (keccak256(bytes(_category)) == keccak256(bytes(\"creative\"))) {\n        Requests[_category][creativeRequests] = Request(_title, _description, creativeRequests, _amount, 0, 0, 0, msg.sender, 0);\n        creativeRequests++;\n    } else if (keccak256(bytes(_category)) == keccak256(bytes(\"event\"))) {\n        Requests[_category][eventRequests] = Request(_title, _description, eventRequests, _amount, 0, 0, 0, msg.sender, 0);\n        eventRequests++;\n    } else if (keccak256(bytes(_category)) == keccak256(bytes(\"religious\"))) {\n        Requests[_category][religiousRequests] = Request(_title, _description, religiousRequests, _amount, 0, 0, 0, msg.sender, 0);\n        religiousRequests++;\n    } else if (keccak256(bytes(_category)) == keccak256(bytes(\"family\"))) {\n        Requests[_category][familyRequests] = Request(_title, _description, familyRequests, _amount, 0, 0, 0, msg.sender, 0);\n        familyRequests++;\n    } else if (keccak256(bytes(_category)) == keccak256(bytes(\"sport\"))) {\n        Requests[_category][sportRequests] = Request(_title, _description, sportRequests, _amount, 0, 0, 0, msg.sender, 0);\n        sportRequests++;\n    } else if (keccak256(bytes(_category)) == keccak256(bytes(\"travel\"))) {\n        Requests[_category][travelRequests] = Request(_title, _description, travelRequests, _amount, 0, 0, 0, msg.sender, 0);\n        travelRequests++;\n    } else if (keccak256(bytes(_category)) == keccak256(bytes(\"volunteer\"))) {\n        Requests[_category][volunteerRequests] = Request(_title, _description, volunteerRequests, _amount, 0, 0, 0, msg.sender, 0);\n        volunteerRequests++;\n    } else if (keccak256(bytes(_category)) == keccak256(bytes(\"wish\"))) {\n        Requests[_category][wishRequests] = Request(_title, _description, wishRequests, _amount, 0, 0, 0, msg.sender, 0);\n        wishRequests++;\n    } else if (keccak256(bytes(_category)) == keccak256(bytes(\"individual\"))) {\n        Requests[_category][individualRequests] = Request(_title, _description, individualRequests, _amount, 0, 0, 0, msg.sender, 0);\n        individualRequests++;\n    }\n  }\n\n  /* Name should also have a default value of Anonymous in the UI for those who\n    don't feel safe connecting names to addresses.\n  */\n  function addOrganzier (\n    string memory _name,\n    string memory _role,\n    string memory _category,\n    uint256 _requestId,\n    uint256 _totalOrganizers,\n    string[23] memory _addresses\n  ) public {\n    require(msg.sender == Requests[_category][_requestId].creator);\n    /* Not all addresses need to be assigned a value. In the UI any addresses not\n    assigned by default should be set to \"\" which would mean an empty string.\n    That will cause setting the mapping data to not fail. Role will also be set\n    through the UI  */\n    Organizers[_category][_requestId][_totalOrganizers] = Organizer(\n      _name, _role, _totalOrganizers, [_addresses[0], _addresses[1], _addresses[2],\n      _addresses[3], _addresses[4], _addresses[5], _addresses[6], _addresses[7],\n      _addresses[8], _addresses[9], _addresses[10], _addresses[11], _addresses[12],\n      _addresses[13], _addresses[14], _addresses[15], _addresses[16], _addresses[17],\n      _addresses[18], _addresses[19], _addresses[20], _addresses[21], _addresses[22]      ]\n    );\n    Requests[_category][_requestId].totalOrganizers++;\n  }\n\n  function editOrganizer (\n    string memory _role,\n    string memory _category,\n    uint256 _requestId,\n    uint256 _organizerId,\n    string[23] memory _addresses\n  ) public {\n    require(msg.sender == Requests[_category][_requestId].creator);\n    string memory _name = Organizers[_category][_requestId][_organizerId].name;\n    /* This method will cost extra gas and can be improved upon. This can be\n    solved by either taking in less addresses or another way. In it's current\n    form it will call the current data from the blockchain and input it into the\n    UI and once resubmitted you will paying that extra gas to rewrite the same\n    address again for those unchanged. The goal would be to save that extra gas\n    cost so only the address added/changed is what's sent back. */\n    Organizers[_category][_requestId][_organizerId] = Organizer(\n      _name, _role, _organizerId, [_addresses[0], _addresses[1], _addresses[2],\n      _addresses[3], _addresses[4], _addresses[5], _addresses[6], _addresses[7],\n      _addresses[8], _addresses[9], _addresses[10], _addresses[11], _addresses[12],\n      _addresses[13], _addresses[14], _addresses[15], _addresses[16], _addresses[17],\n      _addresses[18], _addresses[19], _addresses[20], _addresses[21], _addresses[22]\n      ]\n    );\n  }\n\n  /* Values come from blockchain calls. Title should also be immutable in case of\n  an account getting hacked or a scammer changing the name and description of a\n  request. Another alternative is to allow this to be changed but have the entire\n  list of Contributors wiped. */\n  function editRequest (\n    string memory _description,\n    string memory _category,\n    uint256 _requestId,\n    uint256 _amount\n  ) public {\n    require(msg.sender == Requests[_category][_requestId].creator);\n    string memory _title = Requests[_category][_requestId].title;\n    uint256 _totalOrganizers = Requests[_category][_requestId].totalOrganizers;\n    uint256 _totalContributors = Requests[_category][_requestId].totalContributors;\n    uint256 _score = Requests[_category][_requestId].score;\n    address _creator = Requests[_category][_requestId].creator;\n    uint256 _totalPosts = Requests[_category][_requestId].totalPosts;\n\n    Requests[_category][_requestId] = Request(_title, _description, _requestId, _amount, _totalOrganizers, _totalContributors, _score, _creator, _totalPosts);\n  }\n\n  /* This feature may need to be disabled in UI in the future if it is used harmfully.\n  This feature can easily be exploited through multiple self made accounts or even\n  bot made to upvote scam requests to encourage people to donate to that request over\n  a potentially real one. Therefore this should not be used as a feature to sort\n  through requests and determine which is best to display first. */\n  function voteRequest (\n    string memory _category,\n    uint256 _requestId,\n    uint256 _score,\n    bool vote\n  ) public {\n    require(isVoted[_category][_requestId][msg.sender] == false);\n    string memory _title = Requests[_category][_requestId].title;\n    string memory _description = Requests[_category][_requestId].description;\n    uint256 _amount = Requests[_category][_requestId].amount;\n    uint256 _totalOrganizers = Requests[_category][_requestId].totalOrganizers;\n    uint256 _totalContributors = Requests[_category][_requestId].totalContributors;\n    address _creator = Requests[_category][_requestId].creator;\n    uint256 _totalPosts = Requests[_category][_requestId].totalPosts;\n    /* Downvoting can cause a large majority of people to downvote a real donation\n    request just bekcause it offends them or doesn't align with their views. This\n    should not be solely used as a way to sort requests in the UI for this reason,\n    hoever it should be kept in the system to alert people of something that may be\n    a faker request or a scammer. The other flaw with this system is that with the\n    low gas fees of hosting on a layer 2 protocol people can make many accounts and\n    send small balances to boost the upvotes on their request even if it is a scam.\n    Therefore this system may need to be disabled in the UI in the future if that is\n    the case. */\n\n    // bool = true then upvote else downvote\n    if (vote) {\n      _score++;\n    } else {\n      _score--;\n    }\n\n    Requests[_category][_requestId] = Request(_title, _description, _requestId, _amount, _totalOrganizers, _totalContributors, _score, _creator, _totalPosts);\n  }\n\n  function addContributor(\n      string memory _category,\n      uint256 _requestId,\n      uint256 _totalContributors,\n      string memory _name,\n      uint256 _amountDonated,\n      string memory _contributorAddress\n  ) public {\n    // _name & _contributorAddress in UI should be allowed to be listed as anonymous\n    Contributors[_category][_requestId][_totalContributors] = Contributor(_amountDonated, _name, _contributorAddress, _totalContributors);\n    Requests[_category][_requestId].totalContributors++;\n  }\n\n  function addPost (\n    string memory _category,\n    uint256 _requestId,\n    uint256 _totalPosts,\n    string memory _title,\n    string memory _description,\n    string memory _date\n  ) public {\n    require(msg.sender == Requests[_category][_requestId].creator);\n    Posts[_category][_requestId][_totalPosts] = Post(_title, _description, _date);\n    Requests[_category][_requestId].totalPosts++;\n\n  }\n}\n",
  "sourcePath": "/home/user/Documents/donation/src/contracts/Storage.sol",
  "compiler": {
    "name": "solc",
    "version": "0.8.13+commit.abaa5c0e.Emscripten.clang"
  },
  "schemaVersion": "3.4.1",
  "updatedAt": "2022-03-18T16:28:10.666Z",
  "devdoc": {
    "kind": "dev",
    "methods": {},
    "version": 1
  },
  "userdoc": {
    "kind": "user",
    "methods": {},
    "version": 1
  }
}