{
  "contractName": "Storage",
  "abi": [
    {
      "inputs": [
        {
          "internalType": "string",
          "name": "",
          "type": "string"
        },
        {
          "internalType": "uint256",
          "name": "",
          "type": "uint256"
        },
        {
          "internalType": "uint256",
          "name": "",
          "type": "uint256"
        }
      ],
      "name": "Contributors",
      "outputs": [
        {
          "internalType": "uint256",
          "name": "amountDonated",
          "type": "uint256"
        },
        {
          "internalType": "string",
          "name": "name",
          "type": "string"
        },
        {
          "internalType": "string",
          "name": "contributorAddress",
          "type": "string"
        },
        {
          "internalType": "uint256",
          "name": "id",
          "type": "uint256"
        }
      ],
      "stateMutability": "view",
      "type": "function"
    },
    {
      "inputs": [
        {
          "internalType": "string",
          "name": "",
          "type": "string"
        },
        {
          "internalType": "uint256",
          "name": "",
          "type": "uint256"
        },
        {
          "internalType": "uint256",
          "name": "",
          "type": "uint256"
        }
      ],
      "name": "Organizers",
      "outputs": [
        {
          "internalType": "string",
          "name": "name",
          "type": "string"
        },
        {
          "internalType": "string",
          "name": "role",
          "type": "string"
        },
        {
          "internalType": "uint256",
          "name": "id",
          "type": "uint256"
        }
      ],
      "stateMutability": "view",
      "type": "function"
    },
    {
      "inputs": [
        {
          "internalType": "string",
          "name": "",
          "type": "string"
        },
        {
          "internalType": "uint256",
          "name": "",
          "type": "uint256"
        },
        {
          "internalType": "uint256",
          "name": "",
          "type": "uint256"
        }
      ],
      "name": "Posts",
      "outputs": [
        {
          "internalType": "string",
          "name": "title",
          "type": "string"
        },
        {
          "internalType": "string",
          "name": "description",
          "type": "string"
        },
        {
          "internalType": "string",
          "name": "date",
          "type": "string"
        }
      ],
      "stateMutability": "view",
      "type": "function"
    },
    {
      "inputs": [
        {
          "internalType": "string",
          "name": "",
          "type": "string"
        },
        {
          "internalType": "uint256",
          "name": "",
          "type": "uint256"
        }
      ],
      "name": "Requests",
      "outputs": [
        {
          "internalType": "string",
          "name": "title",
          "type": "string"
        },
        {
          "internalType": "string",
          "name": "description",
          "type": "string"
        },
        {
          "internalType": "uint256",
          "name": "id",
          "type": "uint256"
        },
        {
          "internalType": "uint256",
          "name": "amount",
          "type": "uint256"
        },
        {
          "internalType": "uint256",
          "name": "totalOrganizers",
          "type": "uint256"
        },
        {
          "internalType": "uint256",
          "name": "totalContributors",
          "type": "uint256"
        },
        {
          "internalType": "uint256",
          "name": "score",
          "type": "uint256"
        },
        {
          "internalType": "address",
          "name": "creator",
          "type": "address"
        },
        {
          "internalType": "uint256",
          "name": "totalPosts",
          "type": "uint256"
        }
      ],
      "stateMutability": "view",
      "type": "function"
    },
    {
      "inputs": [
        {
          "internalType": "string",
          "name": "",
          "type": "string"
        },
        {
          "internalType": "uint256",
          "name": "",
          "type": "uint256"
        },
        {
          "internalType": "address",
          "name": "",
          "type": "address"
        }
      ],
      "name": "isVoted",
      "outputs": [
        {
          "internalType": "bool",
          "name": "",
          "type": "bool"
        }
      ],
      "stateMutability": "view",
      "type": "function"
    },
    {
      "inputs": [
        {
          "internalType": "string",
          "name": "_title",
          "type": "string"
        },
        {
          "internalType": "string",
          "name": "_description",
          "type": "string"
        },
        {
          "internalType": "string",
          "name": "_category",
          "type": "string"
        },
        {
          "internalType": "uint256",
          "name": "_amount",
          "type": "uint256"
        }
      ],
      "name": "createRequest",
      "outputs": [],
      "stateMutability": "nonpayable",
      "type": "function"
    },
    {
      "inputs": [
        {
          "internalType": "string",
          "name": "_name",
          "type": "string"
        },
        {
          "internalType": "string",
          "name": "_role",
          "type": "string"
        },
        {
          "internalType": "string",
          "name": "_category",
          "type": "string"
        },
        {
          "internalType": "uint256",
          "name": "_requestId",
          "type": "uint256"
        },
        {
          "internalType": "uint256",
          "name": "_totalOrganizers",
          "type": "uint256"
        },
        {
          "internalType": "string[23]",
          "name": "_addresses",
          "type": "string[23]"
        }
      ],
      "name": "addOrganzier",
      "outputs": [],
      "stateMutability": "nonpayable",
      "type": "function"
    },
    {
      "inputs": [
        {
          "internalType": "string",
          "name": "_role",
          "type": "string"
        },
        {
          "internalType": "string",
          "name": "_category",
          "type": "string"
        },
        {
          "internalType": "uint256",
          "name": "_requestId",
          "type": "uint256"
        },
        {
          "internalType": "uint256",
          "name": "_organizerId",
          "type": "uint256"
        },
        {
          "internalType": "string[23]",
          "name": "_addresses",
          "type": "string[23]"
        }
      ],
      "name": "editOrganzier",
      "outputs": [],
      "stateMutability": "nonpayable",
      "type": "function"
    },
    {
      "inputs": [
        {
          "internalType": "string",
          "name": "_description",
          "type": "string"
        },
        {
          "internalType": "string",
          "name": "_category",
          "type": "string"
        },
        {
          "internalType": "uint256",
          "name": "_requestId",
          "type": "uint256"
        },
        {
          "internalType": "uint256",
          "name": "_amount",
          "type": "uint256"
        }
      ],
      "name": "editRequest",
      "outputs": [],
      "stateMutability": "nonpayable",
      "type": "function"
    },
    {
      "inputs": [
        {
          "internalType": "string",
          "name": "_category",
          "type": "string"
        },
        {
          "internalType": "uint256",
          "name": "_requestId",
          "type": "uint256"
        },
        {
          "internalType": "uint256",
          "name": "_score",
          "type": "uint256"
        },
        {
          "internalType": "bool",
          "name": "vote",
          "type": "bool"
        }
      ],
      "name": "voteRequest",
      "outputs": [],
      "stateMutability": "nonpayable",
      "type": "function"
    },
    {
      "inputs": [
        {
          "internalType": "string",
          "name": "_category",
          "type": "string"
        },
        {
          "internalType": "uint256",
          "name": "_requestId",
          "type": "uint256"
        },
        {
          "internalType": "uint256",
          "name": "_totalContributors",
          "type": "uint256"
        },
        {
          "internalType": "string",
          "name": "_name",
          "type": "string"
        },
        {
          "internalType": "uint256",
          "name": "_amountDonated",
          "type": "uint256"
        },
        {
          "internalType": "string",
          "name": "_contributorAddress",
          "type": "string"
        }
      ],
      "name": "addContributor",
      "outputs": [],
      "stateMutability": "nonpayable",
      "type": "function"
    },
    {
      "inputs": [
        {
          "internalType": "string",
          "name": "_category",
          "type": "string"
        },
        {
          "internalType": "uint256",
          "name": "_requestId",
          "type": "uint256"
        },
        {
          "internalType": "uint256",
          "name": "_totalPosts",
          "type": "uint256"
        },
        {
          "internalType": "string",
          "name": "_title",
          "type": "string"
        },
        {
          "internalType": "string",
          "name": "_description",
          "type": "string"
        },
        {
          "internalType": "string",
          "name": "_date",
          "type": "string"
        }
      ],
      "name": "addPost",
      "outputs": [],
      "stateMutability": "nonpayable",
      "type": "function"
    }
  ],
  "bytecode": "0x608060405234801561001057600080fd5b50614d35806100206000396000f3fe608060405234801561001057600080fd5b50600436106100b45760003560e01c8063c6ac9f5d11610071578063c6ac9f5d146101c0578063cfc1fd6d146101f0578063d01c680f1461020c578063d1b9103714610228578063dd8c58fe14610244578063f82f7bdd14610260576100b4565b806313bd4a94146100b957806319c25905146100d55780632b9f3f04146100f15780635c983bee146101245780638efad2e11461015c578063c5dbf1fe1461018e575b600080fd5b6100d360048036038101906100ce91906141d4565b61027c565b005b6100ef60048036038101906100ea91906142d1565b6106d1565b005b61010b60048036038101906101069190614370565b610a9f565b60405161011b9493929190614476565b60405180910390f35b61013e600480360381019061013991906144c9565b610c0f565b60405161015399989796959493929190614566565b60405180910390f35b61017660048036038101906101719190614370565b610db0565b60405161018593929190614601565b60405180910390f35b6101a860048036038101906101a39190614370565b610fa2565b6040516101b79392919061464d565b60405180910390f35b6101da60048036038101906101d591906146be565b61110c565b6040516101e79190614748565b60405180910390f35b61020a6004803603810190610205919061478f565b61115e565b005b61022660048036038101906102219190614812565b611614565b005b610242600480360381019061023d919061490f565b6117a3565b005b61025e600480360381019061025991906149f0565b6118a5565b005b61027a60048036038101906102759190614abf565b611d82565b005b60138460405161028c9190614bb6565b9081526020016040518091039020600084815260200190815260200160002060070160009054906101000a900473ffffffffffffffffffffffffffffffffffffffff1673ffffffffffffffffffffffffffffffffffffffff163373ffffffffffffffffffffffffffffffffffffffff161461030657600080fd5b6040518060800160405280878152602001868152602001838152602001604051806102e001604052808460006017811061034357610342614bcd565b5b602002015181526020018460016017811061036157610360614bcd565b5b602002015181526020018460026017811061037f5761037e614bcd565b5b602002015181526020018460036017811061039d5761039c614bcd565b5b60200201518152602001846004601781106103bb576103ba614bcd565b5b60200201518152602001846005601781106103d9576103d8614bcd565b5b60200201518152602001846006601781106103f7576103f6614bcd565b5b602002015181526020018460076017811061041557610414614bcd565b5b602002015181526020018460086017811061043357610432614bcd565b5b602002015181526020018460096017811061045157610450614bcd565b5b6020020151815260200184600a6017811061046f5761046e614bcd565b5b6020020151815260200184600b6017811061048d5761048c614bcd565b5b6020020151815260200184600c601781106104ab576104aa614bcd565b5b6020020151815260200184600d601781106104c9576104c8614bcd565b5b6020020151815260200184600e601781106104e7576104e6614bcd565b5b6020020151815260200184600f6017811061050557610504614bcd565b5b602002015181526020018460106017811061052357610522614bcd565b5b602002015181526020018460116017811061054157610540614bcd565b5b602002015181526020018460126017811061055f5761055e614bcd565b5b602002015181526020018460136017811061057d5761057c614bcd565b5b602002015181526020018460146017811061059b5761059a614bcd565b5b60200201518152602001846015601781106105b9576105b8614bcd565b5b60200201518152602001846016601781106105d7576105d6614bcd565b5b60200201518152508152506015856040516105f29190614bb6565b908152602001604051809103902060008581526020019081526020016000206000848152602001908152602001600020600082015181600001908051906020019061063e929190613e16565b50602082015181600101908051906020019061065b929190613e16565b506040820151816002015560608201518160030190601761067d929190613e9c565b509050506013846040516106919190614bb6565b9081526020016040518091039020600084815260200190815260200160002060040160008154809291906106c490614c2b565b9190505550505050505050565b6013836040516106e19190614bb6565b9081526020016040518091039020600083815260200190815260200160002060070160009054906101000a900473ffffffffffffffffffffffffffffffffffffffff1673ffffffffffffffffffffffffffffffffffffffff163373ffffffffffffffffffffffffffffffffffffffff161461075b57600080fd5b600060138460405161076d9190614bb6565b90815260200160405180910390206000848152602001908152602001600020600001805461079a90614ca3565b80601f01602080910402602001604051908101604052809291908181526020018280546107c690614ca3565b80156108135780601f106107e857610100808354040283529160200191610813565b820191906000526020600020905b8154815290600101906020018083116107f657829003601f168201915b50505050509050600060138560405161082c9190614bb6565b9081526020016040518091039020600085815260200190815260200160002060040154905060006013866040516108639190614bb6565b90815260200160405180910390206000868152602001908152602001600020600501549050600060138760405161089a9190614bb6565b9081526020016040518091039020600087815260200190815260200160002060060154905060006013886040516108d19190614bb6565b9081526020016040518091039020600088815260200190815260200160002060070160009054906101000a900473ffffffffffffffffffffffffffffffffffffffff16905060006013896040516109289190614bb6565b908152602001604051809103902060008981526020019081526020016000206008015490506040518061012001604052808781526020018b81526020018981526020018881526020018681526020018581526020018481526020018373ffffffffffffffffffffffffffffffffffffffff1681526020018281525060138a6040516109b39190614bb6565b908152602001604051809103902060008a815260200190815260200160002060008201518160000190805190602001906109ee929190613e16565b506020820151816001019080519060200190610a0b929190613e16565b5060408201518160020155606082015181600301556080820151816004015560a0820151816005015560c0820151816006015560e08201518160070160006101000a81548173ffffffffffffffffffffffffffffffffffffffff021916908373ffffffffffffffffffffffffffffffffffffffff160217905550610100820151816008015590505050505050505050505050565b6014838051602081018201805184825260208301602085012081835280955050505050506020528160005260406000206020528060005260406000206000925092505050806000015490806001018054610af890614ca3565b80601f0160208091040260200160405190810160405280929190818152602001828054610b2490614ca3565b8015610b715780601f10610b4657610100808354040283529160200191610b71565b820191906000526020600020905b815481529060010190602001808311610b5457829003601f168201915b505050505090806002018054610b8690614ca3565b80601f0160208091040260200160405190810160405280929190818152602001828054610bb290614ca3565b8015610bff5780601f10610bd457610100808354040283529160200191610bff565b820191906000526020600020905b815481529060010190602001808311610be257829003601f168201915b5050505050908060030154905084565b60138280516020810182018051848252602083016020850120818352809550505050505060205280600052604060002060009150915050806000018054610c5590614ca3565b80601f0160208091040260200160405190810160405280929190818152602001828054610c8190614ca3565b8015610cce5780601f10610ca357610100808354040283529160200191610cce565b820191906000526020600020905b815481529060010190602001808311610cb157829003601f168201915b505050505090806001018054610ce390614ca3565b80601f0160208091040260200160405190810160405280929190818152602001828054610d0f90614ca3565b8015610d5c5780601f10610d3157610100808354040283529160200191610d5c565b820191906000526020600020905b815481529060010190602001808311610d3f57829003601f168201915b5050505050908060020154908060030154908060040154908060050154908060060154908060070160009054906101000a900473ffffffffffffffffffffffffffffffffffffffff16908060080154905089565b6017838051602081018201805184825260208301602085012081835280955050505050506020528160005260406000206020528060005260406000206000925092505050806000018054610e0390614ca3565b80601f0160208091040260200160405190810160405280929190818152602001828054610e2f90614ca3565b8015610e7c5780601f10610e5157610100808354040283529160200191610e7c565b820191906000526020600020905b815481529060010190602001808311610e5f57829003601f168201915b505050505090806001018054610e9190614ca3565b80601f0160208091040260200160405190810160405280929190818152602001828054610ebd90614ca3565b8015610f0a5780601f10610edf57610100808354040283529160200191610f0a565b820191906000526020600020905b815481529060010190602001808311610eed57829003601f168201915b505050505090806002018054610f1f90614ca3565b80601f0160208091040260200160405190810160405280929190818152602001828054610f4b90614ca3565b8015610f985780601f10610f6d57610100808354040283529160200191610f98565b820191906000526020600020905b815481529060010190602001808311610f7b57829003601f168201915b5050505050905083565b6015838051602081018201805184825260208301602085012081835280955050505050506020528160005260406000206020528060005260406000206000925092505050806000018054610ff590614ca3565b80601f016020809104026020016040519081016040528092919081815260200182805461102190614ca3565b801561106e5780601f106110435761010080835404028352916020019161106e565b820191906000526020600020905b81548152906001019060200180831161105157829003601f168201915b50505050509080600101805461108390614ca3565b80601f01602080910402602001604051908101604052809291908181526020018280546110af90614ca3565b80156110fc5780601f106110d1576101008083540402835291602001916110fc565b820191906000526020600020905b8154815290600101906020018083116110df57829003601f168201915b5050505050908060020154905083565b601683805160208101820180518482526020830160208501208183528095505050505050602052816000526040600020602052806000526040600020600092509250509054906101000a900460ff1681565b600015156016856040516111729190614bb6565b9081526020016040518091039020600085815260200190815260200160002060003373ffffffffffffffffffffffffffffffffffffffff1673ffffffffffffffffffffffffffffffffffffffff16815260200190815260200160002060009054906101000a900460ff161515146111e857600080fd5b60006013856040516111fa9190614bb6565b90815260200160405180910390206000858152602001908152602001600020600001805461122790614ca3565b80601f016020809104026020016040519081016040528092919081815260200182805461125390614ca3565b80156112a05780601f10611275576101008083540402835291602001916112a0565b820191906000526020600020905b81548152906001019060200180831161128357829003601f168201915b5050505050905060006013866040516112b99190614bb6565b9081526020016040518091039020600086815260200190815260200160002060010180546112e690614ca3565b80601f016020809104026020016040519081016040528092919081815260200182805461131290614ca3565b801561135f5780601f106113345761010080835404028352916020019161135f565b820191906000526020600020905b81548152906001019060200180831161134257829003601f168201915b5050505050905060006013876040516113789190614bb6565b9081526020016040518091039020600087815260200190815260200160002060030154905060006013886040516113af9190614bb6565b9081526020016040518091039020600088815260200190815260200160002060040154905060006013896040516113e69190614bb6565b90815260200160405180910390206000898152602001908152602001600020600501549050600060138a60405161141d9190614bb6565b908152602001604051809103902060008a815260200190815260200160002060070160009054906101000a900473ffffffffffffffffffffffffffffffffffffffff169050600060138b6040516114749190614bb6565b908152602001604051809103902060008b815260200190815260200160002060080154905087156114b25788806114aa90614c2b565b9950506114c1565b88806114bd90614cd5565b9950505b6040518061012001604052808881526020018781526020018b81526020018681526020018581526020018481526020018a81526020018373ffffffffffffffffffffffffffffffffffffffff1681526020018281525060138c6040516115279190614bb6565b908152602001604051809103902060008c81526020019081526020016000206000820151816000019080519060200190611562929190613e16565b50602082015181600101908051906020019061157f929190613e16565b5060408201518160020155606082015181600301556080820151816004015560a0820151816005015560c0820151816006015560e08201518160070160006101000a81548173ffffffffffffffffffffffffffffffffffffffff021916908373ffffffffffffffffffffffffffffffffffffffff16021790555061010082015181600801559050505050505050505050505050565b6013866040516116249190614bb6565b9081526020016040518091039020600086815260200190815260200160002060070160009054906101000a900473ffffffffffffffffffffffffffffffffffffffff1673ffffffffffffffffffffffffffffffffffffffff163373ffffffffffffffffffffffffffffffffffffffff161461169e57600080fd5b6040518060600160405280848152602001838152602001828152506017876040516116c99190614bb6565b9081526020016040518091039020600087815260200190815260200160002060008681526020019081526020016000206000820151816000019080519060200190611715929190613e16565b506020820151816001019080519060200190611732929190613e16565b50604082015181600201908051906020019061174f929190613e16565b509050506013866040516117639190614bb6565b90815260200160405180910390206000868152602001908152602001600020600801600081548092919061179690614c2b565b9190505550505050505050565b6040518060800160405280838152602001848152602001828152602001858152506014876040516117d49190614bb6565b90815260200160405180910390206000878152602001908152602001600020600086815260200190815260200160002060008201518160000155602082015181600101908051906020019061182a929190613e16565b506040820151816002019080519060200190611847929190613e16565b50606082015181600301559050506013866040516118659190614bb6565b90815260200160405180910390206000868152602001908152602001600020600501600081548092919061189890614c2b565b9190505550505050505050565b6013846040516118b59190614bb6565b9081526020016040518091039020600084815260200190815260200160002060070160009054906101000a900473ffffffffffffffffffffffffffffffffffffffff1673ffffffffffffffffffffffffffffffffffffffff163373ffffffffffffffffffffffffffffffffffffffff161461192f57600080fd5b60006015856040516119419190614bb6565b908152602001604051809103902060008581526020019081526020016000206000848152602001908152602001600020600001805461197f90614ca3565b80601f01602080910402602001604051908101604052809291908181526020018280546119ab90614ca3565b80156119f85780601f106119cd576101008083540402835291602001916119f8565b820191906000526020600020905b8154815290600101906020018083116119db57829003601f168201915b505050505090506040518060800160405280828152602001878152602001848152602001604051806102e0016040528085600060178110611a3c57611a3b614bcd565b5b6020020151815260200185600160178110611a5a57611a59614bcd565b5b6020020151815260200185600260178110611a7857611a77614bcd565b5b6020020151815260200185600360178110611a9657611a95614bcd565b5b6020020151815260200185600460178110611ab457611ab3614bcd565b5b6020020151815260200185600560178110611ad257611ad1614bcd565b5b6020020151815260200185600660178110611af057611aef614bcd565b5b6020020151815260200185600760178110611b0e57611b0d614bcd565b5b6020020151815260200185600860178110611b2c57611b2b614bcd565b5b6020020151815260200185600960178110611b4a57611b49614bcd565b5b6020020151815260200185600a60178110611b6857611b67614bcd565b5b6020020151815260200185600b60178110611b8657611b85614bcd565b5b6020020151815260200185600c60178110611ba457611ba3614bcd565b5b6020020151815260200185600d60178110611bc257611bc1614bcd565b5b6020020151815260200185600e60178110611be057611bdf614bcd565b5b6020020151815260200185600f60178110611bfe57611bfd614bcd565b5b6020020151815260200185601060178110611c1c57611c1b614bcd565b5b6020020151815260200185601160178110611c3a57611c39614bcd565b5b6020020151815260200185601260178110611c5857611c57614bcd565b5b6020020151815260200185601360178110611c7657611c75614bcd565b5b6020020151815260200185601460178110611c9457611c93614bcd565b5b6020020151815260200185601560178110611cb257611cb1614bcd565b5b6020020151815260200185601660178110611cd057611ccf614bcd565b5b6020020151815250815250601586604051611ceb9190614bb6565b9081526020016040518091039020600086815260200190815260200160002060008581526020019081526020016000206000820151816000019080519060200190611d37929190613e16565b506020820151816001019080519060200190611d54929190613e16565b5060408201518160020155606082015181600301906017611d76929190613e9c565b50905050505050505050565b6040518060400160405280600781526020017f6d65646963616c000000000000000000000000000000000000000000000000008152508051906020012082805190602001201415611f365760405180610120016040528085815260200184815260200160005481526020018281526020016000815260200160008152602001600081526020013373ffffffffffffffffffffffffffffffffffffffff1681526020016000815250601383604051611e399190614bb6565b90815260200160405180910390206000805481526020019081526020016000206000820151816000019080519060200190611e75929190613e16565b506020820151816001019080519060200190611e92929190613e16565b5060408201518160020155606082015181600301556080820151816004015560a0820151816005015560c0820151816006015560e08201518160070160006101000a81548173ffffffffffffffffffffffffffffffffffffffff021916908373ffffffffffffffffffffffffffffffffffffffff1602179055506101008201518160080155905050600080815480929190611f2c90614c2b565b9190505550613e10565b6040518060400160405280600881526020017f6d656d6f7269616c00000000000000000000000000000000000000000000000081525080519060200120828051906020012014156120ec5760405180610120016040528085815260200184815260200160015481526020018281526020016000815260200160008152602001600081526020013373ffffffffffffffffffffffffffffffffffffffff1681526020016000815250601383604051611fed9190614bb6565b908152602001604051809103902060006001548152602001908152602001600020600082015181600001908051906020019061202a929190613e16565b506020820151816001019080519060200190612047929190613e16565b5060408201518160020155606082015181600301556080820151816004015560a0820151816005015560c0820151816006015560e08201518160070160006101000a81548173ffffffffffffffffffffffffffffffffffffffff021916908373ffffffffffffffffffffffffffffffffffffffff1602179055506101008201518160080155905050600160008154809291906120e290614c2b565b9190505550613e0f565b6040518060400160405280600981526020017f656d657267656e6379000000000000000000000000000000000000000000000081525080519060200120828051906020012014156122a25760405180610120016040528085815260200184815260200160025481526020018281526020016000815260200160008152602001600081526020013373ffffffffffffffffffffffffffffffffffffffff16815260200160008152506013836040516121a39190614bb6565b90815260200160405180910390206000600254815260200190815260200160002060008201518160000190805190602001906121e0929190613e16565b5060208201518160010190805190602001906121fd929190613e16565b5060408201518160020155606082015181600301556080820151816004015560a0820151816005015560c0820151816006015560e08201518160070160006101000a81548173ffffffffffffffffffffffffffffffffffffffff021916908373ffffffffffffffffffffffffffffffffffffffff16021790555061010082015181600801559050506002600081548092919061229890614c2b565b9190505550613e0e565b6040518060400160405280600981526020017f6e6f6e70726f666974000000000000000000000000000000000000000000000081525080519060200120828051906020012014156124585760405180610120016040528085815260200184815260200160035481526020018281526020016000815260200160008152602001600081526020013373ffffffffffffffffffffffffffffffffffffffff16815260200160008152506013836040516123599190614bb6565b9081526020016040518091039020600060035481526020019081526020016000206000820151816000019080519060200190612396929190613e16565b5060208201518160010190805190602001906123b3929190613e16565b5060408201518160020155606082015181600301556080820151816004015560a0820151816005015560c0820151816006015560e08201518160070160006101000a81548173ffffffffffffffffffffffffffffffffffffffff021916908373ffffffffffffffffffffffffffffffffffffffff16021790555061010082015181600801559050506003600081548092919061244e90614c2b565b9190505550613e0d565b6040518060400160405280600981526020017f656475636174696f6e0000000000000000000000000000000000000000000000815250805190602001208280519060200120141561260e5760405180610120016040528085815260200184815260200160045481526020018281526020016000815260200160008152602001600081526020013373ffffffffffffffffffffffffffffffffffffffff168152602001600081525060138360405161250f9190614bb6565b908152602001604051809103902060006004548152602001908152602001600020600082015181600001908051906020019061254c929190613e16565b506020820151816001019080519060200190612569929190613e16565b5060408201518160020155606082015181600301556080820151816004015560a0820151816005015560c0820151816006015560e08201518160070160006101000a81548173ffffffffffffffffffffffffffffffffffffffff021916908373ffffffffffffffffffffffffffffffffffffffff16021790555061010082015181600801559050506004600081548092919061260490614c2b565b9190505550613e0c565b6040518060400160405280600681526020017f616e696d616c000000000000000000000000000000000000000000000000000081525080519060200120828051906020012014156127c45760405180610120016040528085815260200184815260200160055481526020018281526020016000815260200160008152602001600081526020013373ffffffffffffffffffffffffffffffffffffffff16815260200160008152506013836040516126c59190614bb6565b9081526020016040518091039020600060055481526020019081526020016000206000820151816000019080519060200190612702929190613e16565b50602082015181600101908051906020019061271f929190613e16565b5060408201518160020155606082015181600301556080820151816004015560a0820151816005015560c0820151816006015560e08201518160070160006101000a81548173ffffffffffffffffffffffffffffffffffffffff021916908373ffffffffffffffffffffffffffffffffffffffff1602179055506101008201518160080155905050600560008154809291906127ba90614c2b565b9190505550613e0b565b6040518060400160405280600b81526020017f656e7669726f6e6d656e74000000000000000000000000000000000000000000815250805190602001208280519060200120141561297a5760405180610120016040528085815260200184815260200160065481526020018281526020016000815260200160008152602001600081526020013373ffffffffffffffffffffffffffffffffffffffff168152602001600081525060138360405161287b9190614bb6565b90815260200160405180910390206000600654815260200190815260200160002060008201518160000190805190602001906128b8929190613e16565b5060208201518160010190805190602001906128d5929190613e16565b5060408201518160020155606082015181600301556080820151816004015560a0820151816005015560c0820151816006015560e08201518160070160006101000a81548173ffffffffffffffffffffffffffffffffffffffff021916908373ffffffffffffffffffffffffffffffffffffffff16021790555061010082015181600801559050506006600081548092919061297090614c2b565b9190505550613e0a565b6040518060400160405280600881526020017f627573696e6573730000000000000000000000000000000000000000000000008152508051906020012082805190602001201415612b305760405180610120016040528085815260200184815260200160075481526020018281526020016000815260200160008152602001600081526020013373ffffffffffffffffffffffffffffffffffffffff1681526020016000815250601383604051612a319190614bb6565b9081526020016040518091039020600060075481526020019081526020016000206000820151816000019080519060200190612a6e929190613e16565b506020820151816001019080519060200190612a8b929190613e16565b5060408201518160020155606082015181600301556080820151816004015560a0820151816005015560c0820151816006015560e08201518160070160006101000a81548173ffffffffffffffffffffffffffffffffffffffff021916908373ffffffffffffffffffffffffffffffffffffffff160217905550610100820151816008015590505060076000815480929190612b2690614c2b565b9190505550613e09565b6040518060400160405280600981526020017f636f6d6d756e69747900000000000000000000000000000000000000000000008152508051906020012082805190602001201415612ce65760405180610120016040528085815260200184815260200160085481526020018281526020016000815260200160008152602001600081526020013373ffffffffffffffffffffffffffffffffffffffff1681526020016000815250601383604051612be79190614bb6565b9081526020016040518091039020600060085481526020019081526020016000206000820151816000019080519060200190612c24929190613e16565b506020820151816001019080519060200190612c41929190613e16565b5060408201518160020155606082015181600301556080820151816004015560a0820151816005015560c0820151816006015560e08201518160070160006101000a81548173ffffffffffffffffffffffffffffffffffffffff021916908373ffffffffffffffffffffffffffffffffffffffff160217905550610100820151816008015590505060086000815480929190612cdc90614c2b565b9190505550613e08565b6040518060400160405280600b81526020017f636f6d7065746974696f6e0000000000000000000000000000000000000000008152508051906020012082805190602001201415612e9c5760405180610120016040528085815260200184815260200160095481526020018281526020016000815260200160008152602001600081526020013373ffffffffffffffffffffffffffffffffffffffff1681526020016000815250601383604051612d9d9190614bb6565b9081526020016040518091039020600060095481526020019081526020016000206000820151816000019080519060200190612dda929190613e16565b506020820151816001019080519060200190612df7929190613e16565b5060408201518160020155606082015181600301556080820151816004015560a0820151816005015560c0820151816006015560e08201518160070160006101000a81548173ffffffffffffffffffffffffffffffffffffffff021916908373ffffffffffffffffffffffffffffffffffffffff160217905550610100820151816008015590505060096000815480929190612e9290614c2b565b9190505550613e07565b6040518060400160405280600881526020017f6372656174697665000000000000000000000000000000000000000000000000815250805190602001208280519060200120141561305257604051806101200160405280858152602001848152602001600a5481526020018281526020016000815260200160008152602001600081526020013373ffffffffffffffffffffffffffffffffffffffff1681526020016000815250601383604051612f539190614bb6565b90815260200160405180910390206000600a5481526020019081526020016000206000820151816000019080519060200190612f90929190613e16565b506020820151816001019080519060200190612fad929190613e16565b5060408201518160020155606082015181600301556080820151816004015560a0820151816005015560c0820151816006015560e08201518160070160006101000a81548173ffffffffffffffffffffffffffffffffffffffff021916908373ffffffffffffffffffffffffffffffffffffffff1602179055506101008201518160080155905050600a600081548092919061304890614c2b565b9190505550613e06565b6040518060400160405280600581526020017f6576656e74000000000000000000000000000000000000000000000000000000815250805190602001208280519060200120141561320857604051806101200160405280858152602001848152602001600b5481526020018281526020016000815260200160008152602001600081526020013373ffffffffffffffffffffffffffffffffffffffff16815260200160008152506013836040516131099190614bb6565b90815260200160405180910390206000600b5481526020019081526020016000206000820151816000019080519060200190613146929190613e16565b506020820151816001019080519060200190613163929190613e16565b5060408201518160020155606082015181600301556080820151816004015560a0820151816005015560c0820151816006015560e08201518160070160006101000a81548173ffffffffffffffffffffffffffffffffffffffff021916908373ffffffffffffffffffffffffffffffffffffffff1602179055506101008201518160080155905050600b60008154809291906131fe90614c2b565b9190505550613e05565b6040518060400160405280600981526020017f72656c6967696f7573000000000000000000000000000000000000000000000081525080519060200120828051906020012014156133be57604051806101200160405280858152602001848152602001600c5481526020018281526020016000815260200160008152602001600081526020013373ffffffffffffffffffffffffffffffffffffffff16815260200160008152506013836040516132bf9190614bb6565b90815260200160405180910390206000600c54815260200190815260200160002060008201518160000190805190602001906132fc929190613e16565b506020820151816001019080519060200190613319929190613e16565b5060408201518160020155606082015181600301556080820151816004015560a0820151816005015560c0820151816006015560e08201518160070160006101000a81548173ffffffffffffffffffffffffffffffffffffffff021916908373ffffffffffffffffffffffffffffffffffffffff1602179055506101008201518160080155905050600c60008154809291906133b490614c2b565b9190505550613e04565b6040518060400160405280600681526020017f66616d696c790000000000000000000000000000000000000000000000000000815250805190602001208280519060200120141561357457604051806101200160405280858152602001848152602001600d5481526020018281526020016000815260200160008152602001600081526020013373ffffffffffffffffffffffffffffffffffffffff16815260200160008152506013836040516134759190614bb6565b90815260200160405180910390206000600d54815260200190815260200160002060008201518160000190805190602001906134b2929190613e16565b5060208201518160010190805190602001906134cf929190613e16565b5060408201518160020155606082015181600301556080820151816004015560a0820151816005015560c0820151816006015560e08201518160070160006101000a81548173ffffffffffffffffffffffffffffffffffffffff021916908373ffffffffffffffffffffffffffffffffffffffff1602179055506101008201518160080155905050600d600081548092919061356a90614c2b565b9190505550613e03565b6040518060400160405280600581526020017f73706f7274000000000000000000000000000000000000000000000000000000815250805190602001208280519060200120141561372a57604051806101200160405280858152602001848152602001600e5481526020018281526020016000815260200160008152602001600081526020013373ffffffffffffffffffffffffffffffffffffffff168152602001600081525060138360405161362b9190614bb6565b90815260200160405180910390206000600e5481526020019081526020016000206000820151816000019080519060200190613668929190613e16565b506020820151816001019080519060200190613685929190613e16565b5060408201518160020155606082015181600301556080820151816004015560a0820151816005015560c0820151816006015560e08201518160070160006101000a81548173ffffffffffffffffffffffffffffffffffffffff021916908373ffffffffffffffffffffffffffffffffffffffff1602179055506101008201518160080155905050600e600081548092919061372090614c2b565b9190505550613e02565b6040518060400160405280600681526020017f74726176656c000000000000000000000000000000000000000000000000000081525080519060200120828051906020012014156138e057604051806101200160405280858152602001848152602001600f5481526020018281526020016000815260200160008152602001600081526020013373ffffffffffffffffffffffffffffffffffffffff16815260200160008152506013836040516137e19190614bb6565b90815260200160405180910390206000600f548152602001908152602001600020600082015181600001908051906020019061381e929190613e16565b50602082015181600101908051906020019061383b929190613e16565b5060408201518160020155606082015181600301556080820151816004015560a0820151816005015560c0820151816006015560e08201518160070160006101000a81548173ffffffffffffffffffffffffffffffffffffffff021916908373ffffffffffffffffffffffffffffffffffffffff1602179055506101008201518160080155905050600f60008154809291906138d690614c2b565b9190505550613e01565b6040518060400160405280600981526020017f766f6c756e7465657200000000000000000000000000000000000000000000008152508051906020012082805190602001201415613a965760405180610120016040528085815260200184815260200160105481526020018281526020016000815260200160008152602001600081526020013373ffffffffffffffffffffffffffffffffffffffff16815260200160008152506013836040516139979190614bb6565b90815260200160405180910390206000601054815260200190815260200160002060008201518160000190805190602001906139d4929190613e16565b5060208201518160010190805190602001906139f1929190613e16565b5060408201518160020155606082015181600301556080820151816004015560a0820151816005015560c0820151816006015560e08201518160070160006101000a81548173ffffffffffffffffffffffffffffffffffffffff021916908373ffffffffffffffffffffffffffffffffffffffff160217905550610100820151816008015590505060106000815480929190613a8c90614c2b565b9190505550613e00565b6040518060400160405280600481526020017f77697368000000000000000000000000000000000000000000000000000000008152508051906020012082805190602001201415613c4c5760405180610120016040528085815260200184815260200160115481526020018281526020016000815260200160008152602001600081526020013373ffffffffffffffffffffffffffffffffffffffff1681526020016000815250601383604051613b4d9190614bb6565b9081526020016040518091039020600060115481526020019081526020016000206000820151816000019080519060200190613b8a929190613e16565b506020820151816001019080519060200190613ba7929190613e16565b5060408201518160020155606082015181600301556080820151816004015560a0820151816005015560c0820151816006015560e08201518160070160006101000a81548173ffffffffffffffffffffffffffffffffffffffff021916908373ffffffffffffffffffffffffffffffffffffffff160217905550610100820151816008015590505060116000815480929190613c4290614c2b565b9190505550613dff565b6040518060400160405280600a81526020017f696e646976696475616c000000000000000000000000000000000000000000008152508051906020012082805190602001201415613dfe5760405180610120016040528085815260200184815260200160125481526020018281526020016000815260200160008152602001600081526020013373ffffffffffffffffffffffffffffffffffffffff1681526020016000815250601383604051613d039190614bb6565b9081526020016040518091039020600060125481526020019081526020016000206000820151816000019080519060200190613d40929190613e16565b506020820151816001019080519060200190613d5d929190613e16565b5060408201518160020155606082015181600301556080820151816004015560a0820151816005015560c0820151816006015560e08201518160070160006101000a81548173ffffffffffffffffffffffffffffffffffffffff021916908373ffffffffffffffffffffffffffffffffffffffff160217905550610100820151816008015590505060126000815480929190613df890614c2b565b91905055505b5b5b5b5b5b5b5b5b5b5b5b5b5b5b5b5b5b5b50505050565b828054613e2290614ca3565b90600052602060002090601f016020900481019282613e445760008555613e8b565b82601f10613e5d57805160ff1916838001178555613e8b565b82800160010185558215613e8b579182015b82811115613e8a578251825591602001919060010190613e6f565b5b509050613e989190613eef565b5090565b8260178101928215613ede579160200282015b82811115613edd578251829080519060200190613ecd929190613e16565b5091602001919060010190613eaf565b5b509050613eeb9190613f0c565b5090565b5b80821115613f08576000816000905550600101613ef0565b5090565b5b80821115613f2c5760008181613f239190613f30565b50600101613f0d565b5090565b508054613f3c90614ca3565b6000825580601f10613f4e5750613f6d565b601f016020900490600052602060002090810190613f6c9190613eef565b5b50565b6000604051905090565b600080fd5b600080fd5b600080fd5b600080fd5b6000601f19601f8301169050919050565b7f4e487b7100000000000000000000000000000000000000000000000000000000600052604160045260246000fd5b613fd782613f8e565b810181811067ffffffffffffffff82111715613ff657613ff5613f9f565b5b80604052505050565b6000614009613f70565b90506140158282613fce565b919050565b600067ffffffffffffffff82111561403557614034613f9f565b5b61403e82613f8e565b9050602081019050919050565b82818337600083830152505050565b600061406d6140688461401a565b613fff565b90508281526020810184848401111561408957614088613f89565b5b61409484828561404b565b509392505050565b600082601f8301126140b1576140b0613f84565b5b81356140c184826020860161405a565b91505092915050565b6000819050919050565b6140dd816140ca565b81146140e857600080fd5b50565b6000813590506140fa816140d4565b92915050565b600067ffffffffffffffff82111561411b5761411a613f9f565b5b602082029050919050565b600080fd5b600061413e61413984614100565b613fff565b9050806020840283018581111561415857614157614126565b5b835b8181101561419f57803567ffffffffffffffff81111561417d5761417c613f84565b5b80860161418a898261409c565b8552602085019450505060208101905061415a565b5050509392505050565b600082601f8301126141be576141bd613f84565b5b60176141cb84828561412b565b91505092915050565b60008060008060008060c087890312156141f1576141f0613f7a565b5b600087013567ffffffffffffffff81111561420f5761420e613f7f565b5b61421b89828a0161409c565b965050602087013567ffffffffffffffff81111561423c5761423b613f7f565b5b61424889828a0161409c565b955050604087013567ffffffffffffffff81111561426957614268613f7f565b5b61427589828a0161409c565b945050606061428689828a016140eb565b935050608061429789828a016140eb565b92505060a087013567ffffffffffffffff8111156142b8576142b7613f7f565b5b6142c489828a016141a9565b9150509295509295509295565b600080600080608085870312156142eb576142ea613f7a565b5b600085013567ffffffffffffffff81111561430957614308613f7f565b5b6143158782880161409c565b945050602085013567ffffffffffffffff81111561433657614335613f7f565b5b6143428782880161409c565b9350506040614353878288016140eb565b9250506060614364878288016140eb565b91505092959194509250565b60008060006060848603121561438957614388613f7a565b5b600084013567ffffffffffffffff8111156143a7576143a6613f7f565b5b6143b38682870161409c565b93505060206143c4868287016140eb565b92505060406143d5868287016140eb565b9150509250925092565b6143e8816140ca565b82525050565b600081519050919050565b600082825260208201905092915050565b60005b8381101561442857808201518184015260208101905061440d565b83811115614437576000848401525b50505050565b6000614448826143ee565b61445281856143f9565b935061446281856020860161440a565b61446b81613f8e565b840191505092915050565b600060808201905061448b60008301876143df565b818103602083015261449d818661443d565b905081810360408301526144b1818561443d565b90506144c060608301846143df565b95945050505050565b600080604083850312156144e0576144df613f7a565b5b600083013567ffffffffffffffff8111156144fe576144fd613f7f565b5b61450a8582860161409c565b925050602061451b858286016140eb565b9150509250929050565b600073ffffffffffffffffffffffffffffffffffffffff82169050919050565b600061455082614525565b9050919050565b61456081614545565b82525050565b6000610120820190508181036000830152614581818c61443d565b90508181036020830152614595818b61443d565b90506145a4604083018a6143df565b6145b160608301896143df565b6145be60808301886143df565b6145cb60a08301876143df565b6145d860c08301866143df565b6145e560e0830185614557565b6145f36101008301846143df565b9a9950505050505050505050565b6000606082019050818103600083015261461b818661443d565b9050818103602083015261462f818561443d565b90508181036040830152614643818461443d565b9050949350505050565b60006060820190508181036000830152614667818661443d565b9050818103602083015261467b818561443d565b905061468a60408301846143df565b949350505050565b61469b81614545565b81146146a657600080fd5b50565b6000813590506146b881614692565b92915050565b6000806000606084860312156146d7576146d6613f7a565b5b600084013567ffffffffffffffff8111156146f5576146f4613f7f565b5b6147018682870161409c565b9350506020614712868287016140eb565b9250506040614723868287016146a9565b9150509250925092565b60008115159050919050565b6147428161472d565b82525050565b600060208201905061475d6000830184614739565b92915050565b61476c8161472d565b811461477757600080fd5b50565b60008135905061478981614763565b92915050565b600080600080608085870312156147a9576147a8613f7a565b5b600085013567ffffffffffffffff8111156147c7576147c6613f7f565b5b6147d38782880161409c565b94505060206147e4878288016140eb565b93505060406147f5878288016140eb565b92505060606148068782880161477a565b91505092959194509250565b60008060008060008060c0878903121561482f5761482e613f7a565b5b600087013567ffffffffffffffff81111561484d5761484c613f7f565b5b61485989828a0161409c565b965050602061486a89828a016140eb565b955050604061487b89828a016140eb565b945050606087013567ffffffffffffffff81111561489c5761489b613f7f565b5b6148a889828a0161409c565b935050608087013567ffffffffffffffff8111156148c9576148c8613f7f565b5b6148d589828a0161409c565b92505060a087013567ffffffffffffffff8111156148f6576148f5613f7f565b5b61490289828a0161409c565b9150509295509295509295565b60008060008060008060c0878903121561492c5761492b613f7a565b5b600087013567ffffffffffffffff81111561494a57614949613f7f565b5b61495689828a0161409c565b965050602061496789828a016140eb565b955050604061497889828a016140eb565b945050606087013567ffffffffffffffff81111561499957614998613f7f565b5b6149a589828a0161409c565b93505060806149b689828a016140eb565b92505060a087013567ffffffffffffffff8111156149d7576149d6613f7f565b5b6149e389828a0161409c565b9150509295509295509295565b600080600080600060a08688031215614a0c57614a0b613f7a565b5b600086013567ffffffffffffffff811115614a2a57614a29613f7f565b5b614a368882890161409c565b955050602086013567ffffffffffffffff811115614a5757614a56613f7f565b5b614a638882890161409c565b9450506040614a74888289016140eb565b9350506060614a85888289016140eb565b925050608086013567ffffffffffffffff811115614aa657614aa5613f7f565b5b614ab2888289016141a9565b9150509295509295909350565b60008060008060808587031215614ad957614ad8613f7a565b5b600085013567ffffffffffffffff811115614af757614af6613f7f565b5b614b038782880161409c565b945050602085013567ffffffffffffffff811115614b2457614b23613f7f565b5b614b308782880161409c565b935050604085013567ffffffffffffffff811115614b5157614b50613f7f565b5b614b5d8782880161409c565b9250506060614b6e878288016140eb565b91505092959194509250565b600081905092915050565b6000614b90826143ee565b614b9a8185614b7a565b9350614baa81856020860161440a565b80840191505092915050565b6000614bc28284614b85565b915081905092915050565b7f4e487b7100000000000000000000000000000000000000000000000000000000600052603260045260246000fd5b7f4e487b7100000000000000000000000000000000000000000000000000000000600052601160045260246000fd5b6000614c36826140ca565b91507fffffffffffffffffffffffffffffffffffffffffffffffffffffffffffffffff821415614c6957614c68614bfc565b5b600182019050919050565b7f4e487b7100000000000000000000000000000000000000000000000000000000600052602260045260246000fd5b60006002820490506001821680614cbb57607f821691505b60208210811415614ccf57614cce614c74565b5b50919050565b6000614ce0826140ca565b91506000821415614cf457614cf3614bfc565b5b60018203905091905056fea2646970667358221220d520afa631f71d6e8187755331651f0d341c5fb255e2005692f7e2b22cd136ef64736f6c634300080c0033",
  "immutableReferences": {},
  "source": "// SPDX-License-Identifier: LGPL-3.0-only\npragma solidity ^0.8.12;\n\ncontract Storage {\n  /* Create variables for total number of requests in each category strings for\n  each will be defined in the UI. */\n  // Check gas cost of individual variables vs array. Maybe cheaper but probably not\n  uint256 medicalRequests;\n  uint256 memorialRequests;\n  uint256 emergencyRequests;\n  uint256 nonprofitRequests;\n  uint256 educationRequests;\n  uint256 animalRequests;\n  uint256 environmentRequests;\n  uint256 businessRequests;\n  uint256 communityRequests;\n  uint256 competitionRequests;\n  uint256 creativeRequests;\n  uint256 eventRequests;\n  uint256 religiousRequests;\n  uint256 familyRequests;\n  uint256 sportRequests;\n  uint256 travelRequests;\n  uint256 volunteerRequests;\n  uint256 wishRequests;\n  uint256 individualRequests;\n\n  struct Request {\n      string title;\n      string description;\n      uint256 id;\n      // Amount Requested\n      uint256 amount;\n      uint256 totalOrganizers;\n      uint256 totalContributors;\n      uint256 score;\n      address creator;\n      uint256 totalPosts;\n  }\n\n  struct Contributor {\n    uint256 amountDonated;\n    string name;\n    string contributorAddress;\n    uint256 id;\n  }\n\n  struct Organizer {\n    string name;\n    string role;\n    uint256 id;\n    /* Coins are chosen based on being meant for medium of exchange with high\n    transaction volume at the time. ADA and ETH are there aswell for smart\n    contract support if people are interested in using that. */\n    string[23] addresses;\n    /* index 0 = btcAddress;\n    index 1 = bchAddress;\n    index 2 = adaAddress;\n    index 3 = dashAddress;\n    index 4 = dogeAddress;\n    index 5 = ethAddress;\n    index 6 = ltcAddress;\n    index 7 = xmrAddress;\n    index 8 = zecAddress;\n\n    Extras just for support for other chains people may want to use if volume\n    drops off in the future maybe re-evaluate showing these in UI to keep things\n    more compact/clean.\n\n    index 9 = algoAddress;\n    index 10 = avaxAddress;\n    index 11 = bscAddress;\n    index 12 = atomAddress;\n    index 13 = egldAddress;\n    index 14 = etcAddress;\n    index 15 = ftmAddress;\n    index 16 = oneAddress;\n    index 17 = lunaAddress;\n    index 18 = dotAddress;\n    index 19 = maticAddress;\n    index 20 = solAddress;\n    index 21 = xlmAddress;\n    index 22 = xrpAddress; */\n  }\n\n  // Date can be passed in from UI as UTC Time\n  struct Post {\n    string title;\n    string description;\n    string date;\n  }\n\n  // category => id of request\n  mapping(string => mapping (uint256 => Request)) public Requests;\n  // category => id of request => id of contributor\n  mapping(string => mapping(uint256 => mapping(uint256 => Contributor))) public Contributors;\n  // category => id of request => id of organizer\n  mapping(string => mapping(uint256 => mapping(uint256 => Organizer))) public Organizers;\n  // category => id of request => Polygon address of user\n  mapping(string => mapping(uint256 => mapping(address => bool))) public isVoted;\n  // category => id of request => id of post\n  mapping(string => mapping(uint256 => mapping(uint256 => Post))) public Posts;\n\n  function createRequest (\n    string memory _title,\n    string memory _description,\n    string memory _category,\n    uint256 _amount\n  ) public {\n    /* Sorting into category variables makes the code more complex with large if\n    else statements however may be useful in the case of the frontend being\n    shutdown and needing to be redeployed with all the data in the proper location */\n    if (keccak256(bytes(_category)) == keccak256(bytes(\"medical\"))) {\n        Requests[_category][medicalRequests] = Request(_title, _description, medicalRequests, _amount, 0, 0, 0, msg.sender, 0);\n        medicalRequests++;\n    } else if (keccak256(bytes(_category)) == keccak256(bytes(\"memorial\"))) {\n        Requests[_category][memorialRequests] = Request(_title, _description, memorialRequests, _amount, 0, 0, 0, msg.sender, 0);\n        memorialRequests++;\n    } else if (keccak256(bytes(_category)) == keccak256(bytes(\"emergency\"))) {\n        Requests[_category][emergencyRequests] = Request(_title, _description, emergencyRequests, _amount, 0, 0, 0, msg.sender, 0);\n        emergencyRequests++;\n    } else if (keccak256(bytes(_category)) == keccak256(bytes(\"nonprofit\"))) {\n        Requests[_category][nonprofitRequests] = Request(_title, _description, nonprofitRequests, _amount, 0, 0, 0, msg.sender, 0);\n        nonprofitRequests++;\n    } else if (keccak256(bytes(_category)) == keccak256(bytes(\"education\"))) {\n        Requests[_category][educationRequests] = Request(_title, _description, educationRequests, _amount, 0, 0, 0, msg.sender, 0);\n        educationRequests++;\n    } else if (keccak256(bytes(_category)) == keccak256(bytes(\"animal\"))) {\n        Requests[_category][animalRequests] = Request(_title, _description, animalRequests, _amount, 0, 0, 0, msg.sender, 0);\n        animalRequests++;\n    } else if (keccak256(bytes(_category)) == keccak256(bytes(\"environment\"))) {\n        Requests[_category][environmentRequests] = Request(_title, _description, environmentRequests, _amount, 0, 0, 0, msg.sender, 0);\n        environmentRequests++;\n    } else if (keccak256(bytes(_category)) == keccak256(bytes(\"business\"))) {\n        Requests[_category][businessRequests] = Request(_title, _description, businessRequests, _amount, 0, 0, 0, msg.sender, 0);\n        businessRequests++;\n    } else if (keccak256(bytes(_category)) == keccak256(bytes(\"community\"))) {\n        Requests[_category][communityRequests] = Request(_title, _description, communityRequests, _amount, 0, 0, 0, msg.sender, 0);\n        communityRequests++;\n    } else if (keccak256(bytes(_category)) == keccak256(bytes(\"competition\"))) {\n        Requests[_category][competitionRequests] = Request(_title, _description, competitionRequests, _amount, 0, 0, 0, msg.sender, 0);\n        competitionRequests++;\n    } else if (keccak256(bytes(_category)) == keccak256(bytes(\"creative\"))) {\n        Requests[_category][creativeRequests] = Request(_title, _description, creativeRequests, _amount, 0, 0, 0, msg.sender, 0);\n        creativeRequests++;\n    } else if (keccak256(bytes(_category)) == keccak256(bytes(\"event\"))) {\n        Requests[_category][eventRequests] = Request(_title, _description, eventRequests, _amount, 0, 0, 0, msg.sender, 0);\n        eventRequests++;\n    } else if (keccak256(bytes(_category)) == keccak256(bytes(\"religious\"))) {\n        Requests[_category][religiousRequests] = Request(_title, _description, religiousRequests, _amount, 0, 0, 0, msg.sender, 0);\n        religiousRequests++;\n    } else if (keccak256(bytes(_category)) == keccak256(bytes(\"family\"))) {\n        Requests[_category][familyRequests] = Request(_title, _description, familyRequests, _amount, 0, 0, 0, msg.sender, 0);\n        familyRequests++;\n    } else if (keccak256(bytes(_category)) == keccak256(bytes(\"sport\"))) {\n        Requests[_category][sportRequests] = Request(_title, _description, sportRequests, _amount, 0, 0, 0, msg.sender, 0);\n        sportRequests++;\n    } else if (keccak256(bytes(_category)) == keccak256(bytes(\"travel\"))) {\n        Requests[_category][travelRequests] = Request(_title, _description, travelRequests, _amount, 0, 0, 0, msg.sender, 0);\n        travelRequests++;\n    } else if (keccak256(bytes(_category)) == keccak256(bytes(\"volunteer\"))) {\n        Requests[_category][volunteerRequests] = Request(_title, _description, volunteerRequests, _amount, 0, 0, 0, msg.sender, 0);\n        volunteerRequests++;\n    } else if (keccak256(bytes(_category)) == keccak256(bytes(\"wish\"))) {\n        Requests[_category][wishRequests] = Request(_title, _description, wishRequests, _amount, 0, 0, 0, msg.sender, 0);\n        wishRequests++;\n    } else if (keccak256(bytes(_category)) == keccak256(bytes(\"individual\"))) {\n        Requests[_category][individualRequests] = Request(_title, _description, individualRequests, _amount, 0, 0, 0, msg.sender, 0);\n        individualRequests++;\n    }\n  }\n\n  /* Name should also have a default value of Anonymous in the UI for those who\n    don't feel safe connecting names to addresses.\n  */\n  function addOrganzier (\n    string memory _name,\n    string memory _role,\n    string memory _category,\n    uint256 _requestId,\n    uint256 _totalOrganizers,\n    string[23] memory _addresses\n  ) public {\n    require(msg.sender == Requests[_category][_requestId].creator);\n    /* Not all addresses need to be assigned a value. In the UI any addresses not\n    assigned by default should be set to \"\" which would mean an empty string.\n    That will cause setting the mapping data to not fail. Role will also be set\n    through the UI  */\n    Organizers[_category][_requestId][_totalOrganizers] = Organizer(\n      _name, _role, _totalOrganizers, [_addresses[0], _addresses[1], _addresses[2],\n      _addresses[3], _addresses[4], _addresses[5], _addresses[6], _addresses[7],\n      _addresses[8], _addresses[9], _addresses[10], _addresses[11], _addresses[12],\n      _addresses[13], _addresses[14], _addresses[15], _addresses[16], _addresses[17],\n      _addresses[18], _addresses[19], _addresses[20], _addresses[21], _addresses[22]      ]\n    );\n    Requests[_category][_requestId].totalOrganizers++;\n  }\n\n  function editOrganzier (\n    string memory _role,\n    string memory _category,\n    uint256 _requestId,\n    uint256 _organizerId,\n    string[23] memory _addresses\n  ) public {\n    require(msg.sender == Requests[_category][_requestId].creator);\n    string memory _name = Organizers[_category][_requestId][_organizerId].name;\n    /* This method will cost extra gas and can be improved upon. This can be\n    solved by either taking in less addresses or another way. In it's current\n    form it will call the current data from the blockchain and input it into the\n    UI and once resubmitted you will paying that extra gas to rewrite the same\n    address again for those unchanged. The goal would be to save that extra gas\n    cost so only the address added/changed is what's sent back. */\n    Organizers[_category][_requestId][_organizerId] = Organizer(\n      _name, _role, _organizerId, [_addresses[0], _addresses[1], _addresses[2],\n      _addresses[3], _addresses[4], _addresses[5], _addresses[6], _addresses[7],\n      _addresses[8], _addresses[9], _addresses[10], _addresses[11], _addresses[12],\n      _addresses[13], _addresses[14], _addresses[15], _addresses[16], _addresses[17],\n      _addresses[18], _addresses[19], _addresses[20], _addresses[21], _addresses[22]\n      ]\n    );\n  }\n\n  /* Values come from blockchain calls. Title should also be immutable in case of\n  an account getting hacked or a scammer changing the name and description of a\n  request. Another alternative is to allow this to be changed but have the entire\n  list of Contributors wiped. */\n  function editRequest (\n    string memory _description,\n    string memory _category,\n    uint256 _requestId,\n    uint256 _amount\n  ) public {\n    require(msg.sender == Requests[_category][_requestId].creator);\n    string memory _title = Requests[_category][_requestId].title;\n    uint256 _totalOrganizers = Requests[_category][_requestId].totalOrganizers;\n    uint256 _totalContributors = Requests[_category][_requestId].totalContributors;\n    uint256 _score = Requests[_category][_requestId].score;\n    address _creator = Requests[_category][_requestId].creator;\n    uint256 _totalPosts = Requests[_category][_requestId].totalPosts;\n    /* Category doesn't need the string checked like createRequest because that\n    was just to */\n    Requests[_category][_requestId] = Request(_title, _description, _requestId, _amount, _totalOrganizers, _totalContributors, _score, _creator, _totalPosts);\n  }\n\n  /* This feature may need to be disabled in UI in the future if it is used harmfully.\n  This feature can easily be exploited through multiple self made accounts or even\n  bot made to upvote scam requests to encourage people to donate to that request over\n  a potentially real one. Therefore this should not be used as a feature to sort\n  through requests and determine which is best to display first. */\n  function voteRequest (\n    string memory _category,\n    uint256 _requestId,\n    uint256 _score,\n    bool vote\n  ) public {\n    require(isVoted[_category][_requestId][msg.sender] == false);\n    string memory _title = Requests[_category][_requestId].title;\n    string memory _description = Requests[_category][_requestId].description;\n    uint256 _amount = Requests[_category][_requestId].amount;\n    uint256 _totalOrganizers = Requests[_category][_requestId].totalOrganizers;\n    uint256 _totalContributors = Requests[_category][_requestId].totalContributors;\n    address _creator = Requests[_category][_requestId].creator;\n    uint256 _totalPosts = Requests[_category][_requestId].totalPosts;\n    /* Downvoting can cause a large majority of people to downvote a real donation\n    request just bekcause it offends them or doesn't align with their views. This\n    should not be solely used as a way to sort requests in the UI for this reason,\n    hoever it should be kept in the system to alert people of something that may be\n    a faker request or a scammer. The other flaw with this system is that with the\n    low gas fees of hosting on a layer 2 protocol people can make many accounts and\n    send small balances to boost the upvotes on their request even if it is a scam.\n    Therefore this system may need to be disabled in the UI in the future if that is\n    the case. */\n\n    // bool = true then upvote else downvote\n    if (vote) {\n      _score++;\n    } else {\n      _score--;\n    }\n\n    Requests[_category][_requestId] = Request(_title, _description, _requestId, _amount, _totalOrganizers, _totalContributors, _score, _creator, _totalPosts);\n  }\n\n  function addContributor(\n      string memory _category,\n      uint256 _requestId,\n      uint256 _totalContributors,\n      string memory _name,\n      uint256 _amountDonated,\n      string memory _contributorAddress\n  ) public {\n    // _name & _contributorAddress in UI should be allowed to be listed as anonymous\n    Contributors[_category][_requestId][_totalContributors] = Contributor(_amountDonated, _name, _contributorAddress, _totalContributors);\n    Requests[_category][_requestId].totalContributors++;\n  }\n\n  function addPost (\n    string memory _category,\n    uint256 _requestId,\n    uint256 _totalPosts,\n    string memory _title,\n    string memory _description,\n    string memory _date\n  ) public {\n    require(msg.sender == Requests[_category][_requestId].creator);\n    Posts[_category][_requestId][_totalPosts] = Post(_title, _description, _date);\n    Requests[_category][_requestId].totalPosts++;\n\n  }\n}\n",
  "sourcePath": "/home/user/Documents/donation/src/contracts/Storage.sol",
  "compiler": {
    "name": "solc",
    "version": "0.8.12+commit.f00d7308.Emscripten.clang"
  },
  "schemaVersion": "3.4.1",
  "updatedAt": "2022-03-15T20:29:53.706Z",
  "devdoc": {
    "kind": "dev",
    "methods": {},
    "version": 1
  },
  "userdoc": {
    "kind": "user",
    "methods": {},
    "version": 1
  }
}