{
  "contractName": "Storage",
  "abi": [
    {
      "inputs": [
        {
          "internalType": "string",
          "name": "",
          "type": "string"
        },
        {
          "internalType": "uint256",
          "name": "",
          "type": "uint256"
        },
        {
          "internalType": "uint256",
          "name": "",
          "type": "uint256"
        }
      ],
      "name": "Contributors",
      "outputs": [
        {
          "internalType": "uint256",
          "name": "amountDonated",
          "type": "uint256"
        },
        {
          "internalType": "string",
          "name": "name",
          "type": "string"
        },
        {
          "internalType": "string",
          "name": "contributorAddress",
          "type": "string"
        },
        {
          "internalType": "uint256",
          "name": "id",
          "type": "uint256"
        }
      ],
      "stateMutability": "view",
      "type": "function"
    },
    {
      "inputs": [
        {
          "internalType": "string",
          "name": "",
          "type": "string"
        },
        {
          "internalType": "uint256",
          "name": "",
          "type": "uint256"
        },
        {
          "internalType": "uint256",
          "name": "",
          "type": "uint256"
        }
      ],
      "name": "Organizers",
      "outputs": [
        {
          "internalType": "string",
          "name": "name",
          "type": "string"
        },
        {
          "internalType": "string",
          "name": "role",
          "type": "string"
        },
        {
          "internalType": "uint256",
          "name": "id",
          "type": "uint256"
        }
      ],
      "stateMutability": "view",
      "type": "function"
    },
    {
      "inputs": [
        {
          "internalType": "string",
          "name": "",
          "type": "string"
        },
        {
          "internalType": "uint256",
          "name": "",
          "type": "uint256"
        },
        {
          "internalType": "uint256",
          "name": "",
          "type": "uint256"
        }
      ],
      "name": "Posts",
      "outputs": [
        {
          "internalType": "string",
          "name": "title",
          "type": "string"
        },
        {
          "internalType": "string",
          "name": "description",
          "type": "string"
        },
        {
          "internalType": "string",
          "name": "date",
          "type": "string"
        }
      ],
      "stateMutability": "view",
      "type": "function"
    },
    {
      "inputs": [
        {
          "internalType": "string",
          "name": "",
          "type": "string"
        },
        {
          "internalType": "uint256",
          "name": "",
          "type": "uint256"
        }
      ],
      "name": "Requests",
      "outputs": [
        {
          "internalType": "string",
          "name": "title",
          "type": "string"
        },
        {
          "internalType": "string",
          "name": "description",
          "type": "string"
        },
        {
          "internalType": "uint256",
          "name": "id",
          "type": "uint256"
        },
        {
          "internalType": "uint256",
          "name": "amount",
          "type": "uint256"
        },
        {
          "internalType": "uint256",
          "name": "totalOrganizers",
          "type": "uint256"
        },
        {
          "internalType": "uint256",
          "name": "totalContributors",
          "type": "uint256"
        },
        {
          "internalType": "int256",
          "name": "score",
          "type": "int256"
        },
        {
          "internalType": "address",
          "name": "creator",
          "type": "address"
        },
        {
          "internalType": "uint256",
          "name": "totalPosts",
          "type": "uint256"
        }
      ],
      "stateMutability": "view",
      "type": "function"
    },
    {
      "inputs": [],
      "name": "animalRequests",
      "outputs": [
        {
          "internalType": "uint256",
          "name": "",
          "type": "uint256"
        }
      ],
      "stateMutability": "view",
      "type": "function"
    },
    {
      "inputs": [],
      "name": "businessRequests",
      "outputs": [
        {
          "internalType": "uint256",
          "name": "",
          "type": "uint256"
        }
      ],
      "stateMutability": "view",
      "type": "function"
    },
    {
      "inputs": [],
      "name": "communityRequests",
      "outputs": [
        {
          "internalType": "uint256",
          "name": "",
          "type": "uint256"
        }
      ],
      "stateMutability": "view",
      "type": "function"
    },
    {
      "inputs": [],
      "name": "competitionRequests",
      "outputs": [
        {
          "internalType": "uint256",
          "name": "",
          "type": "uint256"
        }
      ],
      "stateMutability": "view",
      "type": "function"
    },
    {
      "inputs": [],
      "name": "creativeRequests",
      "outputs": [
        {
          "internalType": "uint256",
          "name": "",
          "type": "uint256"
        }
      ],
      "stateMutability": "view",
      "type": "function"
    },
    {
      "inputs": [],
      "name": "educationRequests",
      "outputs": [
        {
          "internalType": "uint256",
          "name": "",
          "type": "uint256"
        }
      ],
      "stateMutability": "view",
      "type": "function"
    },
    {
      "inputs": [],
      "name": "emergencyRequests",
      "outputs": [
        {
          "internalType": "uint256",
          "name": "",
          "type": "uint256"
        }
      ],
      "stateMutability": "view",
      "type": "function"
    },
    {
      "inputs": [],
      "name": "environmentRequests",
      "outputs": [
        {
          "internalType": "uint256",
          "name": "",
          "type": "uint256"
        }
      ],
      "stateMutability": "view",
      "type": "function"
    },
    {
      "inputs": [],
      "name": "eventRequests",
      "outputs": [
        {
          "internalType": "uint256",
          "name": "",
          "type": "uint256"
        }
      ],
      "stateMutability": "view",
      "type": "function"
    },
    {
      "inputs": [],
      "name": "familyRequests",
      "outputs": [
        {
          "internalType": "uint256",
          "name": "",
          "type": "uint256"
        }
      ],
      "stateMutability": "view",
      "type": "function"
    },
    {
      "inputs": [],
      "name": "individualRequests",
      "outputs": [
        {
          "internalType": "uint256",
          "name": "",
          "type": "uint256"
        }
      ],
      "stateMutability": "view",
      "type": "function"
    },
    {
      "inputs": [
        {
          "internalType": "string",
          "name": "",
          "type": "string"
        },
        {
          "internalType": "uint256",
          "name": "",
          "type": "uint256"
        },
        {
          "internalType": "address",
          "name": "",
          "type": "address"
        }
      ],
      "name": "isVoted",
      "outputs": [
        {
          "internalType": "bool",
          "name": "",
          "type": "bool"
        }
      ],
      "stateMutability": "view",
      "type": "function"
    },
    {
      "inputs": [],
      "name": "medicalRequests",
      "outputs": [
        {
          "internalType": "uint256",
          "name": "",
          "type": "uint256"
        }
      ],
      "stateMutability": "view",
      "type": "function"
    },
    {
      "inputs": [],
      "name": "memorialRequests",
      "outputs": [
        {
          "internalType": "uint256",
          "name": "",
          "type": "uint256"
        }
      ],
      "stateMutability": "view",
      "type": "function"
    },
    {
      "inputs": [],
      "name": "nonprofitRequests",
      "outputs": [
        {
          "internalType": "uint256",
          "name": "",
          "type": "uint256"
        }
      ],
      "stateMutability": "view",
      "type": "function"
    },
    {
      "inputs": [],
      "name": "religiousRequests",
      "outputs": [
        {
          "internalType": "uint256",
          "name": "",
          "type": "uint256"
        }
      ],
      "stateMutability": "view",
      "type": "function"
    },
    {
      "inputs": [],
      "name": "sportRequests",
      "outputs": [
        {
          "internalType": "uint256",
          "name": "",
          "type": "uint256"
        }
      ],
      "stateMutability": "view",
      "type": "function"
    },
    {
      "inputs": [],
      "name": "travelRequests",
      "outputs": [
        {
          "internalType": "uint256",
          "name": "",
          "type": "uint256"
        }
      ],
      "stateMutability": "view",
      "type": "function"
    },
    {
      "inputs": [],
      "name": "volunteerRequests",
      "outputs": [
        {
          "internalType": "uint256",
          "name": "",
          "type": "uint256"
        }
      ],
      "stateMutability": "view",
      "type": "function"
    },
    {
      "inputs": [],
      "name": "wishRequests",
      "outputs": [
        {
          "internalType": "uint256",
          "name": "",
          "type": "uint256"
        }
      ],
      "stateMutability": "view",
      "type": "function"
    },
    {
      "inputs": [
        {
          "internalType": "string",
          "name": "_category",
          "type": "string"
        },
        {
          "internalType": "uint256",
          "name": "_requestId",
          "type": "uint256"
        },
        {
          "internalType": "uint256",
          "name": "_organizerId",
          "type": "uint256"
        }
      ],
      "name": "getOrganizer",
      "outputs": [
        {
          "components": [
            {
              "internalType": "string",
              "name": "name",
              "type": "string"
            },
            {
              "internalType": "string",
              "name": "role",
              "type": "string"
            },
            {
              "internalType": "uint256",
              "name": "id",
              "type": "uint256"
            },
            {
              "internalType": "string[23]",
              "name": "addresses",
              "type": "string[23]"
            }
          ],
          "internalType": "struct Storage.Organizer",
          "name": "",
          "type": "tuple"
        }
      ],
      "stateMutability": "view",
      "type": "function"
    },
    {
      "inputs": [
        {
          "internalType": "string",
          "name": "_title",
          "type": "string"
        },
        {
          "internalType": "string",
          "name": "_description",
          "type": "string"
        },
        {
          "internalType": "string",
          "name": "_category",
          "type": "string"
        },
        {
          "internalType": "uint256",
          "name": "_amount",
          "type": "uint256"
        }
      ],
      "name": "createRequest",
      "outputs": [],
      "stateMutability": "nonpayable",
      "type": "function"
    },
    {
      "inputs": [
        {
          "internalType": "string",
          "name": "_name",
          "type": "string"
        },
        {
          "internalType": "string",
          "name": "_role",
          "type": "string"
        },
        {
          "internalType": "string",
          "name": "_category",
          "type": "string"
        },
        {
          "internalType": "uint256",
          "name": "_requestId",
          "type": "uint256"
        },
        {
          "internalType": "uint256",
          "name": "_totalOrganizers",
          "type": "uint256"
        },
        {
          "internalType": "string[23]",
          "name": "_addresses",
          "type": "string[23]"
        }
      ],
      "name": "addOrganzier",
      "outputs": [],
      "stateMutability": "nonpayable",
      "type": "function"
    },
    {
      "inputs": [
        {
          "internalType": "string",
          "name": "_role",
          "type": "string"
        },
        {
          "internalType": "string",
          "name": "_category",
          "type": "string"
        },
        {
          "internalType": "uint256",
          "name": "_requestId",
          "type": "uint256"
        },
        {
          "internalType": "uint256",
          "name": "_organizerId",
          "type": "uint256"
        },
        {
          "internalType": "string[23]",
          "name": "_addresses",
          "type": "string[23]"
        }
      ],
      "name": "editOrganizer",
      "outputs": [],
      "stateMutability": "nonpayable",
      "type": "function"
    },
    {
      "inputs": [
        {
          "internalType": "string",
          "name": "_description",
          "type": "string"
        },
        {
          "internalType": "string",
          "name": "_category",
          "type": "string"
        },
        {
          "internalType": "uint256",
          "name": "_requestId",
          "type": "uint256"
        },
        {
          "internalType": "uint256",
          "name": "_amount",
          "type": "uint256"
        }
      ],
      "name": "editRequest",
      "outputs": [],
      "stateMutability": "nonpayable",
      "type": "function"
    },
    {
      "inputs": [
        {
          "internalType": "string",
          "name": "_category",
          "type": "string"
        },
        {
          "internalType": "uint256",
          "name": "_requestId",
          "type": "uint256"
        },
        {
          "internalType": "bool",
          "name": "_vote",
          "type": "bool"
        }
      ],
      "name": "voteRequest",
      "outputs": [],
      "stateMutability": "nonpayable",
      "type": "function"
    },
    {
      "inputs": [
        {
          "internalType": "string",
          "name": "_category",
          "type": "string"
        },
        {
          "internalType": "uint256",
          "name": "_requestId",
          "type": "uint256"
        },
        {
          "internalType": "string",
          "name": "_name",
          "type": "string"
        },
        {
          "internalType": "uint256",
          "name": "_amountDonated",
          "type": "uint256"
        },
        {
          "internalType": "string",
          "name": "_contributorAddress",
          "type": "string"
        }
      ],
      "name": "addContributor",
      "outputs": [],
      "stateMutability": "nonpayable",
      "type": "function"
    },
    {
      "inputs": [
        {
          "internalType": "string",
          "name": "_category",
          "type": "string"
        },
        {
          "internalType": "uint256",
          "name": "_requestId",
          "type": "uint256"
        },
        {
          "internalType": "string",
          "name": "_title",
          "type": "string"
        },
        {
          "internalType": "string",
          "name": "_description",
          "type": "string"
        },
        {
          "internalType": "string",
          "name": "_date",
          "type": "string"
        }
      ],
      "name": "addPost",
      "outputs": [],
      "stateMutability": "nonpayable",
      "type": "function"
    }
  ],
  "bytecode": "0x608060405234801561001057600080fd5b5061570d80620000216000396000f3fe608060405234801561001057600080fd5b50600436106101f05760003560e01c80635c983bee1161010f5780639ef2179c116100a2578063e505c5f811610071578063e505c5f8146105ae578063e9e61c5d146105ca578063f82f7bdd146105e8578063fddbe15614610604576101f0565b80639ef2179c14610510578063b0366f3f1461052e578063c5dbf1fe1461054c578063c6ac9f5d1461057e576101f0565b80638efad2e1116100de5780638efad2e1146104865780638f2f3f67146104b85780638fb0bd91146104d45780639420d6a1146104f2576101f0565b80635c983bee146103f457806368d2ff741461042c5780636edc8e4d1461044a5780638a9d8d2514610468576101f0565b80632b9f3f04116101875780633456601f116101565780633456601f1461037e578063421cca951461039c57806343e5bbdf146103ba578063563a8603146103d8576101f0565b80632b9f3f04146102df5780632c89f361146103125780632d7e140f14610330578063316d524a1461034e576101f0565b806319c25905116101c357806319c259051461026b578063215adc51146102875780632205ed2d146102a557806327f62583146102c1576101f0565b806301b57d95146101f55780630a9de09c1461021357806313907f8c1461023157806313bd4a941461024f575b600080fd5b6101fd610622565b60405161020a919061475f565b60405180910390f35b61021b610628565b604051610228919061475f565b60405180910390f35b61023961062e565b604051610246919061475f565b60405180910390f35b610269600480360381019061026491906149d4565b610634565b005b61028560048036038101906102809190614ad1565b610a89565b005b61028f610e57565b60405161029c919061475f565b60405180910390f35b6102bf60048036038101906102ba9190614b70565b610e5d565b005b6102c9611023565b6040516102d6919061475f565b60405180910390f35b6102f960048036038101906102f49190614c5b565b611029565b6040516103099493929190614d52565b60405180910390f35b61031a611199565b604051610327919061475f565b60405180910390f35b61033861119f565b604051610345919061475f565b60405180910390f35b61036860048036038101906103639190614c5b565b6111a5565b6040516103759190614f25565b60405180910390f35b6103866113f6565b604051610393919061475f565b60405180910390f35b6103a46113fc565b6040516103b1919061475f565b60405180910390f35b6103c2611402565b6040516103cf919061475f565b60405180910390f35b6103f260048036038101906103ed9190614f7f565b611408565b005b61040e60048036038101906104099190614fee565b61197a565b604051610423999897969594939291906150a4565b60405180910390f35b610434611b1b565b604051610441919061475f565b60405180910390f35b610452611b21565b60405161045f919061475f565b60405180910390f35b610470611b27565b60405161047d919061475f565b60405180910390f35b6104a0600480360381019061049b9190614c5b565b611b2d565b6040516104af9392919061513f565b60405180910390f35b6104d260048036038101906104cd919061518b565b611d1f565b005b6104dc6121fc565b6040516104e9919061475f565b60405180910390f35b6104fa612202565b604051610507919061475f565b60405180910390f35b610518612208565b604051610525919061475f565b60405180910390f35b61053661220e565b604051610543919061475f565b60405180910390f35b61056660048036038101906105619190614c5b565b612214565b6040516105759392919061525a565b60405180910390f35b610598600480360381019061059391906152cb565b61237e565b6040516105a59190615349565b60405180910390f35b6105c860048036038101906105c39190615364565b6123d0565b005b6105d2612509565b6040516105df919061475f565b60405180910390f35b61060260048036038101906105fd9190615433565b61250f565b005b61060c614590565b604051610619919061475f565b60405180910390f35b60115481565b600d5481565b60005481565b601384604051610644919061552a565b9081526020016040518091039020600084815260200190815260200160002060070160009054906101000a900473ffffffffffffffffffffffffffffffffffffffff1673ffffffffffffffffffffffffffffffffffffffff163373ffffffffffffffffffffffffffffffffffffffff16146106be57600080fd5b6040518060800160405280878152602001868152602001838152602001604051806102e00160405280846000601781106106fb576106fa615541565b5b602002015181526020018460016017811061071957610718615541565b5b602002015181526020018460026017811061073757610736615541565b5b602002015181526020018460036017811061075557610754615541565b5b602002015181526020018460046017811061077357610772615541565b5b602002015181526020018460056017811061079157610790615541565b5b60200201518152602001846006601781106107af576107ae615541565b5b60200201518152602001846007601781106107cd576107cc615541565b5b60200201518152602001846008601781106107eb576107ea615541565b5b602002015181526020018460096017811061080957610808615541565b5b6020020151815260200184600a6017811061082757610826615541565b5b6020020151815260200184600b6017811061084557610844615541565b5b6020020151815260200184600c6017811061086357610862615541565b5b6020020151815260200184600d6017811061088157610880615541565b5b6020020151815260200184600e6017811061089f5761089e615541565b5b6020020151815260200184600f601781106108bd576108bc615541565b5b60200201518152602001846010601781106108db576108da615541565b5b60200201518152602001846011601781106108f9576108f8615541565b5b602002015181526020018460126017811061091757610916615541565b5b602002015181526020018460136017811061093557610934615541565b5b602002015181526020018460146017811061095357610952615541565b5b602002015181526020018460156017811061097157610970615541565b5b602002015181526020018460166017811061098f5761098e615541565b5b60200201518152508152506015856040516109aa919061552a565b90815260200160405180910390206000858152602001908152602001600020600084815260200190815260200160002060008201518160000190805190602001906109f6929190614596565b506020820151816001019080519060200190610a13929190614596565b5060408201518160020155606082015181600301906017610a3592919061461c565b50905050601384604051610a49919061552a565b908152602001604051809103902060008481526020019081526020016000206004016000815480929190610a7c9061559f565b9190505550505050505050565b601383604051610a99919061552a565b9081526020016040518091039020600083815260200190815260200160002060070160009054906101000a900473ffffffffffffffffffffffffffffffffffffffff1673ffffffffffffffffffffffffffffffffffffffff163373ffffffffffffffffffffffffffffffffffffffff1614610b1357600080fd5b6000601384604051610b25919061552a565b908152602001604051809103902060008481526020019081526020016000206000018054610b5290615616565b80601f0160208091040260200160405190810160405280929190818152602001828054610b7e90615616565b8015610bcb5780601f10610ba057610100808354040283529160200191610bcb565b820191906000526020600020905b815481529060010190602001808311610bae57829003601f168201915b505050505090506000601385604051610be4919061552a565b908152602001604051809103902060008581526020019081526020016000206004015490506000601386604051610c1b919061552a565b908152602001604051809103902060008681526020019081526020016000206005015490506000601387604051610c52919061552a565b908152602001604051809103902060008781526020019081526020016000206006015490506000601388604051610c89919061552a565b9081526020016040518091039020600088815260200190815260200160002060070160009054906101000a900473ffffffffffffffffffffffffffffffffffffffff1690506000601389604051610ce0919061552a565b908152602001604051809103902060008981526020019081526020016000206008015490506040518061012001604052808781526020018b81526020018981526020018881526020018681526020018581526020018481526020018373ffffffffffffffffffffffffffffffffffffffff1681526020018281525060138a604051610d6b919061552a565b908152602001604051809103902060008a81526020019081526020016000206000820151816000019080519060200190610da6929190614596565b506020820151816001019080519060200190610dc3929190614596565b5060408201518160020155606082015181600301556080820151816004015560a0820151816005015560c0820151816006015560e08201518160070160006101000a81548173ffffffffffffffffffffffffffffffffffffffff021916908373ffffffffffffffffffffffffffffffffffffffff160217905550610100820151816008015590505050505050505050505050565b600b5481565b601385604051610e6d919061552a565b9081526020016040518091039020600085815260200190815260200160002060070160009054906101000a900473ffffffffffffffffffffffffffffffffffffffff1673ffffffffffffffffffffffffffffffffffffffff163373ffffffffffffffffffffffffffffffffffffffff1614610ee757600080fd5b6000601386604051610ef9919061552a565b90815260200160405180910390206000868152602001908152602001600020600801549050604051806060016040528085815260200184815260200183815250601787604051610f49919061552a565b9081526020016040518091039020600087815260200190815260200160002060008381526020019081526020016000206000820151816000019080519060200190610f95929190614596565b506020820151816001019080519060200190610fb2929190614596565b506040820151816002019080519060200190610fcf929190614596565b50905050601386604051610fe3919061552a565b9081526020016040518091039020600086815260200190815260200160002060080160008154809291906110169061559f565b9190505550505050505050565b60105481565b601483805160208101820180518482526020830160208501208183528095505050505050602052816000526040600020602052806000526040600020600092509250505080600001549080600101805461108290615616565b80601f01602080910402602001604051908101604052809291908181526020018280546110ae90615616565b80156110fb5780601f106110d0576101008083540402835291602001916110fb565b820191906000526020600020905b8154815290600101906020018083116110de57829003601f168201915b50505050509080600201805461111090615616565b80601f016020809104026020016040519081016040528092919081815260200182805461113c90615616565b80156111895780601f1061115e57610100808354040283529160200191611189565b820191906000526020600020905b81548152906001019060200180831161116c57829003601f168201915b5050505050908060030154905084565b60045481565b600e5481565b6111ad61466f565b6015846040516111bd919061552a565b90815260200160405180910390206000848152602001908152602001600020600083815260200190815260200160002060405180608001604052908160008201805461120890615616565b80601f016020809104026020016040519081016040528092919081815260200182805461123490615616565b80156112815780601f1061125657610100808354040283529160200191611281565b820191906000526020600020905b81548152906001019060200180831161126457829003601f168201915b5050505050815260200160018201805461129a90615616565b80601f01602080910402602001604051908101604052809291908181526020018280546112c690615616565b80156113135780601f106112e857610100808354040283529160200191611313565b820191906000526020600020905b8154815290600101906020018083116112f657829003601f168201915b505050505081526020016002820154815260200160038201601780602002604051908101604052809291906000905b828210156113e557838201805461135890615616565b80601f016020809104026020016040519081016040528092919081815260200182805461138490615616565b80156113d15780601f106113a6576101008083540402835291602001916113d1565b820191906000526020600020905b8154815290600101906020018083116113b457829003601f168201915b505050505081526020019060010190611342565b505050508152505090509392505050565b60095481565b60055481565b60025481565b6000151560168460405161141c919061552a565b9081526020016040518091039020600084815260200190815260200160002060003373ffffffffffffffffffffffffffffffffffffffff1673ffffffffffffffffffffffffffffffffffffffff16815260200190815260200160002060009054906101000a900460ff1615151461149257600080fd5b60006013846040516114a4919061552a565b9081526020016040518091039020600084815260200190815260200160002060000180546114d190615616565b80601f01602080910402602001604051908101604052809291908181526020018280546114fd90615616565b801561154a5780601f1061151f5761010080835404028352916020019161154a565b820191906000526020600020905b81548152906001019060200180831161152d57829003601f168201915b505050505090506000601385604051611563919061552a565b90815260200160405180910390206000858152602001908152602001600020600101805461159090615616565b80601f01602080910402602001604051908101604052809291908181526020018280546115bc90615616565b80156116095780601f106115de57610100808354040283529160200191611609565b820191906000526020600020905b8154815290600101906020018083116115ec57829003601f168201915b505050505090506000601386604051611622919061552a565b908152602001604051809103902060008681526020019081526020016000206003015490506000601387604051611659919061552a565b908152602001604051809103902060008781526020019081526020016000206004015490506000601388604051611690919061552a565b9081526020016040518091039020600088815260200190815260200160002060050154905060006013896040516116c7919061552a565b9081526020016040518091039020600089815260200190815260200160002060070160009054906101000a900473ffffffffffffffffffffffffffffffffffffffff169050600060138a60405161171e919061552a565b908152602001604051809103902060008a8152602001908152602001600020600801549050600060138b604051611755919061552a565b908152602001604051809103902060008b8152602001908152602001600020600601549050881561179357808061178b90615647565b9150506117a2565b808061179e9061568f565b9150505b600160168c6040516117b4919061552a565b908152602001604051809103902060008c815260200190815260200160002060003373ffffffffffffffffffffffffffffffffffffffff1673ffffffffffffffffffffffffffffffffffffffff16815260200190815260200160002060006101000a81548160ff0219169083151502179055506040518061012001604052808981526020018881526020018b81526020018781526020018681526020018581526020018281526020018473ffffffffffffffffffffffffffffffffffffffff1681526020018381525060138c60405161188d919061552a565b908152602001604051809103902060008c815260200190815260200160002060008201518160000190805190602001906118c8929190614596565b5060208201518160010190805190602001906118e5929190614596565b5060408201518160020155606082015181600301556080820151816004015560a0820151816005015560c0820151816006015560e08201518160070160006101000a81548173ffffffffffffffffffffffffffffffffffffffff021916908373ffffffffffffffffffffffffffffffffffffffff16021790555061010082015181600801559050505050505050505050505050565b601382805160208101820180518482526020830160208501208183528095505050505050602052806000526040600020600091509150508060000180546119c090615616565b80601f01602080910402602001604051908101604052809291908181526020018280546119ec90615616565b8015611a395780601f10611a0e57610100808354040283529160200191611a39565b820191906000526020600020905b815481529060010190602001808311611a1c57829003601f168201915b505050505090806001018054611a4e90615616565b80601f0160208091040260200160405190810160405280929190818152602001828054611a7a90615616565b8015611ac75780601f10611a9c57610100808354040283529160200191611ac7565b820191906000526020600020905b815481529060010190602001808311611aaa57829003601f168201915b5050505050908060020154908060030154908060040154908060050154908060060154908060070160009054906101000a900473ffffffffffffffffffffffffffffffffffffffff16908060080154905089565b600f5481565b60125481565b600c5481565b6017838051602081018201805184825260208301602085012081835280955050505050506020528160005260406000206020528060005260406000206000925092505050806000018054611b8090615616565b80601f0160208091040260200160405190810160405280929190818152602001828054611bac90615616565b8015611bf95780601f10611bce57610100808354040283529160200191611bf9565b820191906000526020600020905b815481529060010190602001808311611bdc57829003601f168201915b505050505090806001018054611c0e90615616565b80601f0160208091040260200160405190810160405280929190818152602001828054611c3a90615616565b8015611c875780601f10611c5c57610100808354040283529160200191611c87565b820191906000526020600020905b815481529060010190602001808311611c6a57829003601f168201915b505050505090806002018054611c9c90615616565b80601f0160208091040260200160405190810160405280929190818152602001828054611cc890615616565b8015611d155780601f10611cea57610100808354040283529160200191611d15565b820191906000526020600020905b815481529060010190602001808311611cf857829003601f168201915b5050505050905083565b601384604051611d2f919061552a565b9081526020016040518091039020600084815260200190815260200160002060070160009054906101000a900473ffffffffffffffffffffffffffffffffffffffff1673ffffffffffffffffffffffffffffffffffffffff163373ffffffffffffffffffffffffffffffffffffffff1614611da957600080fd5b6000601585604051611dbb919061552a565b9081526020016040518091039020600085815260200190815260200160002060008481526020019081526020016000206000018054611df990615616565b80601f0160208091040260200160405190810160405280929190818152602001828054611e2590615616565b8015611e725780601f10611e4757610100808354040283529160200191611e72565b820191906000526020600020905b815481529060010190602001808311611e5557829003601f168201915b505050505090506040518060800160405280828152602001878152602001848152602001604051806102e0016040528085600060178110611eb657611eb5615541565b5b6020020151815260200185600160178110611ed457611ed3615541565b5b6020020151815260200185600260178110611ef257611ef1615541565b5b6020020151815260200185600360178110611f1057611f0f615541565b5b6020020151815260200185600460178110611f2e57611f2d615541565b5b6020020151815260200185600560178110611f4c57611f4b615541565b5b6020020151815260200185600660178110611f6a57611f69615541565b5b6020020151815260200185600760178110611f8857611f87615541565b5b6020020151815260200185600860178110611fa657611fa5615541565b5b6020020151815260200185600960178110611fc457611fc3615541565b5b6020020151815260200185600a60178110611fe257611fe1615541565b5b6020020151815260200185600b6017811061200057611fff615541565b5b6020020151815260200185600c6017811061201e5761201d615541565b5b6020020151815260200185600d6017811061203c5761203b615541565b5b6020020151815260200185600e6017811061205a57612059615541565b5b6020020151815260200185600f6017811061207857612077615541565b5b602002015181526020018560106017811061209657612095615541565b5b60200201518152602001856011601781106120b4576120b3615541565b5b60200201518152602001856012601781106120d2576120d1615541565b5b60200201518152602001856013601781106120f0576120ef615541565b5b602002015181526020018560146017811061210e5761210d615541565b5b602002015181526020018560156017811061212c5761212b615541565b5b602002015181526020018560166017811061214a57612149615541565b5b6020020151815250815250601586604051612165919061552a565b90815260200160405180910390206000868152602001908152602001600020600085815260200190815260200160002060008201518160000190805190602001906121b1929190614596565b5060208201518160010190805190602001906121ce929190614596565b50604082015181600201556060820151816003019060176121f092919061461c565b50905050505050505050565b60075481565b60015481565b60085481565b60065481565b601583805160208101820180518482526020830160208501208183528095505050505050602052816000526040600020602052806000526040600020600092509250505080600001805461226790615616565b80601f016020809104026020016040519081016040528092919081815260200182805461229390615616565b80156122e05780601f106122b5576101008083540402835291602001916122e0565b820191906000526020600020905b8154815290600101906020018083116122c357829003601f168201915b5050505050908060010180546122f590615616565b80601f016020809104026020016040519081016040528092919081815260200182805461232190615616565b801561236e5780601f106123435761010080835404028352916020019161236e565b820191906000526020600020905b81548152906001019060200180831161235157829003601f168201915b5050505050908060020154905083565b601683805160208101820180518482526020830160208501208183528095505050505050602052816000526040600020602052806000526040600020600092509250509054906101000a900460ff1681565b60006013866040516123e2919061552a565b90815260200160405180910390206000868152602001908152602001600020600501549050604051806080016040528084815260200185815260200183815260200182815250601487604051612438919061552a565b90815260200160405180910390206000878152602001908152602001600020600083815260200190815260200160002060008201518160000155602082015181600101908051906020019061248e929190614596565b5060408201518160020190805190602001906124ab929190614596565b50606082015181600301559050506013866040516124c9919061552a565b9081526020016040518091039020600086815260200190815260200160002060050160008154809291906124fc9061559f565b9190505550505050505050565b600a5481565b6040518060400160405280600681526020017f416e696d616c0000000000000000000000000000000000000000000000000000815250805190602001208280519060200120036126c25760405180610120016040528085815260200184815260200160005481526020018281526020016000815260200160008152602001600081526020013373ffffffffffffffffffffffffffffffffffffffff16815260200160008152506013836040516125c5919061552a565b90815260200160405180910390206000805481526020019081526020016000206000820151816000019080519060200190612601929190614596565b50602082015181600101908051906020019061261e929190614596565b5060408201518160020155606082015181600301556080820151816004015560a0820151816005015560c0820151816006015560e08201518160070160006101000a81548173ffffffffffffffffffffffffffffffffffffffff021916908373ffffffffffffffffffffffffffffffffffffffff16021790555061010082015181600801559050506000808154809291906126b89061559f565b919050555061458a565b6040518060400160405280600881526020017f427573696e657373000000000000000000000000000000000000000000000000815250805190602001208280519060200120036128775760405180610120016040528085815260200184815260200160015481526020018281526020016000815260200160008152602001600081526020013373ffffffffffffffffffffffffffffffffffffffff1681526020016000815250601383604051612778919061552a565b90815260200160405180910390206000600154815260200190815260200160002060008201518160000190805190602001906127b5929190614596565b5060208201518160010190805190602001906127d2929190614596565b5060408201518160020155606082015181600301556080820151816004015560a0820151816005015560c0820151816006015560e08201518160070160006101000a81548173ffffffffffffffffffffffffffffffffffffffff021916908373ffffffffffffffffffffffffffffffffffffffff16021790555061010082015181600801559050506001600081548092919061286d9061559f565b9190505550614589565b6040518060400160405280600981526020017f436f6d6d756e697479000000000000000000000000000000000000000000000081525080519060200120828051906020012003612a2c5760405180610120016040528085815260200184815260200160025481526020018281526020016000815260200160008152602001600081526020013373ffffffffffffffffffffffffffffffffffffffff168152602001600081525060138360405161292d919061552a565b908152602001604051809103902060006002548152602001908152602001600020600082015181600001908051906020019061296a929190614596565b506020820151816001019080519060200190612987929190614596565b5060408201518160020155606082015181600301556080820151816004015560a0820151816005015560c0820151816006015560e08201518160070160006101000a81548173ffffffffffffffffffffffffffffffffffffffff021916908373ffffffffffffffffffffffffffffffffffffffff160217905550610100820151816008015590505060026000815480929190612a229061559f565b9190505550614588565b6040518060400160405280600b81526020017f436f6d7065746974696f6e00000000000000000000000000000000000000000081525080519060200120828051906020012003612be15760405180610120016040528085815260200184815260200160035481526020018281526020016000815260200160008152602001600081526020013373ffffffffffffffffffffffffffffffffffffffff1681526020016000815250601383604051612ae2919061552a565b9081526020016040518091039020600060035481526020019081526020016000206000820151816000019080519060200190612b1f929190614596565b506020820151816001019080519060200190612b3c929190614596565b5060408201518160020155606082015181600301556080820151816004015560a0820151816005015560c0820151816006015560e08201518160070160006101000a81548173ffffffffffffffffffffffffffffffffffffffff021916908373ffffffffffffffffffffffffffffffffffffffff160217905550610100820151816008015590505060036000815480929190612bd79061559f565b9190505550614587565b6040518060400160405280600881526020017f437265617469766500000000000000000000000000000000000000000000000081525080519060200120828051906020012003612d965760405180610120016040528085815260200184815260200160045481526020018281526020016000815260200160008152602001600081526020013373ffffffffffffffffffffffffffffffffffffffff1681526020016000815250601383604051612c97919061552a565b9081526020016040518091039020600060045481526020019081526020016000206000820151816000019080519060200190612cd4929190614596565b506020820151816001019080519060200190612cf1929190614596565b5060408201518160020155606082015181600301556080820151816004015560a0820151816005015560c0820151816006015560e08201518160070160006101000a81548173ffffffffffffffffffffffffffffffffffffffff021916908373ffffffffffffffffffffffffffffffffffffffff160217905550610100820151816008015590505060046000815480929190612d8c9061559f565b9190505550614586565b6040518060400160405280600981526020017f456475636174696f6e000000000000000000000000000000000000000000000081525080519060200120828051906020012003612f4b5760405180610120016040528085815260200184815260200160055481526020018281526020016000815260200160008152602001600081526020013373ffffffffffffffffffffffffffffffffffffffff1681526020016000815250601383604051612e4c919061552a565b9081526020016040518091039020600060055481526020019081526020016000206000820151816000019080519060200190612e89929190614596565b506020820151816001019080519060200190612ea6929190614596565b5060408201518160020155606082015181600301556080820151816004015560a0820151816005015560c0820151816006015560e08201518160070160006101000a81548173ffffffffffffffffffffffffffffffffffffffff021916908373ffffffffffffffffffffffffffffffffffffffff160217905550610100820151816008015590505060056000815480929190612f419061559f565b9190505550614585565b6040518060400160405280600981526020017f456d657267656e63790000000000000000000000000000000000000000000000815250805190602001208280519060200120036131005760405180610120016040528085815260200184815260200160065481526020018281526020016000815260200160008152602001600081526020013373ffffffffffffffffffffffffffffffffffffffff1681526020016000815250601383604051613001919061552a565b908152602001604051809103902060006006548152602001908152602001600020600082015181600001908051906020019061303e929190614596565b50602082015181600101908051906020019061305b929190614596565b5060408201518160020155606082015181600301556080820151816004015560a0820151816005015560c0820151816006015560e08201518160070160006101000a81548173ffffffffffffffffffffffffffffffffffffffff021916908373ffffffffffffffffffffffffffffffffffffffff1602179055506101008201518160080155905050600660008154809291906130f69061559f565b9190505550614584565b6040518060400160405280600b81526020017f456e7669726f6e6d656e74000000000000000000000000000000000000000000815250805190602001208280519060200120036132b55760405180610120016040528085815260200184815260200160075481526020018281526020016000815260200160008152602001600081526020013373ffffffffffffffffffffffffffffffffffffffff16815260200160008152506013836040516131b6919061552a565b90815260200160405180910390206000600754815260200190815260200160002060008201518160000190805190602001906131f3929190614596565b506020820151816001019080519060200190613210929190614596565b5060408201518160020155606082015181600301556080820151816004015560a0820151816005015560c0820151816006015560e08201518160070160006101000a81548173ffffffffffffffffffffffffffffffffffffffff021916908373ffffffffffffffffffffffffffffffffffffffff1602179055506101008201518160080155905050600760008154809291906132ab9061559f565b9190505550614583565b6040518060400160405280600581526020017f4576656e740000000000000000000000000000000000000000000000000000008152508051906020012082805190602001200361346a5760405180610120016040528085815260200184815260200160085481526020018281526020016000815260200160008152602001600081526020013373ffffffffffffffffffffffffffffffffffffffff168152602001600081525060138360405161336b919061552a565b90815260200160405180910390206000600854815260200190815260200160002060008201518160000190805190602001906133a8929190614596565b5060208201518160010190805190602001906133c5929190614596565b5060408201518160020155606082015181600301556080820151816004015560a0820151816005015560c0820151816006015560e08201518160070160006101000a81548173ffffffffffffffffffffffffffffffffffffffff021916908373ffffffffffffffffffffffffffffffffffffffff1602179055506101008201518160080155905050600860008154809291906134609061559f565b9190505550614582565b6040518060400160405280600681526020017f46616d696c7900000000000000000000000000000000000000000000000000008152508051906020012082805190602001200361361f5760405180610120016040528085815260200184815260200160095481526020018281526020016000815260200160008152602001600081526020013373ffffffffffffffffffffffffffffffffffffffff1681526020016000815250601383604051613520919061552a565b908152602001604051809103902060006009548152602001908152602001600020600082015181600001908051906020019061355d929190614596565b50602082015181600101908051906020019061357a929190614596565b5060408201518160020155606082015181600301556080820151816004015560a0820151816005015560c0820151816006015560e08201518160070160006101000a81548173ffffffffffffffffffffffffffffffffffffffff021916908373ffffffffffffffffffffffffffffffffffffffff1602179055506101008201518160080155905050600960008154809291906136159061559f565b9190505550614581565b6040518060400160405280600a81526020017f496e646976696475616c00000000000000000000000000000000000000000000815250805190602001208280519060200120036137d457604051806101200160405280858152602001848152602001600a5481526020018281526020016000815260200160008152602001600081526020013373ffffffffffffffffffffffffffffffffffffffff16815260200160008152506013836040516136d5919061552a565b90815260200160405180910390206000600a5481526020019081526020016000206000820151816000019080519060200190613712929190614596565b50602082015181600101908051906020019061372f929190614596565b5060408201518160020155606082015181600301556080820151816004015560a0820151816005015560c0820151816006015560e08201518160070160006101000a81548173ffffffffffffffffffffffffffffffffffffffff021916908373ffffffffffffffffffffffffffffffffffffffff1602179055506101008201518160080155905050600a60008154809291906137ca9061559f565b9190505550614580565b6040518060400160405280600781526020017f4d65646963616c000000000000000000000000000000000000000000000000008152508051906020012082805190602001200361398957604051806101200160405280858152602001848152602001600b5481526020018281526020016000815260200160008152602001600081526020013373ffffffffffffffffffffffffffffffffffffffff168152602001600081525060138360405161388a919061552a565b90815260200160405180910390206000600b54815260200190815260200160002060008201518160000190805190602001906138c7929190614596565b5060208201518160010190805190602001906138e4929190614596565b5060408201518160020155606082015181600301556080820151816004015560a0820151816005015560c0820151816006015560e08201518160070160006101000a81548173ffffffffffffffffffffffffffffffffffffffff021916908373ffffffffffffffffffffffffffffffffffffffff1602179055506101008201518160080155905050600b600081548092919061397f9061559f565b919050555061457f565b6040518060400160405280600881526020017f4d656d6f7269616c00000000000000000000000000000000000000000000000081525080519060200120828051906020012003613b3e57604051806101200160405280858152602001848152602001600c5481526020018281526020016000815260200160008152602001600081526020013373ffffffffffffffffffffffffffffffffffffffff1681526020016000815250601383604051613a3f919061552a565b90815260200160405180910390206000600c5481526020019081526020016000206000820151816000019080519060200190613a7c929190614596565b506020820151816001019080519060200190613a99929190614596565b5060408201518160020155606082015181600301556080820151816004015560a0820151816005015560c0820151816006015560e08201518160070160006101000a81548173ffffffffffffffffffffffffffffffffffffffff021916908373ffffffffffffffffffffffffffffffffffffffff1602179055506101008201518160080155905050600c6000815480929190613b349061559f565b919050555061457e565b6040518060400160405280600981526020017f4e6f6e50726f666974000000000000000000000000000000000000000000000081525080519060200120828051906020012003613cf357604051806101200160405280858152602001848152602001600d5481526020018281526020016000815260200160008152602001600081526020013373ffffffffffffffffffffffffffffffffffffffff1681526020016000815250601383604051613bf4919061552a565b90815260200160405180910390206000600d5481526020019081526020016000206000820151816000019080519060200190613c31929190614596565b506020820151816001019080519060200190613c4e929190614596565b5060408201518160020155606082015181600301556080820151816004015560a0820151816005015560c0820151816006015560e08201518160070160006101000a81548173ffffffffffffffffffffffffffffffffffffffff021916908373ffffffffffffffffffffffffffffffffffffffff1602179055506101008201518160080155905050600d6000815480929190613ce99061559f565b919050555061457d565b6040518060400160405280600981526020017f52656c6967696f7573000000000000000000000000000000000000000000000081525080519060200120828051906020012003613ea857604051806101200160405280858152602001848152602001600e5481526020018281526020016000815260200160008152602001600081526020013373ffffffffffffffffffffffffffffffffffffffff1681526020016000815250601383604051613da9919061552a565b90815260200160405180910390206000600e5481526020019081526020016000206000820151816000019080519060200190613de6929190614596565b506020820151816001019080519060200190613e03929190614596565b5060408201518160020155606082015181600301556080820151816004015560a0820151816005015560c0820151816006015560e08201518160070160006101000a81548173ffffffffffffffffffffffffffffffffffffffff021916908373ffffffffffffffffffffffffffffffffffffffff1602179055506101008201518160080155905050600e6000815480929190613e9e9061559f565b919050555061457c565b6040518060400160405280600681526020017f53706f72747300000000000000000000000000000000000000000000000000008152508051906020012082805190602001200361405d57604051806101200160405280858152602001848152602001600f5481526020018281526020016000815260200160008152602001600081526020013373ffffffffffffffffffffffffffffffffffffffff1681526020016000815250601383604051613f5e919061552a565b90815260200160405180910390206000600f5481526020019081526020016000206000820151816000019080519060200190613f9b929190614596565b506020820151816001019080519060200190613fb8929190614596565b5060408201518160020155606082015181600301556080820151816004015560a0820151816005015560c0820151816006015560e08201518160070160006101000a81548173ffffffffffffffffffffffffffffffffffffffff021916908373ffffffffffffffffffffffffffffffffffffffff1602179055506101008201518160080155905050600f60008154809291906140539061559f565b919050555061457b565b6040518060400160405280600681526020017f54726176656c0000000000000000000000000000000000000000000000000000815250805190602001208280519060200120036142125760405180610120016040528085815260200184815260200160105481526020018281526020016000815260200160008152602001600081526020013373ffffffffffffffffffffffffffffffffffffffff1681526020016000815250601383604051614113919061552a565b9081526020016040518091039020600060105481526020019081526020016000206000820151816000019080519060200190614150929190614596565b50602082015181600101908051906020019061416d929190614596565b5060408201518160020155606082015181600301556080820151816004015560a0820151816005015560c0820151816006015560e08201518160070160006101000a81548173ffffffffffffffffffffffffffffffffffffffff021916908373ffffffffffffffffffffffffffffffffffffffff1602179055506101008201518160080155905050601060008154809291906142089061559f565b919050555061457a565b6040518060400160405280600981526020017f566f6c756e746565720000000000000000000000000000000000000000000000815250805190602001208280519060200120036143c75760405180610120016040528085815260200184815260200160115481526020018281526020016000815260200160008152602001600081526020013373ffffffffffffffffffffffffffffffffffffffff16815260200160008152506013836040516142c8919061552a565b9081526020016040518091039020600060115481526020019081526020016000206000820151816000019080519060200190614305929190614596565b506020820151816001019080519060200190614322929190614596565b5060408201518160020155606082015181600301556080820151816004015560a0820151816005015560c0820151816006015560e08201518160070160006101000a81548173ffffffffffffffffffffffffffffffffffffffff021916908373ffffffffffffffffffffffffffffffffffffffff1602179055506101008201518160080155905050601160008154809291906143bd9061559f565b9190505550614579565b6040518060400160405280600481526020017f5769736800000000000000000000000000000000000000000000000000000000815250805190602001208280519060200120036145785760405180610120016040528085815260200184815260200160125481526020018281526020016000815260200160008152602001600081526020013373ffffffffffffffffffffffffffffffffffffffff168152602001600081525060138360405161447d919061552a565b90815260200160405180910390206000601254815260200190815260200160002060008201518160000190805190602001906144ba929190614596565b5060208201518160010190805190602001906144d7929190614596565b5060408201518160020155606082015181600301556080820151816004015560a0820151816005015560c0820151816006015560e08201518160070160006101000a81548173ffffffffffffffffffffffffffffffffffffffff021916908373ffffffffffffffffffffffffffffffffffffffff1602179055506101008201518160080155905050601260008154809291906145729061559f565b91905055505b5b5b5b5b5b5b5b5b5b5b5b5b5b5b5b5b5b5b50505050565b60035481565b8280546145a290615616565b90600052602060002090601f0160209004810192826145c4576000855561460b565b82601f106145dd57805160ff191683800117855561460b565b8280016001018555821561460b579182015b8281111561460a5782518255916020019190600101906145ef565b5b509050614618919061469d565b5090565b826017810192821561465e579160200282015b8281111561465d57825182908051906020019061464d929190614596565b509160200191906001019061462f565b5b50905061466b91906146ba565b5090565b60405180608001604052806060815260200160608152602001600081526020016146976146de565b81525090565b5b808211156146b657600081600090555060010161469e565b5090565b5b808211156146da57600081816146d19190614706565b506001016146bb565b5090565b604051806102e001604052806017905b60608152602001906001900390816146ee5790505090565b50805461471290615616565b6000825580601f106147245750614743565b601f016020900490600052602060002090810190614742919061469d565b5b50565b6000819050919050565b61475981614746565b82525050565b60006020820190506147746000830184614750565b92915050565b6000604051905090565b600080fd5b600080fd5b600080fd5b600080fd5b6000601f19601f8301169050919050565b7f4e487b7100000000000000000000000000000000000000000000000000000000600052604160045260246000fd5b6147e182614798565b810181811067ffffffffffffffff82111715614800576147ff6147a9565b5b80604052505050565b600061481361477a565b905061481f82826147d8565b919050565b600067ffffffffffffffff82111561483f5761483e6147a9565b5b61484882614798565b9050602081019050919050565b82818337600083830152505050565b600061487761487284614824565b614809565b90508281526020810184848401111561489357614892614793565b5b61489e848285614855565b509392505050565b600082601f8301126148bb576148ba61478e565b5b81356148cb848260208601614864565b91505092915050565b6148dd81614746565b81146148e857600080fd5b50565b6000813590506148fa816148d4565b92915050565b600067ffffffffffffffff82111561491b5761491a6147a9565b5b602082029050919050565b600080fd5b600061493e61493984614900565b614809565b9050806020840283018581111561495857614957614926565b5b835b8181101561499f57803567ffffffffffffffff81111561497d5761497c61478e565b5b80860161498a89826148a6565b8552602085019450505060208101905061495a565b5050509392505050565b600082601f8301126149be576149bd61478e565b5b60176149cb84828561492b565b91505092915050565b60008060008060008060c087890312156149f1576149f0614784565b5b600087013567ffffffffffffffff811115614a0f57614a0e614789565b5b614a1b89828a016148a6565b965050602087013567ffffffffffffffff811115614a3c57614a3b614789565b5b614a4889828a016148a6565b955050604087013567ffffffffffffffff811115614a6957614a68614789565b5b614a7589828a016148a6565b9450506060614a8689828a016148eb565b9350506080614a9789828a016148eb565b92505060a087013567ffffffffffffffff811115614ab857614ab7614789565b5b614ac489828a016149a9565b9150509295509295509295565b60008060008060808587031215614aeb57614aea614784565b5b600085013567ffffffffffffffff811115614b0957614b08614789565b5b614b15878288016148a6565b945050602085013567ffffffffffffffff811115614b3657614b35614789565b5b614b42878288016148a6565b9350506040614b53878288016148eb565b9250506060614b64878288016148eb565b91505092959194509250565b600080600080600060a08688031215614b8c57614b8b614784565b5b600086013567ffffffffffffffff811115614baa57614ba9614789565b5b614bb6888289016148a6565b9550506020614bc7888289016148eb565b945050604086013567ffffffffffffffff811115614be857614be7614789565b5b614bf4888289016148a6565b935050606086013567ffffffffffffffff811115614c1557614c14614789565b5b614c21888289016148a6565b925050608086013567ffffffffffffffff811115614c4257614c41614789565b5b614c4e888289016148a6565b9150509295509295909350565b600080600060608486031215614c7457614c73614784565b5b600084013567ffffffffffffffff811115614c9257614c91614789565b5b614c9e868287016148a6565b9350506020614caf868287016148eb565b9250506040614cc0868287016148eb565b9150509250925092565b600081519050919050565b600082825260208201905092915050565b60005b83811015614d04578082015181840152602081019050614ce9565b83811115614d13576000848401525b50505050565b6000614d2482614cca565b614d2e8185614cd5565b9350614d3e818560208601614ce6565b614d4781614798565b840191505092915050565b6000608082019050614d676000830187614750565b8181036020830152614d798186614d19565b90508181036040830152614d8d8185614d19565b9050614d9c6060830184614750565b95945050505050565b600082825260208201905092915050565b6000614dc182614cca565b614dcb8185614da5565b9350614ddb818560208601614ce6565b614de481614798565b840191505092915050565b614df881614746565b82525050565b600060179050919050565b600081905092915050565b6000819050919050565b6000614e2a8383614db6565b905092915050565b6000602082019050919050565b6000614e4a82614dfe565b614e548185614e09565b935083602082028501614e6685614e14565b8060005b85811015614ea25784840389528151614e838582614e1e565b9450614e8e83614e32565b925060208a01995050600181019050614e6a565b50829750879550505050505092915050565b60006080830160008301518482036000860152614ed18282614db6565b91505060208301518482036020860152614eeb8282614db6565b9150506040830151614f006040860182614def565b5060608301518482036060860152614f188282614e3f565b9150508091505092915050565b60006020820190508181036000830152614f3f8184614eb4565b905092915050565b60008115159050919050565b614f5c81614f47565b8114614f6757600080fd5b50565b600081359050614f7981614f53565b92915050565b600080600060608486031215614f9857614f97614784565b5b600084013567ffffffffffffffff811115614fb657614fb5614789565b5b614fc2868287016148a6565b9350506020614fd3868287016148eb565b9250506040614fe486828701614f6a565b9150509250925092565b6000806040838503121561500557615004614784565b5b600083013567ffffffffffffffff81111561502357615022614789565b5b61502f858286016148a6565b9250506020615040858286016148eb565b9150509250929050565b6000819050919050565b61505d8161504a565b82525050565b600073ffffffffffffffffffffffffffffffffffffffff82169050919050565b600061508e82615063565b9050919050565b61509e81615083565b82525050565b60006101208201905081810360008301526150bf818c614d19565b905081810360208301526150d3818b614d19565b90506150e2604083018a614750565b6150ef6060830189614750565b6150fc6080830188614750565b61510960a0830187614750565b61511660c0830186615054565b61512360e0830185615095565b615131610100830184614750565b9a9950505050505050505050565b600060608201905081810360008301526151598186614d19565b9050818103602083015261516d8185614d19565b905081810360408301526151818184614d19565b9050949350505050565b600080600080600060a086880312156151a7576151a6614784565b5b600086013567ffffffffffffffff8111156151c5576151c4614789565b5b6151d1888289016148a6565b955050602086013567ffffffffffffffff8111156151f2576151f1614789565b5b6151fe888289016148a6565b945050604061520f888289016148eb565b9350506060615220888289016148eb565b925050608086013567ffffffffffffffff81111561524157615240614789565b5b61524d888289016149a9565b9150509295509295909350565b600060608201905081810360008301526152748186614d19565b905081810360208301526152888185614d19565b90506152976040830184614750565b949350505050565b6152a881615083565b81146152b357600080fd5b50565b6000813590506152c58161529f565b92915050565b6000806000606084860312156152e4576152e3614784565b5b600084013567ffffffffffffffff81111561530257615301614789565b5b61530e868287016148a6565b935050602061531f868287016148eb565b9250506040615330868287016152b6565b9150509250925092565b61534381614f47565b82525050565b600060208201905061535e600083018461533a565b92915050565b600080600080600060a086880312156153805761537f614784565b5b600086013567ffffffffffffffff81111561539e5761539d614789565b5b6153aa888289016148a6565b95505060206153bb888289016148eb565b945050604086013567ffffffffffffffff8111156153dc576153db614789565b5b6153e8888289016148a6565b93505060606153f9888289016148eb565b925050608086013567ffffffffffffffff81111561541a57615419614789565b5b615426888289016148a6565b9150509295509295909350565b6000806000806080858703121561544d5761544c614784565b5b600085013567ffffffffffffffff81111561546b5761546a614789565b5b615477878288016148a6565b945050602085013567ffffffffffffffff81111561549857615497614789565b5b6154a4878288016148a6565b935050604085013567ffffffffffffffff8111156154c5576154c4614789565b5b6154d1878288016148a6565b92505060606154e2878288016148eb565b91505092959194509250565b600081905092915050565b600061550482614cca565b61550e81856154ee565b935061551e818560208601614ce6565b80840191505092915050565b600061553682846154f9565b915081905092915050565b7f4e487b7100000000000000000000000000000000000000000000000000000000600052603260045260246000fd5b7f4e487b7100000000000000000000000000000000000000000000000000000000600052601160045260246000fd5b60006155aa82614746565b91507fffffffffffffffffffffffffffffffffffffffffffffffffffffffffffffffff82036155dc576155db615570565b5b600182019050919050565b7f4e487b7100000000000000000000000000000000000000000000000000000000600052602260045260246000fd5b6000600282049050600182168061562e57607f821691505b602082108103615641576156406155e7565b5b50919050565b60006156528261504a565b91507f7fffffffffffffffffffffffffffffffffffffffffffffffffffffffffffffff820361568457615683615570565b5b600182019050919050565b600061569a8261504a565b91507f800000000000000000000000000000000000000000000000000000000000000082036156cc576156cb615570565b5b60018203905091905056fea2646970667358221220855679ab6d9f36df2751d8c2daeea954e76142093393293ff4e57ce8917a0a7964736f6c634300080d0033",
  "immutableReferences": {},
  "source": "// SPDX-License-Identifier: LGPL-3.0-only\npragma solidity ^0.8.12;\npragma abicoder v2;\n\ncontract Storage {\n  /* Create variables for total number of requests in each category strings for\n  each will be defined in the UI. */\n  uint256 public animalRequests;\n  uint256 public businessRequests;\n  uint256 public communityRequests;\n  uint256 public competitionRequests;\n  uint256 public creativeRequests;\n  uint256 public educationRequests;\n  uint256 public emergencyRequests;\n  uint256 public environmentRequests;\n  uint256 public eventRequests;\n  uint256 public familyRequests;\n  uint256 public individualRequests;\n  uint256 public medicalRequests;\n  uint256 public memorialRequests;\n  uint256 public nonprofitRequests;\n  uint256 public religiousRequests;\n  uint256 public sportRequests;\n  uint256 public travelRequests;\n  uint256 public volunteerRequests;\n  uint256 public wishRequests;\n\n  struct Request {\n      string title;\n      string description;\n      uint256 id;\n      // Amount Requested\n      uint256 amount;\n      uint256 totalOrganizers;\n      uint256 totalContributors;\n      int256 score;\n      address creator;\n      uint256 totalPosts;\n  }\n\n  struct Contributor {\n    uint256 amountDonated;\n    string name;\n    string contributorAddress;\n    uint256 id;\n  }\n\n  struct Organizer {\n    string name;\n    string role;\n    uint256 id;\n    /* Coins are chosen based on being meant for medium of exchange with high\n    transaction volume at the time. ADA and ETH are there aswell for smart\n    contract support if people are interested in using that. */\n    string[23] addresses;\n    /* index 0 = btcAddress;\n    index 1 = bchAddress;\n    index 2 = adaAddress;\n    index 3 = dashAddress;\n    index 4 = dogeAddress;\n    index 5 = ethAddress;\n    index 6 = ltcAddress;\n    index 7 = xmrAddress;\n    index 8 = zecAddress;\n\n    Extras just for support for other chains people may want to use if volume\n    drops off in the future maybe re-evaluate showing these in UI to keep things\n    more compact/clean.\n\n    index 9 = algoAddress;\n    index 10 = avaxAddress;\n    index 11 = bscAddress;\n    index 12 = atomAddress;\n    index 13 = egldAddress;\n    index 14 = etcAddress;\n    index 15 = ftmAddress;\n    index 16 = oneAddress;\n    index 17 = lunaAddress;\n    index 18 = dotAddress;\n    index 19 = maticAddress;\n    index 20 = solAddress;\n    index 21 = xlmAddress;\n    index 22 = xrpAddress; */\n  }\n\n  // Just to return Organizer addresses array in UI/tests\n  function getOrganizer (string memory _category, uint _requestId, uint _organizerId) public view returns (Organizer memory) {\n    return Organizers[_category][_requestId][_organizerId];\n  }\n\n  // Date can be passed in from UI as UTC Time\n  struct Post {\n    string title;\n    string description;\n    string date;\n  }\n\n  // category => id of request\n  mapping(string => mapping(uint256 => Request)) public Requests;\n  // category => id of request => id of contributor\n  mapping(string => mapping(uint256 => mapping(uint256 => Contributor))) public Contributors;\n  // category => id of request => id of organizer\n  mapping(string => mapping(uint256 => mapping(uint256 => Organizer))) public Organizers;\n  // category => id of request => Polygon address of user\n  mapping(string => mapping(uint256 => mapping(address => bool))) public isVoted;\n  // category => id of request => id of post\n  mapping(string => mapping(uint256 => mapping(uint256 => Post))) public Posts;\n\n  function createRequest (\n    string memory _title,\n    string memory _description,\n    string memory _category,\n    uint256 _amount\n  ) public {\n    /* Sorting into category variables makes the code more complex with large if\n    else statements however may be useful in the case of the frontend being\n    shutdown and needing to be redeployed with all the data in the proper location */\n     if (keccak256(bytes(_category)) == keccak256(bytes(\"Animal\"))) {\n        Requests[_category][animalRequests] = Request(_title, _description, animalRequests, _amount, 0, 0, 0, msg.sender, 0);\n        animalRequests++;\n    } else if (keccak256(bytes(_category)) == keccak256(bytes(\"Business\"))) {\n        Requests[_category][businessRequests] = Request(_title, _description, businessRequests, _amount, 0, 0, 0, msg.sender, 0);\n        businessRequests++;\n    } else if (keccak256(bytes(_category)) == keccak256(bytes(\"Community\"))) {\n        Requests[_category][communityRequests] = Request(_title, _description, communityRequests, _amount, 0, 0, 0, msg.sender, 0);\n        communityRequests++;\n    } else if (keccak256(bytes(_category)) == keccak256(bytes(\"Competition\"))) {\n        Requests[_category][competitionRequests] = Request(_title, _description, competitionRequests, _amount, 0, 0, 0, msg.sender, 0);\n        competitionRequests++;\n    } else if (keccak256(bytes(_category)) == keccak256(bytes(\"Creative\"))) {\n        Requests[_category][creativeRequests] = Request(_title, _description, creativeRequests, _amount, 0, 0, 0, msg.sender, 0);\n        creativeRequests++;\n    } else if (keccak256(bytes(_category)) == keccak256(bytes(\"Education\"))) {\n        Requests[_category][educationRequests] = Request(_title, _description, educationRequests, _amount, 0, 0, 0, msg.sender, 0);\n        educationRequests++;\n    } else if (keccak256(bytes(_category)) == keccak256(bytes(\"Emergency\"))) {\n        Requests[_category][emergencyRequests] = Request(_title, _description, emergencyRequests, _amount, 0, 0, 0, msg.sender, 0);\n        emergencyRequests++;\n    } else if (keccak256(bytes(_category)) == keccak256(bytes(\"Environment\"))) {\n        Requests[_category][environmentRequests] = Request(_title, _description, environmentRequests, _amount, 0, 0, 0, msg.sender, 0);\n        environmentRequests++;\n    } else if (keccak256(bytes(_category)) == keccak256(bytes(\"Event\"))) {\n        Requests[_category][eventRequests] = Request(_title, _description, eventRequests, _amount, 0, 0, 0, msg.sender, 0);\n        eventRequests++;\n    } else if (keccak256(bytes(_category)) == keccak256(bytes(\"Family\"))) {\n        Requests[_category][familyRequests] = Request(_title, _description, familyRequests, _amount, 0, 0, 0, msg.sender, 0);\n        familyRequests++;\n    } else if (keccak256(bytes(_category)) == keccak256(bytes(\"Individual\"))) {\n        Requests[_category][individualRequests] = Request(_title, _description, individualRequests, _amount, 0, 0, 0, msg.sender, 0);\n        individualRequests++;\n    } else if (keccak256(bytes(_category)) == keccak256(bytes(\"Medical\"))) {\n        Requests[_category][medicalRequests] = Request(_title, _description, medicalRequests, _amount, 0, 0, 0, msg.sender, 0);\n        medicalRequests++;\n    } else if (keccak256(bytes(_category)) == keccak256(bytes(\"Memorial\"))) {\n        Requests[_category][memorialRequests] = Request(_title, _description, memorialRequests, _amount, 0, 0, 0, msg.sender, 0);\n        memorialRequests++;\n    } else if (keccak256(bytes(_category)) == keccak256(bytes(\"NonProfit\"))) {\n        Requests[_category][nonprofitRequests] = Request(_title, _description, nonprofitRequests, _amount, 0, 0, 0, msg.sender, 0);\n        nonprofitRequests++;\n    } else if (keccak256(bytes(_category)) == keccak256(bytes(\"Religious\"))) {\n        Requests[_category][religiousRequests] = Request(_title, _description, religiousRequests, _amount, 0, 0, 0, msg.sender, 0);\n        religiousRequests++;\n    } else if (keccak256(bytes(_category)) == keccak256(bytes(\"Sports\"))) {\n        Requests[_category][sportRequests] = Request(_title, _description, sportRequests, _amount, 0, 0, 0, msg.sender, 0);\n        sportRequests++;\n    } else if (keccak256(bytes(_category)) == keccak256(bytes(\"Travel\"))) {\n        Requests[_category][travelRequests] = Request(_title, _description, travelRequests, _amount, 0, 0, 0, msg.sender, 0);\n        travelRequests++;\n    } else if (keccak256(bytes(_category)) == keccak256(bytes(\"Volunteer\"))) {\n        Requests[_category][volunteerRequests] = Request(_title, _description, volunteerRequests, _amount, 0, 0, 0, msg.sender, 0);\n        volunteerRequests++;\n    } else if (keccak256(bytes(_category)) == keccak256(bytes(\"Wish\"))) {\n        Requests[_category][wishRequests] = Request(_title, _description, wishRequests, _amount, 0, 0, 0, msg.sender, 0);\n        wishRequests++;\n    }\n  }\n\n  /* Name should also have a default value of Anonymous in the UI for those who\n    don't feel safe connecting names to addresses.\n  */\n  function addOrganzier (\n    string memory _name,\n    string memory _role,\n    string memory _category,\n    uint256 _requestId,\n    uint256 _totalOrganizers,\n    string[23] memory _addresses\n  ) public {\n    require(msg.sender == Requests[_category][_requestId].creator);\n    /* Not all addresses need to be assigned a value. In the UI any addresses not\n    assigned by default should be set to \"\" which would mean an empty string.\n    That will cause setting the mapping data to not fail. Role will also be set\n    through the UI  */\n    Organizers[_category][_requestId][_totalOrganizers] = Organizer(\n      _name, _role, _totalOrganizers, [_addresses[0], _addresses[1], _addresses[2],\n      _addresses[3], _addresses[4], _addresses[5], _addresses[6], _addresses[7],\n      _addresses[8], _addresses[9], _addresses[10], _addresses[11], _addresses[12],\n      _addresses[13], _addresses[14], _addresses[15], _addresses[16], _addresses[17],\n      _addresses[18], _addresses[19], _addresses[20], _addresses[21], _addresses[22]      ]\n    );\n    Requests[_category][_requestId].totalOrganizers++;\n  }\n\n  function editOrganizer (\n    string memory _role,\n    string memory _category,\n    uint256 _requestId,\n    uint256 _organizerId,\n    string[23] memory _addresses\n  ) public {\n    require(msg.sender == Requests[_category][_requestId].creator);\n    string memory _name = Organizers[_category][_requestId][_organizerId].name;\n    /* This method will cost extra gas and can be improved upon. This can be\n    solved by either taking in less addresses or another way. In it's current\n    form it will call the current data from the blockchain and input it into the\n    UI and once resubmitted you will paying that extra gas to rewrite the same\n    address again for those unchanged. The goal would be to save that extra gas\n    cost so only the address added/changed is what's sent back. */\n    Organizers[_category][_requestId][_organizerId] = Organizer(\n      _name, _role, _organizerId, [_addresses[0], _addresses[1], _addresses[2],\n      _addresses[3], _addresses[4], _addresses[5], _addresses[6], _addresses[7],\n      _addresses[8], _addresses[9], _addresses[10], _addresses[11], _addresses[12],\n      _addresses[13], _addresses[14], _addresses[15], _addresses[16], _addresses[17],\n      _addresses[18], _addresses[19], _addresses[20], _addresses[21], _addresses[22]\n      ]\n    );\n  }\n\n  /* Values come from blockchain calls. Title should also be immutable in case of\n  an account getting hacked or a scammer changing the name and description of a\n  request. Another alternative is to allow this to be changed but have the entire\n  list of Contributors wiped. */\n  function editRequest (\n    string memory _description,\n    string memory _category,\n    uint256 _requestId,\n    uint256 _amount\n  ) public {\n    require(msg.sender == Requests[_category][_requestId].creator);\n    string memory _title = Requests[_category][_requestId].title;\n    uint256 _totalOrganizers = Requests[_category][_requestId].totalOrganizers;\n    uint256 _totalContributors = Requests[_category][_requestId].totalContributors;\n    int256 _score = Requests[_category][_requestId].score;\n    address _creator = Requests[_category][_requestId].creator;\n    uint256 _totalPosts = Requests[_category][_requestId].totalPosts;\n\n    Requests[_category][_requestId] = Request(_title, _description, _requestId, _amount, _totalOrganizers, _totalContributors, _score, _creator, _totalPosts);\n  }\n\n  /* This feature may need to be disabled in UI in the future if it is used harmfully.\n  This feature can easily be exploited through multiple self made accounts or even\n  bot made to upvote scam requests to encourage people to donate to that request over\n  a potentially real one. Therefore this should not be used as a feature to sort\n  through requests and determine which is best to display first. */\n  function voteRequest (\n    string memory _category,\n    uint256 _requestId,\n    bool _vote\n  ) public {\n    require(isVoted[_category][_requestId][msg.sender] == false);\n    string memory _title = Requests[_category][_requestId].title;\n    string memory _description = Requests[_category][_requestId].description;\n    uint256 _amount = Requests[_category][_requestId].amount;\n    uint256 _totalOrganizers = Requests[_category][_requestId].totalOrganizers;\n    uint256 _totalContributors = Requests[_category][_requestId].totalContributors;\n    address _creator = Requests[_category][_requestId].creator;\n    uint256 _totalPosts = Requests[_category][_requestId].totalPosts;\n    int256 _score = Requests[_category][_requestId].score;\n\n    /* Downvoting can cause a large majority of people to downvote a real donation\n    request just bekcause it offends them or doesn't align with their views. This\n    should not be solely used as a way to sort requests in the UI for this reason,\n    hoever it should be kept in the system to alert people of something that may be\n    a faker request or a scammer. The other flaw with this system is that with the\n    low gas fees of hosting on a layer 2 protocol people can make many accounts and\n    send small balances to boost the upvotes on their request even if it is a scam.\n    Therefore this system may need to be disabled in the UI in the future if that is\n    the case. */\n\n    // bool = true then upvote else downvote\n    if (_vote) {\n      _score++;\n    } else {\n      _score--;\n    }\n\n    isVoted[_category][_requestId][msg.sender] = true;\n    Requests[_category][_requestId] = Request(_title, _description, _requestId, _amount, _totalOrganizers, _totalContributors, _score, _creator, _totalPosts);\n  }\n\n  function addContributor(\n    string memory _category,\n    uint256 _requestId,\n    string memory _name,\n    uint256 _amountDonated,\n    string memory _contributorAddress\n  ) public {\n    uint256 _totalContributors = Requests[_category][_requestId].totalContributors;\n    // _name & _contributorAddress in UI should be allowed to be listed as anonymous\n    Contributors[_category][_requestId][_totalContributors] = Contributor(_amountDonated, _name, _contributorAddress, _totalContributors);\n    Requests[_category][_requestId].totalContributors++;\n  }\n\n  function addPost (\n    string memory _category,\n    uint256 _requestId,\n    string memory _title,\n    string memory _description,\n    string memory _date\n  ) public {\n    require(msg.sender == Requests[_category][_requestId].creator);\n    uint256 _totalPosts = Requests[_category][_requestId].totalPosts;\n\n    Posts[_category][_requestId][_totalPosts] = Post(_title, _description, _date);\n    Requests[_category][_requestId].totalPosts++;\n  }\n}\n",
  "sourcePath": "/home/user/Documents/donation/src/contracts/Storage.sol",
  "compiler": {
    "name": "solc",
    "version": "0.8.13+commit.abaa5c0e.Emscripten.clang"
  },
  "schemaVersion": "3.4.1",
  "updatedAt": "2022-04-05T20:48:59.864Z",
  "devdoc": {
    "kind": "dev",
    "methods": {},
    "version": 1
  },
  "userdoc": {
    "kind": "user",
    "methods": {},
    "version": 1
  }
}