{
  "contractName": "Storage",
  "abi": [
    {
      "inputs": [
        {
          "internalType": "uint256",
          "name": "",
          "type": "uint256"
        }
      ],
      "name": "Contributors",
      "outputs": [
        {
          "internalType": "uint256",
          "name": "amountDonated",
          "type": "uint256"
        },
        {
          "internalType": "string",
          "name": "contributor",
          "type": "string"
        }
      ],
      "stateMutability": "view",
      "type": "function"
    },
    {
      "inputs": [
        {
          "internalType": "string",
          "name": "title",
          "type": "string"
        },
        {
          "internalType": "string",
          "name": "description",
          "type": "string"
        }
      ],
      "name": "createRequest",
      "outputs": [],
      "stateMutability": "nonpayable",
      "type": "function"
    },
    {
      "inputs": [
        {
          "internalType": "string",
          "name": "title",
          "type": "string"
        },
        {
          "internalType": "string",
          "name": "description",
          "type": "string"
        }
      ],
      "name": "editRequest",
      "outputs": [],
      "stateMutability": "nonpayable",
      "type": "function"
    },
    {
      "inputs": [],
      "name": "addAddressToRequest",
      "outputs": [],
      "stateMutability": "nonpayable",
      "type": "function"
    },
    {
      "inputs": [],
      "name": "verifyAddress",
      "outputs": [],
      "stateMutability": "nonpayable",
      "type": "function"
    },
    {
      "inputs": [],
      "name": "upvote",
      "outputs": [],
      "stateMutability": "nonpayable",
      "type": "function"
    },
    {
      "inputs": [],
      "name": "downvote",
      "outputs": [],
      "stateMutability": "nonpayable",
      "type": "function"
    },
    {
      "inputs": [],
      "name": "makeUpdatePost",
      "outputs": [],
      "stateMutability": "nonpayable",
      "type": "function"
    }
  ],
  "bytecode": "0x608060405234801561001057600080fd5b50610579806100206000396000f3fe608060405234801561001057600080fd5b50600436106100885760003560e01c806392d7727c1161005b57806392d7727c146100dc5780639e3e4412146100e6578063a8df84df14610102578063df89f8191461010c57610088565b806303221c881461008d5780634c854158146100975780634f9bb35f146100c857806365925b90146100d2575b600080fd5b610095610128565b005b6100b160048036038101906100ac9190610230565b61012a565b6040516100bf929190610305565b60405180910390f35b6100d06101d6565b005b6100da6101d8565b005b6100e46101da565b005b61010060048036038101906100fb919061046a565b6101dc565b005b61010a6101e0565b005b6101266004803603810190610121919061046a565b6101e2565b005b565b600060205280600052604060002060009150905080600001549080600101805461015390610511565b80601f016020809104026020016040519081016040528092919081815260200182805461017f90610511565b80156101cc5780601f106101a1576101008083540402835291602001916101cc565b820191906000526020600020905b8154815290600101906020018083116101af57829003601f168201915b5050505050905082565b565b565b565b5050565b565b5050565b6000604051905090565b600080fd5b600080fd5b6000819050919050565b61020d816101fa565b811461021857600080fd5b50565b60008135905061022a81610204565b92915050565b600060208284031215610246576102456101f0565b5b60006102548482850161021b565b91505092915050565b610266816101fa565b82525050565b600081519050919050565b600082825260208201905092915050565b60005b838110156102a657808201518184015260208101905061028b565b838111156102b5576000848401525b50505050565b6000601f19601f8301169050919050565b60006102d78261026c565b6102e18185610277565b93506102f1818560208601610288565b6102fa816102bb565b840191505092915050565b600060408201905061031a600083018561025d565b818103602083015261032c81846102cc565b90509392505050565b600080fd5b600080fd5b7f4e487b7100000000000000000000000000000000000000000000000000000000600052604160045260246000fd5b610377826102bb565b810181811067ffffffffffffffff821117156103965761039561033f565b5b80604052505050565b60006103a96101e6565b90506103b5828261036e565b919050565b600067ffffffffffffffff8211156103d5576103d461033f565b5b6103de826102bb565b9050602081019050919050565b82818337600083830152505050565b600061040d610408846103ba565b61039f565b9050828152602081018484840111156104295761042861033a565b5b6104348482856103eb565b509392505050565b600082601f83011261045157610450610335565b5b81356104618482602086016103fa565b91505092915050565b60008060408385031215610481576104806101f0565b5b600083013567ffffffffffffffff81111561049f5761049e6101f5565b5b6104ab8582860161043c565b925050602083013567ffffffffffffffff8111156104cc576104cb6101f5565b5b6104d88582860161043c565b9150509250929050565b7f4e487b7100000000000000000000000000000000000000000000000000000000600052602260045260246000fd5b6000600282049050600182168061052957607f821691505b6020821081141561053d5761053c6104e2565b5b5091905056fea26469706673582212207bdf0a80718b2614f6d6935e48d90c2dba197f68266657539ceed17fe426785c64736f6c634300080c0033",
  "immutableReferences": {},
  "source": "// SPDX-License-Identifier: LGPL-3.0-only\npragma solidity ^0.8.12;\n\ncontract Storage {\n\n  struct Request {\n      string title;\n      string description;\n      uint256 id;\n      // Addresses\n      string algoAddress;\n      string avaxAddress;\n      string bscAddress;\n      string btcAddress;\n      string bchAddress;\n      string adaAddress;\n      string atomAddress;\n      string dashAddress;\n      string dcrAddress;\n      string dgbAddress;\n      string dogeAddress;\n      string egldAddress;\n      string ethAddress;\n      string etcAddress;\n      string ftmAddress;\n      string oneAddress;\n      string zenAddress;\n      string ltcAddress;\n      string xmrAddress;\n      string dotAddress;\n      string maticAddress;\n      string rskAddress;\n      string solAddress;\n      string xlmAddress;\n      string xtzAddress;\n      string trxAddress;\n      string xrpAddress;\n      string zecAddress;\n  }\n\n  struct Contributor {\n    uint256 amountDonated;\n    string contributor;\n  }\n\n  mapping(uint256 => Contributor) public Contributors;\n\n  function createRequest (\n    string memory title,\n    string memory description\n  ) public {\n\n  }\n\n  function editRequest (\n    string memory title,\n    string memory description\n  ) public {}\n\n  function addAddressToRequest () public {}\n\n  function verifyAddress () public {}\n\n  function upvote () public {}\n\n  function downvote () public {}\n\n  function makeUpdatePost () public {}\n}\n",
  "sourcePath": "/home/user/Documents/donation/src/contracts/Storage.sol",
  "compiler": {
    "name": "solc",
    "version": "0.8.12+commit.f00d7308.Emscripten.clang"
  },
  "schemaVersion": "3.4.1",
  "updatedAt": "2022-03-08T21:45:11.846Z",
  "devdoc": {
    "kind": "dev",
    "methods": {},
    "version": 1
  },
  "userdoc": {
    "kind": "user",
    "methods": {},
    "version": 1
  }
}