{
  "contractName": "Storage",
  "abi": [
    {
      "inputs": [
        {
          "internalType": "uint256",
          "name": "",
          "type": "uint256"
        }
      ],
      "name": "Contributors",
      "outputs": [
        {
          "internalType": "uint256",
          "name": "amountDonated",
          "type": "uint256"
        },
        {
          "internalType": "string",
          "name": "name",
          "type": "string"
        },
        {
          "internalType": "string",
          "name": "contributorAddress",
          "type": "string"
        }
      ],
      "stateMutability": "view",
      "type": "function"
    },
    {
      "inputs": [
        {
          "internalType": "string",
          "name": "title",
          "type": "string"
        },
        {
          "internalType": "string",
          "name": "description",
          "type": "string"
        },
        {
          "internalType": "string",
          "name": "category",
          "type": "string"
        },
        {
          "internalType": "uint256",
          "name": "amount",
          "type": "uint256"
        }
      ],
      "name": "createRequest",
      "outputs": [],
      "stateMutability": "nonpayable",
      "type": "function"
    },
    {
      "inputs": [
        {
          "internalType": "string",
          "name": "title",
          "type": "string"
        },
        {
          "internalType": "string",
          "name": "description",
          "type": "string"
        },
        {
          "internalType": "string",
          "name": "category",
          "type": "string"
        },
        {
          "internalType": "uint256",
          "name": "id",
          "type": "uint256"
        }
      ],
      "name": "editRequest",
      "outputs": [],
      "stateMutability": "nonpayable",
      "type": "function"
    }
  ],
  "bytecode": "0x608060405234801561001057600080fd5b506107d7806100206000396000f3fe608060405234801561001057600080fd5b50600436106100415760003560e01c80634c854158146100465780634f0d87dd14610078578063f82f7bdd14610094575b600080fd5b610060600480360381019061005b91906103e3565b6100b0565b60405161006f939291906104b8565b60405180910390f35b610092600480360381019061008d9190610632565b6101ea565b005b6100ae60048036038101906100a99190610632565b6101f0565b005b60146020528060005260406000206000915090508060000154908060010180546100d99061071c565b80601f01602080910402602001604051908101604052809291908181526020018280546101059061071c565b80156101525780601f1061012757610100808354040283529160200191610152565b820191906000526020600020905b81548152906001019060200180831161013557829003601f168201915b5050505050908060020180546101679061071c565b80601f01602080910402602001604051908101604052809291908181526020018280546101939061071c565b80156101e05780601f106101b5576101008083540402835291602001916101e0565b820191906000526020600020905b8154815290600101906020018083116101c357829003601f168201915b5050505050905083565b50505050565b6040518060400160405280600781526020017f6d65646963616c0000000000000000000000000000000000000000000000000081525080519060200120828051906020012014156102f0576040518060a00160405280858152602001848152602001828152602001600081526020016000815250601383604051610274919061078a565b908152602001604051809103902060008054815260200190815260200160002060008201518160000190805190602001906102b09291906102f6565b5060208201518160010190805190602001906102cd9291906102f6565b506040820151816002015560608201518160030155608082015181600401559050505b50505050565b8280546103029061071c565b90600052602060002090601f016020900481019282610324576000855561036b565b82601f1061033d57805160ff191683800117855561036b565b8280016001018555821561036b579182015b8281111561036a57825182559160200191906001019061034f565b5b509050610378919061037c565b5090565b5b8082111561039557600081600090555060010161037d565b5090565b6000604051905090565b600080fd5b600080fd5b6000819050919050565b6103c0816103ad565b81146103cb57600080fd5b50565b6000813590506103dd816103b7565b92915050565b6000602082840312156103f9576103f86103a3565b5b6000610407848285016103ce565b91505092915050565b610419816103ad565b82525050565b600081519050919050565b600082825260208201905092915050565b60005b8381101561045957808201518184015260208101905061043e565b83811115610468576000848401525b50505050565b6000601f19601f8301169050919050565b600061048a8261041f565b610494818561042a565b93506104a481856020860161043b565b6104ad8161046e565b840191505092915050565b60006060820190506104cd6000830186610410565b81810360208301526104df818561047f565b905081810360408301526104f3818461047f565b9050949350505050565b600080fd5b600080fd5b7f4e487b7100000000000000000000000000000000000000000000000000000000600052604160045260246000fd5b61053f8261046e565b810181811067ffffffffffffffff8211171561055e5761055d610507565b5b80604052505050565b6000610571610399565b905061057d8282610536565b919050565b600067ffffffffffffffff82111561059d5761059c610507565b5b6105a68261046e565b9050602081019050919050565b82818337600083830152505050565b60006105d56105d084610582565b610567565b9050828152602081018484840111156105f1576105f0610502565b5b6105fc8482856105b3565b509392505050565b600082601f830112610619576106186104fd565b5b81356106298482602086016105c2565b91505092915050565b6000806000806080858703121561064c5761064b6103a3565b5b600085013567ffffffffffffffff81111561066a576106696103a8565b5b61067687828801610604565b945050602085013567ffffffffffffffff811115610697576106966103a8565b5b6106a387828801610604565b935050604085013567ffffffffffffffff8111156106c4576106c36103a8565b5b6106d087828801610604565b92505060606106e1878288016103ce565b91505092959194509250565b7f4e487b7100000000000000000000000000000000000000000000000000000000600052602260045260246000fd5b6000600282049050600182168061073457607f821691505b60208210811415610748576107476106ed565b5b50919050565b600081905092915050565b60006107648261041f565b61076e818561074e565b935061077e81856020860161043b565b80840191505092915050565b60006107968284610759565b91508190509291505056fea2646970667358221220a06973aea808cb737fab8acdeeec6c0b911bba2c1ac14f931ef89f409629f64b64736f6c634300080c0033",
  "immutableReferences": {},
  "source": "// SPDX-License-Identifier: LGPL-3.0-only\npragma solidity ^0.8.12;\n\ncontract Storage {\n  // Create variables for total number of requests in each category\n  /* uint256[19] categories = [0,0,0,0,0,0,0,0,0,0,0,0,0,0,0,0,0,0,0]; */\n  uint256 medicalRequests;\n  uint256 memorialRequests;\n  uint256 emergencyRequests;\n  uint256 nonprofitRequests;\n  uint256 educationRequests;\n  uint256 animalRequests;\n  uint256 environmentRequests;\n  uint256 businessRequests;\n  uint256 communityRequests;\n  uint256 competitionRequests;\n  uint256 creativeRequests;\n  uint256 eventRequests;\n  uint256 religiousRequests;\n  uint256 familyRequests;\n  uint256 sportRequests;\n  uint256 travelRequests;\n  uint256 volunteerRequests;\n  uint256 wishRequests;\n  uint256 individualRequests;\n\n  struct Request {\n      string title;\n      string description;\n      // Amount Requested\n      uint256 amount;\n      uint256 totalOrganizers;\n      uint256 totalContributors;\n  }\n\n  struct Contributor {\n    uint256 amountDonated;\n    string name;\n    string contributorAddress;\n  }\n\n  /* struct Organizer {\n    string name;\n    string role;\n    // Addresses strings because solidity wont accept other blockchain addresses\n    string algoAddress;\n    string avaxAddress;\n    string bscAddress;\n    string btcAddress;\n    string bchAddress;\n    string adaAddress;\n    string atomAddress;\n    string dashAddress;\n    string dcrAddress;\n    string dgbAddress;\n    string dogeAddress;\n    string egldAddress;\n    string ethAddress;\n    string etcAddress;\n    string ftmAddress;\n    string oneAddress;\n    string zenAddress;\n    string ltcAddress;\n    string xmrAddress;\n    string dotAddress;\n    string maticAddress;\n    string rskAddress;\n    string solAddress;\n    string xlmAddress;\n    string xtzAddress;\n    string trxAddress;\n    string xrpAddress;\n    string zecAddress;\n  } */\n\n  // string = Category\nmapping (string => mapping (uint256 => Request)) Requests;\n\n  // uint256 = Request ID\n  mapping(uint256 => Contributor) public Contributors;\n  /* mapping(string => mapping(uint256 => Organizer)) public Organizers; */\n\n  /* function returnCategory(uint256 _category) public returns (uint256){\n    if (_category == 0) {\n      return categories[0];\n    }\n  } */\n\n  function createRequest (\n    string memory title,\n    string memory description,\n    string memory category,\n    uint256 amount\n  ) public {\n    if (keccak256(bytes(category)) == keccak256(bytes(\"medical\"))) {\n      Requests[category][medicalRequests] = Request(title, description, amount, 0, 0);\n    }\n  }\n\n  function editRequest (\n    string memory title,\n    string memory description,\n    string memory category,\n    uint256 id\n  ) public {\n\n  }\n\n  /* function addAddressToOrganizer () public {\n\n  }\n\n  function verifyOrganizerAddress () public {}\n\n  function upvoteRequest () public {}\n\n  function downvoteRequest () public {}\n\n  function updatePost () public {} */\n}\n",
  "sourcePath": "/home/user/Documents/donation/src/contracts/Storage.sol",
  "compiler": {
    "name": "solc",
    "version": "0.8.12+commit.f00d7308.Emscripten.clang"
  },
  "schemaVersion": "3.4.1",
  "updatedAt": "2022-03-11T16:12:43.578Z",
  "devdoc": {
    "kind": "dev",
    "methods": {},
    "version": 1
  },
  "userdoc": {
    "kind": "user",
    "methods": {},
    "version": 1
  }
}