{
  "contractName": "Storage",
  "abi": [
    {
      "inputs": [
        {
          "internalType": "string",
          "name": "",
          "type": "string"
        },
        {
          "internalType": "uint256",
          "name": "",
          "type": "uint256"
        }
      ],
      "name": "Contributors",
      "outputs": [
        {
          "internalType": "uint256",
          "name": "amountDonated",
          "type": "uint256"
        },
        {
          "internalType": "string",
          "name": "name",
          "type": "string"
        },
        {
          "internalType": "string",
          "name": "contributorAddress",
          "type": "string"
        }
      ],
      "stateMutability": "view",
      "type": "function"
    },
    {
      "inputs": [
        {
          "internalType": "string",
          "name": "",
          "type": "string"
        },
        {
          "internalType": "uint256",
          "name": "",
          "type": "uint256"
        },
        {
          "internalType": "uint256",
          "name": "",
          "type": "uint256"
        }
      ],
      "name": "Organizers",
      "outputs": [
        {
          "internalType": "string",
          "name": "name",
          "type": "string"
        },
        {
          "internalType": "string",
          "name": "role",
          "type": "string"
        },
        {
          "internalType": "uint256",
          "name": "id",
          "type": "uint256"
        }
      ],
      "stateMutability": "view",
      "type": "function"
    },
    {
      "inputs": [
        {
          "internalType": "string",
          "name": "_title",
          "type": "string"
        },
        {
          "internalType": "string",
          "name": "_description",
          "type": "string"
        },
        {
          "internalType": "string",
          "name": "_category",
          "type": "string"
        },
        {
          "internalType": "uint256",
          "name": "_amount",
          "type": "uint256"
        }
      ],
      "name": "createRequest",
      "outputs": [],
      "stateMutability": "nonpayable",
      "type": "function"
    },
    {
      "inputs": [
        {
          "internalType": "string",
          "name": "_name",
          "type": "string"
        },
        {
          "internalType": "string",
          "name": "_role",
          "type": "string"
        },
        {
          "internalType": "string",
          "name": "_category",
          "type": "string"
        },
        {
          "internalType": "uint256",
          "name": "_requestId",
          "type": "uint256"
        },
        {
          "internalType": "uint256",
          "name": "_totalOrganizers",
          "type": "uint256"
        },
        {
          "internalType": "string[24]",
          "name": "_addresses",
          "type": "string[24]"
        }
      ],
      "name": "initalOrganzier",
      "outputs": [],
      "stateMutability": "nonpayable",
      "type": "function"
    },
    {
      "inputs": [
        {
          "internalType": "string",
          "name": "_name",
          "type": "string"
        },
        {
          "internalType": "string",
          "name": "_role",
          "type": "string"
        },
        {
          "internalType": "string",
          "name": "_category",
          "type": "string"
        },
        {
          "internalType": "uint256",
          "name": "_requestId",
          "type": "uint256"
        },
        {
          "internalType": "uint256",
          "name": "_organizerId",
          "type": "uint256"
        },
        {
          "internalType": "string[24]",
          "name": "_addresses",
          "type": "string[24]"
        }
      ],
      "name": "editOrganzier",
      "outputs": [],
      "stateMutability": "nonpayable",
      "type": "function"
    }
  ],
  "bytecode": "0x608060405234801561001057600080fd5b50612980806100206000396000f3fe608060405234801561001057600080fd5b50600436106100575760003560e01c80637be9d69e1461005c5780639251c1c4146100785780639af7a441146100aa578063c5dbf1fe146100c6578063f82f7bdd146100f8575b600080fd5b6100766004803603810190610071919061240d565b610114565b005b610092600480360381019061008d919061250a565b6104b5565b6040516100a1939291906125fd565b60405180910390f35b6100c460048036038101906100bf919061240d565b610612565b005b6100e060048036038101906100db9190612642565b610a1d565b6040516100ef939291906126b1565b60405180910390f35b610112600480360381019061010d91906126f6565b610b87565b005b604051806080016040528087815260200186815260200183815260200160405180610300016040528084600060188110610151576101506127b1565b5b602002015181526020018460016018811061016f5761016e6127b1565b5b602002015181526020018460026018811061018d5761018c6127b1565b5b60200201518152602001846003601881106101ab576101aa6127b1565b5b60200201518152602001846004601881106101c9576101c86127b1565b5b60200201518152602001846005601881106101e7576101e66127b1565b5b6020020151815260200184600660188110610205576102046127b1565b5b6020020151815260200184600760188110610223576102226127b1565b5b6020020151815260200184600860188110610241576102406127b1565b5b602002015181526020018460096018811061025f5761025e6127b1565b5b6020020151815260200184600a6018811061027d5761027c6127b1565b5b6020020151815260200184600b6018811061029b5761029a6127b1565b5b6020020151815260200184600c601881106102b9576102b86127b1565b5b6020020151815260200184600d601881106102d7576102d66127b1565b5b6020020151815260200184600e601881106102f5576102f46127b1565b5b6020020151815260200184600f60188110610313576103126127b1565b5b6020020151815260200184601060188110610331576103306127b1565b5b602002015181526020018460116018811061034f5761034e6127b1565b5b602002015181526020018460126018811061036d5761036c6127b1565b5b602002015181526020018460136018811061038b5761038a6127b1565b5b60200201518152602001846014601881106103a9576103a86127b1565b5b60200201518152602001846015601881106103c7576103c66127b1565b5b60200201518152602001846016601881106103e5576103e46127b1565b5b6020020151815260200184601760188110610403576104026127b1565b5b602002015181525081525060158560405161041e919061281c565b908152602001604051809103902060008581526020019081526020016000206000848152602001908152602001600020600082015181600001908051906020019061046a92919061204f565b50602082015181600101908051906020019061048792919061204f565b50604082015181600201556060820151816003019060186104a99291906120d5565b50905050505050505050565b6014828051602081018201805184825260208301602085012081835280955050505050506020528060005260406000206000915091505080600001549080600101805461050190612862565b80601f016020809104026020016040519081016040528092919081815260200182805461052d90612862565b801561057a5780601f1061054f5761010080835404028352916020019161057a565b820191906000526020600020905b81548152906001019060200180831161055d57829003601f168201915b50505050509080600201805461058f90612862565b80601f01602080910402602001604051908101604052809291908181526020018280546105bb90612862565b80156106085780601f106105dd57610100808354040283529160200191610608565b820191906000526020600020905b8154815290600101906020018083116105eb57829003601f168201915b5050505050905083565b601584604051610622919061281c565b9081526020016040518091039020600084815260200190815260200160002060008381526020019081526020016000206000016040516106629190612933565b604051809103902086805190602001201461067c57600080fd5b6040518060800160405280878152602001868152602001838152602001604051806103000160405280846000601881106106b9576106b86127b1565b5b60200201518152602001846001601881106106d7576106d66127b1565b5b60200201518152602001846002601881106106f5576106f46127b1565b5b6020020151815260200184600360188110610713576107126127b1565b5b6020020151815260200184600460188110610731576107306127b1565b5b602002015181526020018460056018811061074f5761074e6127b1565b5b602002015181526020018460066018811061076d5761076c6127b1565b5b602002015181526020018460076018811061078b5761078a6127b1565b5b60200201518152602001846008601881106107a9576107a86127b1565b5b60200201518152602001846009601881106107c7576107c66127b1565b5b6020020151815260200184600a601881106107e5576107e46127b1565b5b6020020151815260200184600b60188110610803576108026127b1565b5b6020020151815260200184600c60188110610821576108206127b1565b5b6020020151815260200184600d6018811061083f5761083e6127b1565b5b6020020151815260200184600e6018811061085d5761085c6127b1565b5b6020020151815260200184600f6018811061087b5761087a6127b1565b5b6020020151815260200184601060188110610899576108986127b1565b5b60200201518152602001846011601881106108b7576108b66127b1565b5b60200201518152602001846012601881106108d5576108d46127b1565b5b60200201518152602001846013601881106108f3576108f26127b1565b5b6020020151815260200184601460188110610911576109106127b1565b5b602002015181526020018460156018811061092f5761092e6127b1565b5b602002015181526020018460166018811061094d5761094c6127b1565b5b602002015181526020018460176018811061096b5761096a6127b1565b5b6020020151815250815250601585604051610986919061281c565b90815260200160405180910390206000858152602001908152602001600020600084815260200190815260200160002060008201518160000190805190602001906109d292919061204f565b5060208201518160010190805190602001906109ef92919061204f565b5060408201518160020155606082015181600301906018610a119291906120d5565b50905050505050505050565b6015838051602081018201805184825260208301602085012081835280955050505050506020528160005260406000206020528060005260406000206000925092505050806000018054610a7090612862565b80601f0160208091040260200160405190810160405280929190818152602001828054610a9c90612862565b8015610ae95780601f10610abe57610100808354040283529160200191610ae9565b820191906000526020600020905b815481529060010190602001808311610acc57829003601f168201915b505050505090806001018054610afe90612862565b80601f0160208091040260200160405190810160405280929190818152602001828054610b2a90612862565b8015610b775780601f10610b4c57610100808354040283529160200191610b77565b820191906000526020600020905b815481529060010190602001808311610b5a57829003601f168201915b5050505050908060020154905083565b6040518060400160405280600781526020017f6d65646963616c000000000000000000000000000000000000000000000000008152508051906020012082805190602001201415610c9d576040518060c001604052808581526020018481526020016000548152602001828152602001600081526020016000815250601383604051610c13919061281c565b90815260200160405180910390206000805481526020019081526020016000206000820151816000019080519060200190610c4f92919061204f565b506020820151816001019080519060200190610c6c92919061204f565b5060408201518160020155606082015181600301556080820151816004015560a08201518160050155905050612049565b6040518060400160405280600881526020017f6d656d6f7269616c0000000000000000000000000000000000000000000000008152508051906020012082805190602001201415610db4576040518060c001604052808581526020018481526020016001548152602001828152602001600081526020016000815250601383604051610d29919061281c565b9081526020016040518091039020600060015481526020019081526020016000206000820151816000019080519060200190610d6692919061204f565b506020820151816001019080519060200190610d8392919061204f565b5060408201518160020155606082015181600301556080820151816004015560a08201518160050155905050612048565b6040518060400160405280600981526020017f656d657267656e637900000000000000000000000000000000000000000000008152508051906020012082805190602001201415610ecb576040518060c001604052808581526020018481526020016002548152602001828152602001600081526020016000815250601383604051610e40919061281c565b9081526020016040518091039020600060025481526020019081526020016000206000820151816000019080519060200190610e7d92919061204f565b506020820151816001019080519060200190610e9a92919061204f565b5060408201518160020155606082015181600301556080820151816004015560a08201518160050155905050612047565b6040518060400160405280600981526020017f6e6f6e70726f66697400000000000000000000000000000000000000000000008152508051906020012082805190602001201415610fe2576040518060c001604052808581526020018481526020016003548152602001828152602001600081526020016000815250601383604051610f57919061281c565b9081526020016040518091039020600060035481526020019081526020016000206000820151816000019080519060200190610f9492919061204f565b506020820151816001019080519060200190610fb192919061204f565b5060408201518160020155606082015181600301556080820151816004015560a08201518160050155905050612046565b6040518060400160405280600981526020017f656475636174696f6e000000000000000000000000000000000000000000000081525080519060200120828051906020012014156110f9576040518060c00160405280858152602001848152602001600454815260200182815260200160008152602001600081525060138360405161106e919061281c565b90815260200160405180910390206000600454815260200190815260200160002060008201518160000190805190602001906110ab92919061204f565b5060208201518160010190805190602001906110c892919061204f565b5060408201518160020155606082015181600301556080820151816004015560a08201518160050155905050612045565b6040518060400160405280600681526020017f616e696d616c00000000000000000000000000000000000000000000000000008152508051906020012082805190602001201415611210576040518060c001604052808581526020018481526020016005548152602001828152602001600081526020016000815250601383604051611185919061281c565b90815260200160405180910390206000600554815260200190815260200160002060008201518160000190805190602001906111c292919061204f565b5060208201518160010190805190602001906111df92919061204f565b5060408201518160020155606082015181600301556080820151816004015560a08201518160050155905050612044565b6040518060400160405280600b81526020017f656e7669726f6e6d656e740000000000000000000000000000000000000000008152508051906020012082805190602001201415611327576040518060c00160405280858152602001848152602001600654815260200182815260200160008152602001600081525060138360405161129c919061281c565b90815260200160405180910390206000600654815260200190815260200160002060008201518160000190805190602001906112d992919061204f565b5060208201518160010190805190602001906112f692919061204f565b5060408201518160020155606082015181600301556080820151816004015560a08201518160050155905050612043565b6040518060400160405280600881526020017f627573696e657373000000000000000000000000000000000000000000000000815250805190602001208280519060200120141561143e576040518060c0016040528085815260200184815260200160075481526020018281526020016000815260200160008152506013836040516113b3919061281c565b90815260200160405180910390206000600754815260200190815260200160002060008201518160000190805190602001906113f092919061204f565b50602082015181600101908051906020019061140d92919061204f565b5060408201518160020155606082015181600301556080820151816004015560a08201518160050155905050612042565b6040518060400160405280600981526020017f636f6d6d756e69747900000000000000000000000000000000000000000000008152508051906020012082805190602001201415611555576040518060c0016040528085815260200184815260200160085481526020018281526020016000815260200160008152506013836040516114ca919061281c565b908152602001604051809103902060006008548152602001908152602001600020600082015181600001908051906020019061150792919061204f565b50602082015181600101908051906020019061152492919061204f565b5060408201518160020155606082015181600301556080820151816004015560a08201518160050155905050612041565b6040518060400160405280600b81526020017f636f6d7065746974696f6e000000000000000000000000000000000000000000815250805190602001208280519060200120141561166c576040518060c0016040528085815260200184815260200160095481526020018281526020016000815260200160008152506013836040516115e1919061281c565b908152602001604051809103902060006009548152602001908152602001600020600082015181600001908051906020019061161e92919061204f565b50602082015181600101908051906020019061163b92919061204f565b5060408201518160020155606082015181600301556080820151816004015560a08201518160050155905050612040565b6040518060400160405280600881526020017f63726561746976650000000000000000000000000000000000000000000000008152508051906020012082805190602001201415611783576040518060c00160405280858152602001848152602001600a5481526020018281526020016000815260200160008152506013836040516116f8919061281c565b90815260200160405180910390206000600a548152602001908152602001600020600082015181600001908051906020019061173592919061204f565b50602082015181600101908051906020019061175292919061204f565b5060408201518160020155606082015181600301556080820151816004015560a0820151816005015590505061203f565b6040518060400160405280600581526020017f6576656e74000000000000000000000000000000000000000000000000000000815250805190602001208280519060200120141561189a576040518060c00160405280858152602001848152602001600b54815260200182815260200160008152602001600081525060138360405161180f919061281c565b90815260200160405180910390206000600b548152602001908152602001600020600082015181600001908051906020019061184c92919061204f565b50602082015181600101908051906020019061186992919061204f565b5060408201518160020155606082015181600301556080820151816004015560a0820151816005015590505061203e565b6040518060400160405280600981526020017f72656c6967696f7573000000000000000000000000000000000000000000000081525080519060200120828051906020012014156119b1576040518060c00160405280858152602001848152602001600c548152602001828152602001600081526020016000815250601383604051611926919061281c565b90815260200160405180910390206000600c548152602001908152602001600020600082015181600001908051906020019061196392919061204f565b50602082015181600101908051906020019061198092919061204f565b5060408201518160020155606082015181600301556080820151816004015560a0820151816005015590505061203d565b6040518060400160405280600681526020017f66616d696c7900000000000000000000000000000000000000000000000000008152508051906020012082805190602001201415611ac8576040518060c00160405280858152602001848152602001600d548152602001828152602001600081526020016000815250601383604051611a3d919061281c565b90815260200160405180910390206000600d5481526020019081526020016000206000820151816000019080519060200190611a7a92919061204f565b506020820151816001019080519060200190611a9792919061204f565b5060408201518160020155606082015181600301556080820151816004015560a0820151816005015590505061203c565b6040518060400160405280600581526020017f73706f72740000000000000000000000000000000000000000000000000000008152508051906020012082805190602001201415611bdf576040518060c00160405280858152602001848152602001600e548152602001828152602001600081526020016000815250601383604051611b54919061281c565b90815260200160405180910390206000600e5481526020019081526020016000206000820151816000019080519060200190611b9192919061204f565b506020820151816001019080519060200190611bae92919061204f565b5060408201518160020155606082015181600301556080820151816004015560a0820151816005015590505061203b565b6040518060400160405280600681526020017f74726176656c00000000000000000000000000000000000000000000000000008152508051906020012082805190602001201415611cf6576040518060c00160405280858152602001848152602001600f548152602001828152602001600081526020016000815250601383604051611c6b919061281c565b90815260200160405180910390206000600f5481526020019081526020016000206000820151816000019080519060200190611ca892919061204f565b506020820151816001019080519060200190611cc592919061204f565b5060408201518160020155606082015181600301556080820151816004015560a0820151816005015590505061203a565b6040518060400160405280600981526020017f766f6c756e7465657200000000000000000000000000000000000000000000008152508051906020012082805190602001201415611e0d576040518060c001604052808581526020018481526020016010548152602001828152602001600081526020016000815250601383604051611d82919061281c565b9081526020016040518091039020600060105481526020019081526020016000206000820151816000019080519060200190611dbf92919061204f565b506020820151816001019080519060200190611ddc92919061204f565b5060408201518160020155606082015181600301556080820151816004015560a08201518160050155905050612039565b6040518060400160405280600481526020017f77697368000000000000000000000000000000000000000000000000000000008152508051906020012082805190602001201415611f24576040518060c001604052808581526020018481526020016011548152602001828152602001600081526020016000815250601383604051611e99919061281c565b9081526020016040518091039020600060115481526020019081526020016000206000820151816000019080519060200190611ed692919061204f565b506020820151816001019080519060200190611ef392919061204f565b5060408201518160020155606082015181600301556080820151816004015560a08201518160050155905050612038565b6040518060400160405280600a81526020017f696e646976696475616c000000000000000000000000000000000000000000008152508051906020012082805190602001201415612037576040518060c001604052808581526020018481526020016012548152602001828152602001600081526020016000815250601383604051611fb0919061281c565b9081526020016040518091039020600060125481526020019081526020016000206000820151816000019080519060200190611fed92919061204f565b50602082015181600101908051906020019061200a92919061204f565b5060408201518160020155606082015181600301556080820151816004015560a082015181600501559050505b5b5b5b5b5b5b5b5b5b5b5b5b5b5b5b5b5b5b50505050565b82805461205b90612862565b90600052602060002090601f01602090048101928261207d57600085556120c4565b82601f1061209657805160ff19168380011785556120c4565b828001600101855582156120c4579182015b828111156120c35782518255916020019190600101906120a8565b5b5090506120d19190612128565b5090565b8260188101928215612117579160200282015b8281111561211657825182908051906020019061210692919061204f565b50916020019190600101906120e8565b5b5090506121249190612145565b5090565b5b80821115612141576000816000905550600101612129565b5090565b5b80821115612165576000818161215c9190612169565b50600101612146565b5090565b50805461217590612862565b6000825580601f1061218757506121a6565b601f0160209004906000526020600020908101906121a59190612128565b5b50565b6000604051905090565b600080fd5b600080fd5b600080fd5b600080fd5b6000601f19601f8301169050919050565b7f4e487b7100000000000000000000000000000000000000000000000000000000600052604160045260246000fd5b612210826121c7565b810181811067ffffffffffffffff8211171561222f5761222e6121d8565b5b80604052505050565b60006122426121a9565b905061224e8282612207565b919050565b600067ffffffffffffffff82111561226e5761226d6121d8565b5b612277826121c7565b9050602081019050919050565b82818337600083830152505050565b60006122a66122a184612253565b612238565b9050828152602081018484840111156122c2576122c16121c2565b5b6122cd848285612284565b509392505050565b600082601f8301126122ea576122e96121bd565b5b81356122fa848260208601612293565b91505092915050565b6000819050919050565b61231681612303565b811461232157600080fd5b50565b6000813590506123338161230d565b92915050565b600067ffffffffffffffff821115612354576123536121d8565b5b602082029050919050565b600080fd5b600061237761237284612339565b612238565b905080602084028301858111156123915761239061235f565b5b835b818110156123d857803567ffffffffffffffff8111156123b6576123b56121bd565b5b8086016123c389826122d5565b85526020850194505050602081019050612393565b5050509392505050565b600082601f8301126123f7576123f66121bd565b5b6018612404848285612364565b91505092915050565b60008060008060008060c0878903121561242a576124296121b3565b5b600087013567ffffffffffffffff811115612448576124476121b8565b5b61245489828a016122d5565b965050602087013567ffffffffffffffff811115612475576124746121b8565b5b61248189828a016122d5565b955050604087013567ffffffffffffffff8111156124a2576124a16121b8565b5b6124ae89828a016122d5565b94505060606124bf89828a01612324565b93505060806124d089828a01612324565b92505060a087013567ffffffffffffffff8111156124f1576124f06121b8565b5b6124fd89828a016123e2565b9150509295509295509295565b60008060408385031215612521576125206121b3565b5b600083013567ffffffffffffffff81111561253f5761253e6121b8565b5b61254b858286016122d5565b925050602061255c85828601612324565b9150509250929050565b61256f81612303565b82525050565b600081519050919050565b600082825260208201905092915050565b60005b838110156125af578082015181840152602081019050612594565b838111156125be576000848401525b50505050565b60006125cf82612575565b6125d98185612580565b93506125e9818560208601612591565b6125f2816121c7565b840191505092915050565b60006060820190506126126000830186612566565b818103602083015261262481856125c4565b9050818103604083015261263881846125c4565b9050949350505050565b60008060006060848603121561265b5761265a6121b3565b5b600084013567ffffffffffffffff811115612679576126786121b8565b5b612685868287016122d5565b935050602061269686828701612324565b92505060406126a786828701612324565b9150509250925092565b600060608201905081810360008301526126cb81866125c4565b905081810360208301526126df81856125c4565b90506126ee6040830184612566565b949350505050565b600080600080608085870312156127105761270f6121b3565b5b600085013567ffffffffffffffff81111561272e5761272d6121b8565b5b61273a878288016122d5565b945050602085013567ffffffffffffffff81111561275b5761275a6121b8565b5b612767878288016122d5565b935050604085013567ffffffffffffffff811115612788576127876121b8565b5b612794878288016122d5565b92505060606127a587828801612324565b91505092959194509250565b7f4e487b7100000000000000000000000000000000000000000000000000000000600052603260045260246000fd5b600081905092915050565b60006127f682612575565b61280081856127e0565b9350612810818560208601612591565b80840191505092915050565b600061282882846127eb565b915081905092915050565b7f4e487b7100000000000000000000000000000000000000000000000000000000600052602260045260246000fd5b6000600282049050600182168061287a57607f821691505b6020821081141561288e5761288d612833565b5b50919050565b600081905092915050565b60008190508160005260206000209050919050565b600081546128c181612862565b6128cb8186612894565b945060018216600081146128e657600181146128f75761292a565b60ff1983168652818601935061292a565b6129008561289f565b60005b8381101561292257815481890152600182019150602081019050612903565b838801955050505b50505092915050565b600061293f82846128b4565b91508190509291505056fea26469706673582212204a55ebfa0c0db105482b6dffb181e7cc0c4ed85148f107b0ec67b87fe1a091fa64736f6c634300080c0033",
  "immutableReferences": {},
  "source": "// SPDX-License-Identifier: LGPL-3.0-only\npragma solidity ^0.8.12;\n\ncontract Storage {\n  /* Create variables for total number of requests in each category strings for\n  each will be defined in the UI. */\n  // Check gas cost of individual variables vs array. Maybe cheaper but probably not\n  uint256 medicalRequests;\n  uint256 memorialRequests;\n  uint256 emergencyRequests;\n  uint256 nonprofitRequests;\n  uint256 educationRequests;\n  uint256 animalRequests;\n  uint256 environmentRequests;\n  uint256 businessRequests;\n  uint256 communityRequests;\n  uint256 competitionRequests;\n  uint256 creativeRequests;\n  uint256 eventRequests;\n  uint256 religiousRequests;\n  uint256 familyRequests;\n  uint256 sportRequests;\n  uint256 travelRequests;\n  uint256 volunteerRequests;\n  uint256 wishRequests;\n  uint256 individualRequests;\n\n  struct Request {\n      string title;\n      string description;\n      uint256 id;\n      // Amount Requested\n      uint256 amount;\n      uint256 totalOrganizers;\n      uint256 totalContributors;\n  }\n\n  struct Contributor {\n    uint256 amountDonated;\n    string name;\n    string contributorAddress;\n  }\n\n  struct Organizer {\n    string name;\n    // Will be defined in UI as selectable options similar to category\n    string role;\n    uint256 id;\n    /* Coins are chosen based on being meant for medium of exchange with high\n    transaction volume at the time. ADA and ETH are there aswell for smart\n    contract support if people are interested in using that. */\n    string[24] addresses;\n    /* index 0 = btcAddress;\n    index 1 = bchAddress;\n    index 2 = adaAddress;\n    index 3 = dashAddress;\n    index 4 = dogeAddress;\n    index 5 = ethAddress;\n    index 6 = ltcAddress;\n    index 7 = xmrAddress;\n    index 8 = zecAddress;\n\n    Extras just for support for other chains people may want to use if volume\n    drops off in the future maybe re-evaluate showing these in UI to keep things\n    more compact/clean.\n\n    index 9 = algoAddress;\n    index 10 = avaxAddress;\n    index 11 = bscAddress;\n    index 12 = atomAddress;\n    index 13 = egldAddress;\n    index 14 = etcAddress;\n    index 15 = ftmAddress;\n    index 16 = oneAddress;\n    index 17 = lunaAddress;\n    index 18 = dotAddress;\n    index 19 = maticAddress;\n    index 20 = solAddress;\n    index 21 = xlmAddress;\n    index 22 = trxAddress;\n    index 23 = xrpAddress; */\n  }\n\n  // string = Category\n  mapping (string => mapping (uint256 => Request)) Requests;\n\n  // uint256 = Request ID\n  mapping(string => mapping(uint256 => Contributor)) public Contributors;\n  // category => id of request => id of organizer\n  mapping(string => mapping(uint256 => mapping(uint256 => Organizer))) public Organizers;\n\n  function createRequest (\n    string memory _title,\n    string memory _description,\n    string memory _category,\n    uint256 _amount\n  ) public {\n    /* Sorting into category variables makes the code more complex with large if\n    else statements however may be useful in the case of the frontend being\n    shutdown and needing to be redeployed with all the data in the proper location */\n    if (keccak256(bytes(_category)) == keccak256(bytes(\"medical\"))) {\n      Requests[_category][medicalRequests] = Request(_title, _description, medicalRequests, _amount, 0, 0);\n    } else if (keccak256(bytes(_category)) == keccak256(bytes(\"memorial\"))) {\n          Requests[_category][memorialRequests] = Request(_title, _description, memorialRequests, _amount, 0, 0);\n    } else if (keccak256(bytes(_category)) == keccak256(bytes(\"emergency\"))) {\n          Requests[_category][emergencyRequests] = Request(_title, _description, emergencyRequests, _amount, 0, 0);\n    } else if (keccak256(bytes(_category)) == keccak256(bytes(\"nonprofit\"))) {\n          Requests[_category][nonprofitRequests] = Request(_title, _description, nonprofitRequests, _amount, 0, 0);\n    } else if (keccak256(bytes(_category)) == keccak256(bytes(\"education\"))) {\n          Requests[_category][educationRequests] = Request(_title, _description, educationRequests, _amount, 0, 0);\n    } else if (keccak256(bytes(_category)) == keccak256(bytes(\"animal\"))) {\n          Requests[_category][animalRequests] = Request(_title, _description, animalRequests, _amount, 0, 0);\n    } else if (keccak256(bytes(_category)) == keccak256(bytes(\"environment\"))) {\n          Requests[_category][environmentRequests] = Request(_title, _description, environmentRequests, _amount, 0, 0);\n    } else if (keccak256(bytes(_category)) == keccak256(bytes(\"business\"))) {\n          Requests[_category][businessRequests] = Request(_title, _description, businessRequests, _amount, 0, 0);\n    } else if (keccak256(bytes(_category)) == keccak256(bytes(\"community\"))) {\n          Requests[_category][communityRequests] = Request(_title, _description, communityRequests, _amount, 0, 0);\n    } else if (keccak256(bytes(_category)) == keccak256(bytes(\"competition\"))) {\n          Requests[_category][competitionRequests] = Request(_title, _description, competitionRequests, _amount, 0, 0);\n    } else if (keccak256(bytes(_category)) == keccak256(bytes(\"creative\"))) {\n          Requests[_category][creativeRequests] = Request(_title, _description, creativeRequests, _amount, 0, 0);\n    } else if (keccak256(bytes(_category)) == keccak256(bytes(\"event\"))) {\n          Requests[_category][eventRequests] = Request(_title, _description, eventRequests, _amount, 0, 0);\n    } else if (keccak256(bytes(_category)) == keccak256(bytes(\"religious\"))) {\n          Requests[_category][religiousRequests] = Request(_title, _description, religiousRequests, _amount, 0, 0);\n    } else if (keccak256(bytes(_category)) == keccak256(bytes(\"family\"))) {\n          Requests[_category][familyRequests] = Request(_title, _description, familyRequests, _amount, 0, 0);\n    } else if (keccak256(bytes(_category)) == keccak256(bytes(\"sport\"))) {\n          Requests[_category][sportRequests] = Request(_title, _description, sportRequests, _amount, 0, 0);\n    } else if (keccak256(bytes(_category)) == keccak256(bytes(\"travel\"))) {\n          Requests[_category][travelRequests] = Request(_title, _description, travelRequests, _amount, 0, 0);\n    } else if (keccak256(bytes(_category)) == keccak256(bytes(\"volunteer\"))) {\n          Requests[_category][volunteerRequests] = Request(_title, _description, volunteerRequests, _amount, 0, 0);\n    } else if (keccak256(bytes(_category)) == keccak256(bytes(\"wish\"))) {\n          Requests[_category][wishRequests] = Request(_title, _description, wishRequests, _amount, 0, 0);\n    } else if (keccak256(bytes(_category)) == keccak256(bytes(\"individual\"))) {\n          Requests[_category][individualRequests] = Request(_title, _description, individualRequests, _amount, 0, 0);\n    }\n  }\n\n  function initalOrganzier (\n    string memory _name,\n    string memory _role,\n    string memory _category,\n    uint256 _requestId,\n    uint256 _totalOrganizers,\n    string[24] memory _addresses\n  ) public {\n    /* Not all addresses need to be assigned a value. In the UI any addresses not\n    assigned by default should be set to \"\" which would mean an empty string.\n    That will cause setting the mapping data to not fail. Role will also be set\n    through the UI  */\n    Organizers[_category][_requestId][_totalOrganizers] = Organizer(\n      _name, _role, _totalOrganizers, [_addresses[0], _addresses[1], _addresses[2],\n      _addresses[3], _addresses[4], _addresses[5], _addresses[6], _addresses[7],\n      _addresses[8], _addresses[9], _addresses[10], _addresses[11], _addresses[12],\n      _addresses[13], _addresses[14], _addresses[15], _addresses[16], _addresses[17],\n      _addresses[18], _addresses[19], _addresses[20], _addresses[21], _addresses[22],\n      _addresses[23]\n      ]\n    );\n  }\n\n  // Name will be immutable and should be noted in UI to be right the first time\n  function editOrganzier (\n    string memory _name,\n    string memory _role,\n    string memory _category,\n    uint256 _requestId,\n    uint256 _organizerId,\n    string[24] memory _addresses\n  ) public {\n    require(keccak256(bytes(_name)) == keccak256(bytes(Organizers[_category][_requestId][_organizerId].name)));\n    /* This method will cost extra gas and can be improved upon. This can be\n    solved by either taking in less addresses or another way. In it's current\n    form it will call the current data from the blockchain and input it into the\n    UI and once resubmitted you will paying that extra gas to rewrite the same\n    address again for those unchanged. The goal would be to save that extra gas\n    cost so only the address added/changed is what's sent back. */\n    Organizers[_category][_requestId][_organizerId] = Organizer(\n      _name, _role, _organizerId, [_addresses[0], _addresses[1], _addresses[2],\n      _addresses[3], _addresses[4], _addresses[5], _addresses[6], _addresses[7],\n      _addresses[8], _addresses[9], _addresses[10], _addresses[11], _addresses[12],\n      _addresses[13], _addresses[14], _addresses[15], _addresses[16], _addresses[17],\n      _addresses[18], _addresses[19], _addresses[20], _addresses[21], _addresses[22],\n      _addresses[23]\n      ]\n    );\n  }\n\n  /* function editRequest (\n    string memory title,\n    string memory description,\n    string memory category,\n    uint256 id\n  ) public {\n\n  } */\n\n  /* function addAddressToOrganizer () public {\n\n  }\n\n  function verifyOrganizerAddress () public {}\n\n  function upvoteRequest () public {}\n\n  function downvoteRequest () public {}\n\n  function updatePost () public {} */\n}\n",
  "sourcePath": "/home/user/Documents/donation/src/contracts/Storage.sol",
  "compiler": {
    "name": "solc",
    "version": "0.8.12+commit.f00d7308.Emscripten.clang"
  },
  "schemaVersion": "3.4.1",
  "updatedAt": "2022-03-14T22:01:11.031Z",
  "devdoc": {
    "kind": "dev",
    "methods": {},
    "version": 1
  },
  "userdoc": {
    "kind": "user",
    "methods": {},
    "version": 1
  }
}