{
  "contractName": "Storage",
  "abi": [
    {
      "inputs": [
        {
          "internalType": "string",
          "name": "",
          "type": "string"
        },
        {
          "internalType": "uint256",
          "name": "",
          "type": "uint256"
        },
        {
          "internalType": "uint256",
          "name": "",
          "type": "uint256"
        }
      ],
      "name": "Contributors",
      "outputs": [
        {
          "internalType": "uint256",
          "name": "amountDonated",
          "type": "uint256"
        },
        {
          "internalType": "string",
          "name": "name",
          "type": "string"
        },
        {
          "internalType": "string",
          "name": "contributorAddress",
          "type": "string"
        },
        {
          "internalType": "uint256",
          "name": "id",
          "type": "uint256"
        }
      ],
      "stateMutability": "view",
      "type": "function"
    },
    {
      "inputs": [
        {
          "internalType": "string",
          "name": "",
          "type": "string"
        },
        {
          "internalType": "uint256",
          "name": "",
          "type": "uint256"
        },
        {
          "internalType": "uint256",
          "name": "",
          "type": "uint256"
        }
      ],
      "name": "Organizers",
      "outputs": [
        {
          "internalType": "string",
          "name": "name",
          "type": "string"
        },
        {
          "internalType": "string",
          "name": "role",
          "type": "string"
        },
        {
          "internalType": "uint256",
          "name": "id",
          "type": "uint256"
        }
      ],
      "stateMutability": "view",
      "type": "function"
    },
    {
      "inputs": [
        {
          "internalType": "string",
          "name": "",
          "type": "string"
        },
        {
          "internalType": "uint256",
          "name": "",
          "type": "uint256"
        },
        {
          "internalType": "uint256",
          "name": "",
          "type": "uint256"
        }
      ],
      "name": "Posts",
      "outputs": [
        {
          "internalType": "string",
          "name": "title",
          "type": "string"
        },
        {
          "internalType": "string",
          "name": "description",
          "type": "string"
        },
        {
          "internalType": "string",
          "name": "date",
          "type": "string"
        }
      ],
      "stateMutability": "view",
      "type": "function"
    },
    {
      "inputs": [
        {
          "internalType": "uint256",
          "name": "",
          "type": "uint256"
        },
        {
          "internalType": "uint256",
          "name": "",
          "type": "uint256"
        }
      ],
      "name": "Requests",
      "outputs": [
        {
          "internalType": "string",
          "name": "title",
          "type": "string"
        },
        {
          "internalType": "string",
          "name": "description",
          "type": "string"
        },
        {
          "internalType": "uint256",
          "name": "id",
          "type": "uint256"
        },
        {
          "internalType": "uint256",
          "name": "amount",
          "type": "uint256"
        },
        {
          "internalType": "uint256",
          "name": "totalOrganizers",
          "type": "uint256"
        },
        {
          "internalType": "uint256",
          "name": "totalContributors",
          "type": "uint256"
        },
        {
          "internalType": "uint256",
          "name": "score",
          "type": "uint256"
        },
        {
          "internalType": "address",
          "name": "creator",
          "type": "address"
        },
        {
          "internalType": "uint256",
          "name": "totalPosts",
          "type": "uint256"
        }
      ],
      "stateMutability": "view",
      "type": "function"
    },
    {
      "inputs": [],
      "name": "animalRequests",
      "outputs": [
        {
          "internalType": "uint256",
          "name": "",
          "type": "uint256"
        }
      ],
      "stateMutability": "view",
      "type": "function"
    },
    {
      "inputs": [],
      "name": "businessRequests",
      "outputs": [
        {
          "internalType": "uint256",
          "name": "",
          "type": "uint256"
        }
      ],
      "stateMutability": "view",
      "type": "function"
    },
    {
      "inputs": [],
      "name": "communityRequests",
      "outputs": [
        {
          "internalType": "uint256",
          "name": "",
          "type": "uint256"
        }
      ],
      "stateMutability": "view",
      "type": "function"
    },
    {
      "inputs": [],
      "name": "competitionRequests",
      "outputs": [
        {
          "internalType": "uint256",
          "name": "",
          "type": "uint256"
        }
      ],
      "stateMutability": "view",
      "type": "function"
    },
    {
      "inputs": [],
      "name": "creativeRequests",
      "outputs": [
        {
          "internalType": "uint256",
          "name": "",
          "type": "uint256"
        }
      ],
      "stateMutability": "view",
      "type": "function"
    },
    {
      "inputs": [],
      "name": "educationRequests",
      "outputs": [
        {
          "internalType": "uint256",
          "name": "",
          "type": "uint256"
        }
      ],
      "stateMutability": "view",
      "type": "function"
    },
    {
      "inputs": [],
      "name": "emergencyRequests",
      "outputs": [
        {
          "internalType": "uint256",
          "name": "",
          "type": "uint256"
        }
      ],
      "stateMutability": "view",
      "type": "function"
    },
    {
      "inputs": [],
      "name": "environmentRequests",
      "outputs": [
        {
          "internalType": "uint256",
          "name": "",
          "type": "uint256"
        }
      ],
      "stateMutability": "view",
      "type": "function"
    },
    {
      "inputs": [],
      "name": "eventRequests",
      "outputs": [
        {
          "internalType": "uint256",
          "name": "",
          "type": "uint256"
        }
      ],
      "stateMutability": "view",
      "type": "function"
    },
    {
      "inputs": [],
      "name": "familyRequests",
      "outputs": [
        {
          "internalType": "uint256",
          "name": "",
          "type": "uint256"
        }
      ],
      "stateMutability": "view",
      "type": "function"
    },
    {
      "inputs": [],
      "name": "individualRequests",
      "outputs": [
        {
          "internalType": "uint256",
          "name": "",
          "type": "uint256"
        }
      ],
      "stateMutability": "view",
      "type": "function"
    },
    {
      "inputs": [
        {
          "internalType": "string",
          "name": "",
          "type": "string"
        },
        {
          "internalType": "uint256",
          "name": "",
          "type": "uint256"
        },
        {
          "internalType": "address",
          "name": "",
          "type": "address"
        }
      ],
      "name": "isVoted",
      "outputs": [
        {
          "internalType": "bool",
          "name": "",
          "type": "bool"
        }
      ],
      "stateMutability": "view",
      "type": "function"
    },
    {
      "inputs": [
        {
          "internalType": "uint256",
          "name": "",
          "type": "uint256"
        }
      ],
      "name": "medicalRequests",
      "outputs": [
        {
          "internalType": "uint256",
          "name": "",
          "type": "uint256"
        }
      ],
      "stateMutability": "view",
      "type": "function"
    },
    {
      "inputs": [],
      "name": "memorialRequests",
      "outputs": [
        {
          "internalType": "uint256",
          "name": "",
          "type": "uint256"
        }
      ],
      "stateMutability": "view",
      "type": "function"
    },
    {
      "inputs": [],
      "name": "nonprofitRequests",
      "outputs": [
        {
          "internalType": "uint256",
          "name": "",
          "type": "uint256"
        }
      ],
      "stateMutability": "view",
      "type": "function"
    },
    {
      "inputs": [],
      "name": "religiousRequests",
      "outputs": [
        {
          "internalType": "uint256",
          "name": "",
          "type": "uint256"
        }
      ],
      "stateMutability": "view",
      "type": "function"
    },
    {
      "inputs": [],
      "name": "sportRequests",
      "outputs": [
        {
          "internalType": "uint256",
          "name": "",
          "type": "uint256"
        }
      ],
      "stateMutability": "view",
      "type": "function"
    },
    {
      "inputs": [],
      "name": "travelRequests",
      "outputs": [
        {
          "internalType": "uint256",
          "name": "",
          "type": "uint256"
        }
      ],
      "stateMutability": "view",
      "type": "function"
    },
    {
      "inputs": [],
      "name": "volunteerRequests",
      "outputs": [
        {
          "internalType": "uint256",
          "name": "",
          "type": "uint256"
        }
      ],
      "stateMutability": "view",
      "type": "function"
    },
    {
      "inputs": [],
      "name": "wishRequests",
      "outputs": [
        {
          "internalType": "uint256",
          "name": "",
          "type": "uint256"
        }
      ],
      "stateMutability": "view",
      "type": "function"
    },
    {
      "inputs": [
        {
          "internalType": "string",
          "name": "_title",
          "type": "string"
        },
        {
          "internalType": "string",
          "name": "_description",
          "type": "string"
        },
        {
          "internalType": "uint256",
          "name": "_category",
          "type": "uint256"
        },
        {
          "internalType": "uint256",
          "name": "_amount",
          "type": "uint256"
        }
      ],
      "name": "createRequest",
      "outputs": [],
      "stateMutability": "nonpayable",
      "type": "function"
    }
  ],
  "bytecode": "0x608060405234801561001057600080fd5b506115df806100206000396000f3fe608060405234801561001057600080fd5b50600436106101735760003560e01c806368d2ff74116100de5780639ef2179c11610097578063c6ac9f5d11610071578063c6ac9f5d14610443578063cadd34c314610473578063e9e61c5d146104a3578063fddbe156146104c157610173565b80639ef2179c146103d5578063b0366f3f146103f3578063c5dbf1fe1461041157610173565b806368d2ff741461030d5780636edc8e4d1461032b5780638a9d8d25146103495780638efad2e1146103675780638fb0bd91146103995780639420d6a1146103b757610173565b80632d7e140f116101305780632d7e140f146102415780633456601f1461025f57806338ea96241461027d578063421cca951461029957806343e5bbdf146102b75780635ea919e5146102d557610173565b806301b57d95146101785780630a9de09c1461019657806313907f8c146101b457806327f62583146101d25780632b9f3f04146101f05780632c89f36114610223575b600080fd5b6101806104df565b60405161018d9190610e6e565b60405180910390f35b61019e6104e5565b6040516101ab9190610e6e565b60405180910390f35b6101bc6104eb565b6040516101c99190610e6e565b60405180910390f35b6101da6104f1565b6040516101e79190610e6e565b60405180910390f35b61020a6004803603810190610205919061100f565b6104f7565b60405161021a9493929190611106565b60405180910390f35b61022b610667565b6040516102389190610e6e565b60405180910390f35b61024961066d565b6040516102569190610e6e565b60405180910390f35b610267610673565b6040516102749190610e6e565b60405180910390f35b61029760048036038101906102929190611159565b610679565b005b6102a161081c565b6040516102ae9190610e6e565b60405180910390f35b6102bf610822565b6040516102cc9190610e6e565b60405180910390f35b6102ef60048036038101906102ea91906111f8565b610828565b60405161030499989796959493929190611279565b60405180910390f35b6103156109b3565b6040516103229190610e6e565b60405180910390f35b6103336109b9565b6040516103409190610e6e565b60405180910390f35b6103516109bf565b60405161035e9190610e6e565b60405180910390f35b610381600480360381019061037c919061100f565b6109c5565b60405161039093929190611314565b60405180910390f35b6103a1610bb7565b6040516103ae9190610e6e565b60405180910390f35b6103bf610bbd565b6040516103cc9190610e6e565b60405180910390f35b6103dd610bc3565b6040516103ea9190610e6e565b60405180910390f35b6103fb610bc9565b6040516104089190610e6e565b60405180910390f35b61042b6004803603810190610426919061100f565b610bcf565b60405161043a93929190611360565b60405180910390f35b61045d600480360381019061045891906113d1565b610d39565b60405161046a919061145b565b60405180910390f35b61048d60048036038101906104889190611476565b610d8b565b60405161049a9190610e6e565b60405180910390f35b6104ab610da6565b6040516104b89190610e6e565b60405180910390f35b6104c9610dac565b6040516104d69190610e6e565b60405180910390f35b60105481565b60035481565b60055481565b600f5481565b6014838051602081018201805184825260208301602085012081835280955050505050506020528160005260406000206020528060005260406000206000925092505050806000015490806001018054610550906114d2565b80601f016020809104026020016040519081016040528092919081815260200182805461057c906114d2565b80156105c95780601f1061059e576101008083540402835291602001916105c9565b820191906000526020600020905b8154815290600101906020018083116105ac57829003601f168201915b5050505050908060020180546105de906114d2565b80601f016020809104026020016040519081016040528092919081815260200182805461060a906114d2565b80156106575780601f1061062c57610100808354040283529160200191610657565b820191906000526020600020905b81548152906001019060200180831161063a57829003601f168201915b5050505050908060030154905084565b600a5481565b600c5481565b600d5481565b6000820361081657604051806101200160405280858152602001848152602001600080600181106106ad576106ac611503565b5b015481526020018281526020016000815260200160008152602001600081526020013373ffffffffffffffffffffffffffffffffffffffff16815260200160008152506013600084815260200190815260200160002060008060006001811061071957610718611503565b5b015481526020019081526020016000206000820151816000019080519060200190610745929190610db2565b506020820151816001019080519060200190610762929190610db2565b5060408201518160020155606082015181600301556080820151816004015560a0820151816005015560c0820151816006015560e08201518160070160006101000a81548173ffffffffffffffffffffffffffffffffffffffff021916908373ffffffffffffffffffffffffffffffffffffffff1602179055506101008201518160080155905050600080600181106107fe576107fd611503565b5b01600081548092919061081090611561565b91905055505b50505050565b60045481565b60085481565b601360205281600052604060002060205280600052604060002060009150915050806000018054610858906114d2565b80601f0160208091040260200160405190810160405280929190818152602001828054610884906114d2565b80156108d15780601f106108a6576101008083540402835291602001916108d1565b820191906000526020600020905b8154815290600101906020018083116108b457829003601f168201915b5050505050908060010180546108e6906114d2565b80601f0160208091040260200160405190810160405280929190818152602001828054610912906114d2565b801561095f5780601f106109345761010080835404028352916020019161095f565b820191906000526020600020905b81548152906001019060200180831161094257829003601f168201915b5050505050908060020154908060030154908060040154908060050154908060060154908060070160009054906101000a900473ffffffffffffffffffffffffffffffffffffffff16908060080154905089565b600e5481565b60115481565b60015481565b6017838051602081018201805184825260208301602085012081835280955050505050506020528160005260406000206020528060005260406000206000925092505050806000018054610a18906114d2565b80601f0160208091040260200160405190810160405280929190818152602001828054610a44906114d2565b8015610a915780601f10610a6657610100808354040283529160200191610a91565b820191906000526020600020905b815481529060010190602001808311610a7457829003601f168201915b505050505090806001018054610aa6906114d2565b80601f0160208091040260200160405190810160405280929190818152602001828054610ad2906114d2565b8015610b1f5780601f10610af457610100808354040283529160200191610b1f565b820191906000526020600020905b815481529060010190602001808311610b0257829003601f168201915b505050505090806002018054610b34906114d2565b80601f0160208091040260200160405190810160405280929190818152602001828054610b60906114d2565b8015610bad5780601f10610b8257610100808354040283529160200191610bad565b820191906000526020600020905b815481529060010190602001808311610b9057829003601f168201915b5050505050905083565b60065481565b60075481565b600b5481565b60025481565b6015838051602081018201805184825260208301602085012081835280955050505050506020528160005260406000206020528060005260406000206000925092505050806000018054610c22906114d2565b80601f0160208091040260200160405190810160405280929190818152602001828054610c4e906114d2565b8015610c9b5780601f10610c7057610100808354040283529160200191610c9b565b820191906000526020600020905b815481529060010190602001808311610c7e57829003601f168201915b505050505090806001018054610cb0906114d2565b80601f0160208091040260200160405190810160405280929190818152602001828054610cdc906114d2565b8015610d295780601f10610cfe57610100808354040283529160200191610d29565b820191906000526020600020905b815481529060010190602001808311610d0c57829003601f168201915b5050505050908060020154905083565b601683805160208101820180518482526020830160208501208183528095505050505050602052816000526040600020602052806000526040600020600092509250509054906101000a900460ff1681565b60008160018110610d9b57600080fd5b016000915090505481565b60125481565b60095481565b828054610dbe906114d2565b90600052602060002090601f016020900481019282610de05760008555610e27565b82601f10610df957805160ff1916838001178555610e27565b82800160010185558215610e27579182015b82811115610e26578251825591602001919060010190610e0b565b5b509050610e349190610e38565b5090565b5b80821115610e51576000816000905550600101610e39565b5090565b6000819050919050565b610e6881610e55565b82525050565b6000602082019050610e836000830184610e5f565b92915050565b6000604051905090565b600080fd5b600080fd5b600080fd5b600080fd5b6000601f19601f8301169050919050565b7f4e487b7100000000000000000000000000000000000000000000000000000000600052604160045260246000fd5b610ef082610ea7565b810181811067ffffffffffffffff82111715610f0f57610f0e610eb8565b5b80604052505050565b6000610f22610e89565b9050610f2e8282610ee7565b919050565b600067ffffffffffffffff821115610f4e57610f4d610eb8565b5b610f5782610ea7565b9050602081019050919050565b82818337600083830152505050565b6000610f86610f8184610f33565b610f18565b905082815260208101848484011115610fa257610fa1610ea2565b5b610fad848285610f64565b509392505050565b600082601f830112610fca57610fc9610e9d565b5b8135610fda848260208601610f73565b91505092915050565b610fec81610e55565b8114610ff757600080fd5b50565b60008135905061100981610fe3565b92915050565b60008060006060848603121561102857611027610e93565b5b600084013567ffffffffffffffff81111561104657611045610e98565b5b61105286828701610fb5565b935050602061106386828701610ffa565b925050604061107486828701610ffa565b9150509250925092565b600081519050919050565b600082825260208201905092915050565b60005b838110156110b857808201518184015260208101905061109d565b838111156110c7576000848401525b50505050565b60006110d88261107e565b6110e28185611089565b93506110f281856020860161109a565b6110fb81610ea7565b840191505092915050565b600060808201905061111b6000830187610e5f565b818103602083015261112d81866110cd565b9050818103604083015261114181856110cd565b90506111506060830184610e5f565b95945050505050565b6000806000806080858703121561117357611172610e93565b5b600085013567ffffffffffffffff81111561119157611190610e98565b5b61119d87828801610fb5565b945050602085013567ffffffffffffffff8111156111be576111bd610e98565b5b6111ca87828801610fb5565b93505060406111db87828801610ffa565b92505060606111ec87828801610ffa565b91505092959194509250565b6000806040838503121561120f5761120e610e93565b5b600061121d85828601610ffa565b925050602061122e85828601610ffa565b9150509250929050565b600073ffffffffffffffffffffffffffffffffffffffff82169050919050565b600061126382611238565b9050919050565b61127381611258565b82525050565b6000610120820190508181036000830152611294818c6110cd565b905081810360208301526112a8818b6110cd565b90506112b7604083018a610e5f565b6112c46060830189610e5f565b6112d16080830188610e5f565b6112de60a0830187610e5f565b6112eb60c0830186610e5f565b6112f860e083018561126a565b611306610100830184610e5f565b9a9950505050505050505050565b6000606082019050818103600083015261132e81866110cd565b9050818103602083015261134281856110cd565b9050818103604083015261135681846110cd565b9050949350505050565b6000606082019050818103600083015261137a81866110cd565b9050818103602083015261138e81856110cd565b905061139d6040830184610e5f565b949350505050565b6113ae81611258565b81146113b957600080fd5b50565b6000813590506113cb816113a5565b92915050565b6000806000606084860312156113ea576113e9610e93565b5b600084013567ffffffffffffffff81111561140857611407610e98565b5b61141486828701610fb5565b935050602061142586828701610ffa565b9250506040611436868287016113bc565b9150509250925092565b60008115159050919050565b61145581611440565b82525050565b6000602082019050611470600083018461144c565b92915050565b60006020828403121561148c5761148b610e93565b5b600061149a84828501610ffa565b91505092915050565b7f4e487b7100000000000000000000000000000000000000000000000000000000600052602260045260246000fd5b600060028204905060018216806114ea57607f821691505b6020821081036114fd576114fc6114a3565b5b50919050565b7f4e487b7100000000000000000000000000000000000000000000000000000000600052603260045260246000fd5b7f4e487b7100000000000000000000000000000000000000000000000000000000600052601160045260246000fd5b600061156c82610e55565b91507fffffffffffffffffffffffffffffffffffffffffffffffffffffffffffffffff820361159e5761159d611532565b5b60018201905091905056fea264697066735822122072086e0ec2c62c172aa08083763b9cfa42dd13ed353ba479e8ad054368cafdb164736f6c634300080d0033",
  "immutableReferences": {},
  "source": "// SPDX-License-Identifier: LGPL-3.0-only\npragma solidity ^0.8.12;\n\ncontract Storage {\n  /* Create variables for total number of requests in each category strings for\n  each will be defined in the UI. */\n  // Check gas cost of individual variables vs array. Maybe cheaper but probably not\n  uint256[1] public medicalRequests;\n  uint256 public memorialRequests;\n  uint256 public emergencyRequests;\n  uint256 public nonprofitRequests;\n  uint256 public educationRequests;\n  uint256 public animalRequests;\n  uint256 public environmentRequests;\n  uint256 public businessRequests;\n  uint256 public communityRequests;\n  uint256 public competitionRequests;\n  uint256 public creativeRequests;\n  uint256 public eventRequests;\n  uint256 public religiousRequests;\n  uint256 public familyRequests;\n  uint256 public sportRequests;\n  uint256 public travelRequests;\n  uint256 public volunteerRequests;\n  uint256 public wishRequests;\n  uint256 public individualRequests;\n\n  struct Request {\n      string title;\n      string description;\n      uint256 id;\n      // Amount Requested\n      uint256 amount;\n      uint256 totalOrganizers;\n      uint256 totalContributors;\n      uint256 score;\n      address creator;\n      uint256 totalPosts;\n  }\n\n  struct Contributor {\n    uint256 amountDonated;\n    string name;\n    string contributorAddress;\n    uint256 id;\n  }\n\n  struct Organizer {\n    string name;\n    string role;\n    uint256 id;\n    /* Coins are chosen based on being meant for medium of exchange with high\n    transaction volume at the time. ADA and ETH are there aswell for smart\n    contract support if people are interested in using that. */\n    string[23] addresses;\n    /* index 0 = btcAddress;\n    index 1 = bchAddress;\n    index 2 = adaAddress;\n    index 3 = dashAddress;\n    index 4 = dogeAddress;\n    index 5 = ethAddress;\n    index 6 = ltcAddress;\n    index 7 = xmrAddress;\n    index 8 = zecAddress;\n\n    Extras just for support for other chains people may want to use if volume\n    drops off in the future maybe re-evaluate showing these in UI to keep things\n    more compact/clean.\n\n    index 9 = algoAddress;\n    index 10 = avaxAddress;\n    index 11 = bscAddress;\n    index 12 = atomAddress;\n    index 13 = egldAddress;\n    index 14 = etcAddress;\n    index 15 = ftmAddress;\n    index 16 = oneAddress;\n    index 17 = lunaAddress;\n    index 18 = dotAddress;\n    index 19 = maticAddress;\n    index 20 = solAddress;\n    index 21 = xlmAddress;\n    index 22 = xrpAddress; */\n  }\n\n  // Date can be passed in from UI as UTC Time\n  struct Post {\n    string title;\n    string description;\n    string date;\n  }\n\n  // category => id of request\n  mapping(uint256 => mapping(uint256 => Request)) public Requests;\n  // category => id of request => id of contributor\n  mapping(string => mapping(uint256 => mapping(uint256 => Contributor))) public Contributors;\n  // category => id of request => id of organizer\n  mapping(string => mapping(uint256 => mapping(uint256 => Organizer))) public Organizers;\n  // category => id of request => Polygon address of user\n  mapping(string => mapping(uint256 => mapping(address => bool))) public isVoted;\n  // category => id of request => id of post\n  mapping(string => mapping(uint256 => mapping(uint256 => Post))) public Posts;\n\n  function createRequest (\n    string memory _title,\n    string memory _description,\n    uint256 _category,\n    uint256 _amount\n  ) public {\n    /* Sorting into category variables makes the code more complex with large if\n    else statements however may be useful in the case of the frontend being\n    shutdown and needing to be redeployed with all the data in the proper location */\n    if (_category == 0) {\n        Requests[_category][medicalRequests[0]] = Request(_title, _description, medicalRequests[0], _amount, 0, 0, 0, msg.sender, 0);\n        medicalRequests[0]++;\n     } /* else if (keccak256(bytes(_category)) == keccak256(bytes(\"memorial\"))) {\n        Requests[_category][memorialRequests] = Request(_title, _description, memorialRequests, _amount, 0, 0, 0, msg.sender, 0);\n        memorialRequests++;\n    } else if (keccak256(bytes(_category)) == keccak256(bytes(\"emergency\"))) {\n        Requests[_category][emergencyRequests] = Request(_title, _description, emergencyRequests, _amount, 0, 0, 0, msg.sender, 0);\n        emergencyRequests++;\n    } else if (keccak256(bytes(_category)) == keccak256(bytes(\"nonprofit\"))) {\n        Requests[_category][nonprofitRequests] = Request(_title, _description, nonprofitRequests, _amount, 0, 0, 0, msg.sender, 0);\n        nonprofitRequests++;\n    } else if (keccak256(bytes(_category)) == keccak256(bytes(\"education\"))) {\n        Requests[_category][educationRequests] = Request(_title, _description, educationRequests, _amount, 0, 0, 0, msg.sender, 0);\n        educationRequests++;\n    } else if (keccak256(bytes(_category)) == keccak256(bytes(\"animal\"))) {\n        Requests[_category][animalRequests] = Request(_title, _description, animalRequests, _amount, 0, 0, 0, msg.sender, 0);\n        animalRequests++;\n    } else if (keccak256(bytes(_category)) == keccak256(bytes(\"environment\"))) {\n        Requests[_category][environmentRequests] = Request(_title, _description, environmentRequests, _amount, 0, 0, 0, msg.sender, 0);\n        environmentRequests++;\n    } else if (keccak256(bytes(_category)) == keccak256(bytes(\"business\"))) {\n        Requests[_category][businessRequests] = Request(_title, _description, businessRequests, _amount, 0, 0, 0, msg.sender, 0);\n        businessRequests++;\n    } else if (keccak256(bytes(_category)) == keccak256(bytes(\"community\"))) {\n        Requests[_category][communityRequests] = Request(_title, _description, communityRequests, _amount, 0, 0, 0, msg.sender, 0);\n        communityRequests++;\n    } else if (keccak256(bytes(_category)) == keccak256(bytes(\"competition\"))) {\n        Requests[_category][competitionRequests] = Request(_title, _description, competitionRequests, _amount, 0, 0, 0, msg.sender, 0);\n        competitionRequests++;\n    } else if (keccak256(bytes(_category)) == keccak256(bytes(\"creative\"))) {\n        Requests[_category][creativeRequests] = Request(_title, _description, creativeRequests, _amount, 0, 0, 0, msg.sender, 0);\n        creativeRequests++;\n    } else if (keccak256(bytes(_category)) == keccak256(bytes(\"event\"))) {\n        Requests[_category][eventRequests] = Request(_title, _description, eventRequests, _amount, 0, 0, 0, msg.sender, 0);\n        eventRequests++;\n    } else if (keccak256(bytes(_category)) == keccak256(bytes(\"religious\"))) {\n        Requests[_category][religiousRequests] = Request(_title, _description, religiousRequests, _amount, 0, 0, 0, msg.sender, 0);\n        religiousRequests++;\n    } else if (keccak256(bytes(_category)) == keccak256(bytes(\"family\"))) {\n        Requests[_category][familyRequests] = Request(_title, _description, familyRequests, _amount, 0, 0, 0, msg.sender, 0);\n        familyRequests++;\n    } else if (keccak256(bytes(_category)) == keccak256(bytes(\"sport\"))) {\n        Requests[_category][sportRequests] = Request(_title, _description, sportRequests, _amount, 0, 0, 0, msg.sender, 0);\n        sportRequests++;\n    } else if (keccak256(bytes(_category)) == keccak256(bytes(\"travel\"))) {\n        Requests[_category][travelRequests] = Request(_title, _description, travelRequests, _amount, 0, 0, 0, msg.sender, 0);\n        travelRequests++;\n    } else if (keccak256(bytes(_category)) == keccak256(bytes(\"volunteer\"))) {\n        Requests[_category][volunteerRequests] = Request(_title, _description, volunteerRequests, _amount, 0, 0, 0, msg.sender, 0);\n        volunteerRequests++;\n    } else if (keccak256(bytes(_category)) == keccak256(bytes(\"wish\"))) {\n        Requests[_category][wishRequests] = Request(_title, _description, wishRequests, _amount, 0, 0, 0, msg.sender, 0);\n        wishRequests++;\n    } else if (keccak256(bytes(_category)) == keccak256(bytes(\"individual\"))) {\n        Requests[_category][individualRequests] = Request(_title, _description, individualRequests, _amount, 0, 0, 0, msg.sender, 0);\n        individualRequests++;\n    }\n  }\n\n  /* Name should also have a default value of Anonymous in the UI for those who\n    don't feel safe connecting names to addresses.\n  */\n  /* function addOrganzier (\n    string memory _name,\n    string memory _role,\n    string memory _category,\n    uint256 _requestId,\n    uint256 _totalOrganizers,\n    string[23] memory _addresses\n  ) public {\n    require(msg.sender == Requests[_category][_requestId].creator); */\n    /* Not all addresses need to be assigned a value. In the UI any addresses not\n    assigned by default should be set to \"\" which would mean an empty string.\n    That will cause setting the mapping data to not fail. Role will also be set\n    through the UI  */\n    /* Organizers[_category][_requestId][_totalOrganizers] = Organizer(\n      _name, _role, _totalOrganizers, [_addresses[0], _addresses[1], _addresses[2],\n      _addresses[3], _addresses[4], _addresses[5], _addresses[6], _addresses[7],\n      _addresses[8], _addresses[9], _addresses[10], _addresses[11], _addresses[12],\n      _addresses[13], _addresses[14], _addresses[15], _addresses[16], _addresses[17],\n      _addresses[18], _addresses[19], _addresses[20], _addresses[21], _addresses[22]      ]\n    );\n    Requests[_category][_requestId].totalOrganizers++;\n  } */\n\n  /* function editOrganzier (\n    string memory _role,\n    string memory _category,\n    uint256 _requestId,\n    uint256 _organizerId,\n    string[23] memory _addresses\n  ) public {\n    require(msg.sender == Requests[_category][_requestId].creator);\n    string memory _name = Organizers[_category][_requestId][_organizerId].name; */\n    /* This method will cost extra gas and can be improved upon. This can be\n    solved by either taking in less addresses or another way. In it's current\n    form it will call the current data from the blockchain and input it into the\n    UI and once resubmitted you will paying that extra gas to rewrite the same\n    address again for those unchanged. The goal would be to save that extra gas\n    cost so only the address added/changed is what's sent back. */\n    /* Organizers[_category][_requestId][_organizerId] = Organizer(\n      _name, _role, _organizerId, [_addresses[0], _addresses[1], _addresses[2],\n      _addresses[3], _addresses[4], _addresses[5], _addresses[6], _addresses[7],\n      _addresses[8], _addresses[9], _addresses[10], _addresses[11], _addresses[12],\n      _addresses[13], _addresses[14], _addresses[15], _addresses[16], _addresses[17],\n      _addresses[18], _addresses[19], _addresses[20], _addresses[21], _addresses[22]\n      ]\n    );\n  } */\n\n  /* Values come from blockchain calls. Title should also be immutable in case of\n  an account getting hacked or a scammer changing the name and description of a\n  request. Another alternative is to allow this to be changed but have the entire\n  list of Contributors wiped. */\n  /* function editRequest (\n    string memory _description,\n    string memory _category,\n    uint256 _requestId,\n    uint256 _amount\n  ) public {\n    require(msg.sender == Requests[_category][_requestId].creator);\n    string memory _title = Requests[_category][_requestId].title;\n    uint256 _totalOrganizers = Requests[_category][_requestId].totalOrganizers;\n    uint256 _totalContributors = Requests[_category][_requestId].totalContributors;\n    uint256 _score = Requests[_category][_requestId].score;\n    address _creator = Requests[_category][_requestId].creator;\n    uint256 _totalPosts = Requests[_category][_requestId].totalPosts; */\n    /* Category doesn't need the string checked like createRequest because that\n    was just to */\n    /* Requests[_category][_requestId] = Request(_title, _description, _requestId, _amount, _totalOrganizers, _totalContributors, _score, _creator, _totalPosts);\n  } */\n\n  /* This feature may need to be disabled in UI in the future if it is used harmfully.\n  This feature can easily be exploited through multiple self made accounts or even\n  bot made to upvote scam requests to encourage people to donate to that request over\n  a potentially real one. Therefore this should not be used as a feature to sort\n  through requests and determine which is best to display first. */\n  /* function voteRequest (\n    string memory _category,\n    uint256 _requestId,\n    uint256 _score,\n    bool vote\n  ) public {\n    require(isVoted[_category][_requestId][msg.sender] == false);\n    string memory _title = Requests[_category][_requestId].title;\n    string memory _description = Requests[_category][_requestId].description;\n    uint256 _amount = Requests[_category][_requestId].amount;\n    uint256 _totalOrganizers = Requests[_category][_requestId].totalOrganizers;\n    uint256 _totalContributors = Requests[_category][_requestId].totalContributors;\n    address _creator = Requests[_category][_requestId].creator;\n    uint256 _totalPosts = Requests[_category][_requestId].totalPosts; */\n    /* Downvoting can cause a large majority of people to downvote a real donation\n    request just bekcause it offends them or doesn't align with their views. This\n    should not be solely used as a way to sort requests in the UI for this reason,\n    hoever it should be kept in the system to alert people of something that may be\n    a faker request or a scammer. The other flaw with this system is that with the\n    low gas fees of hosting on a layer 2 protocol people can make many accounts and\n    send small balances to boost the upvotes on their request even if it is a scam.\n    Therefore this system may need to be disabled in the UI in the future if that is\n    the case. */\n\n    // bool = true then upvote else downvote\n    /* if (vote) {\n      _score++;\n    } else {\n      _score--;\n    }\n\n    Requests[_category][_requestId] = Request(_title, _description, _requestId, _amount, _totalOrganizers, _totalContributors, _score, _creator, _totalPosts);\n  } */\n\n  /* function addContributor(\n      string memory _category,\n      uint256 _requestId,\n      uint256 _totalContributors,\n      string memory _name,\n      uint256 _amountDonated,\n      string memory _contributorAddress\n  ) public {\n    // _name & _contributorAddress in UI should be allowed to be listed as anonymous\n    Contributors[_category][_requestId][_totalContributors] = Contributor(_amountDonated, _name, _contributorAddress, _totalContributors);\n    Requests[_category][_requestId].totalContributors++;\n  }\n\n  function addPost (\n    string memory _category,\n    uint256 _requestId,\n    uint256 _totalPosts,\n    string memory _title,\n    string memory _description,\n    string memory _date\n  ) public {\n    require(msg.sender == Requests[_category][_requestId].creator);\n    Posts[_category][_requestId][_totalPosts] = Post(_title, _description, _date);\n    Requests[_category][_requestId].totalPosts++;\n  } */\n}}\n",
  "sourcePath": "/home/user/Documents/donation/src/contracts/Storage.sol",
  "compiler": {
    "name": "solc",
    "version": "0.8.13+commit.abaa5c0e.Emscripten.clang"
  },
  "schemaVersion": "3.4.1",
  "updatedAt": "2022-03-17T16:29:25.616Z",
  "devdoc": {
    "kind": "dev",
    "methods": {},
    "version": 1
  },
  "userdoc": {
    "kind": "user",
    "methods": {},
    "version": 1
  }
}