{
  "contractName": "Storage",
  "abi": [
    {
      "inputs": [
        {
          "internalType": "string",
          "name": "",
          "type": "string"
        },
        {
          "internalType": "uint256",
          "name": "",
          "type": "uint256"
        }
      ],
      "name": "Contributors",
      "outputs": [
        {
          "internalType": "uint256",
          "name": "amountDonated",
          "type": "uint256"
        },
        {
          "internalType": "string",
          "name": "name",
          "type": "string"
        },
        {
          "internalType": "string",
          "name": "contributorAddress",
          "type": "string"
        }
      ],
      "stateMutability": "view",
      "type": "function"
    },
    {
      "inputs": [
        {
          "internalType": "string",
          "name": "",
          "type": "string"
        },
        {
          "internalType": "uint256",
          "name": "",
          "type": "uint256"
        },
        {
          "internalType": "uint256",
          "name": "",
          "type": "uint256"
        }
      ],
      "name": "Organizers",
      "outputs": [
        {
          "internalType": "string",
          "name": "name",
          "type": "string"
        },
        {
          "internalType": "string",
          "name": "role",
          "type": "string"
        },
        {
          "internalType": "uint256",
          "name": "id",
          "type": "uint256"
        }
      ],
      "stateMutability": "view",
      "type": "function"
    },
    {
      "inputs": [
        {
          "internalType": "string",
          "name": "_title",
          "type": "string"
        },
        {
          "internalType": "string",
          "name": "_description",
          "type": "string"
        },
        {
          "internalType": "string",
          "name": "_category",
          "type": "string"
        },
        {
          "internalType": "uint256",
          "name": "_amount",
          "type": "uint256"
        }
      ],
      "name": "createRequest",
      "outputs": [],
      "stateMutability": "nonpayable",
      "type": "function"
    },
    {
      "inputs": [
        {
          "internalType": "string",
          "name": "_name",
          "type": "string"
        },
        {
          "internalType": "string",
          "name": "_role",
          "type": "string"
        },
        {
          "internalType": "string",
          "name": "_category",
          "type": "string"
        },
        {
          "internalType": "uint256",
          "name": "_requestId",
          "type": "uint256"
        },
        {
          "internalType": "uint256",
          "name": "_totalOrganizers",
          "type": "uint256"
        },
        {
          "internalType": "string[24]",
          "name": "_addresses",
          "type": "string[24]"
        }
      ],
      "name": "initalOrganzier",
      "outputs": [],
      "stateMutability": "nonpayable",
      "type": "function"
    },
    {
      "inputs": [
        {
          "internalType": "string",
          "name": "_role",
          "type": "string"
        },
        {
          "internalType": "string",
          "name": "_category",
          "type": "string"
        },
        {
          "internalType": "uint256",
          "name": "_requestId",
          "type": "uint256"
        },
        {
          "internalType": "uint256",
          "name": "_organizerId",
          "type": "uint256"
        },
        {
          "internalType": "string[24]",
          "name": "_addresses",
          "type": "string[24]"
        }
      ],
      "name": "editOrganzier",
      "outputs": [],
      "stateMutability": "nonpayable",
      "type": "function"
    },
    {
      "inputs": [
        {
          "internalType": "string",
          "name": "_description",
          "type": "string"
        },
        {
          "internalType": "string",
          "name": "_category",
          "type": "string"
        },
        {
          "internalType": "uint256",
          "name": "_id",
          "type": "uint256"
        },
        {
          "internalType": "uint256",
          "name": "_amount",
          "type": "uint256"
        }
      ],
      "name": "editRequest",
      "outputs": [],
      "stateMutability": "nonpayable",
      "type": "function"
    },
    {
      "inputs": [
        {
          "internalType": "string",
          "name": "_category",
          "type": "string"
        },
        {
          "internalType": "uint256",
          "name": "_id",
          "type": "uint256"
        },
        {
          "internalType": "uint256",
          "name": "_score",
          "type": "uint256"
        },
        {
          "internalType": "bool",
          "name": "vote",
          "type": "bool"
        }
      ],
      "name": "voteRequest",
      "outputs": [],
      "stateMutability": "nonpayable",
      "type": "function"
    }
  ],
  "bytecode": "0x608060405234801561001057600080fd5b50613302806100206000396000f3fe608060405234801561001057600080fd5b506004361061007d5760003560e01c80639251c1c41161005b5780639251c1c4146100d6578063c5dbf1fe14610108578063cfc1fd6d1461013a578063f82f7bdd146101565761007d565b806319c259051461008257806336c4544c1461009e5780637be9d69e146100ba575b600080fd5b61009c60048036038101906100979190612aa6565b610172565b005b6100b860048036038101906100b39190612c19565b6103b1565b005b6100d460048036038101906100cf9190612ce8565b610822565b005b6100f060048036038101906100eb9190612de5565b610bc3565b6040516100ff93929190612ed8565b60405180910390f35b610122600480360381019061011d9190612f1d565b610d20565b60405161013193929190612f8c565b60405180910390f35b610154600480360381019061014f9190613009565b610e8a565b005b610170600480360381019061016b919061308c565b6111b1565b005b60006013846040516101849190613183565b9081526020016040518091039020600084815260200190815260200160002060000180546101b1906131c9565b80601f01602080910402602001604051908101604052809291908181526020018280546101dd906131c9565b801561022a5780601f106101ff5761010080835404028352916020019161022a565b820191906000526020600020905b81548152906001019060200180831161020d57829003601f168201915b5050505050905060006013856040516102439190613183565b90815260200160405180910390206000858152602001908152602001600020600401549050600060138660405161027a9190613183565b9081526020016040518091039020600086815260200190815260200160002060050154905060006013876040516102b19190613183565b908152602001604051809103902060008781526020019081526020016000206006015490506040518060e00160405280858152602001898152602001878152602001868152602001848152602001838152602001828152506013886040516103199190613183565b9081526020016040518091039020600088815260200190815260200160002060008201518160000190805190602001906103549291906127bc565b5060208201518160010190805190602001906103719291906127bc565b5060408201518160020155606082015181600301556080820151816004015560a0820151816005015560c082015181600601559050505050505050505050565b60006015856040516103c39190613183565b9081526020016040518091039020600085815260200190815260200160002060008481526020019081526020016000206000018054610401906131c9565b80601f016020809104026020016040519081016040528092919081815260200182805461042d906131c9565b801561047a5780601f1061044f5761010080835404028352916020019161047a565b820191906000526020600020905b81548152906001019060200180831161045d57829003601f168201915b505050505090506040518060800160405280828152602001878152602001848152602001604051806103000160405280856000601881106104be576104bd6131fb565b5b60200201518152602001856001601881106104dc576104db6131fb565b5b60200201518152602001856002601881106104fa576104f96131fb565b5b6020020151815260200185600360188110610518576105176131fb565b5b6020020151815260200185600460188110610536576105356131fb565b5b6020020151815260200185600560188110610554576105536131fb565b5b6020020151815260200185600660188110610572576105716131fb565b5b60200201518152602001856007601881106105905761058f6131fb565b5b60200201518152602001856008601881106105ae576105ad6131fb565b5b60200201518152602001856009601881106105cc576105cb6131fb565b5b6020020151815260200185600a601881106105ea576105e96131fb565b5b6020020151815260200185600b60188110610608576106076131fb565b5b6020020151815260200185600c60188110610626576106256131fb565b5b6020020151815260200185600d60188110610644576106436131fb565b5b6020020151815260200185600e60188110610662576106616131fb565b5b6020020151815260200185600f601881106106805761067f6131fb565b5b602002015181526020018560106018811061069e5761069d6131fb565b5b60200201518152602001856011601881106106bc576106bb6131fb565b5b60200201518152602001856012601881106106da576106d96131fb565b5b60200201518152602001856013601881106106f8576106f76131fb565b5b6020020151815260200185601460188110610716576107156131fb565b5b6020020151815260200185601560188110610734576107336131fb565b5b6020020151815260200185601660188110610752576107516131fb565b5b60200201518152602001856017601881106107705761076f6131fb565b5b602002015181525081525060158660405161078b9190613183565b90815260200160405180910390206000868152602001908152602001600020600085815260200190815260200160002060008201518160000190805190602001906107d79291906127bc565b5060208201518160010190805190602001906107f49291906127bc565b5060408201518160020155606082015181600301906018610816929190612842565b50905050505050505050565b60405180608001604052808781526020018681526020018381526020016040518061030001604052808460006018811061085f5761085e6131fb565b5b602002015181526020018460016018811061087d5761087c6131fb565b5b602002015181526020018460026018811061089b5761089a6131fb565b5b60200201518152602001846003601881106108b9576108b86131fb565b5b60200201518152602001846004601881106108d7576108d66131fb565b5b60200201518152602001846005601881106108f5576108f46131fb565b5b6020020151815260200184600660188110610913576109126131fb565b5b6020020151815260200184600760188110610931576109306131fb565b5b602002015181526020018460086018811061094f5761094e6131fb565b5b602002015181526020018460096018811061096d5761096c6131fb565b5b6020020151815260200184600a6018811061098b5761098a6131fb565b5b6020020151815260200184600b601881106109a9576109a86131fb565b5b6020020151815260200184600c601881106109c7576109c66131fb565b5b6020020151815260200184600d601881106109e5576109e46131fb565b5b6020020151815260200184600e60188110610a0357610a026131fb565b5b6020020151815260200184600f60188110610a2157610a206131fb565b5b6020020151815260200184601060188110610a3f57610a3e6131fb565b5b6020020151815260200184601160188110610a5d57610a5c6131fb565b5b6020020151815260200184601260188110610a7b57610a7a6131fb565b5b6020020151815260200184601360188110610a9957610a986131fb565b5b6020020151815260200184601460188110610ab757610ab66131fb565b5b6020020151815260200184601560188110610ad557610ad46131fb565b5b6020020151815260200184601660188110610af357610af26131fb565b5b6020020151815260200184601760188110610b1157610b106131fb565b5b6020020151815250815250601585604051610b2c9190613183565b9081526020016040518091039020600085815260200190815260200160002060008481526020019081526020016000206000820151816000019080519060200190610b789291906127bc565b506020820151816001019080519060200190610b959291906127bc565b5060408201518160020155606082015181600301906018610bb7929190612842565b50905050505050505050565b60148280516020810182018051848252602083016020850120818352809550505050505060205280600052604060002060009150915050806000015490806001018054610c0f906131c9565b80601f0160208091040260200160405190810160405280929190818152602001828054610c3b906131c9565b8015610c885780601f10610c5d57610100808354040283529160200191610c88565b820191906000526020600020905b815481529060010190602001808311610c6b57829003601f168201915b505050505090806002018054610c9d906131c9565b80601f0160208091040260200160405190810160405280929190818152602001828054610cc9906131c9565b8015610d165780601f10610ceb57610100808354040283529160200191610d16565b820191906000526020600020905b815481529060010190602001808311610cf957829003601f168201915b5050505050905083565b6015838051602081018201805184825260208301602085012081835280955050505050506020528160005260406000206020528060005260406000206000925092505050806000018054610d73906131c9565b80601f0160208091040260200160405190810160405280929190818152602001828054610d9f906131c9565b8015610dec5780601f10610dc157610100808354040283529160200191610dec565b820191906000526020600020905b815481529060010190602001808311610dcf57829003601f168201915b505050505090806001018054610e01906131c9565b80601f0160208091040260200160405190810160405280929190818152602001828054610e2d906131c9565b8015610e7a5780601f10610e4f57610100808354040283529160200191610e7a565b820191906000526020600020905b815481529060010190602001808311610e5d57829003601f168201915b5050505050908060020154905083565b6000601385604051610e9c9190613183565b908152602001604051809103902060008581526020019081526020016000206000018054610ec9906131c9565b80601f0160208091040260200160405190810160405280929190818152602001828054610ef5906131c9565b8015610f425780601f10610f1757610100808354040283529160200191610f42565b820191906000526020600020905b815481529060010190602001808311610f2557829003601f168201915b505050505090506000601386604051610f5b9190613183565b908152602001604051809103902060008681526020019081526020016000206001018054610f88906131c9565b80601f0160208091040260200160405190810160405280929190818152602001828054610fb4906131c9565b80156110015780601f10610fd657610100808354040283529160200191611001565b820191906000526020600020905b815481529060010190602001808311610fe457829003601f168201915b50505050509050600060138760405161101a9190613183565b9081526020016040518091039020600087815260200190815260200160002060030154905060006013886040516110519190613183565b9081526020016040518091039020600088815260200190815260200160002060040154905060006013896040516110889190613183565b9081526020016040518091039020600089815260200190815260200160002060050154905085156110c65786806110be90613259565b9750506110d5565b86806110d1906132a2565b9750505b6040518060e001604052808681526020018581526020018981526020018481526020018381526020018281526020018881525060138a6040516111189190613183565b908152602001604051809103902060008a815260200190815260200160002060008201518160000190805190602001906111539291906127bc565b5060208201518160010190805190602001906111709291906127bc565b5060408201518160020155606082015181600301556080820151816004015560a0820151816005015560c08201518160060155905050505050505050505050565b6040518060400160405280600781526020017f6d65646963616c0000000000000000000000000000000000000000000000000081525080519060200120828051906020012014156112d8576040518060e001604052808581526020018481526020016000548152602001828152602001600081526020016000815260200160008152506013836040516112449190613183565b908152602001604051809103902060008054815260200190815260200160002060008201518160000190805190602001906112809291906127bc565b50602082015181600101908051906020019061129d9291906127bc565b5060408201518160020155606082015181600301556080820151816004015560a0820151816005015560c082015181600601559050506127b6565b6040518060400160405280600881526020017f6d656d6f7269616c0000000000000000000000000000000000000000000000008152508051906020012082805190602001201415611400576040518060e0016040528085815260200184815260200160015481526020018281526020016000815260200160008152602001600081525060138360405161136b9190613183565b90815260200160405180910390206000600154815260200190815260200160002060008201518160000190805190602001906113a89291906127bc565b5060208201518160010190805190602001906113c59291906127bc565b5060408201518160020155606082015181600301556080820151816004015560a0820151816005015560c082015181600601559050506127b5565b6040518060400160405280600981526020017f656d657267656e637900000000000000000000000000000000000000000000008152508051906020012082805190602001201415611528576040518060e001604052808581526020018481526020016002548152602001828152602001600081526020016000815260200160008152506013836040516114939190613183565b90815260200160405180910390206000600254815260200190815260200160002060008201518160000190805190602001906114d09291906127bc565b5060208201518160010190805190602001906114ed9291906127bc565b5060408201518160020155606082015181600301556080820151816004015560a0820151816005015560c082015181600601559050506127b4565b6040518060400160405280600981526020017f6e6f6e70726f66697400000000000000000000000000000000000000000000008152508051906020012082805190602001201415611650576040518060e001604052808581526020018481526020016003548152602001828152602001600081526020016000815260200160008152506013836040516115bb9190613183565b90815260200160405180910390206000600354815260200190815260200160002060008201518160000190805190602001906115f89291906127bc565b5060208201518160010190805190602001906116159291906127bc565b5060408201518160020155606082015181600301556080820151816004015560a0820151816005015560c082015181600601559050506127b3565b6040518060400160405280600981526020017f656475636174696f6e00000000000000000000000000000000000000000000008152508051906020012082805190602001201415611778576040518060e001604052808581526020018481526020016004548152602001828152602001600081526020016000815260200160008152506013836040516116e39190613183565b90815260200160405180910390206000600454815260200190815260200160002060008201518160000190805190602001906117209291906127bc565b50602082015181600101908051906020019061173d9291906127bc565b5060408201518160020155606082015181600301556080820151816004015560a0820151816005015560c082015181600601559050506127b2565b6040518060400160405280600681526020017f616e696d616c000000000000000000000000000000000000000000000000000081525080519060200120828051906020012014156118a0576040518060e0016040528085815260200184815260200160055481526020018281526020016000815260200160008152602001600081525060138360405161180b9190613183565b90815260200160405180910390206000600554815260200190815260200160002060008201518160000190805190602001906118489291906127bc565b5060208201518160010190805190602001906118659291906127bc565b5060408201518160020155606082015181600301556080820151816004015560a0820151816005015560c082015181600601559050506127b1565b6040518060400160405280600b81526020017f656e7669726f6e6d656e7400000000000000000000000000000000000000000081525080519060200120828051906020012014156119c8576040518060e001604052808581526020018481526020016006548152602001828152602001600081526020016000815260200160008152506013836040516119339190613183565b90815260200160405180910390206000600654815260200190815260200160002060008201518160000190805190602001906119709291906127bc565b50602082015181600101908051906020019061198d9291906127bc565b5060408201518160020155606082015181600301556080820151816004015560a0820151816005015560c082015181600601559050506127b0565b6040518060400160405280600881526020017f627573696e6573730000000000000000000000000000000000000000000000008152508051906020012082805190602001201415611af0576040518060e00160405280858152602001848152602001600754815260200182815260200160008152602001600081526020016000815250601383604051611a5b9190613183565b9081526020016040518091039020600060075481526020019081526020016000206000820151816000019080519060200190611a989291906127bc565b506020820151816001019080519060200190611ab59291906127bc565b5060408201518160020155606082015181600301556080820151816004015560a0820151816005015560c082015181600601559050506127af565b6040518060400160405280600981526020017f636f6d6d756e69747900000000000000000000000000000000000000000000008152508051906020012082805190602001201415611c18576040518060e00160405280858152602001848152602001600854815260200182815260200160008152602001600081526020016000815250601383604051611b839190613183565b9081526020016040518091039020600060085481526020019081526020016000206000820151816000019080519060200190611bc09291906127bc565b506020820151816001019080519060200190611bdd9291906127bc565b5060408201518160020155606082015181600301556080820151816004015560a0820151816005015560c082015181600601559050506127ae565b6040518060400160405280600b81526020017f636f6d7065746974696f6e0000000000000000000000000000000000000000008152508051906020012082805190602001201415611d40576040518060e00160405280858152602001848152602001600954815260200182815260200160008152602001600081526020016000815250601383604051611cab9190613183565b9081526020016040518091039020600060095481526020019081526020016000206000820151816000019080519060200190611ce89291906127bc565b506020820151816001019080519060200190611d059291906127bc565b5060408201518160020155606082015181600301556080820151816004015560a0820151816005015560c082015181600601559050506127ad565b6040518060400160405280600881526020017f63726561746976650000000000000000000000000000000000000000000000008152508051906020012082805190602001201415611e68576040518060e00160405280858152602001848152602001600a54815260200182815260200160008152602001600081526020016000815250601383604051611dd39190613183565b90815260200160405180910390206000600a5481526020019081526020016000206000820151816000019080519060200190611e109291906127bc565b506020820151816001019080519060200190611e2d9291906127bc565b5060408201518160020155606082015181600301556080820151816004015560a0820151816005015560c082015181600601559050506127ac565b6040518060400160405280600581526020017f6576656e740000000000000000000000000000000000000000000000000000008152508051906020012082805190602001201415611f90576040518060e00160405280858152602001848152602001600b54815260200182815260200160008152602001600081526020016000815250601383604051611efb9190613183565b90815260200160405180910390206000600b5481526020019081526020016000206000820151816000019080519060200190611f389291906127bc565b506020820151816001019080519060200190611f559291906127bc565b5060408201518160020155606082015181600301556080820151816004015560a0820151816005015560c082015181600601559050506127ab565b6040518060400160405280600981526020017f72656c6967696f7573000000000000000000000000000000000000000000000081525080519060200120828051906020012014156120b8576040518060e00160405280858152602001848152602001600c548152602001828152602001600081526020016000815260200160008152506013836040516120239190613183565b90815260200160405180910390206000600c54815260200190815260200160002060008201518160000190805190602001906120609291906127bc565b50602082015181600101908051906020019061207d9291906127bc565b5060408201518160020155606082015181600301556080820151816004015560a0820151816005015560c082015181600601559050506127aa565b6040518060400160405280600681526020017f66616d696c79000000000000000000000000000000000000000000000000000081525080519060200120828051906020012014156121e0576040518060e00160405280858152602001848152602001600d5481526020018281526020016000815260200160008152602001600081525060138360405161214b9190613183565b90815260200160405180910390206000600d54815260200190815260200160002060008201518160000190805190602001906121889291906127bc565b5060208201518160010190805190602001906121a59291906127bc565b5060408201518160020155606082015181600301556080820151816004015560a0820151816005015560c082015181600601559050506127a9565b6040518060400160405280600581526020017f73706f72740000000000000000000000000000000000000000000000000000008152508051906020012082805190602001201415612308576040518060e00160405280858152602001848152602001600e548152602001828152602001600081526020016000815260200160008152506013836040516122739190613183565b90815260200160405180910390206000600e54815260200190815260200160002060008201518160000190805190602001906122b09291906127bc565b5060208201518160010190805190602001906122cd9291906127bc565b5060408201518160020155606082015181600301556080820151816004015560a0820151816005015560c082015181600601559050506127a8565b6040518060400160405280600681526020017f74726176656c00000000000000000000000000000000000000000000000000008152508051906020012082805190602001201415612430576040518060e00160405280858152602001848152602001600f5481526020018281526020016000815260200160008152602001600081525060138360405161239b9190613183565b90815260200160405180910390206000600f54815260200190815260200160002060008201518160000190805190602001906123d89291906127bc565b5060208201518160010190805190602001906123f59291906127bc565b5060408201518160020155606082015181600301556080820151816004015560a0820151816005015560c082015181600601559050506127a7565b6040518060400160405280600981526020017f766f6c756e7465657200000000000000000000000000000000000000000000008152508051906020012082805190602001201415612558576040518060e001604052808581526020018481526020016010548152602001828152602001600081526020016000815260200160008152506013836040516124c39190613183565b90815260200160405180910390206000601054815260200190815260200160002060008201518160000190805190602001906125009291906127bc565b50602082015181600101908051906020019061251d9291906127bc565b5060408201518160020155606082015181600301556080820151816004015560a0820151816005015560c082015181600601559050506127a6565b6040518060400160405280600481526020017f77697368000000000000000000000000000000000000000000000000000000008152508051906020012082805190602001201415612680576040518060e001604052808581526020018481526020016011548152602001828152602001600081526020016000815260200160008152506013836040516125eb9190613183565b90815260200160405180910390206000601154815260200190815260200160002060008201518160000190805190602001906126289291906127bc565b5060208201518160010190805190602001906126459291906127bc565b5060408201518160020155606082015181600301556080820151816004015560a0820151816005015560c082015181600601559050506127a5565b6040518060400160405280600a81526020017f696e646976696475616c0000000000000000000000000000000000000000000081525080519060200120828051906020012014156127a4576040518060e001604052808581526020018481526020016012548152602001828152602001600081526020016000815260200160008152506013836040516127139190613183565b90815260200160405180910390206000601254815260200190815260200160002060008201518160000190805190602001906127509291906127bc565b50602082015181600101908051906020019061276d9291906127bc565b5060408201518160020155606082015181600301556080820151816004015560a0820151816005015560c082015181600601559050505b5b5b5b5b5b5b5b5b5b5b5b5b5b5b5b5b5b5b50505050565b8280546127c8906131c9565b90600052602060002090601f0160209004810192826127ea5760008555612831565b82601f1061280357805160ff1916838001178555612831565b82800160010185558215612831579182015b82811115612830578251825591602001919060010190612815565b5b50905061283e9190612895565b5090565b8260188101928215612884579160200282015b828111156128835782518290805190602001906128739291906127bc565b5091602001919060010190612855565b5b50905061289191906128b2565b5090565b5b808211156128ae576000816000905550600101612896565b5090565b5b808211156128d257600081816128c991906128d6565b506001016128b3565b5090565b5080546128e2906131c9565b6000825580601f106128f45750612913565b601f0160209004906000526020600020908101906129129190612895565b5b50565b6000604051905090565b600080fd5b600080fd5b600080fd5b600080fd5b6000601f19601f8301169050919050565b7f4e487b7100000000000000000000000000000000000000000000000000000000600052604160045260246000fd5b61297d82612934565b810181811067ffffffffffffffff8211171561299c5761299b612945565b5b80604052505050565b60006129af612916565b90506129bb8282612974565b919050565b600067ffffffffffffffff8211156129db576129da612945565b5b6129e482612934565b9050602081019050919050565b82818337600083830152505050565b6000612a13612a0e846129c0565b6129a5565b905082815260208101848484011115612a2f57612a2e61292f565b5b612a3a8482856129f1565b509392505050565b600082601f830112612a5757612a5661292a565b5b8135612a67848260208601612a00565b91505092915050565b6000819050919050565b612a8381612a70565b8114612a8e57600080fd5b50565b600081359050612aa081612a7a565b92915050565b60008060008060808587031215612ac057612abf612920565b5b600085013567ffffffffffffffff811115612ade57612add612925565b5b612aea87828801612a42565b945050602085013567ffffffffffffffff811115612b0b57612b0a612925565b5b612b1787828801612a42565b9350506040612b2887828801612a91565b9250506060612b3987828801612a91565b91505092959194509250565b600067ffffffffffffffff821115612b6057612b5f612945565b5b602082029050919050565b600080fd5b6000612b83612b7e84612b45565b6129a5565b90508060208402830185811115612b9d57612b9c612b6b565b5b835b81811015612be457803567ffffffffffffffff811115612bc257612bc161292a565b5b808601612bcf8982612a42565b85526020850194505050602081019050612b9f565b5050509392505050565b600082601f830112612c0357612c0261292a565b5b6018612c10848285612b70565b91505092915050565b600080600080600060a08688031215612c3557612c34612920565b5b600086013567ffffffffffffffff811115612c5357612c52612925565b5b612c5f88828901612a42565b955050602086013567ffffffffffffffff811115612c8057612c7f612925565b5b612c8c88828901612a42565b9450506040612c9d88828901612a91565b9350506060612cae88828901612a91565b925050608086013567ffffffffffffffff811115612ccf57612cce612925565b5b612cdb88828901612bee565b9150509295509295909350565b60008060008060008060c08789031215612d0557612d04612920565b5b600087013567ffffffffffffffff811115612d2357612d22612925565b5b612d2f89828a01612a42565b965050602087013567ffffffffffffffff811115612d5057612d4f612925565b5b612d5c89828a01612a42565b955050604087013567ffffffffffffffff811115612d7d57612d7c612925565b5b612d8989828a01612a42565b9450506060612d9a89828a01612a91565b9350506080612dab89828a01612a91565b92505060a087013567ffffffffffffffff811115612dcc57612dcb612925565b5b612dd889828a01612bee565b9150509295509295509295565b60008060408385031215612dfc57612dfb612920565b5b600083013567ffffffffffffffff811115612e1a57612e19612925565b5b612e2685828601612a42565b9250506020612e3785828601612a91565b9150509250929050565b612e4a81612a70565b82525050565b600081519050919050565b600082825260208201905092915050565b60005b83811015612e8a578082015181840152602081019050612e6f565b83811115612e99576000848401525b50505050565b6000612eaa82612e50565b612eb48185612e5b565b9350612ec4818560208601612e6c565b612ecd81612934565b840191505092915050565b6000606082019050612eed6000830186612e41565b8181036020830152612eff8185612e9f565b90508181036040830152612f138184612e9f565b9050949350505050565b600080600060608486031215612f3657612f35612920565b5b600084013567ffffffffffffffff811115612f5457612f53612925565b5b612f6086828701612a42565b9350506020612f7186828701612a91565b9250506040612f8286828701612a91565b9150509250925092565b60006060820190508181036000830152612fa68186612e9f565b90508181036020830152612fba8185612e9f565b9050612fc96040830184612e41565b949350505050565b60008115159050919050565b612fe681612fd1565b8114612ff157600080fd5b50565b60008135905061300381612fdd565b92915050565b6000806000806080858703121561302357613022612920565b5b600085013567ffffffffffffffff81111561304157613040612925565b5b61304d87828801612a42565b945050602061305e87828801612a91565b935050604061306f87828801612a91565b925050606061308087828801612ff4565b91505092959194509250565b600080600080608085870312156130a6576130a5612920565b5b600085013567ffffffffffffffff8111156130c4576130c3612925565b5b6130d087828801612a42565b945050602085013567ffffffffffffffff8111156130f1576130f0612925565b5b6130fd87828801612a42565b935050604085013567ffffffffffffffff81111561311e5761311d612925565b5b61312a87828801612a42565b925050606061313b87828801612a91565b91505092959194509250565b600081905092915050565b600061315d82612e50565b6131678185613147565b9350613177818560208601612e6c565b80840191505092915050565b600061318f8284613152565b915081905092915050565b7f4e487b7100000000000000000000000000000000000000000000000000000000600052602260045260246000fd5b600060028204905060018216806131e157607f821691505b602082108114156131f5576131f461319a565b5b50919050565b7f4e487b7100000000000000000000000000000000000000000000000000000000600052603260045260246000fd5b7f4e487b7100000000000000000000000000000000000000000000000000000000600052601160045260246000fd5b600061326482612a70565b91507fffffffffffffffffffffffffffffffffffffffffffffffffffffffffffffffff8214156132975761329661322a565b5b600182019050919050565b60006132ad82612a70565b915060008214156132c1576132c061322a565b5b60018203905091905056fea2646970667358221220c46550965ad4718f638792122507332379cb4497f1e9a31b83eed926fa00fe7a64736f6c634300080c0033",
  "immutableReferences": {},
  "source": "// SPDX-License-Identifier: LGPL-3.0-only\npragma solidity ^0.8.12;\n\ncontract Storage {\n  /* Create variables for total number of requests in each category strings for\n  each will be defined in the UI. */\n  // Check gas cost of individual variables vs array. Maybe cheaper but probably not\n  uint256 medicalRequests;\n  uint256 memorialRequests;\n  uint256 emergencyRequests;\n  uint256 nonprofitRequests;\n  uint256 educationRequests;\n  uint256 animalRequests;\n  uint256 environmentRequests;\n  uint256 businessRequests;\n  uint256 communityRequests;\n  uint256 competitionRequests;\n  uint256 creativeRequests;\n  uint256 eventRequests;\n  uint256 religiousRequests;\n  uint256 familyRequests;\n  uint256 sportRequests;\n  uint256 travelRequests;\n  uint256 volunteerRequests;\n  uint256 wishRequests;\n  uint256 individualRequests;\n\n  struct Request {\n      string title;\n      string description;\n      uint256 id;\n      // Amount Requested\n      uint256 amount;\n      uint256 totalOrganizers;\n      uint256 totalContributors;\n      uint256 score;\n  }\n\n  struct Contributor {\n    uint256 amountDonated;\n    string name;\n    string contributorAddress;\n  }\n\n  struct Organizer {\n    string name;\n    // Will be defined in UI as selectable options similar to category\n    string role;\n    uint256 id;\n    /* Coins are chosen based on being meant for medium of exchange with high\n    transaction volume at the time. ADA and ETH are there aswell for smart\n    contract support if people are interested in using that. */\n    string[24] addresses;\n    /* index 0 = btcAddress;\n    index 1 = bchAddress;\n    index 2 = adaAddress;\n    index 3 = dashAddress;\n    index 4 = dogeAddress;\n    index 5 = ethAddress;\n    index 6 = ltcAddress;\n    index 7 = xmrAddress;\n    index 8 = zecAddress;\n\n    Extras just for support for other chains people may want to use if volume\n    drops off in the future maybe re-evaluate showing these in UI to keep things\n    more compact/clean.\n\n    index 9 = algoAddress;\n    index 10 = avaxAddress;\n    index 11 = bscAddress;\n    index 12 = atomAddress;\n    index 13 = egldAddress;\n    index 14 = etcAddress;\n    index 15 = ftmAddress;\n    index 16 = oneAddress;\n    index 17 = lunaAddress;\n    index 18 = dotAddress;\n    index 19 = maticAddress;\n    index 20 = solAddress;\n    index 21 = xlmAddress;\n    index 22 = trxAddress;\n    index 23 = xrpAddress; */\n  }\n\n  // string = Category\n  mapping (string => mapping (uint256 => Request)) Requests;\n\n  // uint256 = Request ID\n  mapping(string => mapping(uint256 => Contributor)) public Contributors;\n  // category => id of request => id of organizer\n  mapping(string => mapping(uint256 => mapping(uint256 => Organizer))) public Organizers;\n\n  function createRequest (\n    string memory _title,\n    string memory _description,\n    string memory _category,\n    uint256 _amount\n  ) public {\n    /* Sorting into category variables makes the code more complex with large if\n    else statements however may be useful in the case of the frontend being\n    shutdown and needing to be redeployed with all the data in the proper location */\n    if (keccak256(bytes(_category)) == keccak256(bytes(\"medical\"))) {\n        Requests[_category][medicalRequests] = Request(_title, _description, medicalRequests, _amount, 0, 0, 0);\n    } else if (keccak256(bytes(_category)) == keccak256(bytes(\"memorial\"))) {\n        Requests[_category][memorialRequests] = Request(_title, _description, memorialRequests, _amount, 0, 0, 0);\n    } else if (keccak256(bytes(_category)) == keccak256(bytes(\"emergency\"))) {\n        Requests[_category][emergencyRequests] = Request(_title, _description, emergencyRequests, _amount, 0, 0, 0);\n    } else if (keccak256(bytes(_category)) == keccak256(bytes(\"nonprofit\"))) {\n        Requests[_category][nonprofitRequests] = Request(_title, _description, nonprofitRequests, _amount, 0, 0, 0);\n    } else if (keccak256(bytes(_category)) == keccak256(bytes(\"education\"))) {\n        Requests[_category][educationRequests] = Request(_title, _description, educationRequests, _amount, 0, 0, 0);\n    } else if (keccak256(bytes(_category)) == keccak256(bytes(\"animal\"))) {\n        Requests[_category][animalRequests] = Request(_title, _description, animalRequests, _amount, 0, 0, 0);\n    } else if (keccak256(bytes(_category)) == keccak256(bytes(\"environment\"))) {\n        Requests[_category][environmentRequests] = Request(_title, _description, environmentRequests, _amount, 0, 0, 0);\n    } else if (keccak256(bytes(_category)) == keccak256(bytes(\"business\"))) {\n        Requests[_category][businessRequests] = Request(_title, _description, businessRequests, _amount, 0, 0, 0);\n    } else if (keccak256(bytes(_category)) == keccak256(bytes(\"community\"))) {\n        Requests[_category][communityRequests] = Request(_title, _description, communityRequests, _amount, 0, 0, 0);\n    } else if (keccak256(bytes(_category)) == keccak256(bytes(\"competition\"))) {\n        Requests[_category][competitionRequests] = Request(_title, _description, competitionRequests, _amount, 0, 0, 0);\n    } else if (keccak256(bytes(_category)) == keccak256(bytes(\"creative\"))) {\n        Requests[_category][creativeRequests] = Request(_title, _description, creativeRequests, _amount, 0, 0, 0);\n    } else if (keccak256(bytes(_category)) == keccak256(bytes(\"event\"))) {\n        Requests[_category][eventRequests] = Request(_title, _description, eventRequests, _amount, 0, 0, 0);\n    } else if (keccak256(bytes(_category)) == keccak256(bytes(\"religious\"))) {\n        Requests[_category][religiousRequests] = Request(_title, _description, religiousRequests, _amount, 0, 0, 0);\n    } else if (keccak256(bytes(_category)) == keccak256(bytes(\"family\"))) {\n        Requests[_category][familyRequests] = Request(_title, _description, familyRequests, _amount, 0, 0, 0);\n    } else if (keccak256(bytes(_category)) == keccak256(bytes(\"sport\"))) {\n        Requests[_category][sportRequests] = Request(_title, _description, sportRequests, _amount, 0, 0, 0);\n    } else if (keccak256(bytes(_category)) == keccak256(bytes(\"travel\"))) {\n        Requests[_category][travelRequests] = Request(_title, _description, travelRequests, _amount, 0, 0, 0);\n    } else if (keccak256(bytes(_category)) == keccak256(bytes(\"volunteer\"))) {\n        Requests[_category][volunteerRequests] = Request(_title, _description, volunteerRequests, _amount, 0, 0, 0);\n    } else if (keccak256(bytes(_category)) == keccak256(bytes(\"wish\"))) {\n        Requests[_category][wishRequests] = Request(_title, _description, wishRequests, _amount, 0, 0, 0);\n    } else if (keccak256(bytes(_category)) == keccak256(bytes(\"individual\"))) {\n        Requests[_category][individualRequests] = Request(_title, _description, individualRequests, _amount, 0, 0, 0);\n    }\n  }\n\n  /* Name should also have a default value of Anonymous in the UI for those who\n    don't feel safe connecting names to addresses.\n  */\n  function initalOrganzier (\n    string memory _name,\n    string memory _role,\n    string memory _category,\n    uint256 _requestId,\n    uint256 _totalOrganizers,\n    string[24] memory _addresses\n  ) public {\n    /* Not all addresses need to be assigned a value. In the UI any addresses not\n    assigned by default should be set to \"\" which would mean an empty string.\n    That will cause setting the mapping data to not fail. Role will also be set\n    through the UI  */\n    Organizers[_category][_requestId][_totalOrganizers] = Organizer(\n      _name, _role, _totalOrganizers, [_addresses[0], _addresses[1], _addresses[2],\n      _addresses[3], _addresses[4], _addresses[5], _addresses[6], _addresses[7],\n      _addresses[8], _addresses[9], _addresses[10], _addresses[11], _addresses[12],\n      _addresses[13], _addresses[14], _addresses[15], _addresses[16], _addresses[17],\n      _addresses[18], _addresses[19], _addresses[20], _addresses[21], _addresses[22],\n      _addresses[23]\n      ]\n    );\n  }\n\n  function editOrganzier (\n    string memory _role,\n    string memory _category,\n    uint256 _requestId,\n    uint256 _organizerId,\n    string[24] memory _addresses\n  ) public {\n    string memory _name = Organizers[_category][_requestId][_organizerId].name;\n    /* This method will cost extra gas and can be improved upon. This can be\n    solved by either taking in less addresses or another way. In it's current\n    form it will call the current data from the blockchain and input it into the\n    UI and once resubmitted you will paying that extra gas to rewrite the same\n    address again for those unchanged. The goal would be to save that extra gas\n    cost so only the address added/changed is what's sent back. */\n    Organizers[_category][_requestId][_organizerId] = Organizer(\n      _name, _role, _organizerId, [_addresses[0], _addresses[1], _addresses[2],\n      _addresses[3], _addresses[4], _addresses[5], _addresses[6], _addresses[7],\n      _addresses[8], _addresses[9], _addresses[10], _addresses[11], _addresses[12],\n      _addresses[13], _addresses[14], _addresses[15], _addresses[16], _addresses[17],\n      _addresses[18], _addresses[19], _addresses[20], _addresses[21], _addresses[22],\n      _addresses[23]\n      ]\n    );\n  }\n\n  /* Values come from blockchain calls. Title should also be immutable in case of\n  an account getting hacked or a scammer changing the name and description of a\n  request. Another alternative is to allow this to be changed but have the entire\n  list of Contributors wiped. */\n  function editRequest (\n    string memory _description,\n    string memory _category,\n    uint256 _id,\n    uint256 _amount\n  ) public {\n    string memory _title = Requests[_category][_id].title;\n    uint256 _totalOrganizers = Requests[_category][_id].totalOrganizers;\n    uint256 _totalContributors = Requests[_category][_id].totalContributors;\n    uint256 _score = Requests[_category][_id].score;\n    /* Category doesn't need the string checked like createRequest because that\n    was just to */\n    Requests[_category][_id] = Request(_title, _description, _id, _amount, _totalOrganizers, _totalContributors, _score);\n  }\n\n  /*\n\n  function verifyOrganizerAddress () public {}\n\n  */\n\n  /* This feature may need to be disabled in UI in the future if it is used harmfully.\n  This feature can easily be exploited through multiple self made accounts or even\n  bot made to upvote scam requests to encourage people to donate to that request over\n  a potentially real one. Therefore this should not be used as a feature to sort\n  through requests and determine which is best to display first. */\n  function voteRequest (\n    string memory _category,\n    uint256 _id,\n    uint256 _score,\n    bool vote\n  ) public {\n    string memory _title = Requests[_category][_id].title;\n    string memory _description = Requests[_category][_id].description;\n    uint256 _amount = Requests[_category][_id].amount;\n    uint256 _totalOrganizers = Requests[_category][_id].totalOrganizers;\n    uint256 _totalContributors = Requests[_category][_id].totalContributors;\n\n    /* Downvoting can cause a large majority of people to downvote a real donation\n    request just bekcause it offends them or doesn't align with their views. This\n    should not be solely used as a way to sort requests in the UI for this reason,\n    hoever it should be kept in the system to alert people of something that may be\n    a faker request or a scammer. The other flaw with this system is that with the\n    low gas fees of hosting on a layer 2 protocol people can make many accounts and\n    send small balances to boost the upvotes on their request even if it is a scam.\n    Therefore this system may need to be disabled in the UI in the future if that is\n    the case. */\n\n    // bool = true then upvote else downvote\n    if (vote) {\n      _score++;\n    } else {\n      _score--;\n    }\n\n    Requests[_category][_id] = Request(_title, _description, _id, _amount, _totalOrganizers, _totalContributors, _score);\n  }\n}\n",
  "sourcePath": "/home/user/Documents/donation/src/contracts/Storage.sol",
  "compiler": {
    "name": "solc",
    "version": "0.8.12+commit.f00d7308.Emscripten.clang"
  },
  "schemaVersion": "3.4.1",
  "updatedAt": "2022-03-15T00:52:01.340Z",
  "devdoc": {
    "kind": "dev",
    "methods": {},
    "version": 1
  },
  "userdoc": {
    "kind": "user",
    "methods": {},
    "version": 1
  }
}