{
  "contractName": "Storage",
  "abi": [
    {
      "inputs": [
        {
          "internalType": "string",
          "name": "",
          "type": "string"
        },
        {
          "internalType": "uint256",
          "name": "",
          "type": "uint256"
        },
        {
          "internalType": "uint256",
          "name": "",
          "type": "uint256"
        }
      ],
      "name": "Contributors",
      "outputs": [
        {
          "internalType": "uint256",
          "name": "amountDonated",
          "type": "uint256"
        },
        {
          "internalType": "string",
          "name": "name",
          "type": "string"
        },
        {
          "internalType": "string",
          "name": "contributorAddress",
          "type": "string"
        },
        {
          "internalType": "uint256",
          "name": "id",
          "type": "uint256"
        }
      ],
      "stateMutability": "view",
      "type": "function"
    },
    {
      "inputs": [
        {
          "internalType": "string",
          "name": "",
          "type": "string"
        },
        {
          "internalType": "uint256",
          "name": "",
          "type": "uint256"
        },
        {
          "internalType": "uint256",
          "name": "",
          "type": "uint256"
        }
      ],
      "name": "Organizers",
      "outputs": [
        {
          "internalType": "string",
          "name": "name",
          "type": "string"
        },
        {
          "internalType": "string",
          "name": "role",
          "type": "string"
        },
        {
          "internalType": "uint256",
          "name": "id",
          "type": "uint256"
        }
      ],
      "stateMutability": "view",
      "type": "function"
    },
    {
      "inputs": [
        {
          "internalType": "string",
          "name": "",
          "type": "string"
        },
        {
          "internalType": "uint256",
          "name": "",
          "type": "uint256"
        }
      ],
      "name": "Requests",
      "outputs": [
        {
          "internalType": "string",
          "name": "title",
          "type": "string"
        },
        {
          "internalType": "string",
          "name": "description",
          "type": "string"
        },
        {
          "internalType": "uint256",
          "name": "id",
          "type": "uint256"
        },
        {
          "internalType": "uint256",
          "name": "amount",
          "type": "uint256"
        },
        {
          "internalType": "uint256",
          "name": "totalOrganizers",
          "type": "uint256"
        },
        {
          "internalType": "uint256",
          "name": "totalContributors",
          "type": "uint256"
        },
        {
          "internalType": "uint256",
          "name": "score",
          "type": "uint256"
        },
        {
          "internalType": "address",
          "name": "creator",
          "type": "address"
        }
      ],
      "stateMutability": "view",
      "type": "function"
    },
    {
      "inputs": [
        {
          "internalType": "string",
          "name": "",
          "type": "string"
        },
        {
          "internalType": "uint256",
          "name": "",
          "type": "uint256"
        },
        {
          "internalType": "address",
          "name": "",
          "type": "address"
        }
      ],
      "name": "isVoted",
      "outputs": [
        {
          "internalType": "bool",
          "name": "",
          "type": "bool"
        }
      ],
      "stateMutability": "view",
      "type": "function"
    },
    {
      "inputs": [
        {
          "internalType": "string",
          "name": "_title",
          "type": "string"
        },
        {
          "internalType": "string",
          "name": "_description",
          "type": "string"
        },
        {
          "internalType": "string",
          "name": "_category",
          "type": "string"
        },
        {
          "internalType": "uint256",
          "name": "_amount",
          "type": "uint256"
        }
      ],
      "name": "createRequest",
      "outputs": [],
      "stateMutability": "nonpayable",
      "type": "function"
    },
    {
      "inputs": [
        {
          "internalType": "string",
          "name": "_name",
          "type": "string"
        },
        {
          "internalType": "string",
          "name": "_role",
          "type": "string"
        },
        {
          "internalType": "string",
          "name": "_category",
          "type": "string"
        },
        {
          "internalType": "uint256",
          "name": "_requestId",
          "type": "uint256"
        },
        {
          "internalType": "uint256",
          "name": "_totalOrganizers",
          "type": "uint256"
        },
        {
          "internalType": "string[23]",
          "name": "_addresses",
          "type": "string[23]"
        }
      ],
      "name": "addOrganzier",
      "outputs": [],
      "stateMutability": "nonpayable",
      "type": "function"
    },
    {
      "inputs": [
        {
          "internalType": "string",
          "name": "_role",
          "type": "string"
        },
        {
          "internalType": "string",
          "name": "_category",
          "type": "string"
        },
        {
          "internalType": "uint256",
          "name": "_requestId",
          "type": "uint256"
        },
        {
          "internalType": "uint256",
          "name": "_organizerId",
          "type": "uint256"
        },
        {
          "internalType": "string[23]",
          "name": "_addresses",
          "type": "string[23]"
        }
      ],
      "name": "editOrganzier",
      "outputs": [],
      "stateMutability": "nonpayable",
      "type": "function"
    },
    {
      "inputs": [
        {
          "internalType": "string",
          "name": "_description",
          "type": "string"
        },
        {
          "internalType": "string",
          "name": "_category",
          "type": "string"
        },
        {
          "internalType": "uint256",
          "name": "_id",
          "type": "uint256"
        },
        {
          "internalType": "uint256",
          "name": "_amount",
          "type": "uint256"
        }
      ],
      "name": "editRequest",
      "outputs": [],
      "stateMutability": "nonpayable",
      "type": "function"
    },
    {
      "inputs": [
        {
          "internalType": "string",
          "name": "_category",
          "type": "string"
        },
        {
          "internalType": "uint256",
          "name": "_requestId",
          "type": "uint256"
        },
        {
          "internalType": "uint256",
          "name": "_score",
          "type": "uint256"
        },
        {
          "internalType": "bool",
          "name": "vote",
          "type": "bool"
        }
      ],
      "name": "voteRequest",
      "outputs": [],
      "stateMutability": "nonpayable",
      "type": "function"
    },
    {
      "inputs": [
        {
          "internalType": "string",
          "name": "_category",
          "type": "string"
        },
        {
          "internalType": "uint256",
          "name": "_requestId",
          "type": "uint256"
        },
        {
          "internalType": "uint256",
          "name": "_totalContributors",
          "type": "uint256"
        },
        {
          "internalType": "string",
          "name": "_name",
          "type": "string"
        },
        {
          "internalType": "uint256",
          "name": "_amountDonated",
          "type": "uint256"
        },
        {
          "internalType": "string",
          "name": "_contributorAddress",
          "type": "string"
        }
      ],
      "name": "addContributor",
      "outputs": [],
      "stateMutability": "nonpayable",
      "type": "function"
    }
  ],
  "bytecode": "0x608060405234801561001057600080fd5b50614609806100206000396000f3fe608060405234801561001057600080fd5b506004361061009e5760003560e01c8063c6ac9f5d11610066578063c6ac9f5d14610177578063cfc1fd6d146101a7578063d1b91037146101c3578063dd8c58fe146101df578063f82f7bdd146101fb5761009e565b806313bd4a94146100a357806319c25905146100bf5780632b9f3f04146100db5780635c983bee1461010e578063c5dbf1fe14610145575b600080fd5b6100bd60048036038101906100b89190613c00565b610217565b005b6100d960048036038101906100d49190613cfd565b61066c565b005b6100f560048036038101906100f09190613d9c565b6109f1565b6040516101059493929190613ea2565b60405180910390f35b61012860048036038101906101239190613ef5565b610b61565b60405161013c989796959493929190613f92565b60405180910390f35b61015f600480360381019061015a9190613d9c565b610cfc565b60405161016e9392919061401e565b60405180910390f35b610191600480360381019061018c919061408f565b610e66565b60405161019e9190614119565b60405180910390f35b6101c160048036038101906101bc9190614160565b610eb8565b005b6101dd60048036038101906101d891906141e3565b611325565b005b6101f960048036038101906101f491906142c4565b611427565b005b61021560048036038101906102109190614393565b611904565b005b601384604051610227919061448a565b9081526020016040518091039020600084815260200190815260200160002060070160009054906101000a900473ffffffffffffffffffffffffffffffffffffffff1673ffffffffffffffffffffffffffffffffffffffff163373ffffffffffffffffffffffffffffffffffffffff16146102a157600080fd5b6040518060800160405280878152602001868152602001838152602001604051806102e00160405280846000601781106102de576102dd6144a1565b5b60200201518152602001846001601781106102fc576102fb6144a1565b5b602002015181526020018460026017811061031a576103196144a1565b5b6020020151815260200184600360178110610338576103376144a1565b5b6020020151815260200184600460178110610356576103556144a1565b5b6020020151815260200184600560178110610374576103736144a1565b5b6020020151815260200184600660178110610392576103916144a1565b5b60200201518152602001846007601781106103b0576103af6144a1565b5b60200201518152602001846008601781106103ce576103cd6144a1565b5b60200201518152602001846009601781106103ec576103eb6144a1565b5b6020020151815260200184600a6017811061040a576104096144a1565b5b6020020151815260200184600b60178110610428576104276144a1565b5b6020020151815260200184600c60178110610446576104456144a1565b5b6020020151815260200184600d60178110610464576104636144a1565b5b6020020151815260200184600e60178110610482576104816144a1565b5b6020020151815260200184600f601781106104a05761049f6144a1565b5b60200201518152602001846010601781106104be576104bd6144a1565b5b60200201518152602001846011601781106104dc576104db6144a1565b5b60200201518152602001846012601781106104fa576104f96144a1565b5b6020020151815260200184601360178110610518576105176144a1565b5b6020020151815260200184601460178110610536576105356144a1565b5b6020020151815260200184601560178110610554576105536144a1565b5b6020020151815260200184601660178110610572576105716144a1565b5b602002015181525081525060158560405161058d919061448a565b90815260200160405180910390206000858152602001908152602001600020600084815260200190815260200160002060008201518160000190805190602001906105d9929190613842565b5060208201518160010190805190602001906105f6929190613842565b50604082015181600201556060820151816003019060176106189291906138c8565b5090505060138460405161062c919061448a565b90815260200160405180910390206000848152602001908152602001600020600401600081548092919061065f906144ff565b9190505550505050505050565b60138360405161067c919061448a565b9081526020016040518091039020600083815260200190815260200160002060070160009054906101000a900473ffffffffffffffffffffffffffffffffffffffff1673ffffffffffffffffffffffffffffffffffffffff163373ffffffffffffffffffffffffffffffffffffffff16146106f657600080fd5b6000601384604051610708919061448a565b90815260200160405180910390206000848152602001908152602001600020600001805461073590614577565b80601f016020809104026020016040519081016040528092919081815260200182805461076190614577565b80156107ae5780601f10610783576101008083540402835291602001916107ae565b820191906000526020600020905b81548152906001019060200180831161079157829003601f168201915b5050505050905060006013856040516107c7919061448a565b9081526020016040518091039020600085815260200190815260200160002060040154905060006013866040516107fe919061448a565b908152602001604051809103902060008681526020019081526020016000206005015490506000601387604051610835919061448a565b90815260200160405180910390206000878152602001908152602001600020600601549050600060138860405161086c919061448a565b9081526020016040518091039020600088815260200190815260200160002060070160009054906101000a900473ffffffffffffffffffffffffffffffffffffffff1690506040518061010001604052808681526020018a81526020018881526020018781526020018581526020018481526020018381526020018273ffffffffffffffffffffffffffffffffffffffff16815250601389604051610911919061448a565b90815260200160405180910390206000898152602001908152602001600020600082015181600001908051906020019061094c929190613842565b506020820151816001019080519060200190610969929190613842565b5060408201518160020155606082015181600301556080820151816004015560a0820151816005015560c0820151816006015560e08201518160070160006101000a81548173ffffffffffffffffffffffffffffffffffffffff021916908373ffffffffffffffffffffffffffffffffffffffff160217905550905050505050505050505050565b6014838051602081018201805184825260208301602085012081835280955050505050506020528160005260406000206020528060005260406000206000925092505050806000015490806001018054610a4a90614577565b80601f0160208091040260200160405190810160405280929190818152602001828054610a7690614577565b8015610ac35780601f10610a9857610100808354040283529160200191610ac3565b820191906000526020600020905b815481529060010190602001808311610aa657829003601f168201915b505050505090806002018054610ad890614577565b80601f0160208091040260200160405190810160405280929190818152602001828054610b0490614577565b8015610b515780601f10610b2657610100808354040283529160200191610b51565b820191906000526020600020905b815481529060010190602001808311610b3457829003601f168201915b5050505050908060030154905084565b60138280516020810182018051848252602083016020850120818352809550505050505060205280600052604060002060009150915050806000018054610ba790614577565b80601f0160208091040260200160405190810160405280929190818152602001828054610bd390614577565b8015610c205780601f10610bf557610100808354040283529160200191610c20565b820191906000526020600020905b815481529060010190602001808311610c0357829003601f168201915b505050505090806001018054610c3590614577565b80601f0160208091040260200160405190810160405280929190818152602001828054610c6190614577565b8015610cae5780601f10610c8357610100808354040283529160200191610cae565b820191906000526020600020905b815481529060010190602001808311610c9157829003601f168201915b5050505050908060020154908060030154908060040154908060050154908060060154908060070160009054906101000a900473ffffffffffffffffffffffffffffffffffffffff16905088565b6015838051602081018201805184825260208301602085012081835280955050505050506020528160005260406000206020528060005260406000206000925092505050806000018054610d4f90614577565b80601f0160208091040260200160405190810160405280929190818152602001828054610d7b90614577565b8015610dc85780601f10610d9d57610100808354040283529160200191610dc8565b820191906000526020600020905b815481529060010190602001808311610dab57829003601f168201915b505050505090806001018054610ddd90614577565b80601f0160208091040260200160405190810160405280929190818152602001828054610e0990614577565b8015610e565780601f10610e2b57610100808354040283529160200191610e56565b820191906000526020600020905b815481529060010190602001808311610e3957829003601f168201915b5050505050908060020154905083565b601683805160208101820180518482526020830160208501208183528095505050505050602052816000526040600020602052806000526040600020600092509250509054906101000a900460ff1681565b60001515601685604051610ecc919061448a565b9081526020016040518091039020600085815260200190815260200160002060003373ffffffffffffffffffffffffffffffffffffffff1673ffffffffffffffffffffffffffffffffffffffff16815260200190815260200160002060009054906101000a900460ff16151514610f4257600080fd5b6000601385604051610f54919061448a565b908152602001604051809103902060008581526020019081526020016000206000018054610f8190614577565b80601f0160208091040260200160405190810160405280929190818152602001828054610fad90614577565b8015610ffa5780601f10610fcf57610100808354040283529160200191610ffa565b820191906000526020600020905b815481529060010190602001808311610fdd57829003601f168201915b505050505090506000601386604051611013919061448a565b90815260200160405180910390206000868152602001908152602001600020600101805461104090614577565b80601f016020809104026020016040519081016040528092919081815260200182805461106c90614577565b80156110b95780601f1061108e576101008083540402835291602001916110b9565b820191906000526020600020905b81548152906001019060200180831161109c57829003601f168201915b5050505050905060006013876040516110d2919061448a565b908152602001604051809103902060008781526020019081526020016000206003015490506000601388604051611109919061448a565b908152602001604051809103902060008881526020019081526020016000206004015490506000601389604051611140919061448a565b90815260200160405180910390206000898152602001908152602001600020600501549050600060138a604051611177919061448a565b908152602001604051809103902060008a815260200190815260200160002060070160009054906101000a900473ffffffffffffffffffffffffffffffffffffffff16905086156111d55787806111cd906144ff565b9850506111e4565b87806111e0906145a9565b9850505b6040518061010001604052808781526020018681526020018a81526020018581526020018481526020018381526020018981526020018273ffffffffffffffffffffffffffffffffffffffff1681525060138b604051611244919061448a565b908152602001604051809103902060008b8152602001908152602001600020600082015181600001908051906020019061127f929190613842565b50602082015181600101908051906020019061129c929190613842565b5060408201518160020155606082015181600301556080820151816004015560a0820151816005015560c0820151816006015560e08201518160070160006101000a81548173ffffffffffffffffffffffffffffffffffffffff021916908373ffffffffffffffffffffffffffffffffffffffff16021790555090505050505050505050505050565b604051806080016040528083815260200184815260200182815260200185815250601487604051611356919061448a565b9081526020016040518091039020600087815260200190815260200160002060008681526020019081526020016000206000820151816000015560208201518160010190805190602001906113ac929190613842565b5060408201518160020190805190602001906113c9929190613842565b50606082015181600301559050506013866040516113e7919061448a565b90815260200160405180910390206000868152602001908152602001600020600501600081548092919061141a906144ff565b9190505550505050505050565b601384604051611437919061448a565b9081526020016040518091039020600084815260200190815260200160002060070160009054906101000a900473ffffffffffffffffffffffffffffffffffffffff1673ffffffffffffffffffffffffffffffffffffffff163373ffffffffffffffffffffffffffffffffffffffff16146114b157600080fd5b60006015856040516114c3919061448a565b908152602001604051809103902060008581526020019081526020016000206000848152602001908152602001600020600001805461150190614577565b80601f016020809104026020016040519081016040528092919081815260200182805461152d90614577565b801561157a5780601f1061154f5761010080835404028352916020019161157a565b820191906000526020600020905b81548152906001019060200180831161155d57829003601f168201915b505050505090506040518060800160405280828152602001878152602001848152602001604051806102e00160405280856000601781106115be576115bd6144a1565b5b60200201518152602001856001601781106115dc576115db6144a1565b5b60200201518152602001856002601781106115fa576115f96144a1565b5b6020020151815260200185600360178110611618576116176144a1565b5b6020020151815260200185600460178110611636576116356144a1565b5b6020020151815260200185600560178110611654576116536144a1565b5b6020020151815260200185600660178110611672576116716144a1565b5b60200201518152602001856007601781106116905761168f6144a1565b5b60200201518152602001856008601781106116ae576116ad6144a1565b5b60200201518152602001856009601781106116cc576116cb6144a1565b5b6020020151815260200185600a601781106116ea576116e96144a1565b5b6020020151815260200185600b60178110611708576117076144a1565b5b6020020151815260200185600c60178110611726576117256144a1565b5b6020020151815260200185600d60178110611744576117436144a1565b5b6020020151815260200185600e60178110611762576117616144a1565b5b6020020151815260200185600f601781106117805761177f6144a1565b5b602002015181526020018560106017811061179e5761179d6144a1565b5b60200201518152602001856011601781106117bc576117bb6144a1565b5b60200201518152602001856012601781106117da576117d96144a1565b5b60200201518152602001856013601781106117f8576117f76144a1565b5b6020020151815260200185601460178110611816576118156144a1565b5b6020020151815260200185601560178110611834576118336144a1565b5b6020020151815260200185601660178110611852576118516144a1565b5b602002015181525081525060158660405161186d919061448a565b90815260200160405180910390206000868152602001908152602001600020600085815260200190815260200160002060008201518160000190805190602001906118b9929190613842565b5060208201518160010190805190602001906118d6929190613842565b50604082015181600201556060820151816003019060176118f89291906138c8565b50905050505050505050565b6040518060400160405280600781526020017f6d65646963616c000000000000000000000000000000000000000000000000008152508051906020012082805190602001201415611aa65760405180610100016040528085815260200184815260200160005481526020018281526020016000815260200160008152602001600081526020013373ffffffffffffffffffffffffffffffffffffffff168152506013836040516119b4919061448a565b908152602001604051809103902060008054815260200190815260200160002060008201518160000190805190602001906119f0929190613842565b506020820151816001019080519060200190611a0d929190613842565b5060408201518160020155606082015181600301556080820151816004015560a0820151816005015560c0820151816006015560e08201518160070160006101000a81548173ffffffffffffffffffffffffffffffffffffffff021916908373ffffffffffffffffffffffffffffffffffffffff160217905550905050600080815480929190611a9c906144ff565b919050555061383c565b6040518060400160405280600881526020017f6d656d6f7269616c0000000000000000000000000000000000000000000000008152508051906020012082805190602001201415611c4a5760405180610100016040528085815260200184815260200160015481526020018281526020016000815260200160008152602001600081526020013373ffffffffffffffffffffffffffffffffffffffff16815250601383604051611b56919061448a565b9081526020016040518091039020600060015481526020019081526020016000206000820151816000019080519060200190611b93929190613842565b506020820151816001019080519060200190611bb0929190613842565b5060408201518160020155606082015181600301556080820151816004015560a0820151816005015560c0820151816006015560e08201518160070160006101000a81548173ffffffffffffffffffffffffffffffffffffffff021916908373ffffffffffffffffffffffffffffffffffffffff16021790555090505060016000815480929190611c40906144ff565b919050555061383b565b6040518060400160405280600981526020017f656d657267656e637900000000000000000000000000000000000000000000008152508051906020012082805190602001201415611dee5760405180610100016040528085815260200184815260200160025481526020018281526020016000815260200160008152602001600081526020013373ffffffffffffffffffffffffffffffffffffffff16815250601383604051611cfa919061448a565b9081526020016040518091039020600060025481526020019081526020016000206000820151816000019080519060200190611d37929190613842565b506020820151816001019080519060200190611d54929190613842565b5060408201518160020155606082015181600301556080820151816004015560a0820151816005015560c0820151816006015560e08201518160070160006101000a81548173ffffffffffffffffffffffffffffffffffffffff021916908373ffffffffffffffffffffffffffffffffffffffff16021790555090505060026000815480929190611de4906144ff565b919050555061383a565b6040518060400160405280600981526020017f6e6f6e70726f66697400000000000000000000000000000000000000000000008152508051906020012082805190602001201415611f925760405180610100016040528085815260200184815260200160035481526020018281526020016000815260200160008152602001600081526020013373ffffffffffffffffffffffffffffffffffffffff16815250601383604051611e9e919061448a565b9081526020016040518091039020600060035481526020019081526020016000206000820151816000019080519060200190611edb929190613842565b506020820151816001019080519060200190611ef8929190613842565b5060408201518160020155606082015181600301556080820151816004015560a0820151816005015560c0820151816006015560e08201518160070160006101000a81548173ffffffffffffffffffffffffffffffffffffffff021916908373ffffffffffffffffffffffffffffffffffffffff16021790555090505060036000815480929190611f88906144ff565b9190505550613839565b6040518060400160405280600981526020017f656475636174696f6e000000000000000000000000000000000000000000000081525080519060200120828051906020012014156121365760405180610100016040528085815260200184815260200160045481526020018281526020016000815260200160008152602001600081526020013373ffffffffffffffffffffffffffffffffffffffff16815250601383604051612042919061448a565b908152602001604051809103902060006004548152602001908152602001600020600082015181600001908051906020019061207f929190613842565b50602082015181600101908051906020019061209c929190613842565b5060408201518160020155606082015181600301556080820151816004015560a0820151816005015560c0820151816006015560e08201518160070160006101000a81548173ffffffffffffffffffffffffffffffffffffffff021916908373ffffffffffffffffffffffffffffffffffffffff1602179055509050506004600081548092919061212c906144ff565b9190505550613838565b6040518060400160405280600681526020017f616e696d616c000000000000000000000000000000000000000000000000000081525080519060200120828051906020012014156122da5760405180610100016040528085815260200184815260200160055481526020018281526020016000815260200160008152602001600081526020013373ffffffffffffffffffffffffffffffffffffffff168152506013836040516121e6919061448a565b9081526020016040518091039020600060055481526020019081526020016000206000820151816000019080519060200190612223929190613842565b506020820151816001019080519060200190612240929190613842565b5060408201518160020155606082015181600301556080820151816004015560a0820151816005015560c0820151816006015560e08201518160070160006101000a81548173ffffffffffffffffffffffffffffffffffffffff021916908373ffffffffffffffffffffffffffffffffffffffff160217905550905050600560008154809291906122d0906144ff565b9190505550613837565b6040518060400160405280600b81526020017f656e7669726f6e6d656e74000000000000000000000000000000000000000000815250805190602001208280519060200120141561247e5760405180610100016040528085815260200184815260200160065481526020018281526020016000815260200160008152602001600081526020013373ffffffffffffffffffffffffffffffffffffffff1681525060138360405161238a919061448a565b90815260200160405180910390206000600654815260200190815260200160002060008201518160000190805190602001906123c7929190613842565b5060208201518160010190805190602001906123e4929190613842565b5060408201518160020155606082015181600301556080820151816004015560a0820151816005015560c0820151816006015560e08201518160070160006101000a81548173ffffffffffffffffffffffffffffffffffffffff021916908373ffffffffffffffffffffffffffffffffffffffff16021790555090505060066000815480929190612474906144ff565b9190505550613836565b6040518060400160405280600881526020017f627573696e65737300000000000000000000000000000000000000000000000081525080519060200120828051906020012014156126225760405180610100016040528085815260200184815260200160075481526020018281526020016000815260200160008152602001600081526020013373ffffffffffffffffffffffffffffffffffffffff1681525060138360405161252e919061448a565b908152602001604051809103902060006007548152602001908152602001600020600082015181600001908051906020019061256b929190613842565b506020820151816001019080519060200190612588929190613842565b5060408201518160020155606082015181600301556080820151816004015560a0820151816005015560c0820151816006015560e08201518160070160006101000a81548173ffffffffffffffffffffffffffffffffffffffff021916908373ffffffffffffffffffffffffffffffffffffffff16021790555090505060076000815480929190612618906144ff565b9190505550613835565b6040518060400160405280600981526020017f636f6d6d756e697479000000000000000000000000000000000000000000000081525080519060200120828051906020012014156127c65760405180610100016040528085815260200184815260200160085481526020018281526020016000815260200160008152602001600081526020013373ffffffffffffffffffffffffffffffffffffffff168152506013836040516126d2919061448a565b908152602001604051809103902060006008548152602001908152602001600020600082015181600001908051906020019061270f929190613842565b50602082015181600101908051906020019061272c929190613842565b5060408201518160020155606082015181600301556080820151816004015560a0820151816005015560c0820151816006015560e08201518160070160006101000a81548173ffffffffffffffffffffffffffffffffffffffff021916908373ffffffffffffffffffffffffffffffffffffffff160217905550905050600860008154809291906127bc906144ff565b9190505550613834565b6040518060400160405280600b81526020017f636f6d7065746974696f6e000000000000000000000000000000000000000000815250805190602001208280519060200120141561296a5760405180610100016040528085815260200184815260200160095481526020018281526020016000815260200160008152602001600081526020013373ffffffffffffffffffffffffffffffffffffffff16815250601383604051612876919061448a565b90815260200160405180910390206000600954815260200190815260200160002060008201518160000190805190602001906128b3929190613842565b5060208201518160010190805190602001906128d0929190613842565b5060408201518160020155606082015181600301556080820151816004015560a0820151816005015560c0820151816006015560e08201518160070160006101000a81548173ffffffffffffffffffffffffffffffffffffffff021916908373ffffffffffffffffffffffffffffffffffffffff16021790555090505060096000815480929190612960906144ff565b9190505550613833565b6040518060400160405280600881526020017f63726561746976650000000000000000000000000000000000000000000000008152508051906020012082805190602001201415612b0e57604051806101000160405280858152602001848152602001600a5481526020018281526020016000815260200160008152602001600081526020013373ffffffffffffffffffffffffffffffffffffffff16815250601383604051612a1a919061448a565b90815260200160405180910390206000600a5481526020019081526020016000206000820151816000019080519060200190612a57929190613842565b506020820151816001019080519060200190612a74929190613842565b5060408201518160020155606082015181600301556080820151816004015560a0820151816005015560c0820151816006015560e08201518160070160006101000a81548173ffffffffffffffffffffffffffffffffffffffff021916908373ffffffffffffffffffffffffffffffffffffffff160217905550905050600a6000815480929190612b04906144ff565b9190505550613832565b6040518060400160405280600581526020017f6576656e740000000000000000000000000000000000000000000000000000008152508051906020012082805190602001201415612cb257604051806101000160405280858152602001848152602001600b5481526020018281526020016000815260200160008152602001600081526020013373ffffffffffffffffffffffffffffffffffffffff16815250601383604051612bbe919061448a565b90815260200160405180910390206000600b5481526020019081526020016000206000820151816000019080519060200190612bfb929190613842565b506020820151816001019080519060200190612c18929190613842565b5060408201518160020155606082015181600301556080820151816004015560a0820151816005015560c0820151816006015560e08201518160070160006101000a81548173ffffffffffffffffffffffffffffffffffffffff021916908373ffffffffffffffffffffffffffffffffffffffff160217905550905050600b6000815480929190612ca8906144ff565b9190505550613831565b6040518060400160405280600981526020017f72656c6967696f757300000000000000000000000000000000000000000000008152508051906020012082805190602001201415612e5657604051806101000160405280858152602001848152602001600c5481526020018281526020016000815260200160008152602001600081526020013373ffffffffffffffffffffffffffffffffffffffff16815250601383604051612d62919061448a565b90815260200160405180910390206000600c5481526020019081526020016000206000820151816000019080519060200190612d9f929190613842565b506020820151816001019080519060200190612dbc929190613842565b5060408201518160020155606082015181600301556080820151816004015560a0820151816005015560c0820151816006015560e08201518160070160006101000a81548173ffffffffffffffffffffffffffffffffffffffff021916908373ffffffffffffffffffffffffffffffffffffffff160217905550905050600c6000815480929190612e4c906144ff565b9190505550613830565b6040518060400160405280600681526020017f66616d696c7900000000000000000000000000000000000000000000000000008152508051906020012082805190602001201415612ffa57604051806101000160405280858152602001848152602001600d5481526020018281526020016000815260200160008152602001600081526020013373ffffffffffffffffffffffffffffffffffffffff16815250601383604051612f06919061448a565b90815260200160405180910390206000600d5481526020019081526020016000206000820151816000019080519060200190612f43929190613842565b506020820151816001019080519060200190612f60929190613842565b5060408201518160020155606082015181600301556080820151816004015560a0820151816005015560c0820151816006015560e08201518160070160006101000a81548173ffffffffffffffffffffffffffffffffffffffff021916908373ffffffffffffffffffffffffffffffffffffffff160217905550905050600d6000815480929190612ff0906144ff565b919050555061382f565b6040518060400160405280600581526020017f73706f7274000000000000000000000000000000000000000000000000000000815250805190602001208280519060200120141561319e57604051806101000160405280858152602001848152602001600e5481526020018281526020016000815260200160008152602001600081526020013373ffffffffffffffffffffffffffffffffffffffff168152506013836040516130aa919061448a565b90815260200160405180910390206000600e54815260200190815260200160002060008201518160000190805190602001906130e7929190613842565b506020820151816001019080519060200190613104929190613842565b5060408201518160020155606082015181600301556080820151816004015560a0820151816005015560c0820151816006015560e08201518160070160006101000a81548173ffffffffffffffffffffffffffffffffffffffff021916908373ffffffffffffffffffffffffffffffffffffffff160217905550905050600e6000815480929190613194906144ff565b919050555061382e565b6040518060400160405280600681526020017f74726176656c0000000000000000000000000000000000000000000000000000815250805190602001208280519060200120141561334257604051806101000160405280858152602001848152602001600f5481526020018281526020016000815260200160008152602001600081526020013373ffffffffffffffffffffffffffffffffffffffff1681525060138360405161324e919061448a565b90815260200160405180910390206000600f548152602001908152602001600020600082015181600001908051906020019061328b929190613842565b5060208201518160010190805190602001906132a8929190613842565b5060408201518160020155606082015181600301556080820151816004015560a0820151816005015560c0820151816006015560e08201518160070160006101000a81548173ffffffffffffffffffffffffffffffffffffffff021916908373ffffffffffffffffffffffffffffffffffffffff160217905550905050600f6000815480929190613338906144ff565b919050555061382d565b6040518060400160405280600981526020017f766f6c756e74656572000000000000000000000000000000000000000000000081525080519060200120828051906020012014156134e65760405180610100016040528085815260200184815260200160105481526020018281526020016000815260200160008152602001600081526020013373ffffffffffffffffffffffffffffffffffffffff168152506013836040516133f2919061448a565b908152602001604051809103902060006010548152602001908152602001600020600082015181600001908051906020019061342f929190613842565b50602082015181600101908051906020019061344c929190613842565b5060408201518160020155606082015181600301556080820151816004015560a0820151816005015560c0820151816006015560e08201518160070160006101000a81548173ffffffffffffffffffffffffffffffffffffffff021916908373ffffffffffffffffffffffffffffffffffffffff160217905550905050601060008154809291906134dc906144ff565b919050555061382c565b6040518060400160405280600481526020017f7769736800000000000000000000000000000000000000000000000000000000815250805190602001208280519060200120141561368a5760405180610100016040528085815260200184815260200160115481526020018281526020016000815260200160008152602001600081526020013373ffffffffffffffffffffffffffffffffffffffff16815250601383604051613596919061448a565b90815260200160405180910390206000601154815260200190815260200160002060008201518160000190805190602001906135d3929190613842565b5060208201518160010190805190602001906135f0929190613842565b5060408201518160020155606082015181600301556080820151816004015560a0820151816005015560c0820151816006015560e08201518160070160006101000a81548173ffffffffffffffffffffffffffffffffffffffff021916908373ffffffffffffffffffffffffffffffffffffffff16021790555090505060116000815480929190613680906144ff565b919050555061382b565b6040518060400160405280600a81526020017f696e646976696475616c00000000000000000000000000000000000000000000815250805190602001208280519060200120141561382a5760405180610100016040528085815260200184815260200160125481526020018281526020016000815260200160008152602001600081526020013373ffffffffffffffffffffffffffffffffffffffff1681525060138360405161373a919061448a565b9081526020016040518091039020600060125481526020019081526020016000206000820151816000019080519060200190613777929190613842565b506020820151816001019080519060200190613794929190613842565b5060408201518160020155606082015181600301556080820151816004015560a0820151816005015560c0820151816006015560e08201518160070160006101000a81548173ffffffffffffffffffffffffffffffffffffffff021916908373ffffffffffffffffffffffffffffffffffffffff16021790555090505060126000815480929190613824906144ff565b91905055505b5b5b5b5b5b5b5b5b5b5b5b5b5b5b5b5b5b5b50505050565b82805461384e90614577565b90600052602060002090601f01602090048101928261387057600085556138b7565b82601f1061388957805160ff19168380011785556138b7565b828001600101855582156138b7579182015b828111156138b657825182559160200191906001019061389b565b5b5090506138c4919061391b565b5090565b826017810192821561390a579160200282015b828111156139095782518290805190602001906138f9929190613842565b50916020019190600101906138db565b5b5090506139179190613938565b5090565b5b8082111561393457600081600090555060010161391c565b5090565b5b80821115613958576000818161394f919061395c565b50600101613939565b5090565b50805461396890614577565b6000825580601f1061397a5750613999565b601f016020900490600052602060002090810190613998919061391b565b5b50565b6000604051905090565b600080fd5b600080fd5b600080fd5b600080fd5b6000601f19601f8301169050919050565b7f4e487b7100000000000000000000000000000000000000000000000000000000600052604160045260246000fd5b613a03826139ba565b810181811067ffffffffffffffff82111715613a2257613a216139cb565b5b80604052505050565b6000613a3561399c565b9050613a4182826139fa565b919050565b600067ffffffffffffffff821115613a6157613a606139cb565b5b613a6a826139ba565b9050602081019050919050565b82818337600083830152505050565b6000613a99613a9484613a46565b613a2b565b905082815260208101848484011115613ab557613ab46139b5565b5b613ac0848285613a77565b509392505050565b600082601f830112613add57613adc6139b0565b5b8135613aed848260208601613a86565b91505092915050565b6000819050919050565b613b0981613af6565b8114613b1457600080fd5b50565b600081359050613b2681613b00565b92915050565b600067ffffffffffffffff821115613b4757613b466139cb565b5b602082029050919050565b600080fd5b6000613b6a613b6584613b2c565b613a2b565b90508060208402830185811115613b8457613b83613b52565b5b835b81811015613bcb57803567ffffffffffffffff811115613ba957613ba86139b0565b5b808601613bb68982613ac8565b85526020850194505050602081019050613b86565b5050509392505050565b600082601f830112613bea57613be96139b0565b5b6017613bf7848285613b57565b91505092915050565b60008060008060008060c08789031215613c1d57613c1c6139a6565b5b600087013567ffffffffffffffff811115613c3b57613c3a6139ab565b5b613c4789828a01613ac8565b965050602087013567ffffffffffffffff811115613c6857613c676139ab565b5b613c7489828a01613ac8565b955050604087013567ffffffffffffffff811115613c9557613c946139ab565b5b613ca189828a01613ac8565b9450506060613cb289828a01613b17565b9350506080613cc389828a01613b17565b92505060a087013567ffffffffffffffff811115613ce457613ce36139ab565b5b613cf089828a01613bd5565b9150509295509295509295565b60008060008060808587031215613d1757613d166139a6565b5b600085013567ffffffffffffffff811115613d3557613d346139ab565b5b613d4187828801613ac8565b945050602085013567ffffffffffffffff811115613d6257613d616139ab565b5b613d6e87828801613ac8565b9350506040613d7f87828801613b17565b9250506060613d9087828801613b17565b91505092959194509250565b600080600060608486031215613db557613db46139a6565b5b600084013567ffffffffffffffff811115613dd357613dd26139ab565b5b613ddf86828701613ac8565b9350506020613df086828701613b17565b9250506040613e0186828701613b17565b9150509250925092565b613e1481613af6565b82525050565b600081519050919050565b600082825260208201905092915050565b60005b83811015613e54578082015181840152602081019050613e39565b83811115613e63576000848401525b50505050565b6000613e7482613e1a565b613e7e8185613e25565b9350613e8e818560208601613e36565b613e97816139ba565b840191505092915050565b6000608082019050613eb76000830187613e0b565b8181036020830152613ec98186613e69565b90508181036040830152613edd8185613e69565b9050613eec6060830184613e0b565b95945050505050565b60008060408385031215613f0c57613f0b6139a6565b5b600083013567ffffffffffffffff811115613f2a57613f296139ab565b5b613f3685828601613ac8565b9250506020613f4785828601613b17565b9150509250929050565b600073ffffffffffffffffffffffffffffffffffffffff82169050919050565b6000613f7c82613f51565b9050919050565b613f8c81613f71565b82525050565b6000610100820190508181036000830152613fad818b613e69565b90508181036020830152613fc1818a613e69565b9050613fd06040830189613e0b565b613fdd6060830188613e0b565b613fea6080830187613e0b565b613ff760a0830186613e0b565b61400460c0830185613e0b565b61401160e0830184613f83565b9998505050505050505050565b600060608201905081810360008301526140388186613e69565b9050818103602083015261404c8185613e69565b905061405b6040830184613e0b565b949350505050565b61406c81613f71565b811461407757600080fd5b50565b60008135905061408981614063565b92915050565b6000806000606084860312156140a8576140a76139a6565b5b600084013567ffffffffffffffff8111156140c6576140c56139ab565b5b6140d286828701613ac8565b93505060206140e386828701613b17565b92505060406140f48682870161407a565b9150509250925092565b60008115159050919050565b614113816140fe565b82525050565b600060208201905061412e600083018461410a565b92915050565b61413d816140fe565b811461414857600080fd5b50565b60008135905061415a81614134565b92915050565b6000806000806080858703121561417a576141796139a6565b5b600085013567ffffffffffffffff811115614198576141976139ab565b5b6141a487828801613ac8565b94505060206141b587828801613b17565b93505060406141c687828801613b17565b92505060606141d78782880161414b565b91505092959194509250565b60008060008060008060c08789031215614200576141ff6139a6565b5b600087013567ffffffffffffffff81111561421e5761421d6139ab565b5b61422a89828a01613ac8565b965050602061423b89828a01613b17565b955050604061424c89828a01613b17565b945050606087013567ffffffffffffffff81111561426d5761426c6139ab565b5b61427989828a01613ac8565b935050608061428a89828a01613b17565b92505060a087013567ffffffffffffffff8111156142ab576142aa6139ab565b5b6142b789828a01613ac8565b9150509295509295509295565b600080600080600060a086880312156142e0576142df6139a6565b5b600086013567ffffffffffffffff8111156142fe576142fd6139ab565b5b61430a88828901613ac8565b955050602086013567ffffffffffffffff81111561432b5761432a6139ab565b5b61433788828901613ac8565b945050604061434888828901613b17565b935050606061435988828901613b17565b925050608086013567ffffffffffffffff81111561437a576143796139ab565b5b61438688828901613bd5565b9150509295509295909350565b600080600080608085870312156143ad576143ac6139a6565b5b600085013567ffffffffffffffff8111156143cb576143ca6139ab565b5b6143d787828801613ac8565b945050602085013567ffffffffffffffff8111156143f8576143f76139ab565b5b61440487828801613ac8565b935050604085013567ffffffffffffffff811115614425576144246139ab565b5b61443187828801613ac8565b925050606061444287828801613b17565b91505092959194509250565b600081905092915050565b600061446482613e1a565b61446e818561444e565b935061447e818560208601613e36565b80840191505092915050565b60006144968284614459565b915081905092915050565b7f4e487b7100000000000000000000000000000000000000000000000000000000600052603260045260246000fd5b7f4e487b7100000000000000000000000000000000000000000000000000000000600052601160045260246000fd5b600061450a82613af6565b91507fffffffffffffffffffffffffffffffffffffffffffffffffffffffffffffffff82141561453d5761453c6144d0565b5b600182019050919050565b7f4e487b7100000000000000000000000000000000000000000000000000000000600052602260045260246000fd5b6000600282049050600182168061458f57607f821691505b602082108114156145a3576145a2614548565b5b50919050565b60006145b482613af6565b915060008214156145c8576145c76144d0565b5b60018203905091905056fea264697066735822122089065ef957d0b6116dab2b5f4e69e55506d9913ce25155264177b0bd233a0c3264736f6c634300080c0033",
  "immutableReferences": {},
  "source": "// SPDX-License-Identifier: LGPL-3.0-only\npragma solidity ^0.8.12;\n\ncontract Storage {\n  /* Create variables for total number of requests in each category strings for\n  each will be defined in the UI. */\n  // Check gas cost of individual variables vs array. Maybe cheaper but probably not\n  uint256 medicalRequests;\n  uint256 memorialRequests;\n  uint256 emergencyRequests;\n  uint256 nonprofitRequests;\n  uint256 educationRequests;\n  uint256 animalRequests;\n  uint256 environmentRequests;\n  uint256 businessRequests;\n  uint256 communityRequests;\n  uint256 competitionRequests;\n  uint256 creativeRequests;\n  uint256 eventRequests;\n  uint256 religiousRequests;\n  uint256 familyRequests;\n  uint256 sportRequests;\n  uint256 travelRequests;\n  uint256 volunteerRequests;\n  uint256 wishRequests;\n  uint256 individualRequests;\n\n  struct Request {\n      string title;\n      string description;\n      uint256 id;\n      // Amount Requested\n      uint256 amount;\n      uint256 totalOrganizers;\n      uint256 totalContributors;\n      uint256 score;\n      address creator;\n  }\n\n  struct Contributor {\n    uint256 amountDonated;\n    string name;\n    string contributorAddress;\n    uint256 id;\n  }\n\n  struct Organizer {\n    string name;\n    string role;\n    uint256 id;\n    /* Coins are chosen based on being meant for medium of exchange with high\n    transaction volume at the time. ADA and ETH are there aswell for smart\n    contract support if people are interested in using that. */\n    string[23] addresses;\n    /* index 0 = btcAddress;\n    index 1 = bchAddress;\n    index 2 = adaAddress;\n    index 3 = dashAddress;\n    index 4 = dogeAddress;\n    index 5 = ethAddress;\n    index 6 = ltcAddress;\n    index 7 = xmrAddress;\n    index 8 = zecAddress;\n\n    Extras just for support for other chains people may want to use if volume\n    drops off in the future maybe re-evaluate showing these in UI to keep things\n    more compact/clean.\n\n    index 9 = algoAddress;\n    index 10 = avaxAddress;\n    index 11 = bscAddress;\n    index 12 = atomAddress;\n    index 13 = egldAddress;\n    index 14 = etcAddress;\n    index 15 = ftmAddress;\n    index 16 = oneAddress;\n    index 17 = lunaAddress;\n    index 18 = dotAddress;\n    index 19 = maticAddress;\n    index 20 = solAddress;\n    index 21 = xlmAddress;\n    index 22 = xrpAddress; */\n  }\n\n  // category => id of request\n  mapping(string => mapping (uint256 => Request)) public Requests;\n  // category => id of request => id of contributor\n  mapping(string => mapping(uint256 => mapping(uint256 => Contributor))) public Contributors;\n  // category => id of request => id of organizer\n  mapping(string => mapping(uint256 => mapping(uint256 => Organizer))) public Organizers;\n  // category => id of request => Polygon address of user\n  mapping(string => mapping(uint256 => mapping(address => bool))) public isVoted;\n\n\n  function createRequest (\n    string memory _title,\n    string memory _description,\n    string memory _category,\n    uint256 _amount\n  ) public {\n    /* Sorting into category variables makes the code more complex with large if\n    else statements however may be useful in the case of the frontend being\n    shutdown and needing to be redeployed with all the data in the proper location */\n    if (keccak256(bytes(_category)) == keccak256(bytes(\"medical\"))) {\n        Requests[_category][medicalRequests] = Request(_title, _description, medicalRequests, _amount, 0, 0, 0, msg.sender);\n        medicalRequests++;\n    } else if (keccak256(bytes(_category)) == keccak256(bytes(\"memorial\"))) {\n        Requests[_category][memorialRequests] = Request(_title, _description, memorialRequests, _amount, 0, 0, 0, msg.sender);\n        memorialRequests++;\n    } else if (keccak256(bytes(_category)) == keccak256(bytes(\"emergency\"))) {\n        Requests[_category][emergencyRequests] = Request(_title, _description, emergencyRequests, _amount, 0, 0, 0, msg.sender);\n        emergencyRequests++;\n    } else if (keccak256(bytes(_category)) == keccak256(bytes(\"nonprofit\"))) {\n        Requests[_category][nonprofitRequests] = Request(_title, _description, nonprofitRequests, _amount, 0, 0, 0, msg.sender);\n        nonprofitRequests++;\n    } else if (keccak256(bytes(_category)) == keccak256(bytes(\"education\"))) {\n        Requests[_category][educationRequests] = Request(_title, _description, educationRequests, _amount, 0, 0, 0, msg.sender);\n        educationRequests++;\n    } else if (keccak256(bytes(_category)) == keccak256(bytes(\"animal\"))) {\n        Requests[_category][animalRequests] = Request(_title, _description, animalRequests, _amount, 0, 0, 0, msg.sender);\n        animalRequests++;\n    } else if (keccak256(bytes(_category)) == keccak256(bytes(\"environment\"))) {\n        Requests[_category][environmentRequests] = Request(_title, _description, environmentRequests, _amount, 0, 0, 0, msg.sender);\n        environmentRequests++;\n    } else if (keccak256(bytes(_category)) == keccak256(bytes(\"business\"))) {\n        Requests[_category][businessRequests] = Request(_title, _description, businessRequests, _amount, 0, 0, 0, msg.sender);\n        businessRequests++;\n    } else if (keccak256(bytes(_category)) == keccak256(bytes(\"community\"))) {\n        Requests[_category][communityRequests] = Request(_title, _description, communityRequests, _amount, 0, 0, 0, msg.sender);\n        communityRequests++;\n    } else if (keccak256(bytes(_category)) == keccak256(bytes(\"competition\"))) {\n        Requests[_category][competitionRequests] = Request(_title, _description, competitionRequests, _amount, 0, 0, 0, msg.sender);\n        competitionRequests++;\n    } else if (keccak256(bytes(_category)) == keccak256(bytes(\"creative\"))) {\n        Requests[_category][creativeRequests] = Request(_title, _description, creativeRequests, _amount, 0, 0, 0, msg.sender);\n        creativeRequests++;\n    } else if (keccak256(bytes(_category)) == keccak256(bytes(\"event\"))) {\n        Requests[_category][eventRequests] = Request(_title, _description, eventRequests, _amount, 0, 0, 0, msg.sender);\n        eventRequests++;\n    } else if (keccak256(bytes(_category)) == keccak256(bytes(\"religious\"))) {\n        Requests[_category][religiousRequests] = Request(_title, _description, religiousRequests, _amount, 0, 0, 0, msg.sender);\n        religiousRequests++;\n    } else if (keccak256(bytes(_category)) == keccak256(bytes(\"family\"))) {\n        Requests[_category][familyRequests] = Request(_title, _description, familyRequests, _amount, 0, 0, 0, msg.sender);\n        familyRequests++;\n    } else if (keccak256(bytes(_category)) == keccak256(bytes(\"sport\"))) {\n        Requests[_category][sportRequests] = Request(_title, _description, sportRequests, _amount, 0, 0, 0, msg.sender);\n        sportRequests++;\n    } else if (keccak256(bytes(_category)) == keccak256(bytes(\"travel\"))) {\n        Requests[_category][travelRequests] = Request(_title, _description, travelRequests, _amount, 0, 0, 0, msg.sender);\n        travelRequests++;\n    } else if (keccak256(bytes(_category)) == keccak256(bytes(\"volunteer\"))) {\n        Requests[_category][volunteerRequests] = Request(_title, _description, volunteerRequests, _amount, 0, 0, 0, msg.sender);\n        volunteerRequests++;\n    } else if (keccak256(bytes(_category)) == keccak256(bytes(\"wish\"))) {\n        Requests[_category][wishRequests] = Request(_title, _description, wishRequests, _amount, 0, 0, 0, msg.sender);\n        wishRequests++;\n    } else if (keccak256(bytes(_category)) == keccak256(bytes(\"individual\"))) {\n        Requests[_category][individualRequests] = Request(_title, _description, individualRequests, _amount, 0, 0, 0, msg.sender);\n        individualRequests++;\n    }\n  }\n\n  /* Name should also have a default value of Anonymous in the UI for those who\n    don't feel safe connecting names to addresses.\n  */\n  function addOrganzier (\n    string memory _name,\n    string memory _role,\n    string memory _category,\n    uint256 _requestId,\n    uint256 _totalOrganizers,\n    string[23] memory _addresses\n  ) public {\n    require(msg.sender == Requests[_category][_requestId].creator);\n    /* Not all addresses need to be assigned a value. In the UI any addresses not\n    assigned by default should be set to \"\" which would mean an empty string.\n    That will cause setting the mapping data to not fail. Role will also be set\n    through the UI  */\n    Organizers[_category][_requestId][_totalOrganizers] = Organizer(\n      _name, _role, _totalOrganizers, [_addresses[0], _addresses[1], _addresses[2],\n      _addresses[3], _addresses[4], _addresses[5], _addresses[6], _addresses[7],\n      _addresses[8], _addresses[9], _addresses[10], _addresses[11], _addresses[12],\n      _addresses[13], _addresses[14], _addresses[15], _addresses[16], _addresses[17],\n      _addresses[18], _addresses[19], _addresses[20], _addresses[21], _addresses[22]      ]\n    );\n    Requests[_category][_requestId].totalOrganizers++;\n  }\n\n  function editOrganzier (\n    string memory _role,\n    string memory _category,\n    uint256 _requestId,\n    uint256 _organizerId,\n    string[23] memory _addresses\n  ) public {\n    require(msg.sender == Requests[_category][_requestId].creator);\n    string memory _name = Organizers[_category][_requestId][_organizerId].name;\n    /* This method will cost extra gas and can be improved upon. This can be\n    solved by either taking in less addresses or another way. In it's current\n    form it will call the current data from the blockchain and input it into the\n    UI and once resubmitted you will paying that extra gas to rewrite the same\n    address again for those unchanged. The goal would be to save that extra gas\n    cost so only the address added/changed is what's sent back. */\n    Organizers[_category][_requestId][_organizerId] = Organizer(\n      _name, _role, _organizerId, [_addresses[0], _addresses[1], _addresses[2],\n      _addresses[3], _addresses[4], _addresses[5], _addresses[6], _addresses[7],\n      _addresses[8], _addresses[9], _addresses[10], _addresses[11], _addresses[12],\n      _addresses[13], _addresses[14], _addresses[15], _addresses[16], _addresses[17],\n      _addresses[18], _addresses[19], _addresses[20], _addresses[21], _addresses[22]\n      ]\n    );\n  }\n\n  /* Values come from blockchain calls. Title should also be immutable in case of\n  an account getting hacked or a scammer changing the name and description of a\n  request. Another alternative is to allow this to be changed but have the entire\n  list of Contributors wiped. */\n  function editRequest (\n    string memory _description,\n    string memory _category,\n    uint256 _id,\n    uint256 _amount\n  ) public {\n    require(msg.sender == Requests[_category][_id].creator);\n    string memory _title = Requests[_category][_id].title;\n    uint256 _totalOrganizers = Requests[_category][_id].totalOrganizers;\n    uint256 _totalContributors = Requests[_category][_id].totalContributors;\n    uint256 _score = Requests[_category][_id].score;\n    address _creator = Requests[_category][_id].creator;\n    /* Category doesn't need the string checked like createRequest because that\n    was just to */\n    Requests[_category][_id] = Request(_title, _description, _id, _amount, _totalOrganizers, _totalContributors, _score, _creator);\n  }\n\n  /* This feature may need to be disabled in UI in the future if it is used harmfully.\n  This feature can easily be exploited through multiple self made accounts or even\n  bot made to upvote scam requests to encourage people to donate to that request over\n  a potentially real one. Therefore this should not be used as a feature to sort\n  through requests and determine which is best to display first. */\n  function voteRequest (\n    string memory _category,\n    uint256 _requestId,\n    uint256 _score,\n    bool vote\n  ) public {\n    require(isVoted[_category][_requestId][msg.sender] == false);\n    string memory _title = Requests[_category][_requestId].title;\n    string memory _description = Requests[_category][_requestId].description;\n    uint256 _amount = Requests[_category][_requestId].amount;\n    uint256 _totalOrganizers = Requests[_category][_requestId].totalOrganizers;\n    uint256 _totalContributors = Requests[_category][_requestId].totalContributors;\n    address _creator = Requests[_category][_requestId].creator;\n    /* Downvoting can cause a large majority of people to downvote a real donation\n    request just bekcause it offends them or doesn't align with their views. This\n    should not be solely used as a way to sort requests in the UI for this reason,\n    hoever it should be kept in the system to alert people of something that may be\n    a faker request or a scammer. The other flaw with this system is that with the\n    low gas fees of hosting on a layer 2 protocol people can make many accounts and\n    send small balances to boost the upvotes on their request even if it is a scam.\n    Therefore this system may need to be disabled in the UI in the future if that is\n    the case. */\n\n    // bool = true then upvote else downvote\n    if (vote) {\n      _score++;\n    } else {\n      _score--;\n    }\n\n    Requests[_category][_requestId] = Request(_title, _description, _requestId, _amount, _totalOrganizers, _totalContributors, _score, _creator);\n  }\n\n  function addContributor(\n      string memory _category,\n      uint256 _requestId,\n      uint256 _totalContributors,\n      string memory _name,\n      uint256 _amountDonated,\n      string memory _contributorAddress\n  ) public {\n    // _name & _contributorAddress in UI should be allowed to be listed as anonymous\n    Contributors[_category][_requestId][_totalContributors] = Contributor(_amountDonated, _name, _contributorAddress, _totalContributors);\n    Requests[_category][_requestId].totalContributors++;\n  }\n}\n",
  "sourcePath": "/home/user/Documents/donation/src/contracts/Storage.sol",
  "compiler": {
    "name": "solc",
    "version": "0.8.12+commit.f00d7308.Emscripten.clang"
  },
  "schemaVersion": "3.4.1",
  "updatedAt": "2022-03-15T19:33:32.047Z",
  "devdoc": {
    "kind": "dev",
    "methods": {},
    "version": 1
  },
  "userdoc": {
    "kind": "user",
    "methods": {},
    "version": 1
  }
}