{
  "contractName": "Storage",
  "abi": [
    {
      "inputs": [
        {
          "internalType": "string",
          "name": "",
          "type": "string"
        },
        {
          "internalType": "uint256",
          "name": "",
          "type": "uint256"
        },
        {
          "internalType": "uint256",
          "name": "",
          "type": "uint256"
        }
      ],
      "name": "Contributors",
      "outputs": [
        {
          "internalType": "uint256",
          "name": "amountDonated",
          "type": "uint256"
        },
        {
          "internalType": "string",
          "name": "name",
          "type": "string"
        },
        {
          "internalType": "string",
          "name": "contributorAddress",
          "type": "string"
        },
        {
          "internalType": "uint256",
          "name": "id",
          "type": "uint256"
        }
      ],
      "stateMutability": "view",
      "type": "function"
    },
    {
      "inputs": [
        {
          "internalType": "string",
          "name": "",
          "type": "string"
        },
        {
          "internalType": "uint256",
          "name": "",
          "type": "uint256"
        },
        {
          "internalType": "uint256",
          "name": "",
          "type": "uint256"
        }
      ],
      "name": "Organizers",
      "outputs": [
        {
          "internalType": "string",
          "name": "name",
          "type": "string"
        },
        {
          "internalType": "string",
          "name": "role",
          "type": "string"
        },
        {
          "internalType": "uint256",
          "name": "id",
          "type": "uint256"
        }
      ],
      "stateMutability": "view",
      "type": "function"
    },
    {
      "inputs": [
        {
          "internalType": "string",
          "name": "",
          "type": "string"
        },
        {
          "internalType": "uint256",
          "name": "",
          "type": "uint256"
        },
        {
          "internalType": "uint256",
          "name": "",
          "type": "uint256"
        }
      ],
      "name": "Posts",
      "outputs": [
        {
          "internalType": "string",
          "name": "title",
          "type": "string"
        },
        {
          "internalType": "string",
          "name": "description",
          "type": "string"
        },
        {
          "internalType": "string",
          "name": "date",
          "type": "string"
        }
      ],
      "stateMutability": "view",
      "type": "function"
    },
    {
      "inputs": [
        {
          "internalType": "string",
          "name": "",
          "type": "string"
        },
        {
          "internalType": "uint256",
          "name": "",
          "type": "uint256"
        }
      ],
      "name": "Requests",
      "outputs": [
        {
          "internalType": "string",
          "name": "title",
          "type": "string"
        },
        {
          "internalType": "string",
          "name": "description",
          "type": "string"
        },
        {
          "internalType": "uint256",
          "name": "id",
          "type": "uint256"
        },
        {
          "internalType": "uint256",
          "name": "amount",
          "type": "uint256"
        },
        {
          "internalType": "uint256",
          "name": "totalOrganizers",
          "type": "uint256"
        },
        {
          "internalType": "uint256",
          "name": "totalContributors",
          "type": "uint256"
        },
        {
          "internalType": "uint256",
          "name": "score",
          "type": "uint256"
        },
        {
          "internalType": "address",
          "name": "creator",
          "type": "address"
        },
        {
          "internalType": "uint256",
          "name": "totalPosts",
          "type": "uint256"
        }
      ],
      "stateMutability": "view",
      "type": "function"
    },
    {
      "inputs": [],
      "name": "animalRequests",
      "outputs": [
        {
          "internalType": "uint256",
          "name": "",
          "type": "uint256"
        }
      ],
      "stateMutability": "view",
      "type": "function"
    },
    {
      "inputs": [],
      "name": "businessRequests",
      "outputs": [
        {
          "internalType": "uint256",
          "name": "",
          "type": "uint256"
        }
      ],
      "stateMutability": "view",
      "type": "function"
    },
    {
      "inputs": [],
      "name": "communityRequests",
      "outputs": [
        {
          "internalType": "uint256",
          "name": "",
          "type": "uint256"
        }
      ],
      "stateMutability": "view",
      "type": "function"
    },
    {
      "inputs": [],
      "name": "competitionRequests",
      "outputs": [
        {
          "internalType": "uint256",
          "name": "",
          "type": "uint256"
        }
      ],
      "stateMutability": "view",
      "type": "function"
    },
    {
      "inputs": [],
      "name": "creativeRequests",
      "outputs": [
        {
          "internalType": "uint256",
          "name": "",
          "type": "uint256"
        }
      ],
      "stateMutability": "view",
      "type": "function"
    },
    {
      "inputs": [],
      "name": "educationRequests",
      "outputs": [
        {
          "internalType": "uint256",
          "name": "",
          "type": "uint256"
        }
      ],
      "stateMutability": "view",
      "type": "function"
    },
    {
      "inputs": [],
      "name": "emergencyRequests",
      "outputs": [
        {
          "internalType": "uint256",
          "name": "",
          "type": "uint256"
        }
      ],
      "stateMutability": "view",
      "type": "function"
    },
    {
      "inputs": [],
      "name": "environmentRequests",
      "outputs": [
        {
          "internalType": "uint256",
          "name": "",
          "type": "uint256"
        }
      ],
      "stateMutability": "view",
      "type": "function"
    },
    {
      "inputs": [],
      "name": "eventRequests",
      "outputs": [
        {
          "internalType": "uint256",
          "name": "",
          "type": "uint256"
        }
      ],
      "stateMutability": "view",
      "type": "function"
    },
    {
      "inputs": [],
      "name": "familyRequests",
      "outputs": [
        {
          "internalType": "uint256",
          "name": "",
          "type": "uint256"
        }
      ],
      "stateMutability": "view",
      "type": "function"
    },
    {
      "inputs": [],
      "name": "individualRequests",
      "outputs": [
        {
          "internalType": "uint256",
          "name": "",
          "type": "uint256"
        }
      ],
      "stateMutability": "view",
      "type": "function"
    },
    {
      "inputs": [
        {
          "internalType": "string",
          "name": "",
          "type": "string"
        },
        {
          "internalType": "uint256",
          "name": "",
          "type": "uint256"
        },
        {
          "internalType": "address",
          "name": "",
          "type": "address"
        }
      ],
      "name": "isVoted",
      "outputs": [
        {
          "internalType": "bool",
          "name": "",
          "type": "bool"
        }
      ],
      "stateMutability": "view",
      "type": "function"
    },
    {
      "inputs": [],
      "name": "medicalRequests",
      "outputs": [
        {
          "internalType": "uint256",
          "name": "",
          "type": "uint256"
        }
      ],
      "stateMutability": "view",
      "type": "function"
    },
    {
      "inputs": [],
      "name": "memorialRequests",
      "outputs": [
        {
          "internalType": "uint256",
          "name": "",
          "type": "uint256"
        }
      ],
      "stateMutability": "view",
      "type": "function"
    },
    {
      "inputs": [],
      "name": "nonprofitRequests",
      "outputs": [
        {
          "internalType": "uint256",
          "name": "",
          "type": "uint256"
        }
      ],
      "stateMutability": "view",
      "type": "function"
    },
    {
      "inputs": [],
      "name": "religiousRequests",
      "outputs": [
        {
          "internalType": "uint256",
          "name": "",
          "type": "uint256"
        }
      ],
      "stateMutability": "view",
      "type": "function"
    },
    {
      "inputs": [],
      "name": "sportRequests",
      "outputs": [
        {
          "internalType": "uint256",
          "name": "",
          "type": "uint256"
        }
      ],
      "stateMutability": "view",
      "type": "function"
    },
    {
      "inputs": [],
      "name": "travelRequests",
      "outputs": [
        {
          "internalType": "uint256",
          "name": "",
          "type": "uint256"
        }
      ],
      "stateMutability": "view",
      "type": "function"
    },
    {
      "inputs": [],
      "name": "volunteerRequests",
      "outputs": [
        {
          "internalType": "uint256",
          "name": "",
          "type": "uint256"
        }
      ],
      "stateMutability": "view",
      "type": "function"
    },
    {
      "inputs": [],
      "name": "wishRequests",
      "outputs": [
        {
          "internalType": "uint256",
          "name": "",
          "type": "uint256"
        }
      ],
      "stateMutability": "view",
      "type": "function"
    },
    {
      "inputs": [
        {
          "internalType": "string",
          "name": "_category",
          "type": "string"
        },
        {
          "internalType": "uint256",
          "name": "_requestId",
          "type": "uint256"
        },
        {
          "internalType": "uint256",
          "name": "_organizerId",
          "type": "uint256"
        }
      ],
      "name": "getOrganizer",
      "outputs": [
        {
          "components": [
            {
              "internalType": "string",
              "name": "name",
              "type": "string"
            },
            {
              "internalType": "string",
              "name": "role",
              "type": "string"
            },
            {
              "internalType": "uint256",
              "name": "id",
              "type": "uint256"
            },
            {
              "internalType": "string[23]",
              "name": "addresses",
              "type": "string[23]"
            }
          ],
          "internalType": "struct Storage.Organizer",
          "name": "",
          "type": "tuple"
        }
      ],
      "stateMutability": "view",
      "type": "function"
    },
    {
      "inputs": [
        {
          "internalType": "string",
          "name": "_title",
          "type": "string"
        },
        {
          "internalType": "string",
          "name": "_description",
          "type": "string"
        },
        {
          "internalType": "string",
          "name": "_category",
          "type": "string"
        },
        {
          "internalType": "uint256",
          "name": "_amount",
          "type": "uint256"
        }
      ],
      "name": "createRequest",
      "outputs": [],
      "stateMutability": "nonpayable",
      "type": "function"
    },
    {
      "inputs": [
        {
          "internalType": "string",
          "name": "_name",
          "type": "string"
        },
        {
          "internalType": "string",
          "name": "_role",
          "type": "string"
        },
        {
          "internalType": "string",
          "name": "_category",
          "type": "string"
        },
        {
          "internalType": "uint256",
          "name": "_requestId",
          "type": "uint256"
        },
        {
          "internalType": "uint256",
          "name": "_totalOrganizers",
          "type": "uint256"
        },
        {
          "internalType": "string[23]",
          "name": "_addresses",
          "type": "string[23]"
        }
      ],
      "name": "addOrganzier",
      "outputs": [],
      "stateMutability": "nonpayable",
      "type": "function"
    },
    {
      "inputs": [
        {
          "internalType": "string",
          "name": "_role",
          "type": "string"
        },
        {
          "internalType": "string",
          "name": "_category",
          "type": "string"
        },
        {
          "internalType": "uint256",
          "name": "_requestId",
          "type": "uint256"
        },
        {
          "internalType": "uint256",
          "name": "_organizerId",
          "type": "uint256"
        },
        {
          "internalType": "string[23]",
          "name": "_addresses",
          "type": "string[23]"
        }
      ],
      "name": "editOrganizer",
      "outputs": [],
      "stateMutability": "nonpayable",
      "type": "function"
    },
    {
      "inputs": [
        {
          "internalType": "string",
          "name": "_description",
          "type": "string"
        },
        {
          "internalType": "string",
          "name": "_category",
          "type": "string"
        },
        {
          "internalType": "uint256",
          "name": "_requestId",
          "type": "uint256"
        },
        {
          "internalType": "uint256",
          "name": "_amount",
          "type": "uint256"
        }
      ],
      "name": "editRequest",
      "outputs": [],
      "stateMutability": "nonpayable",
      "type": "function"
    },
    {
      "inputs": [
        {
          "internalType": "string",
          "name": "_category",
          "type": "string"
        },
        {
          "internalType": "uint256",
          "name": "_requestId",
          "type": "uint256"
        },
        {
          "internalType": "bool",
          "name": "_vote",
          "type": "bool"
        }
      ],
      "name": "voteRequest",
      "outputs": [],
      "stateMutability": "nonpayable",
      "type": "function"
    },
    {
      "inputs": [
        {
          "internalType": "string",
          "name": "_category",
          "type": "string"
        },
        {
          "internalType": "uint256",
          "name": "_requestId",
          "type": "uint256"
        },
        {
          "internalType": "string",
          "name": "_name",
          "type": "string"
        },
        {
          "internalType": "uint256",
          "name": "_amountDonated",
          "type": "uint256"
        },
        {
          "internalType": "string",
          "name": "_contributorAddress",
          "type": "string"
        }
      ],
      "name": "addContributor",
      "outputs": [],
      "stateMutability": "nonpayable",
      "type": "function"
    },
    {
      "inputs": [
        {
          "internalType": "string",
          "name": "_category",
          "type": "string"
        },
        {
          "internalType": "uint256",
          "name": "_requestId",
          "type": "uint256"
        },
        {
          "internalType": "uint256",
          "name": "_totalPosts",
          "type": "uint256"
        },
        {
          "internalType": "string",
          "name": "_title",
          "type": "string"
        },
        {
          "internalType": "string",
          "name": "_description",
          "type": "string"
        },
        {
          "internalType": "string",
          "name": "_date",
          "type": "string"
        }
      ],
      "name": "addPost",
      "outputs": [],
      "stateMutability": "nonpayable",
      "type": "function"
    }
  ],
  "bytecode": "0x608060405234801561001057600080fd5b5061566880620000216000396000f3fe608060405234801561001057600080fd5b50600436106101f05760003560e01c806368d2ff741161010f578063b0366f3f116100a2578063e505c5f811610071578063e505c5f8146105ae578063e9e61c5d146105ca578063f82f7bdd146105e8578063fddbe15614610604576101f0565b8063b0366f3f14610512578063c5dbf1fe14610530578063c6ac9f5d14610562578063d01c680f14610592576101f0565b80638f2f3f67116100de5780638f2f3f671461049c5780638fb0bd91146104b85780639420d6a1146104d65780639ef2179c146104f4576101f0565b806368d2ff74146104105780636edc8e4d1461042e5780638a9d8d251461044c5780638efad2e11461046a576101f0565b80632c89f36111610187578063421cca9511610156578063421cca951461038057806343e5bbdf1461039e578063563a8603146103bc5780635c983bee146103d8576101f0565b80632c89f361146102f65780632d7e140f14610314578063316d524a146103325780633456601f14610362576101f0565b806319c25905116101c357806319c259051461026b578063215adc511461028757806327f62583146102a55780632b9f3f04146102c3576101f0565b806301b57d95146101f55780630a9de09c1461021357806313907f8c1461023157806313bd4a941461024f575b600080fd5b6101fd610622565b60405161020a9190614728565b60405180910390f35b61021b610628565b6040516102289190614728565b60405180910390f35b61023961062e565b6040516102469190614728565b60405180910390f35b6102696004803603810190610264919061499d565b610634565b005b61028560048036038101906102809190614a9a565b610a89565b005b61028f610e57565b60405161029c9190614728565b60405180910390f35b6102ad610e5d565b6040516102ba9190614728565b60405180910390f35b6102dd60048036038101906102d89190614b39565b610e63565b6040516102ed9493929190614c30565b60405180910390f35b6102fe610fd3565b60405161030b9190614728565b60405180910390f35b61031c610fd9565b6040516103299190614728565b60405180910390f35b61034c60048036038101906103479190614b39565b610fdf565b6040516103599190614e03565b60405180910390f35b61036a611230565b6040516103779190614728565b60405180910390f35b610388611236565b6040516103959190614728565b60405180910390f35b6103a661123c565b6040516103b39190614728565b60405180910390f35b6103d660048036038101906103d19190614e5d565b611242565b005b6103f260048036038101906103ed9190614ecc565b6117b4565b60405161040799989796959493929190614f69565b60405180910390f35b610418611955565b6040516104259190614728565b60405180910390f35b61043661195b565b6040516104439190614728565b60405180910390f35b610454611961565b6040516104619190614728565b60405180910390f35b610484600480360381019061047f9190614b39565b611967565b60405161049393929190615004565b60405180910390f35b6104b660048036038101906104b19190615050565b611b59565b005b6104c0612036565b6040516104cd9190614728565b60405180910390f35b6104de61203c565b6040516104eb9190614728565b60405180910390f35b6104fc612042565b6040516105099190614728565b60405180910390f35b61051a612048565b6040516105279190614728565b60405180910390f35b61054a60048036038101906105459190614b39565b61204e565b6040516105599392919061511f565b60405180910390f35b61057c60048036038101906105779190615190565b6121b8565b604051610589919061520e565b60405180910390f35b6105ac60048036038101906105a79190615229565b61220a565b005b6105c860048036038101906105c39190615326565b612399565b005b6105d26124d2565b6040516105df9190614728565b60405180910390f35b61060260048036038101906105fd91906153f5565b6124d8565b005b61060c614559565b6040516106199190614728565b60405180910390f35b60105481565b60035481565b60055481565b60138460405161064491906154ec565b9081526020016040518091039020600084815260200190815260200160002060070160009054906101000a900473ffffffffffffffffffffffffffffffffffffffff1673ffffffffffffffffffffffffffffffffffffffff163373ffffffffffffffffffffffffffffffffffffffff16146106be57600080fd5b6040518060800160405280878152602001868152602001838152602001604051806102e00160405280846000601781106106fb576106fa615503565b5b602002015181526020018460016017811061071957610718615503565b5b602002015181526020018460026017811061073757610736615503565b5b602002015181526020018460036017811061075557610754615503565b5b602002015181526020018460046017811061077357610772615503565b5b602002015181526020018460056017811061079157610790615503565b5b60200201518152602001846006601781106107af576107ae615503565b5b60200201518152602001846007601781106107cd576107cc615503565b5b60200201518152602001846008601781106107eb576107ea615503565b5b602002015181526020018460096017811061080957610808615503565b5b6020020151815260200184600a6017811061082757610826615503565b5b6020020151815260200184600b6017811061084557610844615503565b5b6020020151815260200184600c6017811061086357610862615503565b5b6020020151815260200184600d6017811061088157610880615503565b5b6020020151815260200184600e6017811061089f5761089e615503565b5b6020020151815260200184600f601781106108bd576108bc615503565b5b60200201518152602001846010601781106108db576108da615503565b5b60200201518152602001846011601781106108f9576108f8615503565b5b602002015181526020018460126017811061091757610916615503565b5b602002015181526020018460136017811061093557610934615503565b5b602002015181526020018460146017811061095357610952615503565b5b602002015181526020018460156017811061097157610970615503565b5b602002015181526020018460166017811061098f5761098e615503565b5b60200201518152508152506015856040516109aa91906154ec565b90815260200160405180910390206000858152602001908152602001600020600084815260200190815260200160002060008201518160000190805190602001906109f692919061455f565b506020820151816001019080519060200190610a1392919061455f565b5060408201518160020155606082015181600301906017610a359291906145e5565b50905050601384604051610a4991906154ec565b908152602001604051809103902060008481526020019081526020016000206004016000815480929190610a7c90615561565b9190505550505050505050565b601383604051610a9991906154ec565b9081526020016040518091039020600083815260200190815260200160002060070160009054906101000a900473ffffffffffffffffffffffffffffffffffffffff1673ffffffffffffffffffffffffffffffffffffffff163373ffffffffffffffffffffffffffffffffffffffff1614610b1357600080fd5b6000601384604051610b2591906154ec565b908152602001604051809103902060008481526020019081526020016000206000018054610b52906155d8565b80601f0160208091040260200160405190810160405280929190818152602001828054610b7e906155d8565b8015610bcb5780601f10610ba057610100808354040283529160200191610bcb565b820191906000526020600020905b815481529060010190602001808311610bae57829003601f168201915b505050505090506000601385604051610be491906154ec565b908152602001604051809103902060008581526020019081526020016000206004015490506000601386604051610c1b91906154ec565b908152602001604051809103902060008681526020019081526020016000206005015490506000601387604051610c5291906154ec565b908152602001604051809103902060008781526020019081526020016000206006015490506000601388604051610c8991906154ec565b9081526020016040518091039020600088815260200190815260200160002060070160009054906101000a900473ffffffffffffffffffffffffffffffffffffffff1690506000601389604051610ce091906154ec565b908152602001604051809103902060008981526020019081526020016000206008015490506040518061012001604052808781526020018b81526020018981526020018881526020018681526020018581526020018481526020018373ffffffffffffffffffffffffffffffffffffffff1681526020018281525060138a604051610d6b91906154ec565b908152602001604051809103902060008a81526020019081526020016000206000820151816000019080519060200190610da692919061455f565b506020820151816001019080519060200190610dc392919061455f565b5060408201518160020155606082015181600301556080820151816004015560a0820151816005015560c0820151816006015560e08201518160070160006101000a81548173ffffffffffffffffffffffffffffffffffffffff021916908373ffffffffffffffffffffffffffffffffffffffff160217905550610100820151816008015590505050505050505050505050565b60005481565b600f5481565b6014838051602081018201805184825260208301602085012081835280955050505050506020528160005260406000206020528060005260406000206000925092505050806000015490806001018054610ebc906155d8565b80601f0160208091040260200160405190810160405280929190818152602001828054610ee8906155d8565b8015610f355780601f10610f0a57610100808354040283529160200191610f35565b820191906000526020600020905b815481529060010190602001808311610f1857829003601f168201915b505050505090806002018054610f4a906155d8565b80601f0160208091040260200160405190810160405280929190818152602001828054610f76906155d8565b8015610fc35780601f10610f9857610100808354040283529160200191610fc3565b820191906000526020600020905b815481529060010190602001808311610fa657829003601f168201915b5050505050908060030154905084565b600a5481565b600c5481565b610fe7614638565b601584604051610ff791906154ec565b908152602001604051809103902060008481526020019081526020016000206000838152602001908152602001600020604051806080016040529081600082018054611042906155d8565b80601f016020809104026020016040519081016040528092919081815260200182805461106e906155d8565b80156110bb5780601f10611090576101008083540402835291602001916110bb565b820191906000526020600020905b81548152906001019060200180831161109e57829003601f168201915b505050505081526020016001820180546110d4906155d8565b80601f0160208091040260200160405190810160405280929190818152602001828054611100906155d8565b801561114d5780601f106111225761010080835404028352916020019161114d565b820191906000526020600020905b81548152906001019060200180831161113057829003601f168201915b505050505081526020016002820154815260200160038201601780602002604051908101604052809291906000905b8282101561121f578382018054611192906155d8565b80601f01602080910402602001604051908101604052809291908181526020018280546111be906155d8565b801561120b5780601f106111e05761010080835404028352916020019161120b565b820191906000526020600020905b8154815290600101906020018083116111ee57829003601f168201915b50505050508152602001906001019061117c565b505050508152505090509392505050565b600d5481565b60045481565b60085481565b6000151560168460405161125691906154ec565b9081526020016040518091039020600084815260200190815260200160002060003373ffffffffffffffffffffffffffffffffffffffff1673ffffffffffffffffffffffffffffffffffffffff16815260200190815260200160002060009054906101000a900460ff161515146112cc57600080fd5b60006013846040516112de91906154ec565b90815260200160405180910390206000848152602001908152602001600020600001805461130b906155d8565b80601f0160208091040260200160405190810160405280929190818152602001828054611337906155d8565b80156113845780601f1061135957610100808354040283529160200191611384565b820191906000526020600020905b81548152906001019060200180831161136757829003601f168201915b50505050509050600060138560405161139d91906154ec565b9081526020016040518091039020600085815260200190815260200160002060010180546113ca906155d8565b80601f01602080910402602001604051908101604052809291908181526020018280546113f6906155d8565b80156114435780601f1061141857610100808354040283529160200191611443565b820191906000526020600020905b81548152906001019060200180831161142657829003601f168201915b50505050509050600060138660405161145c91906154ec565b90815260200160405180910390206000868152602001908152602001600020600301549050600060138760405161149391906154ec565b9081526020016040518091039020600087815260200190815260200160002060040154905060006013886040516114ca91906154ec565b90815260200160405180910390206000888152602001908152602001600020600501549050600060138960405161150191906154ec565b9081526020016040518091039020600089815260200190815260200160002060070160009054906101000a900473ffffffffffffffffffffffffffffffffffffffff169050600060138a60405161155891906154ec565b908152602001604051809103902060008a8152602001908152602001600020600801549050600060138b60405161158f91906154ec565b908152602001604051809103902060008b815260200190815260200160002060060154905088156115cd5780806115c590615561565b9150506115dc565b80806115d890615609565b9150505b600160168c6040516115ee91906154ec565b908152602001604051809103902060008c815260200190815260200160002060003373ffffffffffffffffffffffffffffffffffffffff1673ffffffffffffffffffffffffffffffffffffffff16815260200190815260200160002060006101000a81548160ff0219169083151502179055506040518061012001604052808981526020018881526020018b81526020018781526020018681526020018581526020018281526020018473ffffffffffffffffffffffffffffffffffffffff1681526020018381525060138c6040516116c791906154ec565b908152602001604051809103902060008c8152602001908152602001600020600082015181600001908051906020019061170292919061455f565b50602082015181600101908051906020019061171f92919061455f565b5060408201518160020155606082015181600301556080820151816004015560a0820151816005015560c0820151816006015560e08201518160070160006101000a81548173ffffffffffffffffffffffffffffffffffffffff021916908373ffffffffffffffffffffffffffffffffffffffff16021790555061010082015181600801559050505050505050505050505050565b601382805160208101820180518482526020830160208501208183528095505050505050602052806000526040600020600091509150508060000180546117fa906155d8565b80601f0160208091040260200160405190810160405280929190818152602001828054611826906155d8565b80156118735780601f1061184857610100808354040283529160200191611873565b820191906000526020600020905b81548152906001019060200180831161185657829003601f168201915b505050505090806001018054611888906155d8565b80601f01602080910402602001604051908101604052809291908181526020018280546118b4906155d8565b80156119015780601f106118d657610100808354040283529160200191611901565b820191906000526020600020905b8154815290600101906020018083116118e457829003601f168201915b5050505050908060020154908060030154908060040154908060050154908060060154908060070160009054906101000a900473ffffffffffffffffffffffffffffffffffffffff16908060080154905089565b600e5481565b60115481565b60015481565b60178380516020810182018051848252602083016020850120818352809550505050505060205281600052604060002060205280600052604060002060009250925050508060000180546119ba906155d8565b80601f01602080910402602001604051908101604052809291908181526020018280546119e6906155d8565b8015611a335780601f10611a0857610100808354040283529160200191611a33565b820191906000526020600020905b815481529060010190602001808311611a1657829003601f168201915b505050505090806001018054611a48906155d8565b80601f0160208091040260200160405190810160405280929190818152602001828054611a74906155d8565b8015611ac15780601f10611a9657610100808354040283529160200191611ac1565b820191906000526020600020905b815481529060010190602001808311611aa457829003601f168201915b505050505090806002018054611ad6906155d8565b80601f0160208091040260200160405190810160405280929190818152602001828054611b02906155d8565b8015611b4f5780601f10611b2457610100808354040283529160200191611b4f565b820191906000526020600020905b815481529060010190602001808311611b3257829003601f168201915b5050505050905083565b601384604051611b6991906154ec565b9081526020016040518091039020600084815260200190815260200160002060070160009054906101000a900473ffffffffffffffffffffffffffffffffffffffff1673ffffffffffffffffffffffffffffffffffffffff163373ffffffffffffffffffffffffffffffffffffffff1614611be357600080fd5b6000601585604051611bf591906154ec565b9081526020016040518091039020600085815260200190815260200160002060008481526020019081526020016000206000018054611c33906155d8565b80601f0160208091040260200160405190810160405280929190818152602001828054611c5f906155d8565b8015611cac5780601f10611c8157610100808354040283529160200191611cac565b820191906000526020600020905b815481529060010190602001808311611c8f57829003601f168201915b505050505090506040518060800160405280828152602001878152602001848152602001604051806102e0016040528085600060178110611cf057611cef615503565b5b6020020151815260200185600160178110611d0e57611d0d615503565b5b6020020151815260200185600260178110611d2c57611d2b615503565b5b6020020151815260200185600360178110611d4a57611d49615503565b5b6020020151815260200185600460178110611d6857611d67615503565b5b6020020151815260200185600560178110611d8657611d85615503565b5b6020020151815260200185600660178110611da457611da3615503565b5b6020020151815260200185600760178110611dc257611dc1615503565b5b6020020151815260200185600860178110611de057611ddf615503565b5b6020020151815260200185600960178110611dfe57611dfd615503565b5b6020020151815260200185600a60178110611e1c57611e1b615503565b5b6020020151815260200185600b60178110611e3a57611e39615503565b5b6020020151815260200185600c60178110611e5857611e57615503565b5b6020020151815260200185600d60178110611e7657611e75615503565b5b6020020151815260200185600e60178110611e9457611e93615503565b5b6020020151815260200185600f60178110611eb257611eb1615503565b5b6020020151815260200185601060178110611ed057611ecf615503565b5b6020020151815260200185601160178110611eee57611eed615503565b5b6020020151815260200185601260178110611f0c57611f0b615503565b5b6020020151815260200185601360178110611f2a57611f29615503565b5b6020020151815260200185601460178110611f4857611f47615503565b5b6020020151815260200185601560178110611f6657611f65615503565b5b6020020151815260200185601660178110611f8457611f83615503565b5b6020020151815250815250601586604051611f9f91906154ec565b9081526020016040518091039020600086815260200190815260200160002060008581526020019081526020016000206000820151816000019080519060200190611feb92919061455f565b50602082015181600101908051906020019061200892919061455f565b506040820151816002015560608201518160030190601761202a9291906145e5565b50905050505050505050565b60065481565b60075481565b600b5481565b60025481565b60158380516020810182018051848252602083016020850120818352809550505050505060205281600052604060002060205280600052604060002060009250925050508060000180546120a1906155d8565b80601f01602080910402602001604051908101604052809291908181526020018280546120cd906155d8565b801561211a5780601f106120ef5761010080835404028352916020019161211a565b820191906000526020600020905b8154815290600101906020018083116120fd57829003601f168201915b50505050509080600101805461212f906155d8565b80601f016020809104026020016040519081016040528092919081815260200182805461215b906155d8565b80156121a85780601f1061217d576101008083540402835291602001916121a8565b820191906000526020600020905b81548152906001019060200180831161218b57829003601f168201915b5050505050908060020154905083565b601683805160208101820180518482526020830160208501208183528095505050505050602052816000526040600020602052806000526040600020600092509250509054906101000a900460ff1681565b60138660405161221a91906154ec565b9081526020016040518091039020600086815260200190815260200160002060070160009054906101000a900473ffffffffffffffffffffffffffffffffffffffff1673ffffffffffffffffffffffffffffffffffffffff163373ffffffffffffffffffffffffffffffffffffffff161461229457600080fd5b6040518060600160405280848152602001838152602001828152506017876040516122bf91906154ec565b908152602001604051809103902060008781526020019081526020016000206000868152602001908152602001600020600082015181600001908051906020019061230b92919061455f565b50602082015181600101908051906020019061232892919061455f565b50604082015181600201908051906020019061234592919061455f565b5090505060138660405161235991906154ec565b90815260200160405180910390206000868152602001908152602001600020600801600081548092919061238c90615561565b9190505550505050505050565b60006013866040516123ab91906154ec565b9081526020016040518091039020600086815260200190815260200160002060050154905060405180608001604052808481526020018581526020018381526020018281525060148760405161240191906154ec565b90815260200160405180910390206000878152602001908152602001600020600083815260200190815260200160002060008201518160000155602082015181600101908051906020019061245792919061455f565b50604082015181600201908051906020019061247492919061455f565b506060820151816003015590505060138660405161249291906154ec565b9081526020016040518091039020600086815260200190815260200160002060050160008154809291906124c590615561565b9190505550505050505050565b60125481565b6040518060400160405280600781526020017f6d65646963616c000000000000000000000000000000000000000000000000008152508051906020012082805190602001200361268b5760405180610120016040528085815260200184815260200160005481526020018281526020016000815260200160008152602001600081526020013373ffffffffffffffffffffffffffffffffffffffff168152602001600081525060138360405161258e91906154ec565b908152602001604051809103902060008054815260200190815260200160002060008201518160000190805190602001906125ca92919061455f565b5060208201518160010190805190602001906125e792919061455f565b5060408201518160020155606082015181600301556080820151816004015560a0820151816005015560c0820151816006015560e08201518160070160006101000a81548173ffffffffffffffffffffffffffffffffffffffff021916908373ffffffffffffffffffffffffffffffffffffffff160217905550610100820151816008015590505060008081548092919061268190615561565b9190505550614553565b6040518060400160405280600881526020017f6d656d6f7269616c000000000000000000000000000000000000000000000000815250805190602001208280519060200120036128405760405180610120016040528085815260200184815260200160015481526020018281526020016000815260200160008152602001600081526020013373ffffffffffffffffffffffffffffffffffffffff168152602001600081525060138360405161274191906154ec565b908152602001604051809103902060006001548152602001908152602001600020600082015181600001908051906020019061277e92919061455f565b50602082015181600101908051906020019061279b92919061455f565b5060408201518160020155606082015181600301556080820151816004015560a0820151816005015560c0820151816006015560e08201518160070160006101000a81548173ffffffffffffffffffffffffffffffffffffffff021916908373ffffffffffffffffffffffffffffffffffffffff16021790555061010082015181600801559050506001600081548092919061283690615561565b9190505550614552565b6040518060400160405280600981526020017f656d657267656e63790000000000000000000000000000000000000000000000815250805190602001208280519060200120036129f55760405180610120016040528085815260200184815260200160025481526020018281526020016000815260200160008152602001600081526020013373ffffffffffffffffffffffffffffffffffffffff16815260200160008152506013836040516128f691906154ec565b908152602001604051809103902060006002548152602001908152602001600020600082015181600001908051906020019061293392919061455f565b50602082015181600101908051906020019061295092919061455f565b5060408201518160020155606082015181600301556080820151816004015560a0820151816005015560c0820151816006015560e08201518160070160006101000a81548173ffffffffffffffffffffffffffffffffffffffff021916908373ffffffffffffffffffffffffffffffffffffffff1602179055506101008201518160080155905050600260008154809291906129eb90615561565b9190505550614551565b6040518060400160405280600981526020017f6e6f6e70726f666974000000000000000000000000000000000000000000000081525080519060200120828051906020012003612baa5760405180610120016040528085815260200184815260200160035481526020018281526020016000815260200160008152602001600081526020013373ffffffffffffffffffffffffffffffffffffffff1681526020016000815250601383604051612aab91906154ec565b9081526020016040518091039020600060035481526020019081526020016000206000820151816000019080519060200190612ae892919061455f565b506020820151816001019080519060200190612b0592919061455f565b5060408201518160020155606082015181600301556080820151816004015560a0820151816005015560c0820151816006015560e08201518160070160006101000a81548173ffffffffffffffffffffffffffffffffffffffff021916908373ffffffffffffffffffffffffffffffffffffffff160217905550610100820151816008015590505060036000815480929190612ba090615561565b9190505550614550565b6040518060400160405280600981526020017f656475636174696f6e000000000000000000000000000000000000000000000081525080519060200120828051906020012003612d5f5760405180610120016040528085815260200184815260200160045481526020018281526020016000815260200160008152602001600081526020013373ffffffffffffffffffffffffffffffffffffffff1681526020016000815250601383604051612c6091906154ec565b9081526020016040518091039020600060045481526020019081526020016000206000820151816000019080519060200190612c9d92919061455f565b506020820151816001019080519060200190612cba92919061455f565b5060408201518160020155606082015181600301556080820151816004015560a0820151816005015560c0820151816006015560e08201518160070160006101000a81548173ffffffffffffffffffffffffffffffffffffffff021916908373ffffffffffffffffffffffffffffffffffffffff160217905550610100820151816008015590505060046000815480929190612d5590615561565b919050555061454f565b6040518060400160405280600681526020017f616e696d616c000000000000000000000000000000000000000000000000000081525080519060200120828051906020012003612f145760405180610120016040528085815260200184815260200160055481526020018281526020016000815260200160008152602001600081526020013373ffffffffffffffffffffffffffffffffffffffff1681526020016000815250601383604051612e1591906154ec565b9081526020016040518091039020600060055481526020019081526020016000206000820151816000019080519060200190612e5292919061455f565b506020820151816001019080519060200190612e6f92919061455f565b5060408201518160020155606082015181600301556080820151816004015560a0820151816005015560c0820151816006015560e08201518160070160006101000a81548173ffffffffffffffffffffffffffffffffffffffff021916908373ffffffffffffffffffffffffffffffffffffffff160217905550610100820151816008015590505060056000815480929190612f0a90615561565b919050555061454e565b6040518060400160405280600b81526020017f656e7669726f6e6d656e74000000000000000000000000000000000000000000815250805190602001208280519060200120036130c95760405180610120016040528085815260200184815260200160065481526020018281526020016000815260200160008152602001600081526020013373ffffffffffffffffffffffffffffffffffffffff1681526020016000815250601383604051612fca91906154ec565b908152602001604051809103902060006006548152602001908152602001600020600082015181600001908051906020019061300792919061455f565b50602082015181600101908051906020019061302492919061455f565b5060408201518160020155606082015181600301556080820151816004015560a0820151816005015560c0820151816006015560e08201518160070160006101000a81548173ffffffffffffffffffffffffffffffffffffffff021916908373ffffffffffffffffffffffffffffffffffffffff1602179055506101008201518160080155905050600660008154809291906130bf90615561565b919050555061454d565b6040518060400160405280600881526020017f627573696e6573730000000000000000000000000000000000000000000000008152508051906020012082805190602001200361327e5760405180610120016040528085815260200184815260200160075481526020018281526020016000815260200160008152602001600081526020013373ffffffffffffffffffffffffffffffffffffffff168152602001600081525060138360405161317f91906154ec565b90815260200160405180910390206000600754815260200190815260200160002060008201518160000190805190602001906131bc92919061455f565b5060208201518160010190805190602001906131d992919061455f565b5060408201518160020155606082015181600301556080820151816004015560a0820151816005015560c0820151816006015560e08201518160070160006101000a81548173ffffffffffffffffffffffffffffffffffffffff021916908373ffffffffffffffffffffffffffffffffffffffff16021790555061010082015181600801559050506007600081548092919061327490615561565b919050555061454c565b6040518060400160405280600981526020017f636f6d6d756e6974790000000000000000000000000000000000000000000000815250805190602001208280519060200120036134335760405180610120016040528085815260200184815260200160085481526020018281526020016000815260200160008152602001600081526020013373ffffffffffffffffffffffffffffffffffffffff168152602001600081525060138360405161333491906154ec565b908152602001604051809103902060006008548152602001908152602001600020600082015181600001908051906020019061337192919061455f565b50602082015181600101908051906020019061338e92919061455f565b5060408201518160020155606082015181600301556080820151816004015560a0820151816005015560c0820151816006015560e08201518160070160006101000a81548173ffffffffffffffffffffffffffffffffffffffff021916908373ffffffffffffffffffffffffffffffffffffffff16021790555061010082015181600801559050506008600081548092919061342990615561565b919050555061454b565b6040518060400160405280600b81526020017f636f6d7065746974696f6e000000000000000000000000000000000000000000815250805190602001208280519060200120036135e85760405180610120016040528085815260200184815260200160095481526020018281526020016000815260200160008152602001600081526020013373ffffffffffffffffffffffffffffffffffffffff16815260200160008152506013836040516134e991906154ec565b908152602001604051809103902060006009548152602001908152602001600020600082015181600001908051906020019061352692919061455f565b50602082015181600101908051906020019061354392919061455f565b5060408201518160020155606082015181600301556080820151816004015560a0820151816005015560c0820151816006015560e08201518160070160006101000a81548173ffffffffffffffffffffffffffffffffffffffff021916908373ffffffffffffffffffffffffffffffffffffffff1602179055506101008201518160080155905050600960008154809291906135de90615561565b919050555061454a565b6040518060400160405280600881526020017f63726561746976650000000000000000000000000000000000000000000000008152508051906020012082805190602001200361379d57604051806101200160405280858152602001848152602001600a5481526020018281526020016000815260200160008152602001600081526020013373ffffffffffffffffffffffffffffffffffffffff168152602001600081525060138360405161369e91906154ec565b90815260200160405180910390206000600a54815260200190815260200160002060008201518160000190805190602001906136db92919061455f565b5060208201518160010190805190602001906136f892919061455f565b5060408201518160020155606082015181600301556080820151816004015560a0820151816005015560c0820151816006015560e08201518160070160006101000a81548173ffffffffffffffffffffffffffffffffffffffff021916908373ffffffffffffffffffffffffffffffffffffffff1602179055506101008201518160080155905050600a600081548092919061379390615561565b9190505550614549565b6040518060400160405280600581526020017f6576656e740000000000000000000000000000000000000000000000000000008152508051906020012082805190602001200361395257604051806101200160405280858152602001848152602001600b5481526020018281526020016000815260200160008152602001600081526020013373ffffffffffffffffffffffffffffffffffffffff168152602001600081525060138360405161385391906154ec565b90815260200160405180910390206000600b548152602001908152602001600020600082015181600001908051906020019061389092919061455f565b5060208201518160010190805190602001906138ad92919061455f565b5060408201518160020155606082015181600301556080820151816004015560a0820151816005015560c0820151816006015560e08201518160070160006101000a81548173ffffffffffffffffffffffffffffffffffffffff021916908373ffffffffffffffffffffffffffffffffffffffff1602179055506101008201518160080155905050600b600081548092919061394890615561565b9190505550614548565b6040518060400160405280600981526020017f72656c6967696f7573000000000000000000000000000000000000000000000081525080519060200120828051906020012003613b0757604051806101200160405280858152602001848152602001600c5481526020018281526020016000815260200160008152602001600081526020013373ffffffffffffffffffffffffffffffffffffffff1681526020016000815250601383604051613a0891906154ec565b90815260200160405180910390206000600c5481526020019081526020016000206000820151816000019080519060200190613a4592919061455f565b506020820151816001019080519060200190613a6292919061455f565b5060408201518160020155606082015181600301556080820151816004015560a0820151816005015560c0820151816006015560e08201518160070160006101000a81548173ffffffffffffffffffffffffffffffffffffffff021916908373ffffffffffffffffffffffffffffffffffffffff1602179055506101008201518160080155905050600c6000815480929190613afd90615561565b9190505550614547565b6040518060400160405280600681526020017f66616d696c79000000000000000000000000000000000000000000000000000081525080519060200120828051906020012003613cbc57604051806101200160405280858152602001848152602001600d5481526020018281526020016000815260200160008152602001600081526020013373ffffffffffffffffffffffffffffffffffffffff1681526020016000815250601383604051613bbd91906154ec565b90815260200160405180910390206000600d5481526020019081526020016000206000820151816000019080519060200190613bfa92919061455f565b506020820151816001019080519060200190613c1792919061455f565b5060408201518160020155606082015181600301556080820151816004015560a0820151816005015560c0820151816006015560e08201518160070160006101000a81548173ffffffffffffffffffffffffffffffffffffffff021916908373ffffffffffffffffffffffffffffffffffffffff1602179055506101008201518160080155905050600d6000815480929190613cb290615561565b9190505550614546565b6040518060400160405280600581526020017f73706f727400000000000000000000000000000000000000000000000000000081525080519060200120828051906020012003613e7157604051806101200160405280858152602001848152602001600e5481526020018281526020016000815260200160008152602001600081526020013373ffffffffffffffffffffffffffffffffffffffff1681526020016000815250601383604051613d7291906154ec565b90815260200160405180910390206000600e5481526020019081526020016000206000820151816000019080519060200190613daf92919061455f565b506020820151816001019080519060200190613dcc92919061455f565b5060408201518160020155606082015181600301556080820151816004015560a0820151816005015560c0820151816006015560e08201518160070160006101000a81548173ffffffffffffffffffffffffffffffffffffffff021916908373ffffffffffffffffffffffffffffffffffffffff1602179055506101008201518160080155905050600e6000815480929190613e6790615561565b9190505550614545565b6040518060400160405280600681526020017f74726176656c00000000000000000000000000000000000000000000000000008152508051906020012082805190602001200361402657604051806101200160405280858152602001848152602001600f5481526020018281526020016000815260200160008152602001600081526020013373ffffffffffffffffffffffffffffffffffffffff1681526020016000815250601383604051613f2791906154ec565b90815260200160405180910390206000600f5481526020019081526020016000206000820151816000019080519060200190613f6492919061455f565b506020820151816001019080519060200190613f8192919061455f565b5060408201518160020155606082015181600301556080820151816004015560a0820151816005015560c0820151816006015560e08201518160070160006101000a81548173ffffffffffffffffffffffffffffffffffffffff021916908373ffffffffffffffffffffffffffffffffffffffff1602179055506101008201518160080155905050600f600081548092919061401c90615561565b9190505550614544565b6040518060400160405280600981526020017f766f6c756e746565720000000000000000000000000000000000000000000000815250805190602001208280519060200120036141db5760405180610120016040528085815260200184815260200160105481526020018281526020016000815260200160008152602001600081526020013373ffffffffffffffffffffffffffffffffffffffff16815260200160008152506013836040516140dc91906154ec565b908152602001604051809103902060006010548152602001908152602001600020600082015181600001908051906020019061411992919061455f565b50602082015181600101908051906020019061413692919061455f565b5060408201518160020155606082015181600301556080820151816004015560a0820151816005015560c0820151816006015560e08201518160070160006101000a81548173ffffffffffffffffffffffffffffffffffffffff021916908373ffffffffffffffffffffffffffffffffffffffff1602179055506101008201518160080155905050601060008154809291906141d190615561565b9190505550614543565b6040518060400160405280600481526020017f7769736800000000000000000000000000000000000000000000000000000000815250805190602001208280519060200120036143905760405180610120016040528085815260200184815260200160115481526020018281526020016000815260200160008152602001600081526020013373ffffffffffffffffffffffffffffffffffffffff168152602001600081525060138360405161429191906154ec565b90815260200160405180910390206000601154815260200190815260200160002060008201518160000190805190602001906142ce92919061455f565b5060208201518160010190805190602001906142eb92919061455f565b5060408201518160020155606082015181600301556080820151816004015560a0820151816005015560c0820151816006015560e08201518160070160006101000a81548173ffffffffffffffffffffffffffffffffffffffff021916908373ffffffffffffffffffffffffffffffffffffffff16021790555061010082015181600801559050506011600081548092919061438690615561565b9190505550614542565b6040518060400160405280600a81526020017f696e646976696475616c00000000000000000000000000000000000000000000815250805190602001208280519060200120036145415760405180610120016040528085815260200184815260200160125481526020018281526020016000815260200160008152602001600081526020013373ffffffffffffffffffffffffffffffffffffffff168152602001600081525060138360405161444691906154ec565b908152602001604051809103902060006012548152602001908152602001600020600082015181600001908051906020019061448392919061455f565b5060208201518160010190805190602001906144a092919061455f565b5060408201518160020155606082015181600301556080820151816004015560a0820151816005015560c0820151816006015560e08201518160070160006101000a81548173ffffffffffffffffffffffffffffffffffffffff021916908373ffffffffffffffffffffffffffffffffffffffff16021790555061010082015181600801559050506012600081548092919061453b90615561565b91905055505b5b5b5b5b5b5b5b5b5b5b5b5b5b5b5b5b5b5b50505050565b60095481565b82805461456b906155d8565b90600052602060002090601f01602090048101928261458d57600085556145d4565b82601f106145a657805160ff19168380011785556145d4565b828001600101855582156145d4579182015b828111156145d35782518255916020019190600101906145b8565b5b5090506145e19190614666565b5090565b8260178101928215614627579160200282015b8281111561462657825182908051906020019061461692919061455f565b50916020019190600101906145f8565b5b5090506146349190614683565b5090565b60405180608001604052806060815260200160608152602001600081526020016146606146a7565b81525090565b5b8082111561467f576000816000905550600101614667565b5090565b5b808211156146a3576000818161469a91906146cf565b50600101614684565b5090565b604051806102e001604052806017905b60608152602001906001900390816146b75790505090565b5080546146db906155d8565b6000825580601f106146ed575061470c565b601f01602090049060005260206000209081019061470b9190614666565b5b50565b6000819050919050565b6147228161470f565b82525050565b600060208201905061473d6000830184614719565b92915050565b6000604051905090565b600080fd5b600080fd5b600080fd5b600080fd5b6000601f19601f8301169050919050565b7f4e487b7100000000000000000000000000000000000000000000000000000000600052604160045260246000fd5b6147aa82614761565b810181811067ffffffffffffffff821117156147c9576147c8614772565b5b80604052505050565b60006147dc614743565b90506147e882826147a1565b919050565b600067ffffffffffffffff82111561480857614807614772565b5b61481182614761565b9050602081019050919050565b82818337600083830152505050565b600061484061483b846147ed565b6147d2565b90508281526020810184848401111561485c5761485b61475c565b5b61486784828561481e565b509392505050565b600082601f83011261488457614883614757565b5b813561489484826020860161482d565b91505092915050565b6148a68161470f565b81146148b157600080fd5b50565b6000813590506148c38161489d565b92915050565b600067ffffffffffffffff8211156148e4576148e3614772565b5b602082029050919050565b600080fd5b6000614907614902846148c9565b6147d2565b90508060208402830185811115614921576149206148ef565b5b835b8181101561496857803567ffffffffffffffff81111561494657614945614757565b5b808601614953898261486f565b85526020850194505050602081019050614923565b5050509392505050565b600082601f83011261498757614986614757565b5b60176149948482856148f4565b91505092915050565b60008060008060008060c087890312156149ba576149b961474d565b5b600087013567ffffffffffffffff8111156149d8576149d7614752565b5b6149e489828a0161486f565b965050602087013567ffffffffffffffff811115614a0557614a04614752565b5b614a1189828a0161486f565b955050604087013567ffffffffffffffff811115614a3257614a31614752565b5b614a3e89828a0161486f565b9450506060614a4f89828a016148b4565b9350506080614a6089828a016148b4565b92505060a087013567ffffffffffffffff811115614a8157614a80614752565b5b614a8d89828a01614972565b9150509295509295509295565b60008060008060808587031215614ab457614ab361474d565b5b600085013567ffffffffffffffff811115614ad257614ad1614752565b5b614ade8782880161486f565b945050602085013567ffffffffffffffff811115614aff57614afe614752565b5b614b0b8782880161486f565b9350506040614b1c878288016148b4565b9250506060614b2d878288016148b4565b91505092959194509250565b600080600060608486031215614b5257614b5161474d565b5b600084013567ffffffffffffffff811115614b7057614b6f614752565b5b614b7c8682870161486f565b9350506020614b8d868287016148b4565b9250506040614b9e868287016148b4565b9150509250925092565b600081519050919050565b600082825260208201905092915050565b60005b83811015614be2578082015181840152602081019050614bc7565b83811115614bf1576000848401525b50505050565b6000614c0282614ba8565b614c0c8185614bb3565b9350614c1c818560208601614bc4565b614c2581614761565b840191505092915050565b6000608082019050614c456000830187614719565b8181036020830152614c578186614bf7565b90508181036040830152614c6b8185614bf7565b9050614c7a6060830184614719565b95945050505050565b600082825260208201905092915050565b6000614c9f82614ba8565b614ca98185614c83565b9350614cb9818560208601614bc4565b614cc281614761565b840191505092915050565b614cd68161470f565b82525050565b600060179050919050565b600081905092915050565b6000819050919050565b6000614d088383614c94565b905092915050565b6000602082019050919050565b6000614d2882614cdc565b614d328185614ce7565b935083602082028501614d4485614cf2565b8060005b85811015614d805784840389528151614d618582614cfc565b9450614d6c83614d10565b925060208a01995050600181019050614d48565b50829750879550505050505092915050565b60006080830160008301518482036000860152614daf8282614c94565b91505060208301518482036020860152614dc98282614c94565b9150506040830151614dde6040860182614ccd565b5060608301518482036060860152614df68282614d1d565b9150508091505092915050565b60006020820190508181036000830152614e1d8184614d92565b905092915050565b60008115159050919050565b614e3a81614e25565b8114614e4557600080fd5b50565b600081359050614e5781614e31565b92915050565b600080600060608486031215614e7657614e7561474d565b5b600084013567ffffffffffffffff811115614e9457614e93614752565b5b614ea08682870161486f565b9350506020614eb1868287016148b4565b9250506040614ec286828701614e48565b9150509250925092565b60008060408385031215614ee357614ee261474d565b5b600083013567ffffffffffffffff811115614f0157614f00614752565b5b614f0d8582860161486f565b9250506020614f1e858286016148b4565b9150509250929050565b600073ffffffffffffffffffffffffffffffffffffffff82169050919050565b6000614f5382614f28565b9050919050565b614f6381614f48565b82525050565b6000610120820190508181036000830152614f84818c614bf7565b90508181036020830152614f98818b614bf7565b9050614fa7604083018a614719565b614fb46060830189614719565b614fc16080830188614719565b614fce60a0830187614719565b614fdb60c0830186614719565b614fe860e0830185614f5a565b614ff6610100830184614719565b9a9950505050505050505050565b6000606082019050818103600083015261501e8186614bf7565b905081810360208301526150328185614bf7565b905081810360408301526150468184614bf7565b9050949350505050565b600080600080600060a0868803121561506c5761506b61474d565b5b600086013567ffffffffffffffff81111561508a57615089614752565b5b6150968882890161486f565b955050602086013567ffffffffffffffff8111156150b7576150b6614752565b5b6150c38882890161486f565b94505060406150d4888289016148b4565b93505060606150e5888289016148b4565b925050608086013567ffffffffffffffff81111561510657615105614752565b5b61511288828901614972565b9150509295509295909350565b600060608201905081810360008301526151398186614bf7565b9050818103602083015261514d8185614bf7565b905061515c6040830184614719565b949350505050565b61516d81614f48565b811461517857600080fd5b50565b60008135905061518a81615164565b92915050565b6000806000606084860312156151a9576151a861474d565b5b600084013567ffffffffffffffff8111156151c7576151c6614752565b5b6151d38682870161486f565b93505060206151e4868287016148b4565b92505060406151f58682870161517b565b9150509250925092565b61520881614e25565b82525050565b600060208201905061522360008301846151ff565b92915050565b60008060008060008060c087890312156152465761524561474d565b5b600087013567ffffffffffffffff81111561526457615263614752565b5b61527089828a0161486f565b965050602061528189828a016148b4565b955050604061529289828a016148b4565b945050606087013567ffffffffffffffff8111156152b3576152b2614752565b5b6152bf89828a0161486f565b935050608087013567ffffffffffffffff8111156152e0576152df614752565b5b6152ec89828a0161486f565b92505060a087013567ffffffffffffffff81111561530d5761530c614752565b5b61531989828a0161486f565b9150509295509295509295565b600080600080600060a086880312156153425761534161474d565b5b600086013567ffffffffffffffff8111156153605761535f614752565b5b61536c8882890161486f565b955050602061537d888289016148b4565b945050604086013567ffffffffffffffff81111561539e5761539d614752565b5b6153aa8882890161486f565b93505060606153bb888289016148b4565b925050608086013567ffffffffffffffff8111156153dc576153db614752565b5b6153e88882890161486f565b9150509295509295909350565b6000806000806080858703121561540f5761540e61474d565b5b600085013567ffffffffffffffff81111561542d5761542c614752565b5b6154398782880161486f565b945050602085013567ffffffffffffffff81111561545a57615459614752565b5b6154668782880161486f565b935050604085013567ffffffffffffffff81111561548757615486614752565b5b6154938782880161486f565b92505060606154a4878288016148b4565b91505092959194509250565b600081905092915050565b60006154c682614ba8565b6154d081856154b0565b93506154e0818560208601614bc4565b80840191505092915050565b60006154f882846154bb565b915081905092915050565b7f4e487b7100000000000000000000000000000000000000000000000000000000600052603260045260246000fd5b7f4e487b7100000000000000000000000000000000000000000000000000000000600052601160045260246000fd5b600061556c8261470f565b91507fffffffffffffffffffffffffffffffffffffffffffffffffffffffffffffffff820361559e5761559d615532565b5b600182019050919050565b7f4e487b7100000000000000000000000000000000000000000000000000000000600052602260045260246000fd5b600060028204905060018216806155f057607f821691505b602082108103615603576156026155a9565b5b50919050565b60006156148261470f565b91506000820361562757615626615532565b5b60018203905091905056fea2646970667358221220933264fd1d28cf615573cbd149533a7c11ea5ebc0f8fd163e08c08d6751e152964736f6c634300080d0033",
  "immutableReferences": {},
  "source": "// SPDX-License-Identifier: LGPL-3.0-only\npragma solidity ^0.8.12;\npragma abicoder v2;\n\ncontract Storage {\n  /* Create variables for total number of requests in each category strings for\n  each will be defined in the UI. */\n  uint256 public medicalRequests;\n  uint256 public memorialRequests;\n  uint256 public emergencyRequests;\n  uint256 public nonprofitRequests;\n  uint256 public educationRequests;\n  uint256 public animalRequests;\n  uint256 public environmentRequests;\n  uint256 public businessRequests;\n  uint256 public communityRequests;\n  uint256 public competitionRequests;\n  uint256 public creativeRequests;\n  uint256 public eventRequests;\n  uint256 public religiousRequests;\n  uint256 public familyRequests;\n  uint256 public sportRequests;\n  uint256 public travelRequests;\n  uint256 public volunteerRequests;\n  uint256 public wishRequests;\n  uint256 public individualRequests;\n\n  struct Request {\n      string title;\n      string description;\n      uint256 id;\n      // Amount Requested\n      uint256 amount;\n      uint256 totalOrganizers;\n      uint256 totalContributors;\n      uint256 score;\n      address creator;\n      uint256 totalPosts;\n  }\n\n  struct Contributor {\n    uint256 amountDonated;\n    string name;\n    string contributorAddress;\n    uint256 id;\n  }\n\n  struct Organizer {\n    string name;\n    string role;\n    uint256 id;\n    /* Coins are chosen based on being meant for medium of exchange with high\n    transaction volume at the time. ADA and ETH are there aswell for smart\n    contract support if people are interested in using that. */\n    string[23] addresses;\n    /* index 0 = btcAddress;\n    index 1 = bchAddress;\n    index 2 = adaAddress;\n    index 3 = dashAddress;\n    index 4 = dogeAddress;\n    index 5 = ethAddress;\n    index 6 = ltcAddress;\n    index 7 = xmrAddress;\n    index 8 = zecAddress;\n\n    Extras just for support for other chains people may want to use if volume\n    drops off in the future maybe re-evaluate showing these in UI to keep things\n    more compact/clean.\n\n    index 9 = algoAddress;\n    index 10 = avaxAddress;\n    index 11 = bscAddress;\n    index 12 = atomAddress;\n    index 13 = egldAddress;\n    index 14 = etcAddress;\n    index 15 = ftmAddress;\n    index 16 = oneAddress;\n    index 17 = lunaAddress;\n    index 18 = dotAddress;\n    index 19 = maticAddress;\n    index 20 = solAddress;\n    index 21 = xlmAddress;\n    index 22 = xrpAddress; */\n  }\n\n  // Just to return Organizer addresses array in UI/tests\n  function getOrganizer (string memory _category, uint _requestId, uint _organizerId) public view returns (Organizer memory) {\n    return Organizers[_category][_requestId][_organizerId];\n  }\n\n  // Date can be passed in from UI as UTC Time\n  struct Post {\n    string title;\n    string description;\n    string date;\n  }\n\n  // category => id of request\n  mapping(string => mapping(uint256 => Request)) public Requests;\n  // category => id of request => id of contributor\n  mapping(string => mapping(uint256 => mapping(uint256 => Contributor))) public Contributors;\n  // category => id of request => id of organizer\n  mapping(string => mapping(uint256 => mapping(uint256 => Organizer))) public Organizers;\n  // category => id of request => Polygon address of user\n  mapping(string => mapping(uint256 => mapping(address => bool))) public isVoted;\n  // category => id of request => id of post\n  mapping(string => mapping(uint256 => mapping(uint256 => Post))) public Posts;\n\n  function createRequest (\n    string memory _title,\n    string memory _description,\n    string memory _category,\n    uint256 _amount\n  ) public {\n    /* Sorting into category variables makes the code more complex with large if\n    else statements however may be useful in the case of the frontend being\n    shutdown and needing to be redeployed with all the data in the proper location */\n    if (keccak256(bytes(_category)) == keccak256(bytes(\"medical\"))) {\n        Requests[_category][medicalRequests] = Request(_title, _description, medicalRequests, _amount, 0, 0, 0, msg.sender, 0);\n        medicalRequests++;\n    } else if (keccak256(bytes(_category)) == keccak256(bytes(\"memorial\"))) {\n        Requests[_category][memorialRequests] = Request(_title, _description, memorialRequests, _amount, 0, 0, 0, msg.sender, 0);\n        memorialRequests++;\n    } else if (keccak256(bytes(_category)) == keccak256(bytes(\"emergency\"))) {\n        Requests[_category][emergencyRequests] = Request(_title, _description, emergencyRequests, _amount, 0, 0, 0, msg.sender, 0);\n        emergencyRequests++;\n    } else if (keccak256(bytes(_category)) == keccak256(bytes(\"nonprofit\"))) {\n        Requests[_category][nonprofitRequests] = Request(_title, _description, nonprofitRequests, _amount, 0, 0, 0, msg.sender, 0);\n        nonprofitRequests++;\n    } else if (keccak256(bytes(_category)) == keccak256(bytes(\"education\"))) {\n        Requests[_category][educationRequests] = Request(_title, _description, educationRequests, _amount, 0, 0, 0, msg.sender, 0);\n        educationRequests++;\n    } else if (keccak256(bytes(_category)) == keccak256(bytes(\"animal\"))) {\n        Requests[_category][animalRequests] = Request(_title, _description, animalRequests, _amount, 0, 0, 0, msg.sender, 0);\n        animalRequests++;\n    } else if (keccak256(bytes(_category)) == keccak256(bytes(\"environment\"))) {\n        Requests[_category][environmentRequests] = Request(_title, _description, environmentRequests, _amount, 0, 0, 0, msg.sender, 0);\n        environmentRequests++;\n    } else if (keccak256(bytes(_category)) == keccak256(bytes(\"business\"))) {\n        Requests[_category][businessRequests] = Request(_title, _description, businessRequests, _amount, 0, 0, 0, msg.sender, 0);\n        businessRequests++;\n    } else if (keccak256(bytes(_category)) == keccak256(bytes(\"community\"))) {\n        Requests[_category][communityRequests] = Request(_title, _description, communityRequests, _amount, 0, 0, 0, msg.sender, 0);\n        communityRequests++;\n    } else if (keccak256(bytes(_category)) == keccak256(bytes(\"competition\"))) {\n        Requests[_category][competitionRequests] = Request(_title, _description, competitionRequests, _amount, 0, 0, 0, msg.sender, 0);\n        competitionRequests++;\n    } else if (keccak256(bytes(_category)) == keccak256(bytes(\"creative\"))) {\n        Requests[_category][creativeRequests] = Request(_title, _description, creativeRequests, _amount, 0, 0, 0, msg.sender, 0);\n        creativeRequests++;\n    } else if (keccak256(bytes(_category)) == keccak256(bytes(\"event\"))) {\n        Requests[_category][eventRequests] = Request(_title, _description, eventRequests, _amount, 0, 0, 0, msg.sender, 0);\n        eventRequests++;\n    } else if (keccak256(bytes(_category)) == keccak256(bytes(\"religious\"))) {\n        Requests[_category][religiousRequests] = Request(_title, _description, religiousRequests, _amount, 0, 0, 0, msg.sender, 0);\n        religiousRequests++;\n    } else if (keccak256(bytes(_category)) == keccak256(bytes(\"family\"))) {\n        Requests[_category][familyRequests] = Request(_title, _description, familyRequests, _amount, 0, 0, 0, msg.sender, 0);\n        familyRequests++;\n    } else if (keccak256(bytes(_category)) == keccak256(bytes(\"sport\"))) {\n        Requests[_category][sportRequests] = Request(_title, _description, sportRequests, _amount, 0, 0, 0, msg.sender, 0);\n        sportRequests++;\n    } else if (keccak256(bytes(_category)) == keccak256(bytes(\"travel\"))) {\n        Requests[_category][travelRequests] = Request(_title, _description, travelRequests, _amount, 0, 0, 0, msg.sender, 0);\n        travelRequests++;\n    } else if (keccak256(bytes(_category)) == keccak256(bytes(\"volunteer\"))) {\n        Requests[_category][volunteerRequests] = Request(_title, _description, volunteerRequests, _amount, 0, 0, 0, msg.sender, 0);\n        volunteerRequests++;\n    } else if (keccak256(bytes(_category)) == keccak256(bytes(\"wish\"))) {\n        Requests[_category][wishRequests] = Request(_title, _description, wishRequests, _amount, 0, 0, 0, msg.sender, 0);\n        wishRequests++;\n    } else if (keccak256(bytes(_category)) == keccak256(bytes(\"individual\"))) {\n        Requests[_category][individualRequests] = Request(_title, _description, individualRequests, _amount, 0, 0, 0, msg.sender, 0);\n        individualRequests++;\n    }\n  }\n\n  /* Name should also have a default value of Anonymous in the UI for those who\n    don't feel safe connecting names to addresses.\n  */\n  function addOrganzier (\n    string memory _name,\n    string memory _role,\n    string memory _category,\n    uint256 _requestId,\n    uint256 _totalOrganizers,\n    string[23] memory _addresses\n  ) public {\n    require(msg.sender == Requests[_category][_requestId].creator);\n    /* Not all addresses need to be assigned a value. In the UI any addresses not\n    assigned by default should be set to \"\" which would mean an empty string.\n    That will cause setting the mapping data to not fail. Role will also be set\n    through the UI  */\n    Organizers[_category][_requestId][_totalOrganizers] = Organizer(\n      _name, _role, _totalOrganizers, [_addresses[0], _addresses[1], _addresses[2],\n      _addresses[3], _addresses[4], _addresses[5], _addresses[6], _addresses[7],\n      _addresses[8], _addresses[9], _addresses[10], _addresses[11], _addresses[12],\n      _addresses[13], _addresses[14], _addresses[15], _addresses[16], _addresses[17],\n      _addresses[18], _addresses[19], _addresses[20], _addresses[21], _addresses[22]      ]\n    );\n    Requests[_category][_requestId].totalOrganizers++;\n  }\n\n  function editOrganizer (\n    string memory _role,\n    string memory _category,\n    uint256 _requestId,\n    uint256 _organizerId,\n    string[23] memory _addresses\n  ) public {\n    require(msg.sender == Requests[_category][_requestId].creator);\n    string memory _name = Organizers[_category][_requestId][_organizerId].name;\n    /* This method will cost extra gas and can be improved upon. This can be\n    solved by either taking in less addresses or another way. In it's current\n    form it will call the current data from the blockchain and input it into the\n    UI and once resubmitted you will paying that extra gas to rewrite the same\n    address again for those unchanged. The goal would be to save that extra gas\n    cost so only the address added/changed is what's sent back. */\n    Organizers[_category][_requestId][_organizerId] = Organizer(\n      _name, _role, _organizerId, [_addresses[0], _addresses[1], _addresses[2],\n      _addresses[3], _addresses[4], _addresses[5], _addresses[6], _addresses[7],\n      _addresses[8], _addresses[9], _addresses[10], _addresses[11], _addresses[12],\n      _addresses[13], _addresses[14], _addresses[15], _addresses[16], _addresses[17],\n      _addresses[18], _addresses[19], _addresses[20], _addresses[21], _addresses[22]\n      ]\n    );\n  }\n\n  /* Values come from blockchain calls. Title should also be immutable in case of\n  an account getting hacked or a scammer changing the name and description of a\n  request. Another alternative is to allow this to be changed but have the entire\n  list of Contributors wiped. */\n  function editRequest (\n    string memory _description,\n    string memory _category,\n    uint256 _requestId,\n    uint256 _amount\n  ) public {\n    require(msg.sender == Requests[_category][_requestId].creator);\n    string memory _title = Requests[_category][_requestId].title;\n    uint256 _totalOrganizers = Requests[_category][_requestId].totalOrganizers;\n    uint256 _totalContributors = Requests[_category][_requestId].totalContributors;\n    uint256 _score = Requests[_category][_requestId].score;\n    address _creator = Requests[_category][_requestId].creator;\n    uint256 _totalPosts = Requests[_category][_requestId].totalPosts;\n\n    Requests[_category][_requestId] = Request(_title, _description, _requestId, _amount, _totalOrganizers, _totalContributors, _score, _creator, _totalPosts);\n  }\n\n  /* This feature may need to be disabled in UI in the future if it is used harmfully.\n  This feature can easily be exploited through multiple self made accounts or even\n  bot made to upvote scam requests to encourage people to donate to that request over\n  a potentially real one. Therefore this should not be used as a feature to sort\n  through requests and determine which is best to display first. */\n  function voteRequest (\n    string memory _category,\n    uint256 _requestId,\n    bool _vote\n  ) public {\n    require(isVoted[_category][_requestId][msg.sender] == false);\n    string memory _title = Requests[_category][_requestId].title;\n    string memory _description = Requests[_category][_requestId].description;\n    uint256 _amount = Requests[_category][_requestId].amount;\n    uint256 _totalOrganizers = Requests[_category][_requestId].totalOrganizers;\n    uint256 _totalContributors = Requests[_category][_requestId].totalContributors;\n    address _creator = Requests[_category][_requestId].creator;\n    uint256 _totalPosts = Requests[_category][_requestId].totalPosts;\n    uint256 _score = Requests[_category][_requestId].score;\n\n    /* Downvoting can cause a large majority of people to downvote a real donation\n    request just bekcause it offends them or doesn't align with their views. This\n    should not be solely used as a way to sort requests in the UI for this reason,\n    hoever it should be kept in the system to alert people of something that may be\n    a faker request or a scammer. The other flaw with this system is that with the\n    low gas fees of hosting on a layer 2 protocol people can make many accounts and\n    send small balances to boost the upvotes on their request even if it is a scam.\n    Therefore this system may need to be disabled in the UI in the future if that is\n    the case. */\n\n    // bool = true then upvote else downvote\n    if (_vote) {\n      _score++;\n    } else {\n      _score--;\n    }\n\n    isVoted[_category][_requestId][msg.sender] = true;\n    Requests[_category][_requestId] = Request(_title, _description, _requestId, _amount, _totalOrganizers, _totalContributors, _score, _creator, _totalPosts);\n  }\n\n  function addContributor(\n    string memory _category,\n    uint256 _requestId,\n    string memory _name,\n    uint256 _amountDonated,\n    string memory _contributorAddress\n  ) public {\n    uint256 _totalContributors = Requests[_category][_requestId].totalContributors;\n    // _name & _contributorAddress in UI should be allowed to be listed as anonymous\n    Contributors[_category][_requestId][_totalContributors] = Contributor(_amountDonated, _name, _contributorAddress, _totalContributors);\n    Requests[_category][_requestId].totalContributors++;\n  }\n\n  function addPost (\n    string memory _category,\n    uint256 _requestId,\n    uint256 _totalPosts,\n    string memory _title,\n    string memory _description,\n    string memory _date\n  ) public {\n    require(msg.sender == Requests[_category][_requestId].creator);\n    Posts[_category][_requestId][_totalPosts] = Post(_title, _description, _date);\n    Requests[_category][_requestId].totalPosts++;\n  }\n}\n",
  "sourcePath": "/home/user/Documents/donation/src/contracts/Storage.sol",
  "compiler": {
    "name": "solc",
    "version": "0.8.13+commit.abaa5c0e.Emscripten.clang"
  },
  "schemaVersion": "3.4.1",
  "updatedAt": "2022-03-19T15:10:38.934Z",
  "devdoc": {
    "kind": "dev",
    "methods": {},
    "version": 1
  },
  "userdoc": {
    "kind": "user",
    "methods": {},
    "version": 1
  }
}