{
  "contractName": "Storage",
  "abi": [
    {
      "inputs": [
        {
          "internalType": "string",
          "name": "",
          "type": "string"
        },
        {
          "internalType": "uint256",
          "name": "",
          "type": "uint256"
        },
        {
          "internalType": "uint256",
          "name": "",
          "type": "uint256"
        }
      ],
      "name": "Contributors",
      "outputs": [
        {
          "internalType": "uint256",
          "name": "amountDonated",
          "type": "uint256"
        },
        {
          "internalType": "string",
          "name": "name",
          "type": "string"
        },
        {
          "internalType": "string",
          "name": "contributorAddress",
          "type": "string"
        },
        {
          "internalType": "uint256",
          "name": "id",
          "type": "uint256"
        }
      ],
      "stateMutability": "view",
      "type": "function"
    },
    {
      "inputs": [
        {
          "internalType": "string",
          "name": "",
          "type": "string"
        },
        {
          "internalType": "uint256",
          "name": "",
          "type": "uint256"
        },
        {
          "internalType": "uint256",
          "name": "",
          "type": "uint256"
        }
      ],
      "name": "Organizers",
      "outputs": [
        {
          "internalType": "string",
          "name": "name",
          "type": "string"
        },
        {
          "internalType": "string",
          "name": "role",
          "type": "string"
        },
        {
          "internalType": "uint256",
          "name": "id",
          "type": "uint256"
        }
      ],
      "stateMutability": "view",
      "type": "function"
    },
    {
      "inputs": [
        {
          "internalType": "string",
          "name": "",
          "type": "string"
        },
        {
          "internalType": "uint256",
          "name": "",
          "type": "uint256"
        },
        {
          "internalType": "uint256",
          "name": "",
          "type": "uint256"
        }
      ],
      "name": "Posts",
      "outputs": [
        {
          "internalType": "string",
          "name": "title",
          "type": "string"
        },
        {
          "internalType": "string",
          "name": "description",
          "type": "string"
        },
        {
          "internalType": "string",
          "name": "date",
          "type": "string"
        }
      ],
      "stateMutability": "view",
      "type": "function"
    },
    {
      "inputs": [
        {
          "internalType": "string",
          "name": "",
          "type": "string"
        },
        {
          "internalType": "uint256",
          "name": "",
          "type": "uint256"
        }
      ],
      "name": "Requests",
      "outputs": [
        {
          "internalType": "string",
          "name": "title",
          "type": "string"
        },
        {
          "internalType": "string",
          "name": "description",
          "type": "string"
        },
        {
          "internalType": "uint256",
          "name": "id",
          "type": "uint256"
        },
        {
          "internalType": "uint256",
          "name": "amount",
          "type": "uint256"
        },
        {
          "internalType": "uint256",
          "name": "totalOrganizers",
          "type": "uint256"
        },
        {
          "internalType": "uint256",
          "name": "totalContributors",
          "type": "uint256"
        },
        {
          "internalType": "uint256",
          "name": "score",
          "type": "uint256"
        },
        {
          "internalType": "address",
          "name": "creator",
          "type": "address"
        },
        {
          "internalType": "uint256",
          "name": "totalPosts",
          "type": "uint256"
        }
      ],
      "stateMutability": "view",
      "type": "function"
    },
    {
      "inputs": [],
      "name": "animalRequests",
      "outputs": [
        {
          "internalType": "uint256",
          "name": "",
          "type": "uint256"
        }
      ],
      "stateMutability": "view",
      "type": "function"
    },
    {
      "inputs": [],
      "name": "businessRequests",
      "outputs": [
        {
          "internalType": "uint256",
          "name": "",
          "type": "uint256"
        }
      ],
      "stateMutability": "view",
      "type": "function"
    },
    {
      "inputs": [],
      "name": "communityRequests",
      "outputs": [
        {
          "internalType": "uint256",
          "name": "",
          "type": "uint256"
        }
      ],
      "stateMutability": "view",
      "type": "function"
    },
    {
      "inputs": [],
      "name": "competitionRequests",
      "outputs": [
        {
          "internalType": "uint256",
          "name": "",
          "type": "uint256"
        }
      ],
      "stateMutability": "view",
      "type": "function"
    },
    {
      "inputs": [],
      "name": "creativeRequests",
      "outputs": [
        {
          "internalType": "uint256",
          "name": "",
          "type": "uint256"
        }
      ],
      "stateMutability": "view",
      "type": "function"
    },
    {
      "inputs": [],
      "name": "educationRequests",
      "outputs": [
        {
          "internalType": "uint256",
          "name": "",
          "type": "uint256"
        }
      ],
      "stateMutability": "view",
      "type": "function"
    },
    {
      "inputs": [],
      "name": "emergencyRequests",
      "outputs": [
        {
          "internalType": "uint256",
          "name": "",
          "type": "uint256"
        }
      ],
      "stateMutability": "view",
      "type": "function"
    },
    {
      "inputs": [],
      "name": "environmentRequests",
      "outputs": [
        {
          "internalType": "uint256",
          "name": "",
          "type": "uint256"
        }
      ],
      "stateMutability": "view",
      "type": "function"
    },
    {
      "inputs": [],
      "name": "eventRequests",
      "outputs": [
        {
          "internalType": "uint256",
          "name": "",
          "type": "uint256"
        }
      ],
      "stateMutability": "view",
      "type": "function"
    },
    {
      "inputs": [],
      "name": "familyRequests",
      "outputs": [
        {
          "internalType": "uint256",
          "name": "",
          "type": "uint256"
        }
      ],
      "stateMutability": "view",
      "type": "function"
    },
    {
      "inputs": [],
      "name": "individualRequests",
      "outputs": [
        {
          "internalType": "uint256",
          "name": "",
          "type": "uint256"
        }
      ],
      "stateMutability": "view",
      "type": "function"
    },
    {
      "inputs": [
        {
          "internalType": "string",
          "name": "",
          "type": "string"
        },
        {
          "internalType": "uint256",
          "name": "",
          "type": "uint256"
        },
        {
          "internalType": "address",
          "name": "",
          "type": "address"
        }
      ],
      "name": "isVoted",
      "outputs": [
        {
          "internalType": "bool",
          "name": "",
          "type": "bool"
        }
      ],
      "stateMutability": "view",
      "type": "function"
    },
    {
      "inputs": [],
      "name": "medicalRequests",
      "outputs": [
        {
          "internalType": "uint256",
          "name": "",
          "type": "uint256"
        }
      ],
      "stateMutability": "view",
      "type": "function"
    },
    {
      "inputs": [],
      "name": "memorialRequests",
      "outputs": [
        {
          "internalType": "uint256",
          "name": "",
          "type": "uint256"
        }
      ],
      "stateMutability": "view",
      "type": "function"
    },
    {
      "inputs": [],
      "name": "nonprofitRequests",
      "outputs": [
        {
          "internalType": "uint256",
          "name": "",
          "type": "uint256"
        }
      ],
      "stateMutability": "view",
      "type": "function"
    },
    {
      "inputs": [],
      "name": "religiousRequests",
      "outputs": [
        {
          "internalType": "uint256",
          "name": "",
          "type": "uint256"
        }
      ],
      "stateMutability": "view",
      "type": "function"
    },
    {
      "inputs": [],
      "name": "sportRequests",
      "outputs": [
        {
          "internalType": "uint256",
          "name": "",
          "type": "uint256"
        }
      ],
      "stateMutability": "view",
      "type": "function"
    },
    {
      "inputs": [],
      "name": "travelRequests",
      "outputs": [
        {
          "internalType": "uint256",
          "name": "",
          "type": "uint256"
        }
      ],
      "stateMutability": "view",
      "type": "function"
    },
    {
      "inputs": [],
      "name": "volunteerRequests",
      "outputs": [
        {
          "internalType": "uint256",
          "name": "",
          "type": "uint256"
        }
      ],
      "stateMutability": "view",
      "type": "function"
    },
    {
      "inputs": [],
      "name": "wishRequests",
      "outputs": [
        {
          "internalType": "uint256",
          "name": "",
          "type": "uint256"
        }
      ],
      "stateMutability": "view",
      "type": "function"
    },
    {
      "inputs": [
        {
          "internalType": "string",
          "name": "_title",
          "type": "string"
        },
        {
          "internalType": "string",
          "name": "_description",
          "type": "string"
        },
        {
          "internalType": "string",
          "name": "_category",
          "type": "string"
        },
        {
          "internalType": "uint256",
          "name": "_amount",
          "type": "uint256"
        }
      ],
      "name": "createRequest",
      "outputs": [],
      "stateMutability": "nonpayable",
      "type": "function"
    },
    {
      "inputs": [
        {
          "internalType": "string",
          "name": "_name",
          "type": "string"
        },
        {
          "internalType": "string",
          "name": "_role",
          "type": "string"
        },
        {
          "internalType": "string",
          "name": "_category",
          "type": "string"
        },
        {
          "internalType": "uint256",
          "name": "_requestId",
          "type": "uint256"
        },
        {
          "internalType": "uint256",
          "name": "_totalOrganizers",
          "type": "uint256"
        },
        {
          "internalType": "string[23]",
          "name": "_addresses",
          "type": "string[23]"
        }
      ],
      "name": "addOrganzier",
      "outputs": [],
      "stateMutability": "nonpayable",
      "type": "function"
    },
    {
      "inputs": [
        {
          "internalType": "string",
          "name": "_role",
          "type": "string"
        },
        {
          "internalType": "string",
          "name": "_category",
          "type": "string"
        },
        {
          "internalType": "uint256",
          "name": "_requestId",
          "type": "uint256"
        },
        {
          "internalType": "uint256",
          "name": "_organizerId",
          "type": "uint256"
        },
        {
          "internalType": "string[23]",
          "name": "_addresses",
          "type": "string[23]"
        }
      ],
      "name": "editOrganzier",
      "outputs": [],
      "stateMutability": "nonpayable",
      "type": "function"
    },
    {
      "inputs": [
        {
          "internalType": "string",
          "name": "_description",
          "type": "string"
        },
        {
          "internalType": "string",
          "name": "_category",
          "type": "string"
        },
        {
          "internalType": "uint256",
          "name": "_requestId",
          "type": "uint256"
        },
        {
          "internalType": "uint256",
          "name": "_amount",
          "type": "uint256"
        }
      ],
      "name": "editRequest",
      "outputs": [],
      "stateMutability": "nonpayable",
      "type": "function"
    },
    {
      "inputs": [
        {
          "internalType": "string",
          "name": "_category",
          "type": "string"
        },
        {
          "internalType": "uint256",
          "name": "_requestId",
          "type": "uint256"
        },
        {
          "internalType": "uint256",
          "name": "_score",
          "type": "uint256"
        },
        {
          "internalType": "bool",
          "name": "vote",
          "type": "bool"
        }
      ],
      "name": "voteRequest",
      "outputs": [],
      "stateMutability": "nonpayable",
      "type": "function"
    },
    {
      "inputs": [
        {
          "internalType": "string",
          "name": "_category",
          "type": "string"
        },
        {
          "internalType": "uint256",
          "name": "_requestId",
          "type": "uint256"
        },
        {
          "internalType": "uint256",
          "name": "_totalContributors",
          "type": "uint256"
        },
        {
          "internalType": "string",
          "name": "_name",
          "type": "string"
        },
        {
          "internalType": "uint256",
          "name": "_amountDonated",
          "type": "uint256"
        },
        {
          "internalType": "string",
          "name": "_contributorAddress",
          "type": "string"
        }
      ],
      "name": "addContributor",
      "outputs": [],
      "stateMutability": "nonpayable",
      "type": "function"
    },
    {
      "inputs": [
        {
          "internalType": "string",
          "name": "_category",
          "type": "string"
        },
        {
          "internalType": "uint256",
          "name": "_requestId",
          "type": "uint256"
        },
        {
          "internalType": "uint256",
          "name": "_totalPosts",
          "type": "uint256"
        },
        {
          "internalType": "string",
          "name": "_title",
          "type": "string"
        },
        {
          "internalType": "string",
          "name": "_description",
          "type": "string"
        },
        {
          "internalType": "string",
          "name": "_date",
          "type": "string"
        }
      ],
      "name": "addPost",
      "outputs": [],
      "stateMutability": "nonpayable",
      "type": "function"
    }
  ],
  "bytecode": "0x608060405234801561001057600080fd5b50615117806100206000396000f3fe608060405234801561001057600080fd5b50600436106101e55760003560e01c80636edc8e4d1161010f578063c6ac9f5d116100a2578063dd8c58fe11610071578063dd8c58fe14610573578063e9e61c5d1461058f578063f82f7bdd146105ad578063fddbe156146105c9576101e5565b8063c6ac9f5d146104ef578063cfc1fd6d1461051f578063d01c680f1461053b578063d1b9103714610557576101e5565b80639420d6a1116100de5780639420d6a1146104635780639ef2179c14610481578063b0366f3f1461049f578063c5dbf1fe146104bd576101e5565b80636edc8e4d146103d75780638a9d8d25146103f55780638efad2e1146104135780638fb0bd9114610445576101e5565b80632b9f3f0411610187578063421cca9511610156578063421cca951461034557806343e5bbdf146103635780635c983bee1461038157806368d2ff74146103b9576101e5565b80632b9f3f04146102b85780632c89f361146102eb5780632d7e140f146103095780633456601f14610327576101e5565b806313bd4a94116101c357806313bd4a941461024457806319c2590514610260578063215adc511461027c57806327f625831461029a576101e5565b806301b57d95146101ea5780630a9de09c1461020857806313907f8c14610226575b600080fd5b6101f26105e7565b6040516101ff9190614353565b60405180910390f35b6102106105ed565b60405161021d9190614353565b60405180910390f35b61022e6105f3565b60405161023b9190614353565b60405180910390f35b61025e600480360381019061025991906145c8565b6105f9565b005b61027a600480360381019061027591906146c5565b610a4e565b005b610284610e1c565b6040516102919190614353565b60405180910390f35b6102a2610e22565b6040516102af9190614353565b60405180910390f35b6102d260048036038101906102cd9190614764565b610e28565b6040516102e2949392919061485b565b60405180910390f35b6102f3610f98565b6040516103009190614353565b60405180910390f35b610311610f9e565b60405161031e9190614353565b60405180910390f35b61032f610fa4565b60405161033c9190614353565b60405180910390f35b61034d610faa565b60405161035a9190614353565b60405180910390f35b61036b610fb0565b6040516103789190614353565b60405180910390f35b61039b600480360381019061039691906148ae565b610fb6565b6040516103b09998979695949392919061494b565b60405180910390f35b6103c1611157565b6040516103ce9190614353565b60405180910390f35b6103df61115d565b6040516103ec9190614353565b60405180910390f35b6103fd611163565b60405161040a9190614353565b60405180910390f35b61042d60048036038101906104289190614764565b611169565b60405161043c939291906149e6565b60405180910390f35b61044d61135b565b60405161045a9190614353565b60405180910390f35b61046b611361565b6040516104789190614353565b60405180910390f35b610489611367565b6040516104969190614353565b60405180910390f35b6104a761136d565b6040516104b49190614353565b60405180910390f35b6104d760048036038101906104d29190614764565b611373565b6040516104e693929190614a32565b60405180910390f35b61050960048036038101906105049190614aa3565b6114dd565b6040516105169190614b2d565b60405180910390f35b61053960048036038101906105349190614b74565b61152f565b005b61055560048036038101906105509190614bf7565b6119e5565b005b610571600480360381019061056c9190614cf4565b611b74565b005b61058d60048036038101906105889190614dd5565b611c76565b005b610597612153565b6040516105a49190614353565b60405180910390f35b6105c760048036038101906105c29190614ea4565b612159565b005b6105d16141da565b6040516105de9190614353565b60405180910390f35b60105481565b60035481565b60055481565b6013846040516106099190614f9b565b9081526020016040518091039020600084815260200190815260200160002060070160009054906101000a900473ffffffffffffffffffffffffffffffffffffffff1673ffffffffffffffffffffffffffffffffffffffff163373ffffffffffffffffffffffffffffffffffffffff161461068357600080fd5b6040518060800160405280878152602001868152602001838152602001604051806102e00160405280846000601781106106c0576106bf614fb2565b5b60200201518152602001846001601781106106de576106dd614fb2565b5b60200201518152602001846002601781106106fc576106fb614fb2565b5b602002015181526020018460036017811061071a57610719614fb2565b5b602002015181526020018460046017811061073857610737614fb2565b5b602002015181526020018460056017811061075657610755614fb2565b5b602002015181526020018460066017811061077457610773614fb2565b5b602002015181526020018460076017811061079257610791614fb2565b5b60200201518152602001846008601781106107b0576107af614fb2565b5b60200201518152602001846009601781106107ce576107cd614fb2565b5b6020020151815260200184600a601781106107ec576107eb614fb2565b5b6020020151815260200184600b6017811061080a57610809614fb2565b5b6020020151815260200184600c6017811061082857610827614fb2565b5b6020020151815260200184600d6017811061084657610845614fb2565b5b6020020151815260200184600e6017811061086457610863614fb2565b5b6020020151815260200184600f6017811061088257610881614fb2565b5b60200201518152602001846010601781106108a05761089f614fb2565b5b60200201518152602001846011601781106108be576108bd614fb2565b5b60200201518152602001846012601781106108dc576108db614fb2565b5b60200201518152602001846013601781106108fa576108f9614fb2565b5b602002015181526020018460146017811061091857610917614fb2565b5b602002015181526020018460156017811061093657610935614fb2565b5b602002015181526020018460166017811061095457610953614fb2565b5b602002015181525081525060158560405161096f9190614f9b565b90815260200160405180910390206000858152602001908152602001600020600084815260200190815260200160002060008201518160000190805190602001906109bb9291906141e0565b5060208201518160010190805190602001906109d89291906141e0565b50604082015181600201556060820151816003019060176109fa929190614266565b50905050601384604051610a0e9190614f9b565b908152602001604051809103902060008481526020019081526020016000206004016000815480929190610a4190615010565b9190505550505050505050565b601383604051610a5e9190614f9b565b9081526020016040518091039020600083815260200190815260200160002060070160009054906101000a900473ffffffffffffffffffffffffffffffffffffffff1673ffffffffffffffffffffffffffffffffffffffff163373ffffffffffffffffffffffffffffffffffffffff1614610ad857600080fd5b6000601384604051610aea9190614f9b565b908152602001604051809103902060008481526020019081526020016000206000018054610b1790615087565b80601f0160208091040260200160405190810160405280929190818152602001828054610b4390615087565b8015610b905780601f10610b6557610100808354040283529160200191610b90565b820191906000526020600020905b815481529060010190602001808311610b7357829003601f168201915b505050505090506000601385604051610ba99190614f9b565b908152602001604051809103902060008581526020019081526020016000206004015490506000601386604051610be09190614f9b565b908152602001604051809103902060008681526020019081526020016000206005015490506000601387604051610c179190614f9b565b908152602001604051809103902060008781526020019081526020016000206006015490506000601388604051610c4e9190614f9b565b9081526020016040518091039020600088815260200190815260200160002060070160009054906101000a900473ffffffffffffffffffffffffffffffffffffffff1690506000601389604051610ca59190614f9b565b908152602001604051809103902060008981526020019081526020016000206008015490506040518061012001604052808781526020018b81526020018981526020018881526020018681526020018581526020018481526020018373ffffffffffffffffffffffffffffffffffffffff1681526020018281525060138a604051610d309190614f9b565b908152602001604051809103902060008a81526020019081526020016000206000820151816000019080519060200190610d6b9291906141e0565b506020820151816001019080519060200190610d889291906141e0565b5060408201518160020155606082015181600301556080820151816004015560a0820151816005015560c0820151816006015560e08201518160070160006101000a81548173ffffffffffffffffffffffffffffffffffffffff021916908373ffffffffffffffffffffffffffffffffffffffff160217905550610100820151816008015590505050505050505050505050565b60005481565b600f5481565b6014838051602081018201805184825260208301602085012081835280955050505050506020528160005260406000206020528060005260406000206000925092505050806000015490806001018054610e8190615087565b80601f0160208091040260200160405190810160405280929190818152602001828054610ead90615087565b8015610efa5780601f10610ecf57610100808354040283529160200191610efa565b820191906000526020600020905b815481529060010190602001808311610edd57829003601f168201915b505050505090806002018054610f0f90615087565b80601f0160208091040260200160405190810160405280929190818152602001828054610f3b90615087565b8015610f885780601f10610f5d57610100808354040283529160200191610f88565b820191906000526020600020905b815481529060010190602001808311610f6b57829003601f168201915b5050505050908060030154905084565b600a5481565b600c5481565b600d5481565b60045481565b60085481565b60138280516020810182018051848252602083016020850120818352809550505050505060205280600052604060002060009150915050806000018054610ffc90615087565b80601f016020809104026020016040519081016040528092919081815260200182805461102890615087565b80156110755780601f1061104a57610100808354040283529160200191611075565b820191906000526020600020905b81548152906001019060200180831161105857829003601f168201915b50505050509080600101805461108a90615087565b80601f01602080910402602001604051908101604052809291908181526020018280546110b690615087565b80156111035780601f106110d857610100808354040283529160200191611103565b820191906000526020600020905b8154815290600101906020018083116110e657829003601f168201915b5050505050908060020154908060030154908060040154908060050154908060060154908060070160009054906101000a900473ffffffffffffffffffffffffffffffffffffffff16908060080154905089565b600e5481565b60115481565b60015481565b60178380516020810182018051848252602083016020850120818352809550505050505060205281600052604060002060205280600052604060002060009250925050508060000180546111bc90615087565b80601f01602080910402602001604051908101604052809291908181526020018280546111e890615087565b80156112355780601f1061120a57610100808354040283529160200191611235565b820191906000526020600020905b81548152906001019060200180831161121857829003601f168201915b50505050509080600101805461124a90615087565b80601f016020809104026020016040519081016040528092919081815260200182805461127690615087565b80156112c35780601f10611298576101008083540402835291602001916112c3565b820191906000526020600020905b8154815290600101906020018083116112a657829003601f168201915b5050505050908060020180546112d890615087565b80601f016020809104026020016040519081016040528092919081815260200182805461130490615087565b80156113515780601f1061132657610100808354040283529160200191611351565b820191906000526020600020905b81548152906001019060200180831161133457829003601f168201915b5050505050905083565b60065481565b60075481565b600b5481565b60025481565b60158380516020810182018051848252602083016020850120818352809550505050505060205281600052604060002060205280600052604060002060009250925050508060000180546113c690615087565b80601f01602080910402602001604051908101604052809291908181526020018280546113f290615087565b801561143f5780601f106114145761010080835404028352916020019161143f565b820191906000526020600020905b81548152906001019060200180831161142257829003601f168201915b50505050509080600101805461145490615087565b80601f016020809104026020016040519081016040528092919081815260200182805461148090615087565b80156114cd5780601f106114a2576101008083540402835291602001916114cd565b820191906000526020600020905b8154815290600101906020018083116114b057829003601f168201915b5050505050908060020154905083565b601683805160208101820180518482526020830160208501208183528095505050505050602052816000526040600020602052806000526040600020600092509250509054906101000a900460ff1681565b600015156016856040516115439190614f9b565b9081526020016040518091039020600085815260200190815260200160002060003373ffffffffffffffffffffffffffffffffffffffff1673ffffffffffffffffffffffffffffffffffffffff16815260200190815260200160002060009054906101000a900460ff161515146115b957600080fd5b60006013856040516115cb9190614f9b565b9081526020016040518091039020600085815260200190815260200160002060000180546115f890615087565b80601f016020809104026020016040519081016040528092919081815260200182805461162490615087565b80156116715780601f1061164657610100808354040283529160200191611671565b820191906000526020600020905b81548152906001019060200180831161165457829003601f168201915b50505050509050600060138660405161168a9190614f9b565b9081526020016040518091039020600086815260200190815260200160002060010180546116b790615087565b80601f01602080910402602001604051908101604052809291908181526020018280546116e390615087565b80156117305780601f1061170557610100808354040283529160200191611730565b820191906000526020600020905b81548152906001019060200180831161171357829003601f168201915b5050505050905060006013876040516117499190614f9b565b9081526020016040518091039020600087815260200190815260200160002060030154905060006013886040516117809190614f9b565b9081526020016040518091039020600088815260200190815260200160002060040154905060006013896040516117b79190614f9b565b90815260200160405180910390206000898152602001908152602001600020600501549050600060138a6040516117ee9190614f9b565b908152602001604051809103902060008a815260200190815260200160002060070160009054906101000a900473ffffffffffffffffffffffffffffffffffffffff169050600060138b6040516118459190614f9b565b908152602001604051809103902060008b8152602001908152602001600020600801549050871561188357888061187b90615010565b995050611892565b888061188e906150b8565b9950505b6040518061012001604052808881526020018781526020018b81526020018681526020018581526020018481526020018a81526020018373ffffffffffffffffffffffffffffffffffffffff1681526020018281525060138c6040516118f89190614f9b565b908152602001604051809103902060008c815260200190815260200160002060008201518160000190805190602001906119339291906141e0565b5060208201518160010190805190602001906119509291906141e0565b5060408201518160020155606082015181600301556080820151816004015560a0820151816005015560c0820151816006015560e08201518160070160006101000a81548173ffffffffffffffffffffffffffffffffffffffff021916908373ffffffffffffffffffffffffffffffffffffffff16021790555061010082015181600801559050505050505050505050505050565b6013866040516119f59190614f9b565b9081526020016040518091039020600086815260200190815260200160002060070160009054906101000a900473ffffffffffffffffffffffffffffffffffffffff1673ffffffffffffffffffffffffffffffffffffffff163373ffffffffffffffffffffffffffffffffffffffff1614611a6f57600080fd5b604051806060016040528084815260200183815260200182815250601787604051611a9a9190614f9b565b9081526020016040518091039020600087815260200190815260200160002060008681526020019081526020016000206000820151816000019080519060200190611ae69291906141e0565b506020820151816001019080519060200190611b039291906141e0565b506040820151816002019080519060200190611b209291906141e0565b50905050601386604051611b349190614f9b565b908152602001604051809103902060008681526020019081526020016000206008016000815480929190611b6790615010565b9190505550505050505050565b604051806080016040528083815260200184815260200182815260200185815250601487604051611ba59190614f9b565b908152602001604051809103902060008781526020019081526020016000206000868152602001908152602001600020600082015181600001556020820151816001019080519060200190611bfb9291906141e0565b506040820151816002019080519060200190611c189291906141e0565b5060608201518160030155905050601386604051611c369190614f9b565b908152602001604051809103902060008681526020019081526020016000206005016000815480929190611c6990615010565b9190505550505050505050565b601384604051611c869190614f9b565b9081526020016040518091039020600084815260200190815260200160002060070160009054906101000a900473ffffffffffffffffffffffffffffffffffffffff1673ffffffffffffffffffffffffffffffffffffffff163373ffffffffffffffffffffffffffffffffffffffff1614611d0057600080fd5b6000601585604051611d129190614f9b565b9081526020016040518091039020600085815260200190815260200160002060008481526020019081526020016000206000018054611d5090615087565b80601f0160208091040260200160405190810160405280929190818152602001828054611d7c90615087565b8015611dc95780601f10611d9e57610100808354040283529160200191611dc9565b820191906000526020600020905b815481529060010190602001808311611dac57829003601f168201915b505050505090506040518060800160405280828152602001878152602001848152602001604051806102e0016040528085600060178110611e0d57611e0c614fb2565b5b6020020151815260200185600160178110611e2b57611e2a614fb2565b5b6020020151815260200185600260178110611e4957611e48614fb2565b5b6020020151815260200185600360178110611e6757611e66614fb2565b5b6020020151815260200185600460178110611e8557611e84614fb2565b5b6020020151815260200185600560178110611ea357611ea2614fb2565b5b6020020151815260200185600660178110611ec157611ec0614fb2565b5b6020020151815260200185600760178110611edf57611ede614fb2565b5b6020020151815260200185600860178110611efd57611efc614fb2565b5b6020020151815260200185600960178110611f1b57611f1a614fb2565b5b6020020151815260200185600a60178110611f3957611f38614fb2565b5b6020020151815260200185600b60178110611f5757611f56614fb2565b5b6020020151815260200185600c60178110611f7557611f74614fb2565b5b6020020151815260200185600d60178110611f9357611f92614fb2565b5b6020020151815260200185600e60178110611fb157611fb0614fb2565b5b6020020151815260200185600f60178110611fcf57611fce614fb2565b5b6020020151815260200185601060178110611fed57611fec614fb2565b5b602002015181526020018560116017811061200b5761200a614fb2565b5b602002015181526020018560126017811061202957612028614fb2565b5b602002015181526020018560136017811061204757612046614fb2565b5b602002015181526020018560146017811061206557612064614fb2565b5b602002015181526020018560156017811061208357612082614fb2565b5b60200201518152602001856016601781106120a1576120a0614fb2565b5b60200201518152508152506015866040516120bc9190614f9b565b90815260200160405180910390206000868152602001908152602001600020600085815260200190815260200160002060008201518160000190805190602001906121089291906141e0565b5060208201518160010190805190602001906121259291906141e0565b5060408201518160020155606082015181600301906017612147929190614266565b50905050505050505050565b60125481565b6040518060400160405280600781526020017f6d65646963616c000000000000000000000000000000000000000000000000008152508051906020012082805190602001200361230c5760405180610120016040528085815260200184815260200160005481526020018281526020016000815260200160008152602001600081526020013373ffffffffffffffffffffffffffffffffffffffff168152602001600081525060138360405161220f9190614f9b565b9081526020016040518091039020600080548152602001908152602001600020600082015181600001908051906020019061224b9291906141e0565b5060208201518160010190805190602001906122689291906141e0565b5060408201518160020155606082015181600301556080820151816004015560a0820151816005015560c0820151816006015560e08201518160070160006101000a81548173ffffffffffffffffffffffffffffffffffffffff021916908373ffffffffffffffffffffffffffffffffffffffff160217905550610100820151816008015590505060008081548092919061230290615010565b91905055506141d4565b6040518060400160405280600881526020017f6d656d6f7269616c000000000000000000000000000000000000000000000000815250805190602001208280519060200120036124c15760405180610120016040528085815260200184815260200160015481526020018281526020016000815260200160008152602001600081526020013373ffffffffffffffffffffffffffffffffffffffff16815260200160008152506013836040516123c29190614f9b565b90815260200160405180910390206000600154815260200190815260200160002060008201518160000190805190602001906123ff9291906141e0565b50602082015181600101908051906020019061241c9291906141e0565b5060408201518160020155606082015181600301556080820151816004015560a0820151816005015560c0820151816006015560e08201518160070160006101000a81548173ffffffffffffffffffffffffffffffffffffffff021916908373ffffffffffffffffffffffffffffffffffffffff1602179055506101008201518160080155905050600160008154809291906124b790615010565b91905055506141d3565b6040518060400160405280600981526020017f656d657267656e63790000000000000000000000000000000000000000000000815250805190602001208280519060200120036126765760405180610120016040528085815260200184815260200160025481526020018281526020016000815260200160008152602001600081526020013373ffffffffffffffffffffffffffffffffffffffff16815260200160008152506013836040516125779190614f9b565b90815260200160405180910390206000600254815260200190815260200160002060008201518160000190805190602001906125b49291906141e0565b5060208201518160010190805190602001906125d19291906141e0565b5060408201518160020155606082015181600301556080820151816004015560a0820151816005015560c0820151816006015560e08201518160070160006101000a81548173ffffffffffffffffffffffffffffffffffffffff021916908373ffffffffffffffffffffffffffffffffffffffff16021790555061010082015181600801559050506002600081548092919061266c90615010565b91905055506141d2565b6040518060400160405280600981526020017f6e6f6e70726f66697400000000000000000000000000000000000000000000008152508051906020012082805190602001200361282b5760405180610120016040528085815260200184815260200160035481526020018281526020016000815260200160008152602001600081526020013373ffffffffffffffffffffffffffffffffffffffff168152602001600081525060138360405161272c9190614f9b565b90815260200160405180910390206000600354815260200190815260200160002060008201518160000190805190602001906127699291906141e0565b5060208201518160010190805190602001906127869291906141e0565b5060408201518160020155606082015181600301556080820151816004015560a0820151816005015560c0820151816006015560e08201518160070160006101000a81548173ffffffffffffffffffffffffffffffffffffffff021916908373ffffffffffffffffffffffffffffffffffffffff16021790555061010082015181600801559050506003600081548092919061282190615010565b91905055506141d1565b6040518060400160405280600981526020017f656475636174696f6e0000000000000000000000000000000000000000000000815250805190602001208280519060200120036129e05760405180610120016040528085815260200184815260200160045481526020018281526020016000815260200160008152602001600081526020013373ffffffffffffffffffffffffffffffffffffffff16815260200160008152506013836040516128e19190614f9b565b908152602001604051809103902060006004548152602001908152602001600020600082015181600001908051906020019061291e9291906141e0565b50602082015181600101908051906020019061293b9291906141e0565b5060408201518160020155606082015181600301556080820151816004015560a0820151816005015560c0820151816006015560e08201518160070160006101000a81548173ffffffffffffffffffffffffffffffffffffffff021916908373ffffffffffffffffffffffffffffffffffffffff1602179055506101008201518160080155905050600460008154809291906129d690615010565b91905055506141d0565b6040518060400160405280600681526020017f616e696d616c000000000000000000000000000000000000000000000000000081525080519060200120828051906020012003612b955760405180610120016040528085815260200184815260200160055481526020018281526020016000815260200160008152602001600081526020013373ffffffffffffffffffffffffffffffffffffffff1681526020016000815250601383604051612a969190614f9b565b9081526020016040518091039020600060055481526020019081526020016000206000820151816000019080519060200190612ad39291906141e0565b506020820151816001019080519060200190612af09291906141e0565b5060408201518160020155606082015181600301556080820151816004015560a0820151816005015560c0820151816006015560e08201518160070160006101000a81548173ffffffffffffffffffffffffffffffffffffffff021916908373ffffffffffffffffffffffffffffffffffffffff160217905550610100820151816008015590505060056000815480929190612b8b90615010565b91905055506141cf565b6040518060400160405280600b81526020017f656e7669726f6e6d656e7400000000000000000000000000000000000000000081525080519060200120828051906020012003612d4a5760405180610120016040528085815260200184815260200160065481526020018281526020016000815260200160008152602001600081526020013373ffffffffffffffffffffffffffffffffffffffff1681526020016000815250601383604051612c4b9190614f9b565b9081526020016040518091039020600060065481526020019081526020016000206000820151816000019080519060200190612c889291906141e0565b506020820151816001019080519060200190612ca59291906141e0565b5060408201518160020155606082015181600301556080820151816004015560a0820151816005015560c0820151816006015560e08201518160070160006101000a81548173ffffffffffffffffffffffffffffffffffffffff021916908373ffffffffffffffffffffffffffffffffffffffff160217905550610100820151816008015590505060066000815480929190612d4090615010565b91905055506141ce565b6040518060400160405280600881526020017f627573696e65737300000000000000000000000000000000000000000000000081525080519060200120828051906020012003612eff5760405180610120016040528085815260200184815260200160075481526020018281526020016000815260200160008152602001600081526020013373ffffffffffffffffffffffffffffffffffffffff1681526020016000815250601383604051612e009190614f9b565b9081526020016040518091039020600060075481526020019081526020016000206000820151816000019080519060200190612e3d9291906141e0565b506020820151816001019080519060200190612e5a9291906141e0565b5060408201518160020155606082015181600301556080820151816004015560a0820151816005015560c0820151816006015560e08201518160070160006101000a81548173ffffffffffffffffffffffffffffffffffffffff021916908373ffffffffffffffffffffffffffffffffffffffff160217905550610100820151816008015590505060076000815480929190612ef590615010565b91905055506141cd565b6040518060400160405280600981526020017f636f6d6d756e6974790000000000000000000000000000000000000000000000815250805190602001208280519060200120036130b45760405180610120016040528085815260200184815260200160085481526020018281526020016000815260200160008152602001600081526020013373ffffffffffffffffffffffffffffffffffffffff1681526020016000815250601383604051612fb59190614f9b565b9081526020016040518091039020600060085481526020019081526020016000206000820151816000019080519060200190612ff29291906141e0565b50602082015181600101908051906020019061300f9291906141e0565b5060408201518160020155606082015181600301556080820151816004015560a0820151816005015560c0820151816006015560e08201518160070160006101000a81548173ffffffffffffffffffffffffffffffffffffffff021916908373ffffffffffffffffffffffffffffffffffffffff1602179055506101008201518160080155905050600860008154809291906130aa90615010565b91905055506141cc565b6040518060400160405280600b81526020017f636f6d7065746974696f6e000000000000000000000000000000000000000000815250805190602001208280519060200120036132695760405180610120016040528085815260200184815260200160095481526020018281526020016000815260200160008152602001600081526020013373ffffffffffffffffffffffffffffffffffffffff168152602001600081525060138360405161316a9190614f9b565b90815260200160405180910390206000600954815260200190815260200160002060008201518160000190805190602001906131a79291906141e0565b5060208201518160010190805190602001906131c49291906141e0565b5060408201518160020155606082015181600301556080820151816004015560a0820151816005015560c0820151816006015560e08201518160070160006101000a81548173ffffffffffffffffffffffffffffffffffffffff021916908373ffffffffffffffffffffffffffffffffffffffff16021790555061010082015181600801559050506009600081548092919061325f90615010565b91905055506141cb565b6040518060400160405280600881526020017f63726561746976650000000000000000000000000000000000000000000000008152508051906020012082805190602001200361341e57604051806101200160405280858152602001848152602001600a5481526020018281526020016000815260200160008152602001600081526020013373ffffffffffffffffffffffffffffffffffffffff168152602001600081525060138360405161331f9190614f9b565b90815260200160405180910390206000600a548152602001908152602001600020600082015181600001908051906020019061335c9291906141e0565b5060208201518160010190805190602001906133799291906141e0565b5060408201518160020155606082015181600301556080820151816004015560a0820151816005015560c0820151816006015560e08201518160070160006101000a81548173ffffffffffffffffffffffffffffffffffffffff021916908373ffffffffffffffffffffffffffffffffffffffff1602179055506101008201518160080155905050600a600081548092919061341490615010565b91905055506141ca565b6040518060400160405280600581526020017f6576656e74000000000000000000000000000000000000000000000000000000815250805190602001208280519060200120036135d357604051806101200160405280858152602001848152602001600b5481526020018281526020016000815260200160008152602001600081526020013373ffffffffffffffffffffffffffffffffffffffff16815260200160008152506013836040516134d49190614f9b565b90815260200160405180910390206000600b54815260200190815260200160002060008201518160000190805190602001906135119291906141e0565b50602082015181600101908051906020019061352e9291906141e0565b5060408201518160020155606082015181600301556080820151816004015560a0820151816005015560c0820151816006015560e08201518160070160006101000a81548173ffffffffffffffffffffffffffffffffffffffff021916908373ffffffffffffffffffffffffffffffffffffffff1602179055506101008201518160080155905050600b60008154809291906135c990615010565b91905055506141c9565b6040518060400160405280600981526020017f72656c6967696f757300000000000000000000000000000000000000000000008152508051906020012082805190602001200361378857604051806101200160405280858152602001848152602001600c5481526020018281526020016000815260200160008152602001600081526020013373ffffffffffffffffffffffffffffffffffffffff16815260200160008152506013836040516136899190614f9b565b90815260200160405180910390206000600c54815260200190815260200160002060008201518160000190805190602001906136c69291906141e0565b5060208201518160010190805190602001906136e39291906141e0565b5060408201518160020155606082015181600301556080820151816004015560a0820151816005015560c0820151816006015560e08201518160070160006101000a81548173ffffffffffffffffffffffffffffffffffffffff021916908373ffffffffffffffffffffffffffffffffffffffff1602179055506101008201518160080155905050600c600081548092919061377e90615010565b91905055506141c8565b6040518060400160405280600681526020017f66616d696c7900000000000000000000000000000000000000000000000000008152508051906020012082805190602001200361393d57604051806101200160405280858152602001848152602001600d5481526020018281526020016000815260200160008152602001600081526020013373ffffffffffffffffffffffffffffffffffffffff168152602001600081525060138360405161383e9190614f9b565b90815260200160405180910390206000600d548152602001908152602001600020600082015181600001908051906020019061387b9291906141e0565b5060208201518160010190805190602001906138989291906141e0565b5060408201518160020155606082015181600301556080820151816004015560a0820151816005015560c0820151816006015560e08201518160070160006101000a81548173ffffffffffffffffffffffffffffffffffffffff021916908373ffffffffffffffffffffffffffffffffffffffff1602179055506101008201518160080155905050600d600081548092919061393390615010565b91905055506141c7565b6040518060400160405280600581526020017f73706f727400000000000000000000000000000000000000000000000000000081525080519060200120828051906020012003613af257604051806101200160405280858152602001848152602001600e5481526020018281526020016000815260200160008152602001600081526020013373ffffffffffffffffffffffffffffffffffffffff16815260200160008152506013836040516139f39190614f9b565b90815260200160405180910390206000600e5481526020019081526020016000206000820151816000019080519060200190613a309291906141e0565b506020820151816001019080519060200190613a4d9291906141e0565b5060408201518160020155606082015181600301556080820151816004015560a0820151816005015560c0820151816006015560e08201518160070160006101000a81548173ffffffffffffffffffffffffffffffffffffffff021916908373ffffffffffffffffffffffffffffffffffffffff1602179055506101008201518160080155905050600e6000815480929190613ae890615010565b91905055506141c6565b6040518060400160405280600681526020017f74726176656c000000000000000000000000000000000000000000000000000081525080519060200120828051906020012003613ca757604051806101200160405280858152602001848152602001600f5481526020018281526020016000815260200160008152602001600081526020013373ffffffffffffffffffffffffffffffffffffffff1681526020016000815250601383604051613ba89190614f9b565b90815260200160405180910390206000600f5481526020019081526020016000206000820151816000019080519060200190613be59291906141e0565b506020820151816001019080519060200190613c029291906141e0565b5060408201518160020155606082015181600301556080820151816004015560a0820151816005015560c0820151816006015560e08201518160070160006101000a81548173ffffffffffffffffffffffffffffffffffffffff021916908373ffffffffffffffffffffffffffffffffffffffff1602179055506101008201518160080155905050600f6000815480929190613c9d90615010565b91905055506141c5565b6040518060400160405280600981526020017f766f6c756e74656572000000000000000000000000000000000000000000000081525080519060200120828051906020012003613e5c5760405180610120016040528085815260200184815260200160105481526020018281526020016000815260200160008152602001600081526020013373ffffffffffffffffffffffffffffffffffffffff1681526020016000815250601383604051613d5d9190614f9b565b9081526020016040518091039020600060105481526020019081526020016000206000820151816000019080519060200190613d9a9291906141e0565b506020820151816001019080519060200190613db79291906141e0565b5060408201518160020155606082015181600301556080820151816004015560a0820151816005015560c0820151816006015560e08201518160070160006101000a81548173ffffffffffffffffffffffffffffffffffffffff021916908373ffffffffffffffffffffffffffffffffffffffff160217905550610100820151816008015590505060106000815480929190613e5290615010565b91905055506141c4565b6040518060400160405280600481526020017f7769736800000000000000000000000000000000000000000000000000000000815250805190602001208280519060200120036140115760405180610120016040528085815260200184815260200160115481526020018281526020016000815260200160008152602001600081526020013373ffffffffffffffffffffffffffffffffffffffff1681526020016000815250601383604051613f129190614f9b565b9081526020016040518091039020600060115481526020019081526020016000206000820151816000019080519060200190613f4f9291906141e0565b506020820151816001019080519060200190613f6c9291906141e0565b5060408201518160020155606082015181600301556080820151816004015560a0820151816005015560c0820151816006015560e08201518160070160006101000a81548173ffffffffffffffffffffffffffffffffffffffff021916908373ffffffffffffffffffffffffffffffffffffffff16021790555061010082015181600801559050506011600081548092919061400790615010565b91905055506141c3565b6040518060400160405280600a81526020017f696e646976696475616c00000000000000000000000000000000000000000000815250805190602001208280519060200120036141c25760405180610120016040528085815260200184815260200160125481526020018281526020016000815260200160008152602001600081526020013373ffffffffffffffffffffffffffffffffffffffff16815260200160008152506013836040516140c79190614f9b565b90815260200160405180910390206000601254815260200190815260200160002060008201518160000190805190602001906141049291906141e0565b5060208201518160010190805190602001906141219291906141e0565b5060408201518160020155606082015181600301556080820151816004015560a0820151816005015560c0820151816006015560e08201518160070160006101000a81548173ffffffffffffffffffffffffffffffffffffffff021916908373ffffffffffffffffffffffffffffffffffffffff1602179055506101008201518160080155905050601260008154809291906141bc90615010565b91905055505b5b5b5b5b5b5b5b5b5b5b5b5b5b5b5b5b5b5b50505050565b60095481565b8280546141ec90615087565b90600052602060002090601f01602090048101928261420e5760008555614255565b82601f1061422757805160ff1916838001178555614255565b82800160010185558215614255579182015b82811115614254578251825591602001919060010190614239565b5b50905061426291906142b9565b5090565b82601781019282156142a8579160200282015b828111156142a75782518290805190602001906142979291906141e0565b5091602001919060010190614279565b5b5090506142b591906142d6565b5090565b5b808211156142d25760008160009055506001016142ba565b5090565b5b808211156142f657600081816142ed91906142fa565b506001016142d7565b5090565b50805461430690615087565b6000825580601f106143185750614337565b601f01602090049060005260206000209081019061433691906142b9565b5b50565b6000819050919050565b61434d8161433a565b82525050565b60006020820190506143686000830184614344565b92915050565b6000604051905090565b600080fd5b600080fd5b600080fd5b600080fd5b6000601f19601f8301169050919050565b7f4e487b7100000000000000000000000000000000000000000000000000000000600052604160045260246000fd5b6143d58261438c565b810181811067ffffffffffffffff821117156143f4576143f361439d565b5b80604052505050565b600061440761436e565b905061441382826143cc565b919050565b600067ffffffffffffffff8211156144335761443261439d565b5b61443c8261438c565b9050602081019050919050565b82818337600083830152505050565b600061446b61446684614418565b6143fd565b90508281526020810184848401111561448757614486614387565b5b614492848285614449565b509392505050565b600082601f8301126144af576144ae614382565b5b81356144bf848260208601614458565b91505092915050565b6144d18161433a565b81146144dc57600080fd5b50565b6000813590506144ee816144c8565b92915050565b600067ffffffffffffffff82111561450f5761450e61439d565b5b602082029050919050565b600080fd5b600061453261452d846144f4565b6143fd565b9050806020840283018581111561454c5761454b61451a565b5b835b8181101561459357803567ffffffffffffffff81111561457157614570614382565b5b80860161457e898261449a565b8552602085019450505060208101905061454e565b5050509392505050565b600082601f8301126145b2576145b1614382565b5b60176145bf84828561451f565b91505092915050565b60008060008060008060c087890312156145e5576145e4614378565b5b600087013567ffffffffffffffff8111156146035761460261437d565b5b61460f89828a0161449a565b965050602087013567ffffffffffffffff8111156146305761462f61437d565b5b61463c89828a0161449a565b955050604087013567ffffffffffffffff81111561465d5761465c61437d565b5b61466989828a0161449a565b945050606061467a89828a016144df565b935050608061468b89828a016144df565b92505060a087013567ffffffffffffffff8111156146ac576146ab61437d565b5b6146b889828a0161459d565b9150509295509295509295565b600080600080608085870312156146df576146de614378565b5b600085013567ffffffffffffffff8111156146fd576146fc61437d565b5b6147098782880161449a565b945050602085013567ffffffffffffffff81111561472a5761472961437d565b5b6147368782880161449a565b9350506040614747878288016144df565b9250506060614758878288016144df565b91505092959194509250565b60008060006060848603121561477d5761477c614378565b5b600084013567ffffffffffffffff81111561479b5761479a61437d565b5b6147a78682870161449a565b93505060206147b8868287016144df565b92505060406147c9868287016144df565b9150509250925092565b600081519050919050565b600082825260208201905092915050565b60005b8381101561480d5780820151818401526020810190506147f2565b8381111561481c576000848401525b50505050565b600061482d826147d3565b61483781856147de565b93506148478185602086016147ef565b6148508161438c565b840191505092915050565b60006080820190506148706000830187614344565b81810360208301526148828186614822565b905081810360408301526148968185614822565b90506148a56060830184614344565b95945050505050565b600080604083850312156148c5576148c4614378565b5b600083013567ffffffffffffffff8111156148e3576148e261437d565b5b6148ef8582860161449a565b9250506020614900858286016144df565b9150509250929050565b600073ffffffffffffffffffffffffffffffffffffffff82169050919050565b60006149358261490a565b9050919050565b6149458161492a565b82525050565b6000610120820190508181036000830152614966818c614822565b9050818103602083015261497a818b614822565b9050614989604083018a614344565b6149966060830189614344565b6149a36080830188614344565b6149b060a0830187614344565b6149bd60c0830186614344565b6149ca60e083018561493c565b6149d8610100830184614344565b9a9950505050505050505050565b60006060820190508181036000830152614a008186614822565b90508181036020830152614a148185614822565b90508181036040830152614a288184614822565b9050949350505050565b60006060820190508181036000830152614a4c8186614822565b90508181036020830152614a608185614822565b9050614a6f6040830184614344565b949350505050565b614a808161492a565b8114614a8b57600080fd5b50565b600081359050614a9d81614a77565b92915050565b600080600060608486031215614abc57614abb614378565b5b600084013567ffffffffffffffff811115614ada57614ad961437d565b5b614ae68682870161449a565b9350506020614af7868287016144df565b9250506040614b0886828701614a8e565b9150509250925092565b60008115159050919050565b614b2781614b12565b82525050565b6000602082019050614b426000830184614b1e565b92915050565b614b5181614b12565b8114614b5c57600080fd5b50565b600081359050614b6e81614b48565b92915050565b60008060008060808587031215614b8e57614b8d614378565b5b600085013567ffffffffffffffff811115614bac57614bab61437d565b5b614bb88782880161449a565b9450506020614bc9878288016144df565b9350506040614bda878288016144df565b9250506060614beb87828801614b5f565b91505092959194509250565b60008060008060008060c08789031215614c1457614c13614378565b5b600087013567ffffffffffffffff811115614c3257614c3161437d565b5b614c3e89828a0161449a565b9650506020614c4f89828a016144df565b9550506040614c6089828a016144df565b945050606087013567ffffffffffffffff811115614c8157614c8061437d565b5b614c8d89828a0161449a565b935050608087013567ffffffffffffffff811115614cae57614cad61437d565b5b614cba89828a0161449a565b92505060a087013567ffffffffffffffff811115614cdb57614cda61437d565b5b614ce789828a0161449a565b9150509295509295509295565b60008060008060008060c08789031215614d1157614d10614378565b5b600087013567ffffffffffffffff811115614d2f57614d2e61437d565b5b614d3b89828a0161449a565b9650506020614d4c89828a016144df565b9550506040614d5d89828a016144df565b945050606087013567ffffffffffffffff811115614d7e57614d7d61437d565b5b614d8a89828a0161449a565b9350506080614d9b89828a016144df565b92505060a087013567ffffffffffffffff811115614dbc57614dbb61437d565b5b614dc889828a0161449a565b9150509295509295509295565b600080600080600060a08688031215614df157614df0614378565b5b600086013567ffffffffffffffff811115614e0f57614e0e61437d565b5b614e1b8882890161449a565b955050602086013567ffffffffffffffff811115614e3c57614e3b61437d565b5b614e488882890161449a565b9450506040614e59888289016144df565b9350506060614e6a888289016144df565b925050608086013567ffffffffffffffff811115614e8b57614e8a61437d565b5b614e978882890161459d565b9150509295509295909350565b60008060008060808587031215614ebe57614ebd614378565b5b600085013567ffffffffffffffff811115614edc57614edb61437d565b5b614ee88782880161449a565b945050602085013567ffffffffffffffff811115614f0957614f0861437d565b5b614f158782880161449a565b935050604085013567ffffffffffffffff811115614f3657614f3561437d565b5b614f428782880161449a565b9250506060614f53878288016144df565b91505092959194509250565b600081905092915050565b6000614f75826147d3565b614f7f8185614f5f565b9350614f8f8185602086016147ef565b80840191505092915050565b6000614fa78284614f6a565b915081905092915050565b7f4e487b7100000000000000000000000000000000000000000000000000000000600052603260045260246000fd5b7f4e487b7100000000000000000000000000000000000000000000000000000000600052601160045260246000fd5b600061501b8261433a565b91507fffffffffffffffffffffffffffffffffffffffffffffffffffffffffffffffff820361504d5761504c614fe1565b5b600182019050919050565b7f4e487b7100000000000000000000000000000000000000000000000000000000600052602260045260246000fd5b6000600282049050600182168061509f57607f821691505b6020821081036150b2576150b1615058565b5b50919050565b60006150c38261433a565b9150600082036150d6576150d5614fe1565b5b60018203905091905056fea2646970667358221220088eb5aac7f4307e2576cfc52bbeefbcfb839cb5865bc3454d5ea9d2834652d864736f6c634300080d0033",
  "immutableReferences": {},
  "source": "// SPDX-License-Identifier: LGPL-3.0-only\npragma solidity ^0.8.12;\n\ncontract Storage {\n  /* Create variables for total number of requests in each category strings for\n  each will be defined in the UI. */\n  uint256 public medicalRequests;\n  uint256 public memorialRequests;\n  uint256 public emergencyRequests;\n  uint256 public nonprofitRequests;\n  uint256 public educationRequests;\n  uint256 public animalRequests;\n  uint256 public environmentRequests;\n  uint256 public businessRequests;\n  uint256 public communityRequests;\n  uint256 public competitionRequests;\n  uint256 public creativeRequests;\n  uint256 public eventRequests;\n  uint256 public religiousRequests;\n  uint256 public familyRequests;\n  uint256 public sportRequests;\n  uint256 public travelRequests;\n  uint256 public volunteerRequests;\n  uint256 public wishRequests;\n  uint256 public individualRequests;\n\n  struct Request {\n      string title;\n      string description;\n      uint256 id;\n      // Amount Requested\n      uint256 amount;\n      uint256 totalOrganizers;\n      uint256 totalContributors;\n      uint256 score;\n      address creator;\n      uint256 totalPosts;\n  }\n\n  struct Contributor {\n    uint256 amountDonated;\n    string name;\n    string contributorAddress;\n    uint256 id;\n  }\n\n  struct Organizer {\n    string name;\n    string role;\n    uint256 id;\n    /* Coins are chosen based on being meant for medium of exchange with high\n    transaction volume at the time. ADA and ETH are there aswell for smart\n    contract support if people are interested in using that. */\n    string[23] addresses;\n    /* index 0 = btcAddress;\n    index 1 = bchAddress;\n    index 2 = adaAddress;\n    index 3 = dashAddress;\n    index 4 = dogeAddress;\n    index 5 = ethAddress;\n    index 6 = ltcAddress;\n    index 7 = xmrAddress;\n    index 8 = zecAddress;\n\n    Extras just for support for other chains people may want to use if volume\n    drops off in the future maybe re-evaluate showing these in UI to keep things\n    more compact/clean.\n\n    index 9 = algoAddress;\n    index 10 = avaxAddress;\n    index 11 = bscAddress;\n    index 12 = atomAddress;\n    index 13 = egldAddress;\n    index 14 = etcAddress;\n    index 15 = ftmAddress;\n    index 16 = oneAddress;\n    index 17 = lunaAddress;\n    index 18 = dotAddress;\n    index 19 = maticAddress;\n    index 20 = solAddress;\n    index 21 = xlmAddress;\n    index 22 = xrpAddress; */\n  }\n\n  // Date can be passed in from UI as UTC Time\n  struct Post {\n    string title;\n    string description;\n    string date;\n  }\n\n  // category => id of request\n  mapping(string => mapping(uint256 => Request)) public Requests;\n  // category => id of request => id of contributor\n  mapping(string => mapping(uint256 => mapping(uint256 => Contributor))) public Contributors;\n  // category => id of request => id of organizer\n  mapping(string => mapping(uint256 => mapping(uint256 => Organizer))) public Organizers;\n  // category => id of request => Polygon address of user\n  mapping(string => mapping(uint256 => mapping(address => bool))) public isVoted;\n  // category => id of request => id of post\n  mapping(string => mapping(uint256 => mapping(uint256 => Post))) public Posts;\n\n  function createRequest (\n    string memory _title,\n    string memory _description,\n    string memory _category,\n    uint256 _amount\n  ) public {\n    /* Sorting into category variables makes the code more complex with large if\n    else statements however may be useful in the case of the frontend being\n    shutdown and needing to be redeployed with all the data in the proper location */\n    if (keccak256(bytes(_category)) == keccak256(bytes(\"medical\"))) {\n        Requests[_category][medicalRequests] = Request(_title, _description, medicalRequests, _amount, 0, 0, 0, msg.sender, 0);\n        medicalRequests++;\n    } else if (keccak256(bytes(_category)) == keccak256(bytes(\"memorial\"))) {\n        Requests[_category][memorialRequests] = Request(_title, _description, memorialRequests, _amount, 0, 0, 0, msg.sender, 0);\n        memorialRequests++;\n    } else if (keccak256(bytes(_category)) == keccak256(bytes(\"emergency\"))) {\n        Requests[_category][emergencyRequests] = Request(_title, _description, emergencyRequests, _amount, 0, 0, 0, msg.sender, 0);\n        emergencyRequests++;\n    } else if (keccak256(bytes(_category)) == keccak256(bytes(\"nonprofit\"))) {\n        Requests[_category][nonprofitRequests] = Request(_title, _description, nonprofitRequests, _amount, 0, 0, 0, msg.sender, 0);\n        nonprofitRequests++;\n    } else if (keccak256(bytes(_category)) == keccak256(bytes(\"education\"))) {\n        Requests[_category][educationRequests] = Request(_title, _description, educationRequests, _amount, 0, 0, 0, msg.sender, 0);\n        educationRequests++;\n    } else if (keccak256(bytes(_category)) == keccak256(bytes(\"animal\"))) {\n        Requests[_category][animalRequests] = Request(_title, _description, animalRequests, _amount, 0, 0, 0, msg.sender, 0);\n        animalRequests++;\n    } else if (keccak256(bytes(_category)) == keccak256(bytes(\"environment\"))) {\n        Requests[_category][environmentRequests] = Request(_title, _description, environmentRequests, _amount, 0, 0, 0, msg.sender, 0);\n        environmentRequests++;\n    } else if (keccak256(bytes(_category)) == keccak256(bytes(\"business\"))) {\n        Requests[_category][businessRequests] = Request(_title, _description, businessRequests, _amount, 0, 0, 0, msg.sender, 0);\n        businessRequests++;\n    } else if (keccak256(bytes(_category)) == keccak256(bytes(\"community\"))) {\n        Requests[_category][communityRequests] = Request(_title, _description, communityRequests, _amount, 0, 0, 0, msg.sender, 0);\n        communityRequests++;\n    } else if (keccak256(bytes(_category)) == keccak256(bytes(\"competition\"))) {\n        Requests[_category][competitionRequests] = Request(_title, _description, competitionRequests, _amount, 0, 0, 0, msg.sender, 0);\n        competitionRequests++;\n    } else if (keccak256(bytes(_category)) == keccak256(bytes(\"creative\"))) {\n        Requests[_category][creativeRequests] = Request(_title, _description, creativeRequests, _amount, 0, 0, 0, msg.sender, 0);\n        creativeRequests++;\n    } else if (keccak256(bytes(_category)) == keccak256(bytes(\"event\"))) {\n        Requests[_category][eventRequests] = Request(_title, _description, eventRequests, _amount, 0, 0, 0, msg.sender, 0);\n        eventRequests++;\n    } else if (keccak256(bytes(_category)) == keccak256(bytes(\"religious\"))) {\n        Requests[_category][religiousRequests] = Request(_title, _description, religiousRequests, _amount, 0, 0, 0, msg.sender, 0);\n        religiousRequests++;\n    } else if (keccak256(bytes(_category)) == keccak256(bytes(\"family\"))) {\n        Requests[_category][familyRequests] = Request(_title, _description, familyRequests, _amount, 0, 0, 0, msg.sender, 0);\n        familyRequests++;\n    } else if (keccak256(bytes(_category)) == keccak256(bytes(\"sport\"))) {\n        Requests[_category][sportRequests] = Request(_title, _description, sportRequests, _amount, 0, 0, 0, msg.sender, 0);\n        sportRequests++;\n    } else if (keccak256(bytes(_category)) == keccak256(bytes(\"travel\"))) {\n        Requests[_category][travelRequests] = Request(_title, _description, travelRequests, _amount, 0, 0, 0, msg.sender, 0);\n        travelRequests++;\n    } else if (keccak256(bytes(_category)) == keccak256(bytes(\"volunteer\"))) {\n        Requests[_category][volunteerRequests] = Request(_title, _description, volunteerRequests, _amount, 0, 0, 0, msg.sender, 0);\n        volunteerRequests++;\n    } else if (keccak256(bytes(_category)) == keccak256(bytes(\"wish\"))) {\n        Requests[_category][wishRequests] = Request(_title, _description, wishRequests, _amount, 0, 0, 0, msg.sender, 0);\n        wishRequests++;\n    } else if (keccak256(bytes(_category)) == keccak256(bytes(\"individual\"))) {\n        Requests[_category][individualRequests] = Request(_title, _description, individualRequests, _amount, 0, 0, 0, msg.sender, 0);\n        individualRequests++;\n    }\n  }\n\n  /* Name should also have a default value of Anonymous in the UI for those who\n    don't feel safe connecting names to addresses.\n  */\n  function addOrganzier (\n    string memory _name,\n    string memory _role,\n    string memory _category,\n    uint256 _requestId,\n    uint256 _totalOrganizers,\n    string[23] memory _addresses\n  ) public {\n    require(msg.sender == Requests[_category][_requestId].creator);\n    /* Not all addresses need to be assigned a value. In the UI any addresses not\n    assigned by default should be set to \"\" which would mean an empty string.\n    That will cause setting the mapping data to not fail. Role will also be set\n    through the UI  */\n    Organizers[_category][_requestId][_totalOrganizers] = Organizer(\n      _name, _role, _totalOrganizers, [_addresses[0], _addresses[1], _addresses[2],\n      _addresses[3], _addresses[4], _addresses[5], _addresses[6], _addresses[7],\n      _addresses[8], _addresses[9], _addresses[10], _addresses[11], _addresses[12],\n      _addresses[13], _addresses[14], _addresses[15], _addresses[16], _addresses[17],\n      _addresses[18], _addresses[19], _addresses[20], _addresses[21], _addresses[22]      ]\n    );\n    Requests[_category][_requestId].totalOrganizers++;\n  }\n\n  function editOrganzier (\n    string memory _role,\n    string memory _category,\n    uint256 _requestId,\n    uint256 _organizerId,\n    string[23] memory _addresses\n  ) public {\n    require(msg.sender == Requests[_category][_requestId].creator);\n    string memory _name = Organizers[_category][_requestId][_organizerId].name;\n    /* This method will cost extra gas and can be improved upon. This can be\n    solved by either taking in less addresses or another way. In it's current\n    form it will call the current data from the blockchain and input it into the\n    UI and once resubmitted you will paying that extra gas to rewrite the same\n    address again for those unchanged. The goal would be to save that extra gas\n    cost so only the address added/changed is what's sent back. */\n    Organizers[_category][_requestId][_organizerId] = Organizer(\n      _name, _role, _organizerId, [_addresses[0], _addresses[1], _addresses[2],\n      _addresses[3], _addresses[4], _addresses[5], _addresses[6], _addresses[7],\n      _addresses[8], _addresses[9], _addresses[10], _addresses[11], _addresses[12],\n      _addresses[13], _addresses[14], _addresses[15], _addresses[16], _addresses[17],\n      _addresses[18], _addresses[19], _addresses[20], _addresses[21], _addresses[22]\n      ]\n    );\n  }\n\n  /* Values come from blockchain calls. Title should also be immutable in case of\n  an account getting hacked or a scammer changing the name and description of a\n  request. Another alternative is to allow this to be changed but have the entire\n  list of Contributors wiped. */\n  function editRequest (\n    string memory _description,\n    string memory _category,\n    uint256 _requestId,\n    uint256 _amount\n  ) public {\n    require(msg.sender == Requests[_category][_requestId].creator);\n    string memory _title = Requests[_category][_requestId].title;\n    uint256 _totalOrganizers = Requests[_category][_requestId].totalOrganizers;\n    uint256 _totalContributors = Requests[_category][_requestId].totalContributors;\n    uint256 _score = Requests[_category][_requestId].score;\n    address _creator = Requests[_category][_requestId].creator;\n    uint256 _totalPosts = Requests[_category][_requestId].totalPosts;\n    \n    Requests[_category][_requestId] = Request(_title, _description, _requestId, _amount, _totalOrganizers, _totalContributors, _score, _creator, _totalPosts);\n  }\n\n  /* This feature may need to be disabled in UI in the future if it is used harmfully.\n  This feature can easily be exploited through multiple self made accounts or even\n  bot made to upvote scam requests to encourage people to donate to that request over\n  a potentially real one. Therefore this should not be used as a feature to sort\n  through requests and determine which is best to display first. */\n  function voteRequest (\n    string memory _category,\n    uint256 _requestId,\n    uint256 _score,\n    bool vote\n  ) public {\n    require(isVoted[_category][_requestId][msg.sender] == false);\n    string memory _title = Requests[_category][_requestId].title;\n    string memory _description = Requests[_category][_requestId].description;\n    uint256 _amount = Requests[_category][_requestId].amount;\n    uint256 _totalOrganizers = Requests[_category][_requestId].totalOrganizers;\n    uint256 _totalContributors = Requests[_category][_requestId].totalContributors;\n    address _creator = Requests[_category][_requestId].creator;\n    uint256 _totalPosts = Requests[_category][_requestId].totalPosts;\n    /* Downvoting can cause a large majority of people to downvote a real donation\n    request just bekcause it offends them or doesn't align with their views. This\n    should not be solely used as a way to sort requests in the UI for this reason,\n    hoever it should be kept in the system to alert people of something that may be\n    a faker request or a scammer. The other flaw with this system is that with the\n    low gas fees of hosting on a layer 2 protocol people can make many accounts and\n    send small balances to boost the upvotes on their request even if it is a scam.\n    Therefore this system may need to be disabled in the UI in the future if that is\n    the case. */\n\n    // bool = true then upvote else downvote\n    if (vote) {\n      _score++;\n    } else {\n      _score--;\n    }\n\n    Requests[_category][_requestId] = Request(_title, _description, _requestId, _amount, _totalOrganizers, _totalContributors, _score, _creator, _totalPosts);\n  }\n\n  function addContributor(\n      string memory _category,\n      uint256 _requestId,\n      uint256 _totalContributors,\n      string memory _name,\n      uint256 _amountDonated,\n      string memory _contributorAddress\n  ) public {\n    // _name & _contributorAddress in UI should be allowed to be listed as anonymous\n    Contributors[_category][_requestId][_totalContributors] = Contributor(_amountDonated, _name, _contributorAddress, _totalContributors);\n    Requests[_category][_requestId].totalContributors++;\n  }\n\n  function addPost (\n    string memory _category,\n    uint256 _requestId,\n    uint256 _totalPosts,\n    string memory _title,\n    string memory _description,\n    string memory _date\n  ) public {\n    require(msg.sender == Requests[_category][_requestId].creator);\n    Posts[_category][_requestId][_totalPosts] = Post(_title, _description, _date);\n    Requests[_category][_requestId].totalPosts++;\n\n  }\n}\n",
  "sourcePath": "/home/user/Documents/donation/src/contracts/Storage.sol",
  "compiler": {
    "name": "solc",
    "version": "0.8.13+commit.abaa5c0e.Emscripten.clang"
  },
  "schemaVersion": "3.4.1",
  "updatedAt": "2022-03-17T17:40:45.836Z",
  "devdoc": {
    "kind": "dev",
    "methods": {},
    "version": 1
  },
  "userdoc": {
    "kind": "user",
    "methods": {},
    "version": 1
  }
}