{
  "contractName": "Storage",
  "abi": [
    {
      "inputs": [
        {
          "internalType": "string",
          "name": "",
          "type": "string"
        },
        {
          "internalType": "uint256",
          "name": "",
          "type": "uint256"
        }
      ],
      "name": "Contributors",
      "outputs": [
        {
          "internalType": "uint256",
          "name": "amountDonated",
          "type": "uint256"
        },
        {
          "internalType": "string",
          "name": "name",
          "type": "string"
        },
        {
          "internalType": "string",
          "name": "contributorAddress",
          "type": "string"
        }
      ],
      "stateMutability": "view",
      "type": "function"
    },
    {
      "inputs": [
        {
          "internalType": "string",
          "name": "",
          "type": "string"
        },
        {
          "internalType": "uint256",
          "name": "",
          "type": "uint256"
        },
        {
          "internalType": "uint256",
          "name": "",
          "type": "uint256"
        }
      ],
      "name": "Organizers",
      "outputs": [
        {
          "internalType": "string",
          "name": "name",
          "type": "string"
        },
        {
          "internalType": "string",
          "name": "role",
          "type": "string"
        },
        {
          "internalType": "uint256",
          "name": "id",
          "type": "uint256"
        }
      ],
      "stateMutability": "view",
      "type": "function"
    },
    {
      "inputs": [
        {
          "internalType": "string",
          "name": "_title",
          "type": "string"
        },
        {
          "internalType": "string",
          "name": "_description",
          "type": "string"
        },
        {
          "internalType": "string",
          "name": "_category",
          "type": "string"
        },
        {
          "internalType": "uint256",
          "name": "_amount",
          "type": "uint256"
        }
      ],
      "name": "createRequest",
      "outputs": [],
      "stateMutability": "nonpayable",
      "type": "function"
    },
    {
      "inputs": [
        {
          "internalType": "string",
          "name": "_name",
          "type": "string"
        },
        {
          "internalType": "string",
          "name": "_role",
          "type": "string"
        },
        {
          "internalType": "string",
          "name": "_category",
          "type": "string"
        },
        {
          "internalType": "uint256",
          "name": "_requestId",
          "type": "uint256"
        },
        {
          "internalType": "uint256",
          "name": "_totalOrganizers",
          "type": "uint256"
        },
        {
          "internalType": "string[24]",
          "name": "_addresses",
          "type": "string[24]"
        }
      ],
      "name": "initalOrganzier",
      "outputs": [],
      "stateMutability": "nonpayable",
      "type": "function"
    }
  ],
  "bytecode": "0x608060405234801561001057600080fd5b50612498806100206000396000f3fe608060405234801561001057600080fd5b506004361061004c5760003560e01c80637be9d69e146100515780639251c1c41461006d578063c5dbf1fe1461009f578063f82f7bdd146100d1575b600080fd5b61006b60048036038101906100669190611fdb565b6100ed565b005b610087600480360381019061008291906120d8565b61048e565b604051610096939291906121cb565b60405180910390f35b6100b960048036038101906100b49190612210565b6105eb565b6040516100c89392919061227f565b60405180910390f35b6100eb60048036038101906100e691906122c4565b610755565b005b60405180608001604052808781526020018681526020018381526020016040518061030001604052808460006018811061012a5761012961237f565b5b60200201518152602001846001601881106101485761014761237f565b5b60200201518152602001846002601881106101665761016561237f565b5b60200201518152602001846003601881106101845761018361237f565b5b60200201518152602001846004601881106101a2576101a161237f565b5b60200201518152602001846005601881106101c0576101bf61237f565b5b60200201518152602001846006601881106101de576101dd61237f565b5b60200201518152602001846007601881106101fc576101fb61237f565b5b602002015181526020018460086018811061021a5761021961237f565b5b60200201518152602001846009601881106102385761023761237f565b5b6020020151815260200184600a601881106102565761025561237f565b5b6020020151815260200184600b601881106102745761027361237f565b5b6020020151815260200184600c601881106102925761029161237f565b5b6020020151815260200184600d601881106102b0576102af61237f565b5b6020020151815260200184600e601881106102ce576102cd61237f565b5b6020020151815260200184600f601881106102ec576102eb61237f565b5b602002015181526020018460106018811061030a5761030961237f565b5b60200201518152602001846011601881106103285761032761237f565b5b60200201518152602001846012601881106103465761034561237f565b5b60200201518152602001846013601881106103645761036361237f565b5b60200201518152602001846014601881106103825761038161237f565b5b60200201518152602001846015601881106103a05761039f61237f565b5b60200201518152602001846016601881106103be576103bd61237f565b5b60200201518152602001846017601881106103dc576103db61237f565b5b60200201518152508152506015856040516103f791906123ea565b9081526020016040518091039020600085815260200190815260200160002060008481526020019081526020016000206000820151816000019080519060200190610443929190611c1d565b506020820151816001019080519060200190610460929190611c1d565b5060408201518160020155606082015181600301906018610482929190611ca3565b50905050505050505050565b601482805160208101820180518482526020830160208501208183528095505050505050602052806000526040600020600091509150508060000154908060010180546104da90612430565b80601f016020809104026020016040519081016040528092919081815260200182805461050690612430565b80156105535780601f1061052857610100808354040283529160200191610553565b820191906000526020600020905b81548152906001019060200180831161053657829003601f168201915b50505050509080600201805461056890612430565b80601f016020809104026020016040519081016040528092919081815260200182805461059490612430565b80156105e15780601f106105b6576101008083540402835291602001916105e1565b820191906000526020600020905b8154815290600101906020018083116105c457829003601f168201915b5050505050905083565b601583805160208101820180518482526020830160208501208183528095505050505050602052816000526040600020602052806000526040600020600092509250505080600001805461063e90612430565b80601f016020809104026020016040519081016040528092919081815260200182805461066a90612430565b80156106b75780601f1061068c576101008083540402835291602001916106b7565b820191906000526020600020905b81548152906001019060200180831161069a57829003601f168201915b5050505050908060010180546106cc90612430565b80601f01602080910402602001604051908101604052809291908181526020018280546106f890612430565b80156107455780601f1061071a57610100808354040283529160200191610745565b820191906000526020600020905b81548152906001019060200180831161072857829003601f168201915b5050505050908060020154905083565b6040518060400160405280600781526020017f6d65646963616c00000000000000000000000000000000000000000000000000815250805190602001208280519060200120141561086b576040518060c0016040528085815260200184815260200160005481526020018281526020016000815260200160008152506013836040516107e191906123ea565b9081526020016040518091039020600080548152602001908152602001600020600082015181600001908051906020019061081d929190611c1d565b50602082015181600101908051906020019061083a929190611c1d565b5060408201518160020155606082015181600301556080820151816004015560a08201518160050155905050611c17565b6040518060400160405280600881526020017f6d656d6f7269616c0000000000000000000000000000000000000000000000008152508051906020012082805190602001201415610982576040518060c0016040528085815260200184815260200160015481526020018281526020016000815260200160008152506013836040516108f791906123ea565b9081526020016040518091039020600060015481526020019081526020016000206000820151816000019080519060200190610934929190611c1d565b506020820151816001019080519060200190610951929190611c1d565b5060408201518160020155606082015181600301556080820151816004015560a08201518160050155905050611c16565b6040518060400160405280600981526020017f656d657267656e637900000000000000000000000000000000000000000000008152508051906020012082805190602001201415610a99576040518060c001604052808581526020018481526020016002548152602001828152602001600081526020016000815250601383604051610a0e91906123ea565b9081526020016040518091039020600060025481526020019081526020016000206000820151816000019080519060200190610a4b929190611c1d565b506020820151816001019080519060200190610a68929190611c1d565b5060408201518160020155606082015181600301556080820151816004015560a08201518160050155905050611c15565b6040518060400160405280600981526020017f6e6f6e70726f66697400000000000000000000000000000000000000000000008152508051906020012082805190602001201415610bb0576040518060c001604052808581526020018481526020016003548152602001828152602001600081526020016000815250601383604051610b2591906123ea565b9081526020016040518091039020600060035481526020019081526020016000206000820151816000019080519060200190610b62929190611c1d565b506020820151816001019080519060200190610b7f929190611c1d565b5060408201518160020155606082015181600301556080820151816004015560a08201518160050155905050611c14565b6040518060400160405280600981526020017f656475636174696f6e00000000000000000000000000000000000000000000008152508051906020012082805190602001201415610cc7576040518060c001604052808581526020018481526020016004548152602001828152602001600081526020016000815250601383604051610c3c91906123ea565b9081526020016040518091039020600060045481526020019081526020016000206000820151816000019080519060200190610c79929190611c1d565b506020820151816001019080519060200190610c96929190611c1d565b5060408201518160020155606082015181600301556080820151816004015560a08201518160050155905050611c13565b6040518060400160405280600681526020017f616e696d616c00000000000000000000000000000000000000000000000000008152508051906020012082805190602001201415610dde576040518060c001604052808581526020018481526020016005548152602001828152602001600081526020016000815250601383604051610d5391906123ea565b9081526020016040518091039020600060055481526020019081526020016000206000820151816000019080519060200190610d90929190611c1d565b506020820151816001019080519060200190610dad929190611c1d565b5060408201518160020155606082015181600301556080820151816004015560a08201518160050155905050611c12565b6040518060400160405280600b81526020017f656e7669726f6e6d656e740000000000000000000000000000000000000000008152508051906020012082805190602001201415610ef5576040518060c001604052808581526020018481526020016006548152602001828152602001600081526020016000815250601383604051610e6a91906123ea565b9081526020016040518091039020600060065481526020019081526020016000206000820151816000019080519060200190610ea7929190611c1d565b506020820151816001019080519060200190610ec4929190611c1d565b5060408201518160020155606082015181600301556080820151816004015560a08201518160050155905050611c11565b6040518060400160405280600881526020017f627573696e657373000000000000000000000000000000000000000000000000815250805190602001208280519060200120141561100c576040518060c001604052808581526020018481526020016007548152602001828152602001600081526020016000815250601383604051610f8191906123ea565b9081526020016040518091039020600060075481526020019081526020016000206000820151816000019080519060200190610fbe929190611c1d565b506020820151816001019080519060200190610fdb929190611c1d565b5060408201518160020155606082015181600301556080820151816004015560a08201518160050155905050611c10565b6040518060400160405280600981526020017f636f6d6d756e69747900000000000000000000000000000000000000000000008152508051906020012082805190602001201415611123576040518060c00160405280858152602001848152602001600854815260200182815260200160008152602001600081525060138360405161109891906123ea565b90815260200160405180910390206000600854815260200190815260200160002060008201518160000190805190602001906110d5929190611c1d565b5060208201518160010190805190602001906110f2929190611c1d565b5060408201518160020155606082015181600301556080820151816004015560a08201518160050155905050611c0f565b6040518060400160405280600b81526020017f636f6d7065746974696f6e000000000000000000000000000000000000000000815250805190602001208280519060200120141561123a576040518060c0016040528085815260200184815260200160095481526020018281526020016000815260200160008152506013836040516111af91906123ea565b90815260200160405180910390206000600954815260200190815260200160002060008201518160000190805190602001906111ec929190611c1d565b506020820151816001019080519060200190611209929190611c1d565b5060408201518160020155606082015181600301556080820151816004015560a08201518160050155905050611c0e565b6040518060400160405280600881526020017f63726561746976650000000000000000000000000000000000000000000000008152508051906020012082805190602001201415611351576040518060c00160405280858152602001848152602001600a5481526020018281526020016000815260200160008152506013836040516112c691906123ea565b90815260200160405180910390206000600a5481526020019081526020016000206000820151816000019080519060200190611303929190611c1d565b506020820151816001019080519060200190611320929190611c1d565b5060408201518160020155606082015181600301556080820151816004015560a08201518160050155905050611c0d565b6040518060400160405280600581526020017f6576656e740000000000000000000000000000000000000000000000000000008152508051906020012082805190602001201415611468576040518060c00160405280858152602001848152602001600b5481526020018281526020016000815260200160008152506013836040516113dd91906123ea565b90815260200160405180910390206000600b548152602001908152602001600020600082015181600001908051906020019061141a929190611c1d565b506020820151816001019080519060200190611437929190611c1d565b5060408201518160020155606082015181600301556080820151816004015560a08201518160050155905050611c0c565b6040518060400160405280600981526020017f72656c6967696f75730000000000000000000000000000000000000000000000815250805190602001208280519060200120141561157f576040518060c00160405280858152602001848152602001600c5481526020018281526020016000815260200160008152506013836040516114f491906123ea565b90815260200160405180910390206000600c5481526020019081526020016000206000820151816000019080519060200190611531929190611c1d565b50602082015181600101908051906020019061154e929190611c1d565b5060408201518160020155606082015181600301556080820151816004015560a08201518160050155905050611c0b565b6040518060400160405280600681526020017f66616d696c7900000000000000000000000000000000000000000000000000008152508051906020012082805190602001201415611696576040518060c00160405280858152602001848152602001600d54815260200182815260200160008152602001600081525060138360405161160b91906123ea565b90815260200160405180910390206000600d5481526020019081526020016000206000820151816000019080519060200190611648929190611c1d565b506020820151816001019080519060200190611665929190611c1d565b5060408201518160020155606082015181600301556080820151816004015560a08201518160050155905050611c0a565b6040518060400160405280600581526020017f73706f727400000000000000000000000000000000000000000000000000000081525080519060200120828051906020012014156117ad576040518060c00160405280858152602001848152602001600e54815260200182815260200160008152602001600081525060138360405161172291906123ea565b90815260200160405180910390206000600e548152602001908152602001600020600082015181600001908051906020019061175f929190611c1d565b50602082015181600101908051906020019061177c929190611c1d565b5060408201518160020155606082015181600301556080820151816004015560a08201518160050155905050611c09565b6040518060400160405280600681526020017f74726176656c000000000000000000000000000000000000000000000000000081525080519060200120828051906020012014156118c4576040518060c00160405280858152602001848152602001600f54815260200182815260200160008152602001600081525060138360405161183991906123ea565b90815260200160405180910390206000600f5481526020019081526020016000206000820151816000019080519060200190611876929190611c1d565b506020820151816001019080519060200190611893929190611c1d565b5060408201518160020155606082015181600301556080820151816004015560a08201518160050155905050611c08565b6040518060400160405280600981526020017f766f6c756e74656572000000000000000000000000000000000000000000000081525080519060200120828051906020012014156119db576040518060c00160405280858152602001848152602001601054815260200182815260200160008152602001600081525060138360405161195091906123ea565b908152602001604051809103902060006010548152602001908152602001600020600082015181600001908051906020019061198d929190611c1d565b5060208201518160010190805190602001906119aa929190611c1d565b5060408201518160020155606082015181600301556080820151816004015560a08201518160050155905050611c07565b6040518060400160405280600481526020017f77697368000000000000000000000000000000000000000000000000000000008152508051906020012082805190602001201415611af2576040518060c001604052808581526020018481526020016011548152602001828152602001600081526020016000815250601383604051611a6791906123ea565b9081526020016040518091039020600060115481526020019081526020016000206000820151816000019080519060200190611aa4929190611c1d565b506020820151816001019080519060200190611ac1929190611c1d565b5060408201518160020155606082015181600301556080820151816004015560a08201518160050155905050611c06565b6040518060400160405280600a81526020017f696e646976696475616c000000000000000000000000000000000000000000008152508051906020012082805190602001201415611c05576040518060c001604052808581526020018481526020016012548152602001828152602001600081526020016000815250601383604051611b7e91906123ea565b9081526020016040518091039020600060125481526020019081526020016000206000820151816000019080519060200190611bbb929190611c1d565b506020820151816001019080519060200190611bd8929190611c1d565b5060408201518160020155606082015181600301556080820151816004015560a082015181600501559050505b5b5b5b5b5b5b5b5b5b5b5b5b5b5b5b5b5b5b50505050565b828054611c2990612430565b90600052602060002090601f016020900481019282611c4b5760008555611c92565b82601f10611c6457805160ff1916838001178555611c92565b82800160010185558215611c92579182015b82811115611c91578251825591602001919060010190611c76565b5b509050611c9f9190611cf6565b5090565b8260188101928215611ce5579160200282015b82811115611ce4578251829080519060200190611cd4929190611c1d565b5091602001919060010190611cb6565b5b509050611cf29190611d13565b5090565b5b80821115611d0f576000816000905550600101611cf7565b5090565b5b80821115611d335760008181611d2a9190611d37565b50600101611d14565b5090565b508054611d4390612430565b6000825580601f10611d555750611d74565b601f016020900490600052602060002090810190611d739190611cf6565b5b50565b6000604051905090565b600080fd5b600080fd5b600080fd5b600080fd5b6000601f19601f8301169050919050565b7f4e487b7100000000000000000000000000000000000000000000000000000000600052604160045260246000fd5b611dde82611d95565b810181811067ffffffffffffffff82111715611dfd57611dfc611da6565b5b80604052505050565b6000611e10611d77565b9050611e1c8282611dd5565b919050565b600067ffffffffffffffff821115611e3c57611e3b611da6565b5b611e4582611d95565b9050602081019050919050565b82818337600083830152505050565b6000611e74611e6f84611e21565b611e06565b905082815260208101848484011115611e9057611e8f611d90565b5b611e9b848285611e52565b509392505050565b600082601f830112611eb857611eb7611d8b565b5b8135611ec8848260208601611e61565b91505092915050565b6000819050919050565b611ee481611ed1565b8114611eef57600080fd5b50565b600081359050611f0181611edb565b92915050565b600067ffffffffffffffff821115611f2257611f21611da6565b5b602082029050919050565b600080fd5b6000611f45611f4084611f07565b611e06565b90508060208402830185811115611f5f57611f5e611f2d565b5b835b81811015611fa657803567ffffffffffffffff811115611f8457611f83611d8b565b5b808601611f918982611ea3565b85526020850194505050602081019050611f61565b5050509392505050565b600082601f830112611fc557611fc4611d8b565b5b6018611fd2848285611f32565b91505092915050565b60008060008060008060c08789031215611ff857611ff7611d81565b5b600087013567ffffffffffffffff81111561201657612015611d86565b5b61202289828a01611ea3565b965050602087013567ffffffffffffffff81111561204357612042611d86565b5b61204f89828a01611ea3565b955050604087013567ffffffffffffffff8111156120705761206f611d86565b5b61207c89828a01611ea3565b945050606061208d89828a01611ef2565b935050608061209e89828a01611ef2565b92505060a087013567ffffffffffffffff8111156120bf576120be611d86565b5b6120cb89828a01611fb0565b9150509295509295509295565b600080604083850312156120ef576120ee611d81565b5b600083013567ffffffffffffffff81111561210d5761210c611d86565b5b61211985828601611ea3565b925050602061212a85828601611ef2565b9150509250929050565b61213d81611ed1565b82525050565b600081519050919050565b600082825260208201905092915050565b60005b8381101561217d578082015181840152602081019050612162565b8381111561218c576000848401525b50505050565b600061219d82612143565b6121a7818561214e565b93506121b781856020860161215f565b6121c081611d95565b840191505092915050565b60006060820190506121e06000830186612134565b81810360208301526121f28185612192565b905081810360408301526122068184612192565b9050949350505050565b60008060006060848603121561222957612228611d81565b5b600084013567ffffffffffffffff81111561224757612246611d86565b5b61225386828701611ea3565b935050602061226486828701611ef2565b925050604061227586828701611ef2565b9150509250925092565b600060608201905081810360008301526122998186612192565b905081810360208301526122ad8185612192565b90506122bc6040830184612134565b949350505050565b600080600080608085870312156122de576122dd611d81565b5b600085013567ffffffffffffffff8111156122fc576122fb611d86565b5b61230887828801611ea3565b945050602085013567ffffffffffffffff81111561232957612328611d86565b5b61233587828801611ea3565b935050604085013567ffffffffffffffff81111561235657612355611d86565b5b61236287828801611ea3565b925050606061237387828801611ef2565b91505092959194509250565b7f4e487b7100000000000000000000000000000000000000000000000000000000600052603260045260246000fd5b600081905092915050565b60006123c482612143565b6123ce81856123ae565b93506123de81856020860161215f565b80840191505092915050565b60006123f682846123b9565b915081905092915050565b7f4e487b7100000000000000000000000000000000000000000000000000000000600052602260045260246000fd5b6000600282049050600182168061244857607f821691505b6020821081141561245c5761245b612401565b5b5091905056fea2646970667358221220628c658cb3fc96bd11649321434d1a3467fa7b8517ef3dc68dc99a9c794877b764736f6c634300080c0033",
  "immutableReferences": {},
  "source": "// SPDX-License-Identifier: LGPL-3.0-only\npragma solidity ^0.8.12;\n\ncontract Storage {\n  /* Create variables for total number of requests in each category strings for\n  each will be defined in the UI. */\n  uint256 medicalRequests;\n  uint256 memorialRequests;\n  uint256 emergencyRequests;\n  uint256 nonprofitRequests;\n  uint256 educationRequests;\n  uint256 animalRequests;\n  uint256 environmentRequests;\n  uint256 businessRequests;\n  uint256 communityRequests;\n  uint256 competitionRequests;\n  uint256 creativeRequests;\n  uint256 eventRequests;\n  uint256 religiousRequests;\n  uint256 familyRequests;\n  uint256 sportRequests;\n  uint256 travelRequests;\n  uint256 volunteerRequests;\n  uint256 wishRequests;\n  uint256 individualRequests;\n\n  struct Request {\n      string title;\n      string description;\n      uint256 id;\n      // Amount Requested\n      uint256 amount;\n      uint256 totalOrganizers;\n      uint256 totalContributors;\n  }\n\n  struct Contributor {\n    uint256 amountDonated;\n    string name;\n    string contributorAddress;\n  }\n\n  struct Organizer {\n    string name;\n    // Will be defined in UI as selectable options similar to category\n    string role;\n    uint256 id;\n    /* Coins are chosen based on being meant for medium of exchange with high\n    transaction volume at the time. ADA and ETH are there aswell for smart\n    contract support if people are interested in using that. */\n    string[24] addresses;\n    /* index 0 = btcAddress;\n    index 1 = bchAddress;\n    index 2 = adaAddress;\n    index 3 = dashAddress;\n    index 4 = dogeAddress;\n    index 5 = ethAddress;\n    index 6 = ltcAddress;\n    index 7 = xmrAddress;\n    index 8 = zecAddress;\n\n    Extras just for support for other chains people may want to use if volume\n    drops off in the future maybe re-evaluate showing these in UI to keep things\n    more compact/clean.\n\n    index 9 = algoAddress;\n    index 10 = avaxAddress;\n    index 11 = bscAddress;\n    index 12 = atomAddress;\n    index 13 = egldAddress;\n    index 14 = etcAddress;\n    index 15 = ftmAddress;\n    index 16 = oneAddress;\n    index 17 = lunaAddress;\n    index 18 = dotAddress;\n    index 19 = maticAddress;\n    index 20 = solAddress;\n    index 21 = xlmAddress;\n    index 22 = trxAddress;\n    index 23 = xrpAddress; */\n  }\n\n  // string = Category\n  mapping (string => mapping (uint256 => Request)) Requests;\n\n  // uint256 = Request ID\n  mapping(string => mapping(uint256 => Contributor)) public Contributors;\n  // category => id of request => id of organizer\n  mapping(string => mapping(uint256 => mapping(uint256 => Organizer))) public Organizers;\n\n  /* function returnCategory(uint256 _category) public returns (uint256){\n    if (_category == 0) {\n      return categories[0];\n    }\n  } */\n\n  function createRequest (\n    string memory _title,\n    string memory _description,\n    string memory _category,\n    uint256 _amount\n  ) public {\n    /* Sorting into category variables makes the code more complex with large if\n    else statements however may be useful in the case of the frontend being\n    shutdown and needing to be redeployed with all the data in the proper location */\n    if (keccak256(bytes(_category)) == keccak256(bytes(\"medical\"))) {\n      Requests[_category][medicalRequests] = Request(_title, _description, medicalRequests, _amount, 0, 0);\n    } else if (keccak256(bytes(_category)) == keccak256(bytes(\"memorial\"))) {\n          Requests[_category][memorialRequests] = Request(_title, _description, memorialRequests, _amount, 0, 0);\n    } else if (keccak256(bytes(_category)) == keccak256(bytes(\"emergency\"))) {\n          Requests[_category][emergencyRequests] = Request(_title, _description, emergencyRequests, _amount, 0, 0);\n    } else if (keccak256(bytes(_category)) == keccak256(bytes(\"nonprofit\"))) {\n          Requests[_category][nonprofitRequests] = Request(_title, _description, nonprofitRequests, _amount, 0, 0);\n    } else if (keccak256(bytes(_category)) == keccak256(bytes(\"education\"))) {\n          Requests[_category][educationRequests] = Request(_title, _description, educationRequests, _amount, 0, 0);\n    } else if (keccak256(bytes(_category)) == keccak256(bytes(\"animal\"))) {\n          Requests[_category][animalRequests] = Request(_title, _description, animalRequests, _amount, 0, 0);\n    } else if (keccak256(bytes(_category)) == keccak256(bytes(\"environment\"))) {\n          Requests[_category][environmentRequests] = Request(_title, _description, environmentRequests, _amount, 0, 0);\n    } else if (keccak256(bytes(_category)) == keccak256(bytes(\"business\"))) {\n          Requests[_category][businessRequests] = Request(_title, _description, businessRequests, _amount, 0, 0);\n    } else if (keccak256(bytes(_category)) == keccak256(bytes(\"community\"))) {\n          Requests[_category][communityRequests] = Request(_title, _description, communityRequests, _amount, 0, 0);\n    } else if (keccak256(bytes(_category)) == keccak256(bytes(\"competition\"))) {\n          Requests[_category][competitionRequests] = Request(_title, _description, competitionRequests, _amount, 0, 0);\n    } else if (keccak256(bytes(_category)) == keccak256(bytes(\"creative\"))) {\n          Requests[_category][creativeRequests] = Request(_title, _description, creativeRequests, _amount, 0, 0);\n    } else if (keccak256(bytes(_category)) == keccak256(bytes(\"event\"))) {\n          Requests[_category][eventRequests] = Request(_title, _description, eventRequests, _amount, 0, 0);\n    } else if (keccak256(bytes(_category)) == keccak256(bytes(\"religious\"))) {\n          Requests[_category][religiousRequests] = Request(_title, _description, religiousRequests, _amount, 0, 0);\n    } else if (keccak256(bytes(_category)) == keccak256(bytes(\"family\"))) {\n          Requests[_category][familyRequests] = Request(_title, _description, familyRequests, _amount, 0, 0);\n    } else if (keccak256(bytes(_category)) == keccak256(bytes(\"sport\"))) {\n          Requests[_category][sportRequests] = Request(_title, _description, sportRequests, _amount, 0, 0);\n    } else if (keccak256(bytes(_category)) == keccak256(bytes(\"travel\"))) {\n          Requests[_category][travelRequests] = Request(_title, _description, travelRequests, _amount, 0, 0);\n    } else if (keccak256(bytes(_category)) == keccak256(bytes(\"volunteer\"))) {\n          Requests[_category][volunteerRequests] = Request(_title, _description, volunteerRequests, _amount, 0, 0);\n    } else if (keccak256(bytes(_category)) == keccak256(bytes(\"wish\"))) {\n          Requests[_category][wishRequests] = Request(_title, _description, wishRequests, _amount, 0, 0);\n    } else if (keccak256(bytes(_category)) == keccak256(bytes(\"individual\"))) {\n          Requests[_category][individualRequests] = Request(_title, _description, individualRequests, _amount, 0, 0);\n    }\n  }\n\n  function initalOrganzier (\n    string memory _name,\n    string memory _role,\n    string memory _category,\n    uint256 _requestId,\n    uint256 _totalOrganizers,\n    string[24] memory _addresses\n  ) public {\n    /* Not all addresses need to be assigned a value. In the UI any addresses not\n    assigned by default should be set to \"\" which would mean an empty string.\n    That will cause setting the mapping data to not fail. Role will also be set\n    through the UI  */\n    Organizers[_category][_requestId][_totalOrganizers] = Organizer(\n      _name, _role, _totalOrganizers, [_addresses[0], _addresses[1], _addresses[2],\n      _addresses[3], _addresses[4], _addresses[5], _addresses[6], _addresses[7],\n      _addresses[8], _addresses[9], _addresses[10], _addresses[11], _addresses[12],\n      _addresses[13], _addresses[14], _addresses[15], _addresses[16], _addresses[17],\n      _addresses[18], _addresses[19], _addresses[20], _addresses[21], _addresses[22],\n      _addresses[23]\n      ]\n    );\n  }\n\n  /* function editOrganziers () {} */\n\n  /* function editRequest (\n    string memory title,\n    string memory description,\n    string memory category,\n    uint256 id\n  ) public {\n\n  } */\n\n  /* function addAddressToOrganizer () public {\n\n  }\n\n  function verifyOrganizerAddress () public {}\n\n  function upvoteRequest () public {}\n\n  function downvoteRequest () public {}\n\n  function updatePost () public {} */\n}\n",
  "sourcePath": "/home/user/Documents/donation/src/contracts/Storage.sol",
  "compiler": {
    "name": "solc",
    "version": "0.8.12+commit.f00d7308.Emscripten.clang"
  },
  "schemaVersion": "3.4.1",
  "updatedAt": "2022-03-14T18:13:08.325Z",
  "devdoc": {
    "kind": "dev",
    "methods": {},
    "version": 1
  },
  "userdoc": {
    "kind": "user",
    "methods": {},
    "version": 1
  }
}